{
	"RUSD-Bridge-MaalChain/TokenBridge.sol": {
		"TokenBridge": {
			"abi": [
				{
					"inputs": [],
					"stateMutability": "nonpayable",
					"type": "constructor"
				},
				{
					"inputs": [],
					"name": "AccessControlBadConfirmation",
					"type": "error"
				},
				{
					"inputs": [
						{
							"internalType": "address",
							"name": "account",
							"type": "address"
						},
						{
							"internalType": "bytes32",
							"name": "neededRole",
							"type": "bytes32"
						}
					],
					"name": "AccessControlUnauthorizedAccount",
					"type": "error"
				},
				{
					"inputs": [],
					"name": "EnforcedPause",
					"type": "error"
				},
				{
					"inputs": [],
					"name": "ExecutionFailed",
					"type": "error"
				},
				{
					"inputs": [],
					"name": "ExpectedPause",
					"type": "error"
				},
				{
					"inputs": [
						{
							"internalType": "address",
							"name": "token",
							"type": "address"
						},
						{
							"internalType": "uint256",
							"name": "required",
							"type": "uint256"
						},
						{
							"internalType": "uint256",
							"name": "available",
							"type": "uint256"
						}
					],
					"name": "InsufficientBalance",
					"type": "error"
				},
				{
					"inputs": [],
					"name": "InvalidAddress",
					"type": "error"
				},
				{
					"inputs": [],
					"name": "InvalidMessageSender",
					"type": "error"
				},
				{
					"inputs": [],
					"name": "InvalidTarget",
					"type": "error"
				},
				{
					"inputs": [
						{
							"internalType": "bytes32",
							"name": "messageId",
							"type": "bytes32"
						}
					],
					"name": "MessageAlreadyFixed",
					"type": "error"
				},
				{
					"inputs": [
						{
							"internalType": "bytes32",
							"name": "messageId",
							"type": "bytes32"
						}
					],
					"name": "MessageAlreadyProcessed",
					"type": "error"
				},
				{
					"inputs": [
						{
							"internalType": "bytes32",
							"name": "messageId",
							"type": "bytes32"
						}
					],
					"name": "MessageNotFound",
					"type": "error"
				},
				{
					"inputs": [],
					"name": "NotInitialized",
					"type": "error"
				},
				{
					"inputs": [],
					"name": "ReentrancyGuardReentrantCall",
					"type": "error"
				},
				{
					"inputs": [
						{
							"internalType": "address",
							"name": "token",
							"type": "address"
						}
					],
					"name": "SafeERC20FailedOperation",
					"type": "error"
				},
				{
					"inputs": [
						{
							"internalType": "address",
							"name": "token",
							"type": "address"
						}
					],
					"name": "TokenNotMapped",
					"type": "error"
				},
				{
					"inputs": [],
					"name": "UnauthorizedCaller",
					"type": "error"
				},
				{
					"anonymous": false,
					"inputs": [
						{
							"indexed": true,
							"internalType": "bytes32",
							"name": "messageId",
							"type": "bytes32"
						},
						{
							"indexed": true,
							"internalType": "address",
							"name": "recipient",
							"type": "address"
						},
						{
							"indexed": false,
							"internalType": "address",
							"name": "tokenAddress",
							"type": "address"
						},
						{
							"indexed": false,
							"internalType": "uint256",
							"name": "value",
							"type": "uint256"
						}
					],
					"name": "FailedMessageFixed",
					"type": "event"
				},
				{
					"anonymous": false,
					"inputs": [
						{
							"indexed": true,
							"internalType": "bytes32",
							"name": "messageId",
							"type": "bytes32"
						},
						{
							"indexed": false,
							"internalType": "bool",
							"name": "success",
							"type": "bool"
						}
					],
					"name": "MessageProcessed",
					"type": "event"
				},
				{
					"anonymous": false,
					"inputs": [
						{
							"indexed": true,
							"internalType": "bytes32",
							"name": "messageId",
							"type": "bytes32"
						},
						{
							"indexed": true,
							"internalType": "address",
							"name": "sender",
							"type": "address"
						},
						{
							"indexed": true,
							"internalType": "address",
							"name": "target",
							"type": "address"
						},
						{
							"indexed": false,
							"internalType": "bytes",
							"name": "data",
							"type": "bytes"
						},
						{
							"indexed": false,
							"internalType": "uint256",
							"name": "nonce",
							"type": "uint256"
						}
					],
					"name": "MessageReceived",
					"type": "event"
				},
				{
					"anonymous": false,
					"inputs": [
						{
							"indexed": true,
							"internalType": "bytes32",
							"name": "messageId",
							"type": "bytes32"
						},
						{
							"indexed": true,
							"internalType": "address",
							"name": "sender",
							"type": "address"
						},
						{
							"indexed": true,
							"internalType": "address",
							"name": "target",
							"type": "address"
						},
						{
							"indexed": false,
							"internalType": "bytes",
							"name": "data",
							"type": "bytes"
						},
						{
							"indexed": false,
							"internalType": "uint256",
							"name": "nonce",
							"type": "uint256"
						}
					],
					"name": "MessageSent",
					"type": "event"
				},
				{
					"anonymous": false,
					"inputs": [
						{
							"indexed": false,
							"internalType": "address",
							"name": "account",
							"type": "address"
						}
					],
					"name": "Paused",
					"type": "event"
				},
				{
					"anonymous": false,
					"inputs": [
						{
							"indexed": false,
							"internalType": "address",
							"name": "oldRemoteBridge",
							"type": "address"
						},
						{
							"indexed": false,
							"internalType": "address",
							"name": "newRemoteBridge",
							"type": "address"
						}
					],
					"name": "RemoteBridgeUpdated",
					"type": "event"
				},
				{
					"anonymous": false,
					"inputs": [
						{
							"indexed": false,
							"internalType": "address",
							"name": "oldRemoteMediator",
							"type": "address"
						},
						{
							"indexed": false,
							"internalType": "address",
							"name": "newRemoteMediator",
							"type": "address"
						}
					],
					"name": "RemoteMediatorUpdated",
					"type": "event"
				},
				{
					"anonymous": false,
					"inputs": [
						{
							"indexed": false,
							"internalType": "uint256",
							"name": "oldGasLimit",
							"type": "uint256"
						},
						{
							"indexed": false,
							"internalType": "uint256",
							"name": "newGasLimit",
							"type": "uint256"
						}
					],
					"name": "RequestGasLimitUpdated",
					"type": "event"
				},
				{
					"anonymous": false,
					"inputs": [
						{
							"indexed": true,
							"internalType": "bytes32",
							"name": "role",
							"type": "bytes32"
						},
						{
							"indexed": true,
							"internalType": "bytes32",
							"name": "previousAdminRole",
							"type": "bytes32"
						},
						{
							"indexed": true,
							"internalType": "bytes32",
							"name": "newAdminRole",
							"type": "bytes32"
						}
					],
					"name": "RoleAdminChanged",
					"type": "event"
				},
				{
					"anonymous": false,
					"inputs": [
						{
							"indexed": true,
							"internalType": "bytes32",
							"name": "role",
							"type": "bytes32"
						},
						{
							"indexed": true,
							"internalType": "address",
							"name": "account",
							"type": "address"
						},
						{
							"indexed": true,
							"internalType": "address",
							"name": "sender",
							"type": "address"
						}
					],
					"name": "RoleGranted",
					"type": "event"
				},
				{
					"anonymous": false,
					"inputs": [
						{
							"indexed": true,
							"internalType": "bytes32",
							"name": "role",
							"type": "bytes32"
						},
						{
							"indexed": true,
							"internalType": "address",
							"name": "account",
							"type": "address"
						},
						{
							"indexed": true,
							"internalType": "address",
							"name": "sender",
							"type": "address"
						}
					],
					"name": "RoleRevoked",
					"type": "event"
				},
				{
					"anonymous": false,
					"inputs": [
						{
							"indexed": true,
							"internalType": "address",
							"name": "localToken",
							"type": "address"
						},
						{
							"indexed": true,
							"internalType": "address",
							"name": "remoteToken",
							"type": "address"
						}
					],
					"name": "TokenMappingUpdated",
					"type": "event"
				},
				{
					"anonymous": false,
					"inputs": [
						{
							"indexed": true,
							"internalType": "address",
							"name": "token",
							"type": "address"
						},
						{
							"indexed": true,
							"internalType": "address",
							"name": "to",
							"type": "address"
						},
						{
							"indexed": false,
							"internalType": "uint256",
							"name": "amount",
							"type": "uint256"
						}
					],
					"name": "TokensClaimed",
					"type": "event"
				},
				{
					"anonymous": false,
					"inputs": [
						{
							"indexed": true,
							"internalType": "bytes32",
							"name": "messageId",
							"type": "bytes32"
						},
						{
							"indexed": true,
							"internalType": "address",
							"name": "sender",
							"type": "address"
						},
						{
							"indexed": true,
							"internalType": "address",
							"name": "recipient",
							"type": "address"
						},
						{
							"indexed": false,
							"internalType": "address",
							"name": "localToken",
							"type": "address"
						},
						{
							"indexed": false,
							"internalType": "address",
							"name": "remoteToken",
							"type": "address"
						},
						{
							"indexed": false,
							"internalType": "uint256",
							"name": "value",
							"type": "uint256"
						},
						{
							"indexed": false,
							"internalType": "uint256",
							"name": "nonce",
							"type": "uint256"
						}
					],
					"name": "TokensLocked",
					"type": "event"
				},
				{
					"anonymous": false,
					"inputs": [
						{
							"indexed": true,
							"internalType": "bytes32",
							"name": "messageId",
							"type": "bytes32"
						},
						{
							"indexed": true,
							"internalType": "address",
							"name": "recipient",
							"type": "address"
						},
						{
							"indexed": false,
							"internalType": "address",
							"name": "tokenAddress",
							"type": "address"
						},
						{
							"indexed": false,
							"internalType": "uint256",
							"name": "value",
							"type": "uint256"
						},
						{
							"indexed": false,
							"internalType": "uint256",
							"name": "nonce",
							"type": "uint256"
						}
					],
					"name": "TokensUnlocked",
					"type": "event"
				},
				{
					"anonymous": false,
					"inputs": [
						{
							"indexed": false,
							"internalType": "address",
							"name": "account",
							"type": "address"
						}
					],
					"name": "Unpaused",
					"type": "event"
				},
				{
					"inputs": [],
					"name": "DEFAULT_ADMIN_ROLE",
					"outputs": [
						{
							"internalType": "bytes32",
							"name": "",
							"type": "bytes32"
						}
					],
					"stateMutability": "view",
					"type": "function"
				},
				{
					"inputs": [],
					"name": "EMERGENCY_ROLE",
					"outputs": [
						{
							"internalType": "bytes32",
							"name": "",
							"type": "bytes32"
						}
					],
					"stateMutability": "view",
					"type": "function"
				},
				{
					"inputs": [],
					"name": "OPERATOR_ROLE",
					"outputs": [
						{
							"internalType": "bytes32",
							"name": "",
							"type": "bytes32"
						}
					],
					"stateMutability": "view",
					"type": "function"
				},
				{
					"inputs": [],
					"name": "RELAYER_ROLE",
					"outputs": [
						{
							"internalType": "bytes32",
							"name": "",
							"type": "bytes32"
						}
					],
					"stateMutability": "view",
					"type": "function"
				},
				{
					"inputs": [
						{
							"internalType": "address",
							"name": "_token",
							"type": "address"
						},
						{
							"internalType": "address",
							"name": "_to",
							"type": "address"
						}
					],
					"name": "claimTokens",
					"outputs": [],
					"stateMutability": "nonpayable",
					"type": "function"
				},
				{
					"inputs": [
						{
							"internalType": "bytes32",
							"name": "_messageId",
							"type": "bytes32"
						}
					],
					"name": "fixFailedMessage",
					"outputs": [],
					"stateMutability": "nonpayable",
					"type": "function"
				},
				{
					"inputs": [
						{
							"internalType": "bytes32",
							"name": "_messageId",
							"type": "bytes32"
						}
					],
					"name": "getMessage",
					"outputs": [
						{
							"components": [
								{
									"internalType": "address",
									"name": "recipient",
									"type": "address"
								},
								{
									"internalType": "address",
									"name": "tokenAddress",
									"type": "address"
								},
								{
									"internalType": "uint256",
									"name": "value",
									"type": "uint256"
								},
								{
									"internalType": "uint256",
									"name": "nonce",
									"type": "uint256"
								}
							],
							"internalType": "struct TokenBridge.Message",
							"name": "",
							"type": "tuple"
						}
					],
					"stateMutability": "view",
					"type": "function"
				},
				{
					"inputs": [
						{
							"internalType": "bytes32",
							"name": "role",
							"type": "bytes32"
						}
					],
					"name": "getRoleAdmin",
					"outputs": [
						{
							"internalType": "bytes32",
							"name": "",
							"type": "bytes32"
						}
					],
					"stateMutability": "view",
					"type": "function"
				},
				{
					"inputs": [
						{
							"internalType": "address",
							"name": "_localToken",
							"type": "address"
						}
					],
					"name": "getTokenMapping",
					"outputs": [
						{
							"internalType": "address",
							"name": "",
							"type": "address"
						}
					],
					"stateMutability": "view",
					"type": "function"
				},
				{
					"inputs": [
						{
							"internalType": "bytes32",
							"name": "role",
							"type": "bytes32"
						},
						{
							"internalType": "address",
							"name": "account",
							"type": "address"
						}
					],
					"name": "grantRole",
					"outputs": [],
					"stateMutability": "nonpayable",
					"type": "function"
				},
				{
					"inputs": [
						{
							"internalType": "address",
							"name": "_recipient",
							"type": "address"
						},
						{
							"internalType": "address",
							"name": "_tokenAddress",
							"type": "address"
						},
						{
							"internalType": "uint256",
							"name": "_value",
							"type": "uint256"
						},
						{
							"internalType": "uint256",
							"name": "_nonce",
							"type": "uint256"
						}
					],
					"name": "handleBridgedTokens",
					"outputs": [],
					"stateMutability": "nonpayable",
					"type": "function"
				},
				{
					"inputs": [
						{
							"internalType": "bytes32",
							"name": "role",
							"type": "bytes32"
						},
						{
							"internalType": "address",
							"name": "account",
							"type": "address"
						}
					],
					"name": "hasRole",
					"outputs": [
						{
							"internalType": "bool",
							"name": "",
							"type": "bool"
						}
					],
					"stateMutability": "view",
					"type": "function"
				},
				{
					"inputs": [
						{
							"internalType": "address",
							"name": "_remoteTokenBridge",
							"type": "address"
						},
						{
							"internalType": "address",
							"name": "_localToken",
							"type": "address"
						},
						{
							"internalType": "address",
							"name": "_remoteToken",
							"type": "address"
						}
					],
					"name": "initialize",
					"outputs": [],
					"stateMutability": "nonpayable",
					"type": "function"
				},
				{
					"inputs": [],
					"name": "initialized",
					"outputs": [
						{
							"internalType": "bool",
							"name": "",
							"type": "bool"
						}
					],
					"stateMutability": "view",
					"type": "function"
				},
				{
					"inputs": [
						{
							"internalType": "bytes32",
							"name": "_messageId",
							"type": "bytes32"
						}
					],
					"name": "isMessageFixed",
					"outputs": [
						{
							"internalType": "bool",
							"name": "",
							"type": "bool"
						}
					],
					"stateMutability": "view",
					"type": "function"
				},
				{
					"inputs": [
						{
							"internalType": "bytes32",
							"name": "_messageId",
							"type": "bytes32"
						}
					],
					"name": "isMessageProcessed",
					"outputs": [
						{
							"internalType": "bool",
							"name": "",
							"type": "bool"
						}
					],
					"stateMutability": "view",
					"type": "function"
				},
				{
					"inputs": [
						{
							"internalType": "bytes32",
							"name": "_messageId",
							"type": "bytes32"
						}
					],
					"name": "messageSender",
					"outputs": [
						{
							"internalType": "address",
							"name": "",
							"type": "address"
						}
					],
					"stateMutability": "view",
					"type": "function"
				},
				{
					"inputs": [],
					"name": "pause",
					"outputs": [],
					"stateMutability": "nonpayable",
					"type": "function"
				},
				{
					"inputs": [],
					"name": "paused",
					"outputs": [
						{
							"internalType": "bool",
							"name": "",
							"type": "bool"
						}
					],
					"stateMutability": "view",
					"type": "function"
				},
				{
					"inputs": [
						{
							"internalType": "bytes32",
							"name": "_messageId",
							"type": "bytes32"
						},
						{
							"internalType": "address",
							"name": "_sender",
							"type": "address"
						},
						{
							"internalType": "address",
							"name": "_target",
							"type": "address"
						},
						{
							"internalType": "bytes",
							"name": "_data",
							"type": "bytes"
						}
					],
					"name": "receiveMessage",
					"outputs": [],
					"stateMutability": "nonpayable",
					"type": "function"
				},
				{
					"inputs": [],
					"name": "remoteTokenBridge",
					"outputs": [
						{
							"internalType": "address",
							"name": "",
							"type": "address"
						}
					],
					"stateMutability": "view",
					"type": "function"
				},
				{
					"inputs": [
						{
							"internalType": "bytes32",
							"name": "role",
							"type": "bytes32"
						},
						{
							"internalType": "address",
							"name": "callerConfirmation",
							"type": "address"
						}
					],
					"name": "renounceRole",
					"outputs": [],
					"stateMutability": "nonpayable",
					"type": "function"
				},
				{
					"inputs": [],
					"name": "requestGasLimit",
					"outputs": [
						{
							"internalType": "uint256",
							"name": "",
							"type": "uint256"
						}
					],
					"stateMutability": "view",
					"type": "function"
				},
				{
					"inputs": [
						{
							"internalType": "bytes32",
							"name": "role",
							"type": "bytes32"
						},
						{
							"internalType": "address",
							"name": "account",
							"type": "address"
						}
					],
					"name": "revokeRole",
					"outputs": [],
					"stateMutability": "nonpayable",
					"type": "function"
				},
				{
					"inputs": [
						{
							"internalType": "uint256",
							"name": "_newGasLimit",
							"type": "uint256"
						}
					],
					"name": "setRequestGasLimit",
					"outputs": [],
					"stateMutability": "nonpayable",
					"type": "function"
				},
				{
					"inputs": [
						{
							"internalType": "address",
							"name": "_localToken",
							"type": "address"
						},
						{
							"internalType": "address",
							"name": "_remoteToken",
							"type": "address"
						}
					],
					"name": "setTokenMapping",
					"outputs": [],
					"stateMutability": "nonpayable",
					"type": "function"
				},
				{
					"inputs": [
						{
							"internalType": "bytes4",
							"name": "interfaceId",
							"type": "bytes4"
						}
					],
					"name": "supportsInterface",
					"outputs": [
						{
							"internalType": "bool",
							"name": "",
							"type": "bool"
						}
					],
					"stateMutability": "view",
					"type": "function"
				},
				{
					"inputs": [
						{
							"internalType": "address",
							"name": "_recipient",
							"type": "address"
						},
						{
							"internalType": "address",
							"name": "_tokenAddress",
							"type": "address"
						},
						{
							"internalType": "uint256",
							"name": "_value",
							"type": "uint256"
						}
					],
					"name": "transferToken",
					"outputs": [
						{
							"internalType": "bytes32",
							"name": "",
							"type": "bytes32"
						}
					],
					"stateMutability": "nonpayable",
					"type": "function"
				},
				{
					"inputs": [],
					"name": "unpause",
					"outputs": [],
					"stateMutability": "nonpayable",
					"type": "function"
				},
				{
					"inputs": [
						{
							"internalType": "address",
							"name": "_newRemoteBridge",
							"type": "address"
						}
					],
					"name": "updateRemoteBridge",
					"outputs": [],
					"stateMutability": "nonpayable",
					"type": "function"
				}
			],
			"devdoc": {
				"details": "A secure cross-chain token bridge for transferring ERC20 tokens between EVM-compatible chains,      with integrated message relaying and robust security measures.",
				"errors": {
					"AccessControlBadConfirmation()": [
						{
							"details": "The caller of a function is not the expected one. NOTE: Don't confuse with {AccessControlUnauthorizedAccount}."
						}
					],
					"AccessControlUnauthorizedAccount(address,bytes32)": [
						{
							"details": "The `account` is missing a role."
						}
					],
					"EnforcedPause()": [
						{
							"details": "The operation failed because the contract is paused."
						}
					],
					"ExpectedPause()": [
						{
							"details": "The operation failed because the contract is not paused."
						}
					],
					"ReentrancyGuardReentrantCall()": [
						{
							"details": "Unauthorized reentrant call."
						}
					],
					"SafeERC20FailedOperation(address)": [
						{
							"details": "An operation with an ERC-20 token failed."
						}
					]
				},
				"kind": "dev",
				"methods": {
					"claimTokens(address,address)": {
						"details": "Emergency token recovery.",
						"params": {
							"_to": "Recipient address.",
							"_token": "Token address."
						}
					},
					"fixFailedMessage(bytes32)": {
						"details": "Refunds tokens on the source chain for a failed message.",
						"params": {
							"_messageId": "ID of the failed message."
						}
					},
					"getRoleAdmin(bytes32)": {
						"details": "Returns the admin role that controls `role`. See {grantRole} and {revokeRole}. To change a role's admin, use {_setRoleAdmin}."
					},
					"grantRole(bytes32,address)": {
						"details": "Grants `role` to `account`. If `account` had not been already granted `role`, emits a {RoleGranted} event. Requirements: - the caller must have ``role``'s admin role. May emit a {RoleGranted} event."
					},
					"handleBridgedTokens(address,address,uint256,uint256)": {
						"details": "Handles incoming bridged tokens on the destination chain.",
						"params": {
							"_nonce": "Message nonce.",
							"_recipient": "Recipient address.",
							"_tokenAddress": "Remote token address.",
							"_value": "Amount of tokens."
						}
					},
					"hasRole(bytes32,address)": {
						"details": "Returns `true` if `account` has been granted `role`."
					},
					"initialize(address,address,address)": {
						"details": "Initializes the contract with bridge and token mapping parameters.",
						"params": {
							"_localToken": "Local token address.",
							"_remoteToken": "Remote token address.",
							"_remoteTokenBridge": "Remote bridge contract address."
						}
					},
					"messageSender(bytes32)": {
						"details": "View functions."
					},
					"pause()": {
						"details": "Pause and unpause functions."
					},
					"paused()": {
						"details": "Returns true if the contract is paused, and false otherwise."
					},
					"receiveMessage(bytes32,address,address,bytes)": {
						"details": "Processes a message from the remote chain.",
						"params": {
							"_data": "Encoded data to execute.",
							"_messageId": "Unique message ID.",
							"_sender": "Sender address (remote bridge).",
							"_target": "Target address (this contract)."
						}
					},
					"renounceRole(bytes32,address)": {
						"details": "Revokes `role` from the calling account. Roles are often managed via {grantRole} and {revokeRole}: this function's purpose is to provide a mechanism for accounts to lose their privileges if they are compromised (such as when a trusted device is misplaced). If the calling account had been revoked `role`, emits a {RoleRevoked} event. Requirements: - the caller must be `callerConfirmation`. May emit a {RoleRevoked} event."
					},
					"revokeRole(bytes32,address)": {
						"details": "Revokes `role` from `account`. If `account` had been granted `role`, emits a {RoleRevoked} event. Requirements: - the caller must have ``role``'s admin role. May emit a {RoleRevoked} event."
					},
					"supportsInterface(bytes4)": {
						"details": "Returns true if this contract implements the interface defined by `interfaceId`. See the corresponding https://eips.ethereum.org/EIPS/eip-165#how-interfaces-are-identified[ERC section] to learn more about how these ids are created. This function call must use less than 30 000 gas."
					},
					"transferToken(address,address,uint256)": {
						"details": "Initiates a token transfer to the remote chain.",
						"params": {
							"_recipient": "Recipient address on the remote chain.",
							"_tokenAddress": "Local token address.",
							"_value": "Amount of tokens to transfer."
						},
						"returns": {
							"_0": "messageId Unique message ID."
						}
					},
					"updateRemoteBridge(address)": {
						"details": "Updates configuration parameters."
					}
				},
				"title": "TokenBridge",
				"version": 1
			},
			"evm": {
				"assembly": "    /* \"RUSD-Bridge-MaalChain/TokenBridge.sol\":647:12703  contract TokenBridge is ReentrancyGuard, AccessControl, Pausable {... */\n  mstore(0x40, 0x80)\n    /* \"RUSD-Bridge-MaalChain/TokenBridge.sol\":3715:3989  constructor() {... */\n  callvalue\n  dup1\n  iszero\n  tag_1\n  jumpi\n  0x00\n  dup1\n  revert\ntag_1:\n  pop\n    /* \"RUSD-Bridge-MaalChain/ReentrancyGuard.sol\":1892:1893  1 */\n  0x01\n    /* \"RUSD-Bridge-MaalChain/ReentrancyGuard.sol\":2107:2114  _status */\n  0x00\n    /* \"RUSD-Bridge-MaalChain/ReentrancyGuard.sol\":2107:2128  _status = NOT_ENTERED */\n  dup2\n  swap1\n  sstore\n  pop\n    /* \"RUSD-Bridge-MaalChain/TokenBridge.sol\":3740:3782  _grantRole(DEFAULT_ADMIN_ROLE, msg.sender) */\n  tag_6\n    /* \"RUSD-Bridge-MaalChain/AccessControl.sol\":2255:2259  0x00 */\n  0x00\n    /* \"RUSD-Bridge-MaalChain/TokenBridge.sol\":3751:3769  DEFAULT_ADMIN_ROLE */\n  dup1\n  shl\n    /* \"RUSD-Bridge-MaalChain/TokenBridge.sol\":3771:3781  msg.sender */\n  caller\n    /* \"RUSD-Bridge-MaalChain/TokenBridge.sol\":3740:3750  _grantRole */\n  shl(0x20, tag_7)\n    /* \"RUSD-Bridge-MaalChain/TokenBridge.sol\":3740:3782  _grantRole(DEFAULT_ADMIN_ROLE, msg.sender) */\n  0x20\n  shr\n  jump\t// in\ntag_6:\n  pop\n    /* \"RUSD-Bridge-MaalChain/TokenBridge.sol\":3793:3829  _grantRole(RELAYER_ROLE, msg.sender) */\n  tag_8\n    /* \"RUSD-Bridge-MaalChain/TokenBridge.sol\":807:832  keccak256(\"RELAYER_ROLE\") */\n  0xe2b7fb3b832174769106daebcfd6d1970523240dda11281102db9363b83b0dc4\n    /* \"RUSD-Bridge-MaalChain/TokenBridge.sol\":3818:3828  msg.sender */\n  caller\n    /* \"RUSD-Bridge-MaalChain/TokenBridge.sol\":3793:3803  _grantRole */\n  shl(0x20, tag_7)\n    /* \"RUSD-Bridge-MaalChain/TokenBridge.sol\":3793:3829  _grantRole(RELAYER_ROLE, msg.sender) */\n  0x20\n  shr\n  jump\t// in\ntag_8:\n  pop\n    /* \"RUSD-Bridge-MaalChain/TokenBridge.sol\":3840:3877  _grantRole(OPERATOR_ROLE, msg.sender) */\n  tag_9\n    /* \"RUSD-Bridge-MaalChain/TokenBridge.sol\":879:905  keccak256(\"OPERATOR_ROLE\") */\n  0x97667070c54ef182b0f5858b034beac1b6f3089aa2d3188bb1e8929f4fa9b929\n    /* \"RUSD-Bridge-MaalChain/TokenBridge.sol\":3866:3876  msg.sender */\n  caller\n    /* \"RUSD-Bridge-MaalChain/TokenBridge.sol\":3840:3850  _grantRole */\n  shl(0x20, tag_7)\n    /* \"RUSD-Bridge-MaalChain/TokenBridge.sol\":3840:3877  _grantRole(OPERATOR_ROLE, msg.sender) */\n  0x20\n  shr\n  jump\t// in\ntag_9:\n  pop\n    /* \"RUSD-Bridge-MaalChain/TokenBridge.sol\":3888:3926  _grantRole(EMERGENCY_ROLE, msg.sender) */\n  tag_10\n    /* \"RUSD-Bridge-MaalChain/TokenBridge.sol\":953:980  keccak256(\"EMERGENCY_ROLE\") */\n  0xbf233dd2aafeb4d50879c4aa5c81e96d92f6e6945c906a58f9f2d1c1631b4b26\n    /* \"RUSD-Bridge-MaalChain/TokenBridge.sol\":3915:3925  msg.sender */\n  caller\n    /* \"RUSD-Bridge-MaalChain/TokenBridge.sol\":3888:3898  _grantRole */\n  shl(0x20, tag_7)\n    /* \"RUSD-Bridge-MaalChain/TokenBridge.sol\":3888:3926  _grantRole(EMERGENCY_ROLE, msg.sender) */\n  0x20\n  shr\n  jump\t// in\ntag_10:\n  pop\n    /* \"RUSD-Bridge-MaalChain/TokenBridge.sol\":3945:3946  0 */\n  0x00\n    /* \"RUSD-Bridge-MaalChain/TokenBridge.sol\":3937:3942  nonce */\n  0x05\n    /* \"RUSD-Bridge-MaalChain/TokenBridge.sol\":3937:3946  nonce = 0 */\n  dup2\n  swap1\n  sstore\n  pop\n    /* \"RUSD-Bridge-MaalChain/TokenBridge.sol\":3975:3981  800000 */\n  0x0c3500\n    /* \"RUSD-Bridge-MaalChain/TokenBridge.sol\":3957:3972  requestGasLimit */\n  0x03\n    /* \"RUSD-Bridge-MaalChain/TokenBridge.sol\":3957:3981  requestGasLimit = 800000 */\n  dup2\n  swap1\n  sstore\n  pop\n    /* \"RUSD-Bridge-MaalChain/TokenBridge.sol\":647:12703  contract TokenBridge is ReentrancyGuard, AccessControl, Pausable {... */\n  jump(tag_11)\n    /* \"RUSD-Bridge-MaalChain/AccessControl.sol\":6293:6617  function _grantRole(bytes32 role, address account) internal virtual returns (bool) {... */\ntag_7:\n    /* \"RUSD-Bridge-MaalChain/AccessControl.sol\":6370:6374  bool */\n  0x00\n    /* \"RUSD-Bridge-MaalChain/AccessControl.sol\":6392:6414  hasRole(role, account) */\n  tag_13\n    /* \"RUSD-Bridge-MaalChain/AccessControl.sol\":6400:6404  role */\n  dup4\n    /* \"RUSD-Bridge-MaalChain/AccessControl.sol\":6406:6413  account */\n  dup4\n    /* \"RUSD-Bridge-MaalChain/AccessControl.sol\":6392:6399  hasRole */\n  shl(0x20, tag_14)\n    /* \"RUSD-Bridge-MaalChain/AccessControl.sol\":6392:6414  hasRole(role, account) */\n  0x20\n  shr\n  jump\t// in\ntag_13:\n    /* \"RUSD-Bridge-MaalChain/AccessControl.sol\":6387:6610  if (!hasRole(role, account)) {... */\n  tag_15\n  jumpi\n    /* \"RUSD-Bridge-MaalChain/AccessControl.sol\":6463:6467  true */\n  0x01\n    /* \"RUSD-Bridge-MaalChain/AccessControl.sol\":6431:6437  _roles */\n  dup1\n    /* \"RUSD-Bridge-MaalChain/AccessControl.sol\":6431:6443  _roles[role] */\n  0x00\n    /* \"RUSD-Bridge-MaalChain/AccessControl.sol\":6438:6442  role */\n  dup6\n    /* \"RUSD-Bridge-MaalChain/AccessControl.sol\":6431:6443  _roles[role] */\n  dup2\n  mstore\n  0x20\n  add\n  swap1\n  dup2\n  mstore\n  0x20\n  add\n  0x00\n  keccak256\n    /* \"RUSD-Bridge-MaalChain/AccessControl.sol\":6431:6451  _roles[role].hasRole */\n  0x00\n  add\n    /* \"RUSD-Bridge-MaalChain/AccessControl.sol\":6431:6460  _roles[role].hasRole[account] */\n  0x00\n    /* \"RUSD-Bridge-MaalChain/AccessControl.sol\":6452:6459  account */\n  dup5\n    /* \"RUSD-Bridge-MaalChain/AccessControl.sol\":6431:6460  _roles[role].hasRole[account] */\n  0xffffffffffffffffffffffffffffffffffffffff\n  and\n  0xffffffffffffffffffffffffffffffffffffffff\n  and\n  dup2\n  mstore\n  0x20\n  add\n  swap1\n  dup2\n  mstore\n  0x20\n  add\n  0x00\n  keccak256\n  0x00\n    /* \"RUSD-Bridge-MaalChain/AccessControl.sol\":6431:6467  _roles[role].hasRole[account] = true */\n  0x0100\n  exp\n  dup2\n  sload\n  dup2\n  0xff\n  mul\n  not\n  and\n  swap1\n  dup4\n  iszero\n  iszero\n  mul\n  or\n  swap1\n  sstore\n  pop\n    /* \"RUSD-Bridge-MaalChain/AccessControl.sol\":6514:6526  _msgSender() */\n  tag_16\n    /* \"RUSD-Bridge-MaalChain/AccessControl.sol\":6514:6524  _msgSender */\n  shl(0x20, tag_17)\n    /* \"RUSD-Bridge-MaalChain/AccessControl.sol\":6514:6526  _msgSender() */\n  0x20\n  shr\n  jump\t// in\ntag_16:\n    /* \"RUSD-Bridge-MaalChain/AccessControl.sol\":6487:6527  RoleGranted(role, account, _msgSender()) */\n  0xffffffffffffffffffffffffffffffffffffffff\n  and\n    /* \"RUSD-Bridge-MaalChain/AccessControl.sol\":6505:6512  account */\n  dup3\n    /* \"RUSD-Bridge-MaalChain/AccessControl.sol\":6487:6527  RoleGranted(role, account, _msgSender()) */\n  0xffffffffffffffffffffffffffffffffffffffff\n  and\n    /* \"RUSD-Bridge-MaalChain/AccessControl.sol\":6499:6503  role */\n  dup5\n    /* \"RUSD-Bridge-MaalChain/AccessControl.sol\":6487:6527  RoleGranted(role, account, _msgSender()) */\n  0x2f8788117e7eff1d82e926ec794901d17c78024a50270940304540a733656f0d\n  mload(0x40)\n  mload(0x40)\n  dup1\n  swap2\n  sub\n  swap1\n  log4\n    /* \"RUSD-Bridge-MaalChain/AccessControl.sol\":6549:6553  true */\n  0x01\n    /* \"RUSD-Bridge-MaalChain/AccessControl.sol\":6542:6553  return true */\n  swap1\n  pop\n  jump(tag_12)\n    /* \"RUSD-Bridge-MaalChain/AccessControl.sol\":6387:6610  if (!hasRole(role, account)) {... */\ntag_15:\n    /* \"RUSD-Bridge-MaalChain/AccessControl.sol\":6593:6598  false */\n  0x00\n    /* \"RUSD-Bridge-MaalChain/AccessControl.sol\":6586:6598  return false */\n  swap1\n  pop\n    /* \"RUSD-Bridge-MaalChain/AccessControl.sol\":6293:6617  function _grantRole(bytes32 role, address account) internal virtual returns (bool) {... */\ntag_12:\n  swap3\n  swap2\n  pop\n  pop\n  jump\t// out\n    /* \"RUSD-Bridge-MaalChain/AccessControl.sol\":2863:3001  function hasRole(bytes32 role, address account) public view virtual returns (bool) {... */\ntag_14:\n    /* \"RUSD-Bridge-MaalChain/AccessControl.sol\":2940:2944  bool */\n  0x00\n    /* \"RUSD-Bridge-MaalChain/AccessControl.sol\":2964:2970  _roles */\n  0x01\n    /* \"RUSD-Bridge-MaalChain/AccessControl.sol\":2964:2976  _roles[role] */\n  0x00\n    /* \"RUSD-Bridge-MaalChain/AccessControl.sol\":2971:2975  role */\n  dup5\n    /* \"RUSD-Bridge-MaalChain/AccessControl.sol\":2964:2976  _roles[role] */\n  dup2\n  mstore\n  0x20\n  add\n  swap1\n  dup2\n  mstore\n  0x20\n  add\n  0x00\n  keccak256\n    /* \"RUSD-Bridge-MaalChain/AccessControl.sol\":2964:2984  _roles[role].hasRole */\n  0x00\n  add\n    /* \"RUSD-Bridge-MaalChain/AccessControl.sol\":2964:2993  _roles[role].hasRole[account] */\n  0x00\n    /* \"RUSD-Bridge-MaalChain/AccessControl.sol\":2985:2992  account */\n  dup4\n    /* \"RUSD-Bridge-MaalChain/AccessControl.sol\":2964:2993  _roles[role].hasRole[account] */\n  0xffffffffffffffffffffffffffffffffffffffff\n  and\n  0xffffffffffffffffffffffffffffffffffffffff\n  and\n  dup2\n  mstore\n  0x20\n  add\n  swap1\n  dup2\n  mstore\n  0x20\n  add\n  0x00\n  keccak256\n  0x00\n  swap1\n  sload\n  swap1\n  0x0100\n  exp\n  swap1\n  div\n  0xff\n  and\n    /* \"RUSD-Bridge-MaalChain/AccessControl.sol\":2957:2993  return _roles[role].hasRole[account] */\n  swap1\n  pop\n    /* \"RUSD-Bridge-MaalChain/AccessControl.sol\":2863:3001  function hasRole(bytes32 role, address account) public view virtual returns (bool) {... */\n  swap3\n  swap2\n  pop\n  pop\n  jump\t// out\n    /* \"RUSD-Bridge-MaalChain/Context.sol\":671:769  function _msgSender() internal view virtual returns (address) {... */\ntag_17:\n    /* \"RUSD-Bridge-MaalChain/Context.sol\":724:731  address */\n  0x00\n    /* \"RUSD-Bridge-MaalChain/Context.sol\":751:761  msg.sender */\n  caller\n    /* \"RUSD-Bridge-MaalChain/Context.sol\":744:761  return msg.sender */\n  swap1\n  pop\n    /* \"RUSD-Bridge-MaalChain/Context.sol\":671:769  function _msgSender() internal view virtual returns (address) {... */\n  swap1\n  jump\t// out\n    /* \"RUSD-Bridge-MaalChain/TokenBridge.sol\":647:12703  contract TokenBridge is ReentrancyGuard, AccessControl, Pausable {... */\ntag_11:\n  dataSize(sub_0)\n  dup1\n  dataOffset(sub_0)\n  0x00\n  codecopy\n  0x00\n  return\nstop\n\nsub_0: assembly {\n        /* \"RUSD-Bridge-MaalChain/TokenBridge.sol\":647:12703  contract TokenBridge is ReentrancyGuard, AccessControl, Pausable {... */\n      mstore(0x40, 0x80)\n      callvalue\n      dup1\n      iszero\n      tag_1\n      jumpi\n      0x00\n      dup1\n      revert\n    tag_1:\n      pop\n      jumpi(tag_2, lt(calldatasize, 0x04))\n      shr(0xe0, calldataload(0x00))\n      dup1\n      0x91d14854\n      gt\n      tag_33\n      jumpi\n      dup1\n      0xbe3b625b\n      gt\n      tag_34\n      jumpi\n      dup1\n      0xf3b83791\n      gt\n      tag_35\n      jumpi\n      dup1\n      0xf3b83791\n      eq\n      tag_29\n      jumpi\n      dup1\n      0xf5537ede\n      eq\n      tag_30\n      jumpi\n      dup1\n      0xf5b541a6\n      eq\n      tag_31\n      jumpi\n      dup1\n      0xf63ca179\n      eq\n      tag_32\n      jumpi\n      jump(tag_2)\n    tag_35:\n      dup1\n      0xbe3b625b\n      eq\n      tag_25\n      jumpi\n      dup1\n      0xc0c53b8b\n      eq\n      tag_26\n      jumpi\n      dup1\n      0xd191bcf9\n      eq\n      tag_27\n      jumpi\n      dup1\n      0xd547741f\n      eq\n      tag_28\n      jumpi\n      jump(tag_2)\n    tag_34:\n      dup1\n      0xa217fddf\n      gt\n      tag_36\n      jumpi\n      dup1\n      0xa217fddf\n      eq\n      tag_21\n      jumpi\n      dup1\n      0xa8ae5207\n      eq\n      tag_22\n      jumpi\n      dup1\n      0xb66df031\n      eq\n      tag_23\n      jumpi\n      dup1\n      0xbbd0ec64\n      eq\n      tag_24\n      jumpi\n      jump(tag_2)\n    tag_36:\n      dup1\n      0x91d14854\n      eq\n      tag_18\n      jumpi\n      dup1\n      0x926d7d7f\n      eq\n      tag_19\n      jumpi\n      dup1\n      0x9a54a1ff\n      eq\n      tag_20\n      jumpi\n      jump(tag_2)\n    tag_33:\n      dup1\n      0x248a9ca3\n      gt\n      tag_37\n      jumpi\n      dup1\n      0x412df756\n      gt\n      tag_38\n      jumpi\n      dup1\n      0x412df756\n      eq\n      tag_14\n      jumpi\n      dup1\n      0x5c975abb\n      eq\n      tag_15\n      jumpi\n      dup1\n      0x69ffa08a\n      eq\n      tag_16\n      jumpi\n      dup1\n      0x8456cb59\n      eq\n      tag_17\n      jumpi\n      jump(tag_2)\n    tag_38:\n      dup1\n      0x248a9ca3\n      eq\n      tag_10\n      jumpi\n      dup1\n      0x2f2ff15d\n      eq\n      tag_11\n      jumpi\n      dup1\n      0x36568abe\n      eq\n      tag_12\n      jumpi\n      dup1\n      0x3f4ba83a\n      eq\n      tag_13\n      jumpi\n      jump(tag_2)\n    tag_37:\n      dup1\n      0x0950d515\n      gt\n      tag_39\n      jumpi\n      dup1\n      0x0950d515\n      eq\n      tag_6\n      jumpi\n      dup1\n      0x158ef93e\n      eq\n      tag_7\n      jumpi\n      dup1\n      0x1bd31ef6\n      eq\n      tag_8\n      jumpi\n      dup1\n      0x20df4359\n      eq\n      tag_9\n      jumpi\n      jump(tag_2)\n    tag_39:\n      dup1\n      0x0139a221\n      eq\n      tag_3\n      jumpi\n      dup1\n      0x01ffc9a7\n      eq\n      tag_4\n      jumpi\n      dup1\n      0x02e1aacf\n      eq\n      tag_5\n      jumpi\n    tag_2:\n      0x00\n      dup1\n      revert\n        /* \"RUSD-Bridge-MaalChain/TokenBridge.sol\":12444:12569  function getMessage(bytes32 _messageId) external view returns (Message memory) {... */\n    tag_3:\n      tag_40\n      0x04\n      dup1\n      calldatasize\n      sub\n      dup2\n      add\n      swap1\n      tag_41\n      swap2\n      swap1\n      tag_42\n      jump\t// in\n    tag_41:\n      tag_43\n      jump\t// in\n    tag_40:\n      mload(0x40)\n      tag_44\n      swap2\n      swap1\n      tag_45\n      jump\t// in\n    tag_44:\n      mload(0x40)\n      dup1\n      swap2\n      sub\n      swap1\n      return\n        /* \"RUSD-Bridge-MaalChain/AccessControl.sol\":2567:2771  function supportsInterface(bytes4 interfaceId) public view virtual override returns (bool) {... */\n    tag_4:\n      tag_46\n      0x04\n      dup1\n      calldatasize\n      sub\n      dup2\n      add\n      swap1\n      tag_47\n      swap2\n      swap1\n      tag_48\n      jump\t// in\n    tag_47:\n      tag_49\n      jump\t// in\n    tag_46:\n      mload(0x40)\n      tag_50\n      swap2\n      swap1\n      tag_51\n      jump\t// in\n    tag_50:\n      mload(0x40)\n      dup1\n      swap2\n      sub\n      swap1\n      return\n        /* \"RUSD-Bridge-MaalChain/TokenBridge.sol\":8486:9336  function handleBridgedTokens(address _recipient, address _tokenAddress, uint256 _value, uint256 _nonce)... */\n    tag_5:\n      tag_52\n      0x04\n      dup1\n      calldatasize\n      sub\n      dup2\n      add\n      swap1\n      tag_53\n      swap2\n      swap1\n      tag_54\n      jump\t// in\n    tag_53:\n      tag_55\n      jump\t// in\n    tag_52:\n      stop\n        /* \"RUSD-Bridge-MaalChain/TokenBridge.sol\":9484:10169  function fixFailedMessage(bytes32 _messageId)... */\n    tag_6:\n      tag_56\n      0x04\n      dup1\n      calldatasize\n      sub\n      dup2\n      add\n      swap1\n      tag_57\n      swap2\n      swap1\n      tag_42\n      jump\t// in\n    tag_57:\n      tag_58\n      jump\t// in\n    tag_56:\n      stop\n        /* \"RUSD-Bridge-MaalChain/TokenBridge.sol\":1164:1187  bool public initialized */\n    tag_7:\n      tag_59\n      tag_60\n      jump\t// in\n    tag_59:\n      mload(0x40)\n      tag_61\n      swap2\n      swap1\n      tag_51\n      jump\t// in\n    tag_61:\n      mload(0x40)\n      dup1\n      swap2\n      sub\n      swap1\n      return\n        /* \"RUSD-Bridge-MaalChain/TokenBridge.sol\":12167:12299  function isMessageProcessed(bytes32 _messageId) external view returns (bool) {... */\n    tag_8:\n      tag_62\n      0x04\n      dup1\n      calldatasize\n      sub\n      dup2\n      add\n      swap1\n      tag_63\n      swap2\n      swap1\n      tag_42\n      jump\t// in\n    tag_63:\n      tag_64\n      jump\t// in\n    tag_62:\n      mload(0x40)\n      tag_65\n      swap2\n      swap1\n      tag_51\n      jump\t// in\n    tag_65:\n      mload(0x40)\n      dup1\n      swap2\n      sub\n      swap1\n      return\n        /* \"RUSD-Bridge-MaalChain/TokenBridge.sol\":912:980  bytes32 public constant EMERGENCY_ROLE = keccak256(\"EMERGENCY_ROLE\") */\n    tag_9:\n      tag_66\n      tag_67\n      jump\t// in\n    tag_66:\n      mload(0x40)\n      tag_68\n      swap2\n      swap1\n      tag_69\n      jump\t// in\n    tag_68:\n      mload(0x40)\n      dup1\n      swap2\n      sub\n      swap1\n      return\n        /* \"RUSD-Bridge-MaalChain/AccessControl.sol\":3847:3969  function getRoleAdmin(bytes32 role) public view virtual returns (bytes32) {... */\n    tag_10:\n      tag_70\n      0x04\n      dup1\n      calldatasize\n      sub\n      dup2\n      add\n      swap1\n      tag_71\n      swap2\n      swap1\n      tag_42\n      jump\t// in\n    tag_71:\n      tag_72\n      jump\t// in\n    tag_70:\n      mload(0x40)\n      tag_73\n      swap2\n      swap1\n      tag_69\n      jump\t// in\n    tag_73:\n      mload(0x40)\n      dup1\n      swap2\n      sub\n      swap1\n      return\n        /* \"RUSD-Bridge-MaalChain/AccessControl.sol\":4279:4417  function grantRole(bytes32 role, address account) public virtual onlyRole(getRoleAdmin(role)) {... */\n    tag_11:\n      tag_74\n      0x04\n      dup1\n      calldatasize\n      sub\n      dup2\n      add\n      swap1\n      tag_75\n      swap2\n      swap1\n      tag_76\n      jump\t// in\n    tag_75:\n      tag_77\n      jump\t// in\n    tag_74:\n      stop\n        /* \"RUSD-Bridge-MaalChain/AccessControl.sol\":5416:5667  function renounceRole(bytes32 role, address callerConfirmation) public virtual {... */\n    tag_12:\n      tag_78\n      0x04\n      dup1\n      calldatasize\n      sub\n      dup2\n      add\n      swap1\n      tag_79\n      swap2\n      swap1\n      tag_76\n      jump\t// in\n    tag_79:\n      tag_80\n      jump\t// in\n    tag_78:\n      stop\n        /* \"RUSD-Bridge-MaalChain/TokenBridge.sol\":11895:11977  function unpause() external onlyRole(EMERGENCY_ROLE) {... */\n    tag_13:\n      tag_81\n      tag_82\n      jump\t// in\n    tag_81:\n      stop\n        /* \"RUSD-Bridge-MaalChain/TokenBridge.sol\":7215:8216  function receiveMessage(bytes32 _messageId, address _sender, address _target, bytes calldata _data)... */\n    tag_14:\n      tag_83\n      0x04\n      dup1\n      calldatasize\n      sub\n      dup2\n      add\n      swap1\n      tag_84\n      swap2\n      swap1\n      tag_85\n      jump\t// in\n    tag_84:\n      tag_86\n      jump\t// in\n    tag_83:\n      stop\n        /* \"RUSD-Bridge-MaalChain/Pausable.sol\":1784:1870  function paused() public view virtual returns (bool) {... */\n    tag_15:\n      tag_87\n      tag_88\n      jump\t// in\n    tag_87:\n      mload(0x40)\n      tag_89\n      swap2\n      swap1\n      tag_51\n      jump\t// in\n    tag_89:\n      mload(0x40)\n      dup1\n      swap2\n      sub\n      swap1\n      return\n        /* \"RUSD-Bridge-MaalChain/TokenBridge.sol\":11303:11741  function claimTokens(address _token, address _to)... */\n    tag_16:\n      tag_90\n      0x04\n      dup1\n      calldatasize\n      sub\n      dup2\n      add\n      swap1\n      tag_91\n      swap2\n      swap1\n      tag_92\n      jump\t// in\n    tag_91:\n      tag_93\n      jump\t// in\n    tag_90:\n      stop\n        /* \"RUSD-Bridge-MaalChain/TokenBridge.sol\":11809:11887  function pause() external onlyRole(EMERGENCY_ROLE) {... */\n    tag_17:\n      tag_94\n      tag_95\n      jump\t// in\n    tag_94:\n      stop\n        /* \"RUSD-Bridge-MaalChain/AccessControl.sol\":2863:3001  function hasRole(bytes32 role, address account) public view virtual returns (bool) {... */\n    tag_18:\n      tag_96\n      0x04\n      dup1\n      calldatasize\n      sub\n      dup2\n      add\n      swap1\n      tag_97\n      swap2\n      swap1\n      tag_76\n      jump\t// in\n    tag_97:\n      tag_98\n      jump\t// in\n    tag_96:\n      mload(0x40)\n      tag_99\n      swap2\n      swap1\n      tag_51\n      jump\t// in\n    tag_99:\n      mload(0x40)\n      dup1\n      swap2\n      sub\n      swap1\n      return\n        /* \"RUSD-Bridge-MaalChain/TokenBridge.sol\":768:832  bytes32 public constant RELAYER_ROLE = keccak256(\"RELAYER_ROLE\") */\n    tag_19:\n      tag_100\n      tag_101\n      jump\t// in\n    tag_100:\n      mload(0x40)\n      tag_102\n      swap2\n      swap1\n      tag_69\n      jump\t// in\n    tag_102:\n      mload(0x40)\n      dup1\n      swap2\n      sub\n      swap1\n      return\n        /* \"RUSD-Bridge-MaalChain/TokenBridge.sol\":10242:10572  function updateRemoteBridge(address _newRemoteBridge) external onlyRole(DEFAULT_ADMIN_ROLE) {... */\n    tag_20:\n      tag_103\n      0x04\n      dup1\n      calldatasize\n      sub\n      dup2\n      add\n      swap1\n      tag_104\n      swap2\n      swap1\n      tag_105\n      jump\t// in\n    tag_104:\n      tag_106\n      jump\t// in\n    tag_103:\n      stop\n        /* \"RUSD-Bridge-MaalChain/AccessControl.sol\":2210:2259  bytes32 public constant DEFAULT_ADMIN_ROLE = 0x00 */\n    tag_21:\n      tag_107\n      tag_108\n      jump\t// in\n    tag_107:\n      mload(0x40)\n      tag_109\n      swap2\n      swap1\n      tag_69\n      jump\t// in\n    tag_109:\n      mload(0x40)\n      dup1\n      swap2\n      sub\n      swap1\n      return\n        /* \"RUSD-Bridge-MaalChain/TokenBridge.sol\":10580:10897  function setTokenMapping(address _localToken, address _remoteToken) external onlyRole(OPERATOR_ROLE) {... */\n    tag_22:\n      tag_110\n      0x04\n      dup1\n      calldatasize\n      sub\n      dup2\n      add\n      swap1\n      tag_111\n      swap2\n      swap1\n      tag_92\n      jump\t// in\n    tag_111:\n      tag_112\n      jump\t// in\n    tag_110:\n      stop\n        /* \"RUSD-Bridge-MaalChain/TokenBridge.sol\":12307:12436  function getTokenMapping(address _localToken) external view returns (address) {... */\n    tag_23:\n      tag_113\n      0x04\n      dup1\n      calldatasize\n      sub\n      dup2\n      add\n      swap1\n      tag_114\n      swap2\n      swap1\n      tag_105\n      jump\t// in\n    tag_114:\n      tag_115\n      jump\t// in\n    tag_113:\n      mload(0x40)\n      tag_116\n      swap2\n      swap1\n      tag_117\n      jump\t// in\n    tag_116:\n      mload(0x40)\n      dup1\n      swap2\n      sub\n      swap1\n      return\n        /* \"RUSD-Bridge-MaalChain/TokenBridge.sol\":12032:12159  function messageSender(bytes32 _messageId) external view returns (address) {... */\n    tag_24:\n      tag_118\n      0x04\n      dup1\n      calldatasize\n      sub\n      dup2\n      add\n      swap1\n      tag_119\n      swap2\n      swap1\n      tag_42\n      jump\t// in\n    tag_119:\n      tag_120\n      jump\t// in\n    tag_118:\n      mload(0x40)\n      tag_121\n      swap2\n      swap1\n      tag_117\n      jump\t// in\n    tag_121:\n      mload(0x40)\n      dup1\n      swap2\n      sub\n      swap1\n      return\n        /* \"RUSD-Bridge-MaalChain/TokenBridge.sol\":1089:1119  uint256 public requestGasLimit */\n    tag_25:\n      tag_122\n      tag_123\n      jump\t// in\n    tag_122:\n      mload(0x40)\n      tag_124\n      swap2\n      swap1\n      tag_125\n      jump\t// in\n    tag_124:\n      mload(0x40)\n      dup1\n      swap2\n      sub\n      swap1\n      return\n        /* \"RUSD-Bridge-MaalChain/TokenBridge.sol\":4259:4876  function initialize(address _remoteTokenBridge, address _localToken, address _remoteToken)... */\n    tag_26:\n      tag_126\n      0x04\n      dup1\n      calldatasize\n      sub\n      dup2\n      add\n      swap1\n      tag_127\n      swap2\n      swap1\n      tag_128\n      jump\t// in\n    tag_127:\n      tag_129\n      jump\t// in\n    tag_126:\n      stop\n        /* \"RUSD-Bridge-MaalChain/TokenBridge.sol\":1011:1043  address public remoteTokenBridge */\n    tag_27:\n      tag_130\n      tag_131\n      jump\t// in\n    tag_130:\n      mload(0x40)\n      tag_132\n      swap2\n      swap1\n      tag_117\n      jump\t// in\n    tag_132:\n      mload(0x40)\n      dup1\n      swap2\n      sub\n      swap1\n      return\n        /* \"RUSD-Bridge-MaalChain/AccessControl.sol\":4710:4850  function revokeRole(bytes32 role, address account) public virtual onlyRole(getRoleAdmin(role)) {... */\n    tag_28:\n      tag_133\n      0x04\n      dup1\n      calldatasize\n      sub\n      dup2\n      add\n      swap1\n      tag_134\n      swap2\n      swap1\n      tag_76\n      jump\t// in\n    tag_134:\n      tag_135\n      jump\t// in\n    tag_133:\n      stop\n        /* \"RUSD-Bridge-MaalChain/TokenBridge.sol\":10905:11163  function setRequestGasLimit(uint256 _newGasLimit) external onlyRole(OPERATOR_ROLE) {... */\n    tag_29:\n      tag_136\n      0x04\n      dup1\n      calldatasize\n      sub\n      dup2\n      add\n      swap1\n      tag_137\n      swap2\n      swap1\n      tag_138\n      jump\t// in\n    tag_137:\n      tag_139\n      jump\t// in\n    tag_136:\n      stop\n        /* \"RUSD-Bridge-MaalChain/TokenBridge.sol\":5175:6932  function transferToken(address _recipient, address _tokenAddress, uint256 _value)... */\n    tag_30:\n      tag_140\n      0x04\n      dup1\n      calldatasize\n      sub\n      dup2\n      add\n      swap1\n      tag_141\n      swap2\n      swap1\n      tag_142\n      jump\t// in\n    tag_141:\n      tag_143\n      jump\t// in\n    tag_140:\n      mload(0x40)\n      tag_144\n      swap2\n      swap1\n      tag_69\n      jump\t// in\n    tag_144:\n      mload(0x40)\n      dup1\n      swap2\n      sub\n      swap1\n      return\n        /* \"RUSD-Bridge-MaalChain/TokenBridge.sol\":839:905  bytes32 public constant OPERATOR_ROLE = keccak256(\"OPERATOR_ROLE\") */\n    tag_31:\n      tag_145\n      tag_146\n      jump\t// in\n    tag_145:\n      mload(0x40)\n      tag_147\n      swap2\n      swap1\n      tag_69\n      jump\t// in\n    tag_147:\n      mload(0x40)\n      dup1\n      swap2\n      sub\n      swap1\n      return\n        /* \"RUSD-Bridge-MaalChain/TokenBridge.sol\":12577:12700  function isMessageFixed(bytes32 _messageId) external view returns (bool) {... */\n    tag_32:\n      tag_148\n      0x04\n      dup1\n      calldatasize\n      sub\n      dup2\n      add\n      swap1\n      tag_149\n      swap2\n      swap1\n      tag_42\n      jump\t// in\n    tag_149:\n      tag_150\n      jump\t// in\n    tag_148:\n      mload(0x40)\n      tag_151\n      swap2\n      swap1\n      tag_51\n      jump\t// in\n    tag_151:\n      mload(0x40)\n      dup1\n      swap2\n      sub\n      swap1\n      return\n        /* \"RUSD-Bridge-MaalChain/TokenBridge.sol\":12444:12569  function getMessage(bytes32 _messageId) external view returns (Message memory) {... */\n    tag_43:\n        /* \"RUSD-Bridge-MaalChain/TokenBridge.sol\":12507:12521  Message memory */\n      tag_152\n      tag_153\n      jump\t// in\n    tag_152:\n        /* \"RUSD-Bridge-MaalChain/TokenBridge.sol\":12541:12549  messages */\n      0x09\n        /* \"RUSD-Bridge-MaalChain/TokenBridge.sol\":12541:12561  messages[_messageId] */\n      0x00\n        /* \"RUSD-Bridge-MaalChain/TokenBridge.sol\":12550:12560  _messageId */\n      dup4\n        /* \"RUSD-Bridge-MaalChain/TokenBridge.sol\":12541:12561  messages[_messageId] */\n      dup2\n      mstore\n      0x20\n      add\n      swap1\n      dup2\n      mstore\n      0x20\n      add\n      0x00\n      keccak256\n        /* \"RUSD-Bridge-MaalChain/TokenBridge.sol\":12534:12561  return messages[_messageId] */\n      mload(0x40)\n      dup1\n      0x80\n      add\n      0x40\n      mstore\n      swap1\n      dup2\n      0x00\n      dup3\n      add\n      0x00\n      swap1\n      sload\n      swap1\n      0x0100\n      exp\n      swap1\n      div\n      0xffffffffffffffffffffffffffffffffffffffff\n      and\n      0xffffffffffffffffffffffffffffffffffffffff\n      and\n      0xffffffffffffffffffffffffffffffffffffffff\n      and\n      dup2\n      mstore\n      0x20\n      add\n      0x01\n      dup3\n      add\n      0x00\n      swap1\n      sload\n      swap1\n      0x0100\n      exp\n      swap1\n      div\n      0xffffffffffffffffffffffffffffffffffffffff\n      and\n      0xffffffffffffffffffffffffffffffffffffffff\n      and\n      0xffffffffffffffffffffffffffffffffffffffff\n      and\n      dup2\n      mstore\n      0x20\n      add\n      0x02\n      dup3\n      add\n      sload\n      dup2\n      mstore\n      0x20\n      add\n      0x03\n      dup3\n      add\n      sload\n      dup2\n      mstore\n      pop\n      pop\n      swap1\n      pop\n        /* \"RUSD-Bridge-MaalChain/TokenBridge.sol\":12444:12569  function getMessage(bytes32 _messageId) external view returns (Message memory) {... */\n      swap2\n      swap1\n      pop\n      jump\t// out\n        /* \"RUSD-Bridge-MaalChain/AccessControl.sol\":2567:2771  function supportsInterface(bytes4 interfaceId) public view virtual override returns (bool) {... */\n    tag_49:\n        /* \"RUSD-Bridge-MaalChain/AccessControl.sol\":2652:2656  bool */\n      0x00\n        /* \"RUSD-Bridge-MaalChain/AccessControl.sol\":2691:2723  type(IAccessControl).interfaceId */\n      0x7965db0b00000000000000000000000000000000000000000000000000000000\n        /* \"RUSD-Bridge-MaalChain/AccessControl.sol\":2676:2723  interfaceId == type(IAccessControl).interfaceId */\n      not(0xffffffffffffffffffffffffffffffffffffffffffffffffffffffff)\n      and\n        /* \"RUSD-Bridge-MaalChain/AccessControl.sol\":2676:2687  interfaceId */\n      dup3\n        /* \"RUSD-Bridge-MaalChain/AccessControl.sol\":2676:2723  interfaceId == type(IAccessControl).interfaceId */\n      not(0xffffffffffffffffffffffffffffffffffffffffffffffffffffffff)\n      and\n      eq\n        /* \"RUSD-Bridge-MaalChain/AccessControl.sol\":2676:2763  interfaceId == type(IAccessControl).interfaceId || super.supportsInterface(interfaceId) */\n      dup1\n      tag_156\n      jumpi\n      pop\n        /* \"RUSD-Bridge-MaalChain/AccessControl.sol\":2727:2763  super.supportsInterface(interfaceId) */\n      tag_157\n        /* \"RUSD-Bridge-MaalChain/AccessControl.sol\":2751:2762  interfaceId */\n      dup3\n        /* \"RUSD-Bridge-MaalChain/AccessControl.sol\":2727:2750  super.supportsInterface */\n      tag_158\n        /* \"RUSD-Bridge-MaalChain/AccessControl.sol\":2727:2763  super.supportsInterface(interfaceId) */\n      jump\t// in\n    tag_157:\n        /* \"RUSD-Bridge-MaalChain/AccessControl.sol\":2676:2763  interfaceId == type(IAccessControl).interfaceId || super.supportsInterface(interfaceId) */\n    tag_156:\n        /* \"RUSD-Bridge-MaalChain/AccessControl.sol\":2669:2763  return interfaceId == type(IAccessControl).interfaceId || super.supportsInterface(interfaceId) */\n      swap1\n      pop\n        /* \"RUSD-Bridge-MaalChain/AccessControl.sol\":2567:2771  function supportsInterface(bytes4 interfaceId) public view virtual override returns (bool) {... */\n      swap2\n      swap1\n      pop\n      jump\t// out\n        /* \"RUSD-Bridge-MaalChain/TokenBridge.sol\":8486:9336  function handleBridgedTokens(address _recipient, address _tokenAddress, uint256 _value, uint256 _nonce)... */\n    tag_55:\n        /* \"RUSD-Bridge-MaalChain/ReentrancyGuard.sol\":2557:2578  _nonReentrantBefore() */\n      tag_160\n        /* \"RUSD-Bridge-MaalChain/ReentrancyGuard.sol\":2557:2576  _nonReentrantBefore */\n      tag_161\n        /* \"RUSD-Bridge-MaalChain/ReentrancyGuard.sol\":2557:2578  _nonReentrantBefore() */\n      jump\t// in\n    tag_160:\n        /* \"RUSD-Bridge-MaalChain/Pausable.sol\":1389:1408  _requireNotPaused() */\n      tag_163\n        /* \"RUSD-Bridge-MaalChain/Pausable.sol\":1389:1406  _requireNotPaused */\n      tag_164\n        /* \"RUSD-Bridge-MaalChain/Pausable.sol\":1389:1408  _requireNotPaused() */\n      jump\t// in\n    tag_163:\n        /* \"RUSD-Bridge-MaalChain/TokenBridge.sol\":8674:8685  initialized */\n      0x04\n      0x00\n      swap1\n      sload\n      swap1\n      0x0100\n      exp\n      swap1\n      div\n      0xff\n      and\n        /* \"RUSD-Bridge-MaalChain/TokenBridge.sol\":8669:8710  if (!initialized) revert NotInitialized() */\n      tag_166\n      jumpi\n        /* \"RUSD-Bridge-MaalChain/TokenBridge.sol\":8694:8710  NotInitialized() */\n      mload(0x40)\n      0x87138d5c00000000000000000000000000000000000000000000000000000000\n      dup2\n      mstore\n      0x04\n      add\n      mload(0x40)\n      dup1\n      swap2\n      sub\n      swap1\n      revert\n        /* \"RUSD-Bridge-MaalChain/TokenBridge.sol\":8669:8710  if (!initialized) revert NotInitialized() */\n    tag_166:\n        /* \"RUSD-Bridge-MaalChain/TokenBridge.sol\":8747:8751  this */\n      address\n        /* \"RUSD-Bridge-MaalChain/TokenBridge.sol\":8725:8752  msg.sender != address(this) */\n      0xffffffffffffffffffffffffffffffffffffffff\n      and\n        /* \"RUSD-Bridge-MaalChain/TokenBridge.sol\":8725:8735  msg.sender */\n      caller\n        /* \"RUSD-Bridge-MaalChain/TokenBridge.sol\":8725:8752  msg.sender != address(this) */\n      0xffffffffffffffffffffffffffffffffffffffff\n      and\n      eq\n        /* \"RUSD-Bridge-MaalChain/TokenBridge.sol\":8721:8781  if (msg.sender != address(this)) revert UnauthorizedCaller() */\n      tag_167\n      jumpi\n        /* \"RUSD-Bridge-MaalChain/TokenBridge.sol\":8761:8781  UnauthorizedCaller() */\n      mload(0x40)\n      0x5c427cd900000000000000000000000000000000000000000000000000000000\n      dup2\n      mstore\n      0x04\n      add\n      mload(0x40)\n      dup1\n      swap2\n      sub\n      swap1\n      revert\n        /* \"RUSD-Bridge-MaalChain/TokenBridge.sol\":8721:8781  if (msg.sender != address(this)) revert UnauthorizedCaller() */\n    tag_167:\n        /* \"RUSD-Bridge-MaalChain/TokenBridge.sol\":8818:8819  0 */\n      0x00\n        /* \"RUSD-Bridge-MaalChain/TokenBridge.sol\":8796:8820  _recipient == address(0) */\n      0xffffffffffffffffffffffffffffffffffffffff\n      and\n        /* \"RUSD-Bridge-MaalChain/TokenBridge.sol\":8796:8806  _recipient */\n      dup5\n        /* \"RUSD-Bridge-MaalChain/TokenBridge.sol\":8796:8820  _recipient == address(0) */\n      0xffffffffffffffffffffffffffffffffffffffff\n      and\n      eq\n        /* \"RUSD-Bridge-MaalChain/TokenBridge.sol\":8796:8851  _recipient == address(0) || _tokenAddress == address(0) */\n      dup1\n      tag_168\n      jumpi\n      pop\n        /* \"RUSD-Bridge-MaalChain/TokenBridge.sol\":8849:8850  0 */\n      0x00\n        /* \"RUSD-Bridge-MaalChain/TokenBridge.sol\":8824:8851  _tokenAddress == address(0) */\n      0xffffffffffffffffffffffffffffffffffffffff\n      and\n        /* \"RUSD-Bridge-MaalChain/TokenBridge.sol\":8824:8837  _tokenAddress */\n      dup4\n        /* \"RUSD-Bridge-MaalChain/TokenBridge.sol\":8824:8851  _tokenAddress == address(0) */\n      0xffffffffffffffffffffffffffffffffffffffff\n      and\n      eq\n        /* \"RUSD-Bridge-MaalChain/TokenBridge.sol\":8796:8851  _recipient == address(0) || _tokenAddress == address(0) */\n    tag_168:\n        /* \"RUSD-Bridge-MaalChain/TokenBridge.sol\":8796:8866  _recipient == address(0) || _tokenAddress == address(0) || _value == 0 */\n      dup1\n      tag_169\n      jumpi\n      pop\n        /* \"RUSD-Bridge-MaalChain/TokenBridge.sol\":8865:8866  0 */\n      0x00\n        /* \"RUSD-Bridge-MaalChain/TokenBridge.sol\":8855:8861  _value */\n      dup3\n        /* \"RUSD-Bridge-MaalChain/TokenBridge.sol\":8855:8866  _value == 0 */\n      eq\n        /* \"RUSD-Bridge-MaalChain/TokenBridge.sol\":8796:8866  _recipient == address(0) || _tokenAddress == address(0) || _value == 0 */\n    tag_169:\n        /* \"RUSD-Bridge-MaalChain/TokenBridge.sol\":8792:8891  if (_recipient == address(0) || _tokenAddress == address(0) || _value == 0) revert InvalidAddress() */\n      iszero\n      tag_170\n      jumpi\n        /* \"RUSD-Bridge-MaalChain/TokenBridge.sol\":8875:8891  InvalidAddress() */\n      mload(0x40)\n      0xe6c4247b00000000000000000000000000000000000000000000000000000000\n      dup2\n      mstore\n      0x04\n      add\n      mload(0x40)\n      dup1\n      swap2\n      sub\n      swap1\n      revert\n        /* \"RUSD-Bridge-MaalChain/TokenBridge.sol\":8792:8891  if (_recipient == address(0) || _tokenAddress == address(0) || _value == 0) revert InvalidAddress() */\n    tag_170:\n        /* \"RUSD-Bridge-MaalChain/TokenBridge.sol\":8904:8916  IERC20 token */\n      0x00\n        /* \"RUSD-Bridge-MaalChain/TokenBridge.sol\":8926:8939  _tokenAddress */\n      dup4\n        /* \"RUSD-Bridge-MaalChain/TokenBridge.sol\":8904:8940  IERC20 token = IERC20(_tokenAddress) */\n      swap1\n      pop\n        /* \"RUSD-Bridge-MaalChain/TokenBridge.sol\":8951:8966  uint256 balance */\n      0x00\n        /* \"RUSD-Bridge-MaalChain/TokenBridge.sol\":8969:8974  token */\n      dup2\n        /* \"RUSD-Bridge-MaalChain/TokenBridge.sol\":8969:8984  token.balanceOf */\n      0xffffffffffffffffffffffffffffffffffffffff\n      and\n      0x70a08231\n        /* \"RUSD-Bridge-MaalChain/TokenBridge.sol\":8993:8997  this */\n      address\n        /* \"RUSD-Bridge-MaalChain/TokenBridge.sol\":8969:8999  token.balanceOf(address(this)) */\n      mload(0x40)\n      dup3\n      0xffffffff\n      and\n      0xe0\n      shl\n      dup2\n      mstore\n      0x04\n      add\n      tag_171\n      swap2\n      swap1\n      tag_117\n      jump\t// in\n    tag_171:\n      0x20\n      mload(0x40)\n      dup1\n      dup4\n      sub\n      dup2\n      dup7\n      gas\n      staticcall\n      iszero\n      dup1\n      iszero\n      tag_173\n      jumpi\n      returndatasize\n      0x00\n      dup1\n      returndatacopy\n      revert(0x00, returndatasize)\n    tag_173:\n      pop\n      pop\n      pop\n      pop\n      mload(0x40)\n      returndatasize\n      not(0x1f)\n      0x1f\n      dup3\n      add\n      and\n      dup3\n      add\n      dup1\n      0x40\n      mstore\n      pop\n      dup2\n      add\n      swap1\n      tag_174\n      swap2\n      swap1\n      tag_175\n      jump\t// in\n    tag_174:\n        /* \"RUSD-Bridge-MaalChain/TokenBridge.sol\":8951:8999  uint256 balance = token.balanceOf(address(this)) */\n      swap1\n      pop\n        /* \"RUSD-Bridge-MaalChain/TokenBridge.sol\":9024:9030  _value */\n      dup4\n        /* \"RUSD-Bridge-MaalChain/TokenBridge.sol\":9014:9021  balance */\n      dup2\n        /* \"RUSD-Bridge-MaalChain/TokenBridge.sol\":9014:9030  balance < _value */\n      lt\n        /* \"RUSD-Bridge-MaalChain/TokenBridge.sol\":9010:9090  if (balance < _value) revert InsufficientBalance(_tokenAddress, _value, balance) */\n      iszero\n      tag_176\n      jumpi\n        /* \"RUSD-Bridge-MaalChain/TokenBridge.sol\":9059:9072  _tokenAddress */\n      dup5\n        /* \"RUSD-Bridge-MaalChain/TokenBridge.sol\":9074:9080  _value */\n      dup5\n        /* \"RUSD-Bridge-MaalChain/TokenBridge.sol\":9082:9089  balance */\n      dup3\n        /* \"RUSD-Bridge-MaalChain/TokenBridge.sol\":9039:9090  InsufficientBalance(_tokenAddress, _value, balance) */\n      mload(0x40)\n      0xdb42144d00000000000000000000000000000000000000000000000000000000\n      dup2\n      mstore\n      0x04\n      add\n      tag_177\n      swap4\n      swap3\n      swap2\n      swap1\n      tag_178\n      jump\t// in\n    tag_177:\n      mload(0x40)\n      dup1\n      swap2\n      sub\n      swap1\n      revert\n        /* \"RUSD-Bridge-MaalChain/TokenBridge.sol\":9010:9090  if (balance < _value) revert InsufficientBalance(_tokenAddress, _value, balance) */\n    tag_176:\n        /* \"RUSD-Bridge-MaalChain/TokenBridge.sol\":9103:9141  token.safeTransfer(_recipient, _value) */\n      tag_179\n        /* \"RUSD-Bridge-MaalChain/TokenBridge.sol\":9122:9132  _recipient */\n      dup7\n        /* \"RUSD-Bridge-MaalChain/TokenBridge.sol\":9134:9140  _value */\n      dup6\n        /* \"RUSD-Bridge-MaalChain/TokenBridge.sol\":9103:9108  token */\n      dup5\n        /* \"RUSD-Bridge-MaalChain/TokenBridge.sol\":9103:9121  token.safeTransfer */\n      0xffffffffffffffffffffffffffffffffffffffff\n      and\n      tag_180\n      swap1\n        /* \"RUSD-Bridge-MaalChain/TokenBridge.sol\":9103:9141  token.safeTransfer(_recipient, _value) */\n      swap3\n      swap2\n      swap1\n      0xffffffff\n      and\n      jump\t// in\n    tag_179:\n        /* \"RUSD-Bridge-MaalChain/TokenBridge.sol\":9154:9171  bytes32 messageId */\n      0x00\n        /* \"RUSD-Bridge-MaalChain/TokenBridge.sol\":9201:9211  _recipient */\n      dup7\n        /* \"RUSD-Bridge-MaalChain/TokenBridge.sol\":9213:9226  _tokenAddress */\n      dup7\n        /* \"RUSD-Bridge-MaalChain/TokenBridge.sol\":9228:9234  _value */\n      dup7\n        /* \"RUSD-Bridge-MaalChain/TokenBridge.sol\":9236:9242  _nonce */\n      dup7\n        /* \"RUSD-Bridge-MaalChain/TokenBridge.sol\":9184:9243  abi.encodePacked(_recipient, _tokenAddress, _value, _nonce) */\n      add(0x20, mload(0x40))\n      tag_181\n      swap5\n      swap4\n      swap3\n      swap2\n      swap1\n      tag_182\n      jump\t// in\n    tag_181:\n      mload(0x40)\n      0x20\n      dup2\n      dup4\n      sub\n      sub\n      dup2\n      mstore\n      swap1\n      0x40\n      mstore\n        /* \"RUSD-Bridge-MaalChain/TokenBridge.sol\":9174:9244  keccak256(abi.encodePacked(_recipient, _tokenAddress, _value, _nonce)) */\n      dup1\n      mload\n      swap1\n      0x20\n      add\n      keccak256\n        /* \"RUSD-Bridge-MaalChain/TokenBridge.sol\":9154:9244  bytes32 messageId = keccak256(abi.encodePacked(_recipient, _tokenAddress, _value, _nonce)) */\n      swap1\n      pop\n        /* \"RUSD-Bridge-MaalChain/TokenBridge.sol\":9286:9296  _recipient */\n      dup7\n        /* \"RUSD-Bridge-MaalChain/TokenBridge.sol\":9260:9328  TokensUnlocked(messageId, _recipient, _tokenAddress, _value, _nonce) */\n      0xffffffffffffffffffffffffffffffffffffffff\n      and\n        /* \"RUSD-Bridge-MaalChain/TokenBridge.sol\":9275:9284  messageId */\n      dup2\n        /* \"RUSD-Bridge-MaalChain/TokenBridge.sol\":9260:9328  TokensUnlocked(messageId, _recipient, _tokenAddress, _value, _nonce) */\n      0x1705447c4ca6f25bc2e5da6270d2bcffd3fef27675b023c5a76e075e99863699\n        /* \"RUSD-Bridge-MaalChain/TokenBridge.sol\":9298:9311  _tokenAddress */\n      dup9\n        /* \"RUSD-Bridge-MaalChain/TokenBridge.sol\":9313:9319  _value */\n      dup9\n        /* \"RUSD-Bridge-MaalChain/TokenBridge.sol\":9321:9327  _nonce */\n      dup9\n        /* \"RUSD-Bridge-MaalChain/TokenBridge.sol\":9260:9328  TokensUnlocked(messageId, _recipient, _tokenAddress, _value, _nonce) */\n      mload(0x40)\n      tag_183\n      swap4\n      swap3\n      swap2\n      swap1\n      tag_178\n      jump\t// in\n    tag_183:\n      mload(0x40)\n      dup1\n      swap2\n      sub\n      swap1\n      log3\n        /* \"RUSD-Bridge-MaalChain/TokenBridge.sol\":8658:9336  {... */\n      pop\n      pop\n      pop\n        /* \"RUSD-Bridge-MaalChain/ReentrancyGuard.sol\":2601:2621  _nonReentrantAfter() */\n      tag_184\n        /* \"RUSD-Bridge-MaalChain/ReentrancyGuard.sol\":2601:2619  _nonReentrantAfter */\n      tag_185\n        /* \"RUSD-Bridge-MaalChain/ReentrancyGuard.sol\":2601:2621  _nonReentrantAfter() */\n      jump\t// in\n    tag_184:\n        /* \"RUSD-Bridge-MaalChain/TokenBridge.sol\":8486:9336  function handleBridgedTokens(address _recipient, address _tokenAddress, uint256 _value, uint256 _nonce)... */\n      pop\n      pop\n      pop\n      pop\n      jump\t// out\n        /* \"RUSD-Bridge-MaalChain/TokenBridge.sol\":9484:10169  function fixFailedMessage(bytes32 _messageId)... */\n    tag_58:\n        /* \"RUSD-Bridge-MaalChain/Pausable.sol\":1389:1408  _requireNotPaused() */\n      tag_187\n        /* \"RUSD-Bridge-MaalChain/Pausable.sol\":1389:1406  _requireNotPaused */\n      tag_164\n        /* \"RUSD-Bridge-MaalChain/Pausable.sol\":1389:1408  _requireNotPaused() */\n      jump\t// in\n    tag_187:\n        /* \"RUSD-Bridge-MaalChain/ReentrancyGuard.sol\":2557:2578  _nonReentrantBefore() */\n      tag_189\n        /* \"RUSD-Bridge-MaalChain/ReentrancyGuard.sol\":2557:2576  _nonReentrantBefore */\n      tag_161\n        /* \"RUSD-Bridge-MaalChain/ReentrancyGuard.sol\":2557:2578  _nonReentrantBefore() */\n      jump\t// in\n    tag_189:\n        /* \"RUSD-Bridge-MaalChain/TokenBridge.sol\":807:832  keccak256(\"RELAYER_ROLE\") */\n      0xe2b7fb3b832174769106daebcfd6d1970523240dda11281102db9363b83b0dc4\n        /* \"RUSD-Bridge-MaalChain/AccessControl.sol\":2494:2510  _checkRole(role) */\n      tag_191\n        /* \"RUSD-Bridge-MaalChain/AccessControl.sol\":2505:2509  role */\n      dup2\n        /* \"RUSD-Bridge-MaalChain/AccessControl.sol\":2494:2504  _checkRole */\n      tag_192\n        /* \"RUSD-Bridge-MaalChain/AccessControl.sol\":2494:2510  _checkRole(role) */\n      jump\t// in\n    tag_191:\n        /* \"RUSD-Bridge-MaalChain/TokenBridge.sol\":9646:9657  initialized */\n      0x04\n      0x00\n      swap1\n      sload\n      swap1\n      0x0100\n      exp\n      swap1\n      div\n      0xff\n      and\n        /* \"RUSD-Bridge-MaalChain/TokenBridge.sol\":9641:9682  if (!initialized) revert NotInitialized() */\n      tag_194\n      jumpi\n        /* \"RUSD-Bridge-MaalChain/TokenBridge.sol\":9666:9682  NotInitialized() */\n      mload(0x40)\n      0x87138d5c00000000000000000000000000000000000000000000000000000000\n      dup2\n      mstore\n      0x04\n      add\n      mload(0x40)\n      dup1\n      swap2\n      sub\n      swap1\n      revert\n        /* \"RUSD-Bridge-MaalChain/TokenBridge.sol\":9641:9682  if (!initialized) revert NotInitialized() */\n    tag_194:\n        /* \"RUSD-Bridge-MaalChain/TokenBridge.sol\":9697:9709  messageFixed */\n      0x0a\n        /* \"RUSD-Bridge-MaalChain/TokenBridge.sol\":9697:9721  messageFixed[_messageId] */\n      0x00\n        /* \"RUSD-Bridge-MaalChain/TokenBridge.sol\":9710:9720  _messageId */\n      dup4\n        /* \"RUSD-Bridge-MaalChain/TokenBridge.sol\":9697:9721  messageFixed[_messageId] */\n      dup2\n      mstore\n      0x20\n      add\n      swap1\n      dup2\n      mstore\n      0x20\n      add\n      0x00\n      keccak256\n      0x00\n      swap1\n      sload\n      swap1\n      0x0100\n      exp\n      swap1\n      div\n      0xff\n      and\n        /* \"RUSD-Bridge-MaalChain/TokenBridge.sol\":9693:9761  if (messageFixed[_messageId]) revert MessageAlreadyFixed(_messageId) */\n      iszero\n      tag_195\n      jumpi\n        /* \"RUSD-Bridge-MaalChain/TokenBridge.sol\":9750:9760  _messageId */\n      dup2\n        /* \"RUSD-Bridge-MaalChain/TokenBridge.sol\":9730:9761  MessageAlreadyFixed(_messageId) */\n      mload(0x40)\n      0x4bb3dcbf00000000000000000000000000000000000000000000000000000000\n      dup2\n      mstore\n      0x04\n      add\n      tag_196\n      swap2\n      swap1\n      tag_69\n      jump\t// in\n    tag_196:\n      mload(0x40)\n      dup1\n      swap2\n      sub\n      swap1\n      revert\n        /* \"RUSD-Bridge-MaalChain/TokenBridge.sol\":9693:9761  if (messageFixed[_messageId]) revert MessageAlreadyFixed(_messageId) */\n    tag_195:\n        /* \"RUSD-Bridge-MaalChain/TokenBridge.sol\":9818:9819  0 */\n      0x00\n        /* \"RUSD-Bridge-MaalChain/TokenBridge.sol\":9776:9820  messages[_messageId].recipient == address(0) */\n      0xffffffffffffffffffffffffffffffffffffffff\n      and\n        /* \"RUSD-Bridge-MaalChain/TokenBridge.sol\":9776:9784  messages */\n      0x09\n        /* \"RUSD-Bridge-MaalChain/TokenBridge.sol\":9776:9796  messages[_messageId] */\n      0x00\n        /* \"RUSD-Bridge-MaalChain/TokenBridge.sol\":9785:9795  _messageId */\n      dup5\n        /* \"RUSD-Bridge-MaalChain/TokenBridge.sol\":9776:9796  messages[_messageId] */\n      dup2\n      mstore\n      0x20\n      add\n      swap1\n      dup2\n      mstore\n      0x20\n      add\n      0x00\n      keccak256\n        /* \"RUSD-Bridge-MaalChain/TokenBridge.sol\":9776:9806  messages[_messageId].recipient */\n      0x00\n      add\n      0x00\n      swap1\n      sload\n      swap1\n      0x0100\n      exp\n      swap1\n      div\n      0xffffffffffffffffffffffffffffffffffffffff\n      and\n        /* \"RUSD-Bridge-MaalChain/TokenBridge.sol\":9776:9820  messages[_messageId].recipient == address(0) */\n      0xffffffffffffffffffffffffffffffffffffffff\n      and\n      sub\n        /* \"RUSD-Bridge-MaalChain/TokenBridge.sol\":9772:9856  if (messages[_messageId].recipient == address(0)) revert MessageNotFound(_messageId) */\n      tag_197\n      jumpi\n        /* \"RUSD-Bridge-MaalChain/TokenBridge.sol\":9845:9855  _messageId */\n      dup2\n        /* \"RUSD-Bridge-MaalChain/TokenBridge.sol\":9829:9856  MessageNotFound(_messageId) */\n      mload(0x40)\n      0x5d803cca00000000000000000000000000000000000000000000000000000000\n      dup2\n      mstore\n      0x04\n      add\n      tag_198\n      swap2\n      swap1\n      tag_69\n      jump\t// in\n    tag_198:\n      mload(0x40)\n      dup1\n      swap2\n      sub\n      swap1\n      revert\n        /* \"RUSD-Bridge-MaalChain/TokenBridge.sol\":9772:9856  if (messages[_messageId].recipient == address(0)) revert MessageNotFound(_messageId) */\n    tag_197:\n        /* \"RUSD-Bridge-MaalChain/TokenBridge.sol\":9869:9891  Message memory message */\n      0x00\n        /* \"RUSD-Bridge-MaalChain/TokenBridge.sol\":9894:9902  messages */\n      0x09\n        /* \"RUSD-Bridge-MaalChain/TokenBridge.sol\":9894:9914  messages[_messageId] */\n      0x00\n        /* \"RUSD-Bridge-MaalChain/TokenBridge.sol\":9903:9913  _messageId */\n      dup5\n        /* \"RUSD-Bridge-MaalChain/TokenBridge.sol\":9894:9914  messages[_messageId] */\n      dup2\n      mstore\n      0x20\n      add\n      swap1\n      dup2\n      mstore\n      0x20\n      add\n      0x00\n      keccak256\n        /* \"RUSD-Bridge-MaalChain/TokenBridge.sol\":9869:9914  Message memory message = messages[_messageId] */\n      mload(0x40)\n      dup1\n      0x80\n      add\n      0x40\n      mstore\n      swap1\n      dup2\n      0x00\n      dup3\n      add\n      0x00\n      swap1\n      sload\n      swap1\n      0x0100\n      exp\n      swap1\n      div\n      0xffffffffffffffffffffffffffffffffffffffff\n      and\n      0xffffffffffffffffffffffffffffffffffffffff\n      and\n      0xffffffffffffffffffffffffffffffffffffffff\n      and\n      dup2\n      mstore\n      0x20\n      add\n      0x01\n      dup3\n      add\n      0x00\n      swap1\n      sload\n      swap1\n      0x0100\n      exp\n      swap1\n      div\n      0xffffffffffffffffffffffffffffffffffffffff\n      and\n      0xffffffffffffffffffffffffffffffffffffffff\n      and\n      0xffffffffffffffffffffffffffffffffffffffff\n      and\n      dup2\n      mstore\n      0x20\n      add\n      0x02\n      dup3\n      add\n      sload\n      dup2\n      mstore\n      0x20\n      add\n      0x03\n      dup3\n      add\n      sload\n      dup2\n      mstore\n      pop\n      pop\n      swap1\n      pop\n        /* \"RUSD-Bridge-MaalChain/TokenBridge.sol\":9952:9956  true */\n      0x01\n        /* \"RUSD-Bridge-MaalChain/TokenBridge.sol\":9925:9937  messageFixed */\n      0x0a\n        /* \"RUSD-Bridge-MaalChain/TokenBridge.sol\":9925:9949  messageFixed[_messageId] */\n      0x00\n        /* \"RUSD-Bridge-MaalChain/TokenBridge.sol\":9938:9948  _messageId */\n      dup6\n        /* \"RUSD-Bridge-MaalChain/TokenBridge.sol\":9925:9949  messageFixed[_messageId] */\n      dup2\n      mstore\n      0x20\n      add\n      swap1\n      dup2\n      mstore\n      0x20\n      add\n      0x00\n      keccak256\n      0x00\n        /* \"RUSD-Bridge-MaalChain/TokenBridge.sol\":9925:9956  messageFixed[_messageId] = true */\n      0x0100\n      exp\n      dup2\n      sload\n      dup2\n      0xff\n      mul\n      not\n      and\n      swap1\n      dup4\n      iszero\n      iszero\n      mul\n      or\n      swap1\n      sstore\n      pop\n        /* \"RUSD-Bridge-MaalChain/TokenBridge.sol\":9969:10057  IERC20(messages[_messageId].tokenAddress).safeTransfer(message.recipient, message.value) */\n      tag_199\n        /* \"RUSD-Bridge-MaalChain/TokenBridge.sol\":10024:10031  message */\n      dup2\n        /* \"RUSD-Bridge-MaalChain/TokenBridge.sol\":10024:10041  message.recipient */\n      0x00\n      add\n      mload\n        /* \"RUSD-Bridge-MaalChain/TokenBridge.sol\":10043:10050  message */\n      dup3\n        /* \"RUSD-Bridge-MaalChain/TokenBridge.sol\":10043:10056  message.value */\n      0x40\n      add\n      mload\n        /* \"RUSD-Bridge-MaalChain/TokenBridge.sol\":9976:9984  messages */\n      0x09\n        /* \"RUSD-Bridge-MaalChain/TokenBridge.sol\":9976:9996  messages[_messageId] */\n      0x00\n        /* \"RUSD-Bridge-MaalChain/TokenBridge.sol\":9985:9995  _messageId */\n      dup8\n        /* \"RUSD-Bridge-MaalChain/TokenBridge.sol\":9976:9996  messages[_messageId] */\n      dup2\n      mstore\n      0x20\n      add\n      swap1\n      dup2\n      mstore\n      0x20\n      add\n      0x00\n      keccak256\n        /* \"RUSD-Bridge-MaalChain/TokenBridge.sol\":9976:10009  messages[_messageId].tokenAddress */\n      0x01\n      add\n      0x00\n      swap1\n      sload\n      swap1\n      0x0100\n      exp\n      swap1\n      div\n      0xffffffffffffffffffffffffffffffffffffffff\n      and\n        /* \"RUSD-Bridge-MaalChain/TokenBridge.sol\":9969:10023  IERC20(messages[_messageId].tokenAddress).safeTransfer */\n      0xffffffffffffffffffffffffffffffffffffffff\n      and\n      tag_180\n      swap1\n        /* \"RUSD-Bridge-MaalChain/TokenBridge.sol\":9969:10057  IERC20(messages[_messageId].tokenAddress).safeTransfer(message.recipient, message.value) */\n      swap3\n      swap2\n      swap1\n      0xffffffff\n      and\n      jump\t// in\n    tag_199:\n        /* \"RUSD-Bridge-MaalChain/TokenBridge.sol\":10106:10113  message */\n      dup1\n        /* \"RUSD-Bridge-MaalChain/TokenBridge.sol\":10106:10123  message.recipient */\n      0x00\n      add\n      mload\n        /* \"RUSD-Bridge-MaalChain/TokenBridge.sol\":10075:10161  FailedMessageFixed(_messageId, message.recipient, message.tokenAddress, message.value) */\n      0xffffffffffffffffffffffffffffffffffffffff\n      and\n        /* \"RUSD-Bridge-MaalChain/TokenBridge.sol\":10094:10104  _messageId */\n      dup4\n        /* \"RUSD-Bridge-MaalChain/TokenBridge.sol\":10075:10161  FailedMessageFixed(_messageId, message.recipient, message.tokenAddress, message.value) */\n      0x07b5483b8e4bd8ea240a474d5117738350e7d431e3668c48a97910b0b397796a\n        /* \"RUSD-Bridge-MaalChain/TokenBridge.sol\":10125:10132  message */\n      dup4\n        /* \"RUSD-Bridge-MaalChain/TokenBridge.sol\":10125:10145  message.tokenAddress */\n      0x20\n      add\n      mload\n        /* \"RUSD-Bridge-MaalChain/TokenBridge.sol\":10147:10154  message */\n      dup5\n        /* \"RUSD-Bridge-MaalChain/TokenBridge.sol\":10147:10160  message.value */\n      0x40\n      add\n      mload\n        /* \"RUSD-Bridge-MaalChain/TokenBridge.sol\":10075:10161  FailedMessageFixed(_messageId, message.recipient, message.tokenAddress, message.value) */\n      mload(0x40)\n      tag_200\n      swap3\n      swap2\n      swap1\n      tag_201\n      jump\t// in\n    tag_200:\n      mload(0x40)\n      dup1\n      swap2\n      sub\n      swap1\n      log3\n        /* \"RUSD-Bridge-MaalChain/TokenBridge.sol\":9630:10169  {... */\n      pop\n        /* \"RUSD-Bridge-MaalChain/ReentrancyGuard.sol\":2589:2590  _ */\n      pop\n        /* \"RUSD-Bridge-MaalChain/ReentrancyGuard.sol\":2601:2621  _nonReentrantAfter() */\n      tag_202\n        /* \"RUSD-Bridge-MaalChain/ReentrancyGuard.sol\":2601:2619  _nonReentrantAfter */\n      tag_185\n        /* \"RUSD-Bridge-MaalChain/ReentrancyGuard.sol\":2601:2621  _nonReentrantAfter() */\n      jump\t// in\n    tag_202:\n        /* \"RUSD-Bridge-MaalChain/TokenBridge.sol\":9484:10169  function fixFailedMessage(bytes32 _messageId)... */\n      pop\n      jump\t// out\n        /* \"RUSD-Bridge-MaalChain/TokenBridge.sol\":1164:1187  bool public initialized */\n    tag_60:\n      0x04\n      0x00\n      swap1\n      sload\n      swap1\n      0x0100\n      exp\n      swap1\n      div\n      0xff\n      and\n      dup2\n      jump\t// out\n        /* \"RUSD-Bridge-MaalChain/TokenBridge.sol\":12167:12299  function isMessageProcessed(bytes32 _messageId) external view returns (bool) {... */\n    tag_64:\n        /* \"RUSD-Bridge-MaalChain/TokenBridge.sol\":12238:12242  bool */\n      0x00\n        /* \"RUSD-Bridge-MaalChain/TokenBridge.sol\":12262:12279  processedMessages */\n      0x07\n        /* \"RUSD-Bridge-MaalChain/TokenBridge.sol\":12262:12291  processedMessages[_messageId] */\n      0x00\n        /* \"RUSD-Bridge-MaalChain/TokenBridge.sol\":12280:12290  _messageId */\n      dup4\n        /* \"RUSD-Bridge-MaalChain/TokenBridge.sol\":12262:12291  processedMessages[_messageId] */\n      dup2\n      mstore\n      0x20\n      add\n      swap1\n      dup2\n      mstore\n      0x20\n      add\n      0x00\n      keccak256\n      0x00\n      swap1\n      sload\n      swap1\n      0x0100\n      exp\n      swap1\n      div\n      0xff\n      and\n        /* \"RUSD-Bridge-MaalChain/TokenBridge.sol\":12255:12291  return processedMessages[_messageId] */\n      swap1\n      pop\n        /* \"RUSD-Bridge-MaalChain/TokenBridge.sol\":12167:12299  function isMessageProcessed(bytes32 _messageId) external view returns (bool) {... */\n      swap2\n      swap1\n      pop\n      jump\t// out\n        /* \"RUSD-Bridge-MaalChain/TokenBridge.sol\":912:980  bytes32 public constant EMERGENCY_ROLE = keccak256(\"EMERGENCY_ROLE\") */\n    tag_67:\n        /* \"RUSD-Bridge-MaalChain/TokenBridge.sol\":953:980  keccak256(\"EMERGENCY_ROLE\") */\n      0xbf233dd2aafeb4d50879c4aa5c81e96d92f6e6945c906a58f9f2d1c1631b4b26\n        /* \"RUSD-Bridge-MaalChain/TokenBridge.sol\":912:980  bytes32 public constant EMERGENCY_ROLE = keccak256(\"EMERGENCY_ROLE\") */\n      dup2\n      jump\t// out\n        /* \"RUSD-Bridge-MaalChain/AccessControl.sol\":3847:3969  function getRoleAdmin(bytes32 role) public view virtual returns (bytes32) {... */\n    tag_72:\n        /* \"RUSD-Bridge-MaalChain/AccessControl.sol\":3912:3919  bytes32 */\n      0x00\n        /* \"RUSD-Bridge-MaalChain/AccessControl.sol\":3939:3945  _roles */\n      0x01\n        /* \"RUSD-Bridge-MaalChain/AccessControl.sol\":3939:3951  _roles[role] */\n      0x00\n        /* \"RUSD-Bridge-MaalChain/AccessControl.sol\":3946:3950  role */\n      dup4\n        /* \"RUSD-Bridge-MaalChain/AccessControl.sol\":3939:3951  _roles[role] */\n      dup2\n      mstore\n      0x20\n      add\n      swap1\n      dup2\n      mstore\n      0x20\n      add\n      0x00\n      keccak256\n        /* \"RUSD-Bridge-MaalChain/AccessControl.sol\":3939:3961  _roles[role].adminRole */\n      0x01\n      add\n      sload\n        /* \"RUSD-Bridge-MaalChain/AccessControl.sol\":3932:3961  return _roles[role].adminRole */\n      swap1\n      pop\n        /* \"RUSD-Bridge-MaalChain/AccessControl.sol\":3847:3969  function getRoleAdmin(bytes32 role) public view virtual returns (bytes32) {... */\n      swap2\n      swap1\n      pop\n      jump\t// out\n        /* \"RUSD-Bridge-MaalChain/AccessControl.sol\":4279:4417  function grantRole(bytes32 role, address account) public virtual onlyRole(getRoleAdmin(role)) {... */\n    tag_77:\n        /* \"RUSD-Bridge-MaalChain/AccessControl.sol\":4353:4371  getRoleAdmin(role) */\n      tag_205\n        /* \"RUSD-Bridge-MaalChain/AccessControl.sol\":4366:4370  role */\n      dup3\n        /* \"RUSD-Bridge-MaalChain/AccessControl.sol\":4353:4365  getRoleAdmin */\n      tag_72\n        /* \"RUSD-Bridge-MaalChain/AccessControl.sol\":4353:4371  getRoleAdmin(role) */\n      jump\t// in\n    tag_205:\n        /* \"RUSD-Bridge-MaalChain/AccessControl.sol\":2494:2510  _checkRole(role) */\n      tag_207\n        /* \"RUSD-Bridge-MaalChain/AccessControl.sol\":2505:2509  role */\n      dup2\n        /* \"RUSD-Bridge-MaalChain/AccessControl.sol\":2494:2504  _checkRole */\n      tag_192\n        /* \"RUSD-Bridge-MaalChain/AccessControl.sol\":2494:2510  _checkRole(role) */\n      jump\t// in\n    tag_207:\n        /* \"RUSD-Bridge-MaalChain/AccessControl.sol\":4384:4409  _grantRole(role, account) */\n      tag_209\n        /* \"RUSD-Bridge-MaalChain/AccessControl.sol\":4395:4399  role */\n      dup4\n        /* \"RUSD-Bridge-MaalChain/AccessControl.sol\":4401:4408  account */\n      dup4\n        /* \"RUSD-Bridge-MaalChain/AccessControl.sol\":4384:4394  _grantRole */\n      tag_210\n        /* \"RUSD-Bridge-MaalChain/AccessControl.sol\":4384:4409  _grantRole(role, account) */\n      jump\t// in\n    tag_209:\n      pop\n        /* \"RUSD-Bridge-MaalChain/AccessControl.sol\":4279:4417  function grantRole(bytes32 role, address account) public virtual onlyRole(getRoleAdmin(role)) {... */\n      pop\n      pop\n      pop\n      jump\t// out\n        /* \"RUSD-Bridge-MaalChain/AccessControl.sol\":5416:5667  function renounceRole(bytes32 role, address callerConfirmation) public virtual {... */\n    tag_80:\n        /* \"RUSD-Bridge-MaalChain/AccessControl.sol\":5532:5544  _msgSender() */\n      tag_212\n        /* \"RUSD-Bridge-MaalChain/AccessControl.sol\":5532:5542  _msgSender */\n      tag_213\n        /* \"RUSD-Bridge-MaalChain/AccessControl.sol\":5532:5544  _msgSender() */\n      jump\t// in\n    tag_212:\n        /* \"RUSD-Bridge-MaalChain/AccessControl.sol\":5510:5544  callerConfirmation != _msgSender() */\n      0xffffffffffffffffffffffffffffffffffffffff\n      and\n        /* \"RUSD-Bridge-MaalChain/AccessControl.sol\":5510:5528  callerConfirmation */\n      dup2\n        /* \"RUSD-Bridge-MaalChain/AccessControl.sol\":5510:5544  callerConfirmation != _msgSender() */\n      0xffffffffffffffffffffffffffffffffffffffff\n      and\n      eq\n        /* \"RUSD-Bridge-MaalChain/AccessControl.sol\":5506:5610  if (callerConfirmation != _msgSender()) {... */\n      tag_214\n      jumpi\n        /* \"RUSD-Bridge-MaalChain/AccessControl.sol\":5568:5598  AccessControlBadConfirmation() */\n      mload(0x40)\n      0x6697b23200000000000000000000000000000000000000000000000000000000\n      dup2\n      mstore\n      0x04\n      add\n      mload(0x40)\n      dup1\n      swap2\n      sub\n      swap1\n      revert\n        /* \"RUSD-Bridge-MaalChain/AccessControl.sol\":5506:5610  if (callerConfirmation != _msgSender()) {... */\n    tag_214:\n        /* \"RUSD-Bridge-MaalChain/AccessControl.sol\":5622:5659  _revokeRole(role, callerConfirmation) */\n      tag_215\n        /* \"RUSD-Bridge-MaalChain/AccessControl.sol\":5634:5638  role */\n      dup3\n        /* \"RUSD-Bridge-MaalChain/AccessControl.sol\":5640:5658  callerConfirmation */\n      dup3\n        /* \"RUSD-Bridge-MaalChain/AccessControl.sol\":5622:5633  _revokeRole */\n      tag_216\n        /* \"RUSD-Bridge-MaalChain/AccessControl.sol\":5622:5659  _revokeRole(role, callerConfirmation) */\n      jump\t// in\n    tag_215:\n      pop\n        /* \"RUSD-Bridge-MaalChain/AccessControl.sol\":5416:5667  function renounceRole(bytes32 role, address callerConfirmation) public virtual {... */\n      pop\n      pop\n      jump\t// out\n        /* \"RUSD-Bridge-MaalChain/TokenBridge.sol\":11895:11977  function unpause() external onlyRole(EMERGENCY_ROLE) {... */\n    tag_82:\n        /* \"RUSD-Bridge-MaalChain/TokenBridge.sol\":953:980  keccak256(\"EMERGENCY_ROLE\") */\n      0xbf233dd2aafeb4d50879c4aa5c81e96d92f6e6945c906a58f9f2d1c1631b4b26\n        /* \"RUSD-Bridge-MaalChain/AccessControl.sol\":2494:2510  _checkRole(role) */\n      tag_218\n        /* \"RUSD-Bridge-MaalChain/AccessControl.sol\":2505:2509  role */\n      dup2\n        /* \"RUSD-Bridge-MaalChain/AccessControl.sol\":2494:2504  _checkRole */\n      tag_192\n        /* \"RUSD-Bridge-MaalChain/AccessControl.sol\":2494:2510  _checkRole(role) */\n      jump\t// in\n    tag_218:\n        /* \"RUSD-Bridge-MaalChain/TokenBridge.sol\":11959:11969  _unpause() */\n      tag_220\n        /* \"RUSD-Bridge-MaalChain/TokenBridge.sol\":11959:11967  _unpause */\n      tag_221\n        /* \"RUSD-Bridge-MaalChain/TokenBridge.sol\":11959:11969  _unpause() */\n      jump\t// in\n    tag_220:\n        /* \"RUSD-Bridge-MaalChain/TokenBridge.sol\":11895:11977  function unpause() external onlyRole(EMERGENCY_ROLE) {... */\n      pop\n      jump\t// out\n        /* \"RUSD-Bridge-MaalChain/TokenBridge.sol\":7215:8216  function receiveMessage(bytes32 _messageId, address _sender, address _target, bytes calldata _data)... */\n    tag_86:\n        /* \"RUSD-Bridge-MaalChain/Pausable.sol\":1389:1408  _requireNotPaused() */\n      tag_223\n        /* \"RUSD-Bridge-MaalChain/Pausable.sol\":1389:1406  _requireNotPaused */\n      tag_164\n        /* \"RUSD-Bridge-MaalChain/Pausable.sol\":1389:1408  _requireNotPaused() */\n      jump\t// in\n    tag_223:\n        /* \"RUSD-Bridge-MaalChain/TokenBridge.sol\":807:832  keccak256(\"RELAYER_ROLE\") */\n      0xe2b7fb3b832174769106daebcfd6d1970523240dda11281102db9363b83b0dc4\n        /* \"RUSD-Bridge-MaalChain/AccessControl.sol\":2494:2510  _checkRole(role) */\n      tag_225\n        /* \"RUSD-Bridge-MaalChain/AccessControl.sol\":2505:2509  role */\n      dup2\n        /* \"RUSD-Bridge-MaalChain/AccessControl.sol\":2494:2504  _checkRole */\n      tag_192\n        /* \"RUSD-Bridge-MaalChain/AccessControl.sol\":2494:2510  _checkRole(role) */\n      jump\t// in\n    tag_225:\n        /* \"RUSD-Bridge-MaalChain/TokenBridge.sol\":7409:7420  initialized */\n      0x04\n      0x00\n      swap1\n      sload\n      swap1\n      0x0100\n      exp\n      swap1\n      div\n      0xff\n      and\n        /* \"RUSD-Bridge-MaalChain/TokenBridge.sol\":7404:7445  if (!initialized) revert NotInitialized() */\n      tag_227\n      jumpi\n        /* \"RUSD-Bridge-MaalChain/TokenBridge.sol\":7429:7445  NotInitialized() */\n      mload(0x40)\n      0x87138d5c00000000000000000000000000000000000000000000000000000000\n      dup2\n      mstore\n      0x04\n      add\n      mload(0x40)\n      dup1\n      swap2\n      sub\n      swap1\n      revert\n        /* \"RUSD-Bridge-MaalChain/TokenBridge.sol\":7404:7445  if (!initialized) revert NotInitialized() */\n    tag_227:\n        /* \"RUSD-Bridge-MaalChain/TokenBridge.sol\":7471:7488  remoteTokenBridge */\n      0x02\n      0x01\n      swap1\n      sload\n      swap1\n      0x0100\n      exp\n      swap1\n      div\n      0xffffffffffffffffffffffffffffffffffffffff\n      and\n        /* \"RUSD-Bridge-MaalChain/TokenBridge.sol\":7460:7488  _sender != remoteTokenBridge */\n      0xffffffffffffffffffffffffffffffffffffffff\n      and\n        /* \"RUSD-Bridge-MaalChain/TokenBridge.sol\":7460:7467  _sender */\n      dup6\n        /* \"RUSD-Bridge-MaalChain/TokenBridge.sol\":7460:7488  _sender != remoteTokenBridge */\n      0xffffffffffffffffffffffffffffffffffffffff\n      and\n      eq\n        /* \"RUSD-Bridge-MaalChain/TokenBridge.sol\":7456:7519  if (_sender != remoteTokenBridge) revert InvalidMessageSender() */\n      tag_228\n      jumpi\n        /* \"RUSD-Bridge-MaalChain/TokenBridge.sol\":7497:7519  InvalidMessageSender() */\n      mload(0x40)\n      0x7fee69a100000000000000000000000000000000000000000000000000000000\n      dup2\n      mstore\n      0x04\n      add\n      mload(0x40)\n      dup1\n      swap2\n      sub\n      swap1\n      revert\n        /* \"RUSD-Bridge-MaalChain/TokenBridge.sol\":7456:7519  if (_sender != remoteTokenBridge) revert InvalidMessageSender() */\n    tag_228:\n        /* \"RUSD-Bridge-MaalChain/TokenBridge.sol\":7553:7557  this */\n      address\n        /* \"RUSD-Bridge-MaalChain/TokenBridge.sol\":7534:7558  _target != address(this) */\n      0xffffffffffffffffffffffffffffffffffffffff\n      and\n        /* \"RUSD-Bridge-MaalChain/TokenBridge.sol\":7534:7541  _target */\n      dup5\n        /* \"RUSD-Bridge-MaalChain/TokenBridge.sol\":7534:7558  _target != address(this) */\n      0xffffffffffffffffffffffffffffffffffffffff\n      and\n      eq\n        /* \"RUSD-Bridge-MaalChain/TokenBridge.sol\":7530:7582  if (_target != address(this)) revert InvalidTarget() */\n      tag_229\n      jumpi\n        /* \"RUSD-Bridge-MaalChain/TokenBridge.sol\":7567:7582  InvalidTarget() */\n      mload(0x40)\n      0x82d5d76a00000000000000000000000000000000000000000000000000000000\n      dup2\n      mstore\n      0x04\n      add\n      mload(0x40)\n      dup1\n      swap2\n      sub\n      swap1\n      revert\n        /* \"RUSD-Bridge-MaalChain/TokenBridge.sol\":7530:7582  if (_target != address(this)) revert InvalidTarget() */\n    tag_229:\n        /* \"RUSD-Bridge-MaalChain/TokenBridge.sol\":7597:7614  processedMessages */\n      0x07\n        /* \"RUSD-Bridge-MaalChain/TokenBridge.sol\":7597:7626  processedMessages[_messageId] */\n      0x00\n        /* \"RUSD-Bridge-MaalChain/TokenBridge.sol\":7615:7625  _messageId */\n      dup8\n        /* \"RUSD-Bridge-MaalChain/TokenBridge.sol\":7597:7626  processedMessages[_messageId] */\n      dup2\n      mstore\n      0x20\n      add\n      swap1\n      dup2\n      mstore\n      0x20\n      add\n      0x00\n      keccak256\n      0x00\n      swap1\n      sload\n      swap1\n      0x0100\n      exp\n      swap1\n      div\n      0xff\n      and\n        /* \"RUSD-Bridge-MaalChain/TokenBridge.sol\":7593:7670  if (processedMessages[_messageId]) revert MessageAlreadyProcessed(_messageId) */\n      iszero\n      tag_230\n      jumpi\n        /* \"RUSD-Bridge-MaalChain/TokenBridge.sol\":7659:7669  _messageId */\n      dup6\n        /* \"RUSD-Bridge-MaalChain/TokenBridge.sol\":7635:7670  MessageAlreadyProcessed(_messageId) */\n      mload(0x40)\n      0x730ac1e200000000000000000000000000000000000000000000000000000000\n      dup2\n      mstore\n      0x04\n      add\n      tag_231\n      swap2\n      swap1\n      tag_69\n      jump\t// in\n    tag_231:\n      mload(0x40)\n      dup1\n      swap2\n      sub\n      swap1\n      revert\n        /* \"RUSD-Bridge-MaalChain/TokenBridge.sol\":7593:7670  if (processedMessages[_messageId]) revert MessageAlreadyProcessed(_messageId) */\n    tag_230:\n        /* \"RUSD-Bridge-MaalChain/TokenBridge.sol\":7715:7719  true */\n      0x01\n        /* \"RUSD-Bridge-MaalChain/TokenBridge.sol\":7683:7700  processedMessages */\n      0x07\n        /* \"RUSD-Bridge-MaalChain/TokenBridge.sol\":7683:7712  processedMessages[_messageId] */\n      0x00\n        /* \"RUSD-Bridge-MaalChain/TokenBridge.sol\":7701:7711  _messageId */\n      dup9\n        /* \"RUSD-Bridge-MaalChain/TokenBridge.sol\":7683:7712  processedMessages[_messageId] */\n      dup2\n      mstore\n      0x20\n      add\n      swap1\n      dup2\n      mstore\n      0x20\n      add\n      0x00\n      keccak256\n      0x00\n        /* \"RUSD-Bridge-MaalChain/TokenBridge.sol\":7683:7719  processedMessages[_messageId] = true */\n      0x0100\n      exp\n      dup2\n      sload\n      dup2\n      0xff\n      mul\n      not\n      and\n      swap1\n      dup4\n      iszero\n      iszero\n      mul\n      or\n      swap1\n      sstore\n      pop\n        /* \"RUSD-Bridge-MaalChain/TokenBridge.sol\":7765:7777  bool success */\n      0x00\n        /* \"RUSD-Bridge-MaalChain/TokenBridge.sol\":7779:7802  bytes memory returnData */\n      dup1\n        /* \"RUSD-Bridge-MaalChain/TokenBridge.sol\":7814:7818  this */\n      address\n        /* \"RUSD-Bridge-MaalChain/TokenBridge.sol\":7806:7824  address(this).call */\n      0xffffffffffffffffffffffffffffffffffffffff\n      and\n        /* \"RUSD-Bridge-MaalChain/TokenBridge.sol\":7825:7830  _data */\n      dup6\n      dup6\n        /* \"RUSD-Bridge-MaalChain/TokenBridge.sol\":7806:7831  address(this).call(_data) */\n      mload(0x40)\n      tag_232\n      swap3\n      swap2\n      swap1\n      tag_233\n      jump\t// in\n    tag_232:\n      0x00\n      mload(0x40)\n      dup1\n      dup4\n      sub\n      dup2\n      0x00\n      dup7\n      gas\n      call\n      swap2\n      pop\n      pop\n      returndatasize\n      dup1\n      0x00\n      dup2\n      eq\n      tag_236\n      jumpi\n      mload(0x40)\n      swap2\n      pop\n      and(add(returndatasize, 0x3f), not(0x1f))\n      dup3\n      add\n      0x40\n      mstore\n      returndatasize\n      dup3\n      mstore\n      returndatasize\n      0x00\n      0x20\n      dup5\n      add\n      returndatacopy\n      jump(tag_235)\n    tag_236:\n      0x60\n      swap2\n      pop\n    tag_235:\n      pop\n        /* \"RUSD-Bridge-MaalChain/TokenBridge.sol\":7764:7831  (bool success, bytes memory returnData) = address(this).call(_data) */\n      swap2\n      pop\n      swap2\n      pop\n        /* \"RUSD-Bridge-MaalChain/TokenBridge.sol\":7847:7854  success */\n      dup2\n        /* \"RUSD-Bridge-MaalChain/TokenBridge.sol\":7842:8079  if (!success) {... */\n      tag_237\n      jumpi\n        /* \"RUSD-Bridge-MaalChain/TokenBridge.sol\":7895:7896  0 */\n      0x00\n        /* \"RUSD-Bridge-MaalChain/TokenBridge.sol\":7875:7885  returnData */\n      dup2\n        /* \"RUSD-Bridge-MaalChain/TokenBridge.sol\":7875:7892  returnData.length */\n      mload\n        /* \"RUSD-Bridge-MaalChain/TokenBridge.sol\":7875:7896  returnData.length > 0 */\n      gt\n        /* \"RUSD-Bridge-MaalChain/TokenBridge.sol\":7871:8029  if (returnData.length > 0) {... */\n      iszero\n      tag_238\n      jumpi\n        /* \"RUSD-Bridge-MaalChain/TokenBridge.sol\":7983:7993  returnData */\n      dup1\n        /* \"RUSD-Bridge-MaalChain/TokenBridge.sol\":7977:7994  mload(returnData) */\n      mload\n        /* \"RUSD-Bridge-MaalChain/TokenBridge.sol\":7972:7974  32 */\n      0x20\n        /* \"RUSD-Bridge-MaalChain/TokenBridge.sol\":7960:7970  returnData */\n      dup3\n        /* \"RUSD-Bridge-MaalChain/TokenBridge.sol\":7956:7975  add(returnData, 32) */\n      add\n        /* \"RUSD-Bridge-MaalChain/TokenBridge.sol\":7949:7995  revert(add(returnData, 32), mload(returnData)) */\n      revert\n        /* \"RUSD-Bridge-MaalChain/TokenBridge.sol\":7871:8029  if (returnData.length > 0) {... */\n    tag_238:\n        /* \"RUSD-Bridge-MaalChain/TokenBridge.sol\":8050:8067  ExecutionFailed() */\n      mload(0x40)\n      0xacfdb44400000000000000000000000000000000000000000000000000000000\n      dup2\n      mstore\n      0x04\n      add\n      mload(0x40)\n      dup1\n      swap2\n      sub\n      swap1\n      revert\n        /* \"RUSD-Bridge-MaalChain/TokenBridge.sol\":7842:8079  if (!success) {... */\n    tag_237:\n        /* \"RUSD-Bridge-MaalChain/TokenBridge.sol\":8133:8140  _target */\n      dup6\n        /* \"RUSD-Bridge-MaalChain/TokenBridge.sol\":8096:8155  MessageReceived(_messageId, _sender, _target, _data, nonce) */\n      0xffffffffffffffffffffffffffffffffffffffff\n      and\n        /* \"RUSD-Bridge-MaalChain/TokenBridge.sol\":8124:8131  _sender */\n      dup8\n        /* \"RUSD-Bridge-MaalChain/TokenBridge.sol\":8096:8155  MessageReceived(_messageId, _sender, _target, _data, nonce) */\n      0xffffffffffffffffffffffffffffffffffffffff\n      and\n        /* \"RUSD-Bridge-MaalChain/TokenBridge.sol\":8112:8122  _messageId */\n      dup10\n        /* \"RUSD-Bridge-MaalChain/TokenBridge.sol\":8096:8155  MessageReceived(_messageId, _sender, _target, _data, nonce) */\n      0xae7333f737c1a470cc349ec73a22eb150caf01dd73b27e6542e556901057d1c8\n        /* \"RUSD-Bridge-MaalChain/TokenBridge.sol\":8142:8147  _data */\n      dup9\n      dup9\n        /* \"RUSD-Bridge-MaalChain/TokenBridge.sol\":8149:8154  nonce */\n      sload(0x05)\n        /* \"RUSD-Bridge-MaalChain/TokenBridge.sol\":8096:8155  MessageReceived(_messageId, _sender, _target, _data, nonce) */\n      mload(0x40)\n      tag_239\n      swap4\n      swap3\n      swap2\n      swap1\n      tag_240\n      jump\t// in\n    tag_239:\n      mload(0x40)\n      dup1\n      swap2\n      sub\n      swap1\n      log4\n        /* \"RUSD-Bridge-MaalChain/TokenBridge.sol\":8188:8198  _messageId */\n      dup8\n        /* \"RUSD-Bridge-MaalChain/TokenBridge.sol\":8171:8208  MessageProcessed(_messageId, success) */\n      0xce1682f5002e4561cc52ee288e67110a7e66071f7f158d4c146bc35616eddeab\n        /* \"RUSD-Bridge-MaalChain/TokenBridge.sol\":8200:8207  success */\n      dup4\n        /* \"RUSD-Bridge-MaalChain/TokenBridge.sol\":8171:8208  MessageProcessed(_messageId, success) */\n      mload(0x40)\n      tag_241\n      swap2\n      swap1\n      tag_51\n      jump\t// in\n    tag_241:\n      mload(0x40)\n      dup1\n      swap2\n      sub\n      swap1\n      log2\n        /* \"RUSD-Bridge-MaalChain/TokenBridge.sol\":7393:8216  {... */\n      pop\n      pop\n        /* \"RUSD-Bridge-MaalChain/Pausable.sol\":1419:1420  _ */\n      pop\n        /* \"RUSD-Bridge-MaalChain/TokenBridge.sol\":7215:8216  function receiveMessage(bytes32 _messageId, address _sender, address _target, bytes calldata _data)... */\n      pop\n      pop\n      pop\n      pop\n      pop\n      jump\t// out\n        /* \"RUSD-Bridge-MaalChain/Pausable.sol\":1784:1870  function paused() public view virtual returns (bool) {... */\n    tag_88:\n        /* \"RUSD-Bridge-MaalChain/Pausable.sol\":1831:1835  bool */\n      0x00\n        /* \"RUSD-Bridge-MaalChain/Pausable.sol\":1855:1862  _paused */\n      0x02\n      0x00\n      swap1\n      sload\n      swap1\n      0x0100\n      exp\n      swap1\n      div\n      0xff\n      and\n        /* \"RUSD-Bridge-MaalChain/Pausable.sol\":1848:1862  return _paused */\n      swap1\n      pop\n        /* \"RUSD-Bridge-MaalChain/Pausable.sol\":1784:1870  function paused() public view virtual returns (bool) {... */\n      swap1\n      jump\t// out\n        /* \"RUSD-Bridge-MaalChain/TokenBridge.sol\":11303:11741  function claimTokens(address _token, address _to)... */\n    tag_93:\n        /* \"RUSD-Bridge-MaalChain/AccessControl.sol\":2255:2259  0x00 */\n      0x00\n        /* \"RUSD-Bridge-MaalChain/TokenBridge.sol\":11389:11407  DEFAULT_ADMIN_ROLE */\n      dup1\n      shl\n        /* \"RUSD-Bridge-MaalChain/AccessControl.sol\":2494:2510  _checkRole(role) */\n      tag_244\n        /* \"RUSD-Bridge-MaalChain/AccessControl.sol\":2505:2509  role */\n      dup2\n        /* \"RUSD-Bridge-MaalChain/AccessControl.sol\":2494:2504  _checkRole */\n      tag_192\n        /* \"RUSD-Bridge-MaalChain/AccessControl.sol\":2494:2510  _checkRole(role) */\n      jump\t// in\n    tag_244:\n        /* \"RUSD-Bridge-MaalChain/ReentrancyGuard.sol\":2557:2578  _nonReentrantBefore() */\n      tag_246\n        /* \"RUSD-Bridge-MaalChain/ReentrancyGuard.sol\":2557:2576  _nonReentrantBefore */\n      tag_161\n        /* \"RUSD-Bridge-MaalChain/ReentrancyGuard.sol\":2557:2578  _nonReentrantBefore() */\n      jump\t// in\n    tag_246:\n        /* \"RUSD-Bridge-MaalChain/TokenBridge.sol\":11466:11467  0 */\n      0x00\n        /* \"RUSD-Bridge-MaalChain/TokenBridge.sol\":11451:11468  _to == address(0) */\n      0xffffffffffffffffffffffffffffffffffffffff\n      and\n        /* \"RUSD-Bridge-MaalChain/TokenBridge.sol\":11451:11454  _to */\n      dup3\n        /* \"RUSD-Bridge-MaalChain/TokenBridge.sol\":11451:11468  _to == address(0) */\n      0xffffffffffffffffffffffffffffffffffffffff\n      and\n      sub\n        /* \"RUSD-Bridge-MaalChain/TokenBridge.sol\":11447:11493  if (_to == address(0)) revert InvalidAddress() */\n      tag_248\n      jumpi\n        /* \"RUSD-Bridge-MaalChain/TokenBridge.sol\":11477:11493  InvalidAddress() */\n      mload(0x40)\n      0xe6c4247b00000000000000000000000000000000000000000000000000000000\n      dup2\n      mstore\n      0x04\n      add\n      mload(0x40)\n      dup1\n      swap2\n      sub\n      swap1\n      revert\n        /* \"RUSD-Bridge-MaalChain/TokenBridge.sol\":11447:11493  if (_to == address(0)) revert InvalidAddress() */\n    tag_248:\n        /* \"RUSD-Bridge-MaalChain/TokenBridge.sol\":11504:11516  IERC20 token */\n      0x00\n        /* \"RUSD-Bridge-MaalChain/TokenBridge.sol\":11526:11532  _token */\n      dup4\n        /* \"RUSD-Bridge-MaalChain/TokenBridge.sol\":11504:11533  IERC20 token = IERC20(_token) */\n      swap1\n      pop\n        /* \"RUSD-Bridge-MaalChain/TokenBridge.sol\":11544:11559  uint256 balance */\n      0x00\n        /* \"RUSD-Bridge-MaalChain/TokenBridge.sol\":11562:11567  token */\n      dup2\n        /* \"RUSD-Bridge-MaalChain/TokenBridge.sol\":11562:11577  token.balanceOf */\n      0xffffffffffffffffffffffffffffffffffffffff\n      and\n      0x70a08231\n        /* \"RUSD-Bridge-MaalChain/TokenBridge.sol\":11586:11590  this */\n      address\n        /* \"RUSD-Bridge-MaalChain/TokenBridge.sol\":11562:11592  token.balanceOf(address(this)) */\n      mload(0x40)\n      dup3\n      0xffffffff\n      and\n      0xe0\n      shl\n      dup2\n      mstore\n      0x04\n      add\n      tag_249\n      swap2\n      swap1\n      tag_117\n      jump\t// in\n    tag_249:\n      0x20\n      mload(0x40)\n      dup1\n      dup4\n      sub\n      dup2\n      dup7\n      gas\n      staticcall\n      iszero\n      dup1\n      iszero\n      tag_251\n      jumpi\n      returndatasize\n      0x00\n      dup1\n      returndatacopy\n      revert(0x00, returndatasize)\n    tag_251:\n      pop\n      pop\n      pop\n      pop\n      mload(0x40)\n      returndatasize\n      not(0x1f)\n      0x1f\n      dup3\n      add\n      and\n      dup3\n      add\n      dup1\n      0x40\n      mstore\n      pop\n      dup2\n      add\n      swap1\n      tag_252\n      swap2\n      swap1\n      tag_175\n      jump\t// in\n    tag_252:\n        /* \"RUSD-Bridge-MaalChain/TokenBridge.sol\":11544:11592  uint256 balance = token.balanceOf(address(this)) */\n      swap1\n      pop\n        /* \"RUSD-Bridge-MaalChain/TokenBridge.sol\":11617:11618  0 */\n      0x00\n        /* \"RUSD-Bridge-MaalChain/TokenBridge.sol\":11607:11614  balance */\n      dup2\n        /* \"RUSD-Bridge-MaalChain/TokenBridge.sol\":11607:11618  balance > 0 */\n      gt\n        /* \"RUSD-Bridge-MaalChain/TokenBridge.sol\":11603:11734  if (balance > 0) {... */\n      iszero\n      tag_253\n      jumpi\n        /* \"RUSD-Bridge-MaalChain/TokenBridge.sol\":11635:11667  token.safeTransfer(_to, balance) */\n      tag_254\n        /* \"RUSD-Bridge-MaalChain/TokenBridge.sol\":11654:11657  _to */\n      dup5\n        /* \"RUSD-Bridge-MaalChain/TokenBridge.sol\":11659:11666  balance */\n      dup3\n        /* \"RUSD-Bridge-MaalChain/TokenBridge.sol\":11635:11640  token */\n      dup5\n        /* \"RUSD-Bridge-MaalChain/TokenBridge.sol\":11635:11653  token.safeTransfer */\n      0xffffffffffffffffffffffffffffffffffffffff\n      and\n      tag_180\n      swap1\n        /* \"RUSD-Bridge-MaalChain/TokenBridge.sol\":11635:11667  token.safeTransfer(_to, balance) */\n      swap3\n      swap2\n      swap1\n      0xffffffff\n      and\n      jump\t// in\n    tag_254:\n        /* \"RUSD-Bridge-MaalChain/TokenBridge.sol\":11709:11712  _to */\n      dup4\n        /* \"RUSD-Bridge-MaalChain/TokenBridge.sol\":11687:11722  TokensClaimed(_token, _to, balance) */\n      0xffffffffffffffffffffffffffffffffffffffff\n      and\n        /* \"RUSD-Bridge-MaalChain/TokenBridge.sol\":11701:11707  _token */\n      dup6\n        /* \"RUSD-Bridge-MaalChain/TokenBridge.sol\":11687:11722  TokensClaimed(_token, _to, balance) */\n      0xffffffffffffffffffffffffffffffffffffffff\n      and\n      0xa86305abc2db271df4609aa86a8d044bc11fb36939841bfdad6c1ab2b26e9471\n        /* \"RUSD-Bridge-MaalChain/TokenBridge.sol\":11714:11721  balance */\n      dup4\n        /* \"RUSD-Bridge-MaalChain/TokenBridge.sol\":11687:11722  TokensClaimed(_token, _to, balance) */\n      mload(0x40)\n      tag_255\n      swap2\n      swap1\n      tag_125\n      jump\t// in\n    tag_255:\n      mload(0x40)\n      dup1\n      swap2\n      sub\n      swap1\n      log3\n        /* \"RUSD-Bridge-MaalChain/TokenBridge.sol\":11603:11734  if (balance > 0) {... */\n    tag_253:\n        /* \"RUSD-Bridge-MaalChain/TokenBridge.sol\":11436:11741  {... */\n      pop\n      pop\n        /* \"RUSD-Bridge-MaalChain/ReentrancyGuard.sol\":2601:2621  _nonReentrantAfter() */\n      tag_256\n        /* \"RUSD-Bridge-MaalChain/ReentrancyGuard.sol\":2601:2619  _nonReentrantAfter */\n      tag_185\n        /* \"RUSD-Bridge-MaalChain/ReentrancyGuard.sol\":2601:2621  _nonReentrantAfter() */\n      jump\t// in\n    tag_256:\n        /* \"RUSD-Bridge-MaalChain/TokenBridge.sol\":11303:11741  function claimTokens(address _token, address _to)... */\n      pop\n      pop\n      pop\n      jump\t// out\n        /* \"RUSD-Bridge-MaalChain/TokenBridge.sol\":11809:11887  function pause() external onlyRole(EMERGENCY_ROLE) {... */\n    tag_95:\n        /* \"RUSD-Bridge-MaalChain/TokenBridge.sol\":953:980  keccak256(\"EMERGENCY_ROLE\") */\n      0xbf233dd2aafeb4d50879c4aa5c81e96d92f6e6945c906a58f9f2d1c1631b4b26\n        /* \"RUSD-Bridge-MaalChain/AccessControl.sol\":2494:2510  _checkRole(role) */\n      tag_258\n        /* \"RUSD-Bridge-MaalChain/AccessControl.sol\":2505:2509  role */\n      dup2\n        /* \"RUSD-Bridge-MaalChain/AccessControl.sol\":2494:2504  _checkRole */\n      tag_192\n        /* \"RUSD-Bridge-MaalChain/AccessControl.sol\":2494:2510  _checkRole(role) */\n      jump\t// in\n    tag_258:\n        /* \"RUSD-Bridge-MaalChain/TokenBridge.sol\":11871:11879  _pause() */\n      tag_260\n        /* \"RUSD-Bridge-MaalChain/TokenBridge.sol\":11871:11877  _pause */\n      tag_261\n        /* \"RUSD-Bridge-MaalChain/TokenBridge.sol\":11871:11879  _pause() */\n      jump\t// in\n    tag_260:\n        /* \"RUSD-Bridge-MaalChain/TokenBridge.sol\":11809:11887  function pause() external onlyRole(EMERGENCY_ROLE) {... */\n      pop\n      jump\t// out\n        /* \"RUSD-Bridge-MaalChain/AccessControl.sol\":2863:3001  function hasRole(bytes32 role, address account) public view virtual returns (bool) {... */\n    tag_98:\n        /* \"RUSD-Bridge-MaalChain/AccessControl.sol\":2940:2944  bool */\n      0x00\n        /* \"RUSD-Bridge-MaalChain/AccessControl.sol\":2964:2970  _roles */\n      0x01\n        /* \"RUSD-Bridge-MaalChain/AccessControl.sol\":2964:2976  _roles[role] */\n      0x00\n        /* \"RUSD-Bridge-MaalChain/AccessControl.sol\":2971:2975  role */\n      dup5\n        /* \"RUSD-Bridge-MaalChain/AccessControl.sol\":2964:2976  _roles[role] */\n      dup2\n      mstore\n      0x20\n      add\n      swap1\n      dup2\n      mstore\n      0x20\n      add\n      0x00\n      keccak256\n        /* \"RUSD-Bridge-MaalChain/AccessControl.sol\":2964:2984  _roles[role].hasRole */\n      0x00\n      add\n        /* \"RUSD-Bridge-MaalChain/AccessControl.sol\":2964:2993  _roles[role].hasRole[account] */\n      0x00\n        /* \"RUSD-Bridge-MaalChain/AccessControl.sol\":2985:2992  account */\n      dup4\n        /* \"RUSD-Bridge-MaalChain/AccessControl.sol\":2964:2993  _roles[role].hasRole[account] */\n      0xffffffffffffffffffffffffffffffffffffffff\n      and\n      0xffffffffffffffffffffffffffffffffffffffff\n      and\n      dup2\n      mstore\n      0x20\n      add\n      swap1\n      dup2\n      mstore\n      0x20\n      add\n      0x00\n      keccak256\n      0x00\n      swap1\n      sload\n      swap1\n      0x0100\n      exp\n      swap1\n      div\n      0xff\n      and\n        /* \"RUSD-Bridge-MaalChain/AccessControl.sol\":2957:2993  return _roles[role].hasRole[account] */\n      swap1\n      pop\n        /* \"RUSD-Bridge-MaalChain/AccessControl.sol\":2863:3001  function hasRole(bytes32 role, address account) public view virtual returns (bool) {... */\n      swap3\n      swap2\n      pop\n      pop\n      jump\t// out\n        /* \"RUSD-Bridge-MaalChain/TokenBridge.sol\":768:832  bytes32 public constant RELAYER_ROLE = keccak256(\"RELAYER_ROLE\") */\n    tag_101:\n        /* \"RUSD-Bridge-MaalChain/TokenBridge.sol\":807:832  keccak256(\"RELAYER_ROLE\") */\n      0xe2b7fb3b832174769106daebcfd6d1970523240dda11281102db9363b83b0dc4\n        /* \"RUSD-Bridge-MaalChain/TokenBridge.sol\":768:832  bytes32 public constant RELAYER_ROLE = keccak256(\"RELAYER_ROLE\") */\n      dup2\n      jump\t// out\n        /* \"RUSD-Bridge-MaalChain/TokenBridge.sol\":10242:10572  function updateRemoteBridge(address _newRemoteBridge) external onlyRole(DEFAULT_ADMIN_ROLE) {... */\n    tag_106:\n        /* \"RUSD-Bridge-MaalChain/AccessControl.sol\":2255:2259  0x00 */\n      0x00\n        /* \"RUSD-Bridge-MaalChain/TokenBridge.sol\":10314:10332  DEFAULT_ADMIN_ROLE */\n      dup1\n      shl\n        /* \"RUSD-Bridge-MaalChain/AccessControl.sol\":2494:2510  _checkRole(role) */\n      tag_264\n        /* \"RUSD-Bridge-MaalChain/AccessControl.sol\":2505:2509  role */\n      dup2\n        /* \"RUSD-Bridge-MaalChain/AccessControl.sol\":2494:2504  _checkRole */\n      tag_192\n        /* \"RUSD-Bridge-MaalChain/AccessControl.sol\":2494:2510  _checkRole(role) */\n      jump\t// in\n    tag_264:\n        /* \"RUSD-Bridge-MaalChain/TokenBridge.sol\":10377:10378  0 */\n      0x00\n        /* \"RUSD-Bridge-MaalChain/TokenBridge.sol\":10349:10379  _newRemoteBridge == address(0) */\n      0xffffffffffffffffffffffffffffffffffffffff\n      and\n        /* \"RUSD-Bridge-MaalChain/TokenBridge.sol\":10349:10365  _newRemoteBridge */\n      dup3\n        /* \"RUSD-Bridge-MaalChain/TokenBridge.sol\":10349:10379  _newRemoteBridge == address(0) */\n      0xffffffffffffffffffffffffffffffffffffffff\n      and\n      eq\n        /* \"RUSD-Bridge-MaalChain/TokenBridge.sol\":10349:10420  _newRemoteBridge == address(0) && _newRemoteBridge == remoteTokenBridge */\n      dup1\n      iszero\n      tag_266\n      jumpi\n      pop\n        /* \"RUSD-Bridge-MaalChain/TokenBridge.sol\":10403:10420  remoteTokenBridge */\n      0x02\n      0x01\n      swap1\n      sload\n      swap1\n      0x0100\n      exp\n      swap1\n      div\n      0xffffffffffffffffffffffffffffffffffffffff\n      and\n        /* \"RUSD-Bridge-MaalChain/TokenBridge.sol\":10383:10420  _newRemoteBridge == remoteTokenBridge */\n      0xffffffffffffffffffffffffffffffffffffffff\n      and\n        /* \"RUSD-Bridge-MaalChain/TokenBridge.sol\":10383:10399  _newRemoteBridge */\n      dup3\n        /* \"RUSD-Bridge-MaalChain/TokenBridge.sol\":10383:10420  _newRemoteBridge == remoteTokenBridge */\n      0xffffffffffffffffffffffffffffffffffffffff\n      and\n      eq\n        /* \"RUSD-Bridge-MaalChain/TokenBridge.sol\":10349:10420  _newRemoteBridge == address(0) && _newRemoteBridge == remoteTokenBridge */\n    tag_266:\n        /* \"RUSD-Bridge-MaalChain/TokenBridge.sol\":10345:10445  if (_newRemoteBridge == address(0) && _newRemoteBridge == remoteTokenBridge) revert InvalidAddress() */\n      iszero\n      tag_267\n      jumpi\n        /* \"RUSD-Bridge-MaalChain/TokenBridge.sol\":10429:10445  InvalidAddress() */\n      mload(0x40)\n      0xe6c4247b00000000000000000000000000000000000000000000000000000000\n      dup2\n      mstore\n      0x04\n      add\n      mload(0x40)\n      dup1\n      swap2\n      sub\n      swap1\n      revert\n        /* \"RUSD-Bridge-MaalChain/TokenBridge.sol\":10345:10445  if (_newRemoteBridge == address(0) && _newRemoteBridge == remoteTokenBridge) revert InvalidAddress() */\n    tag_267:\n        /* \"RUSD-Bridge-MaalChain/TokenBridge.sol\":10476:10492  _newRemoteBridge */\n      dup2\n        /* \"RUSD-Bridge-MaalChain/TokenBridge.sol\":10456:10473  remoteTokenBridge */\n      0x02\n      0x01\n        /* \"RUSD-Bridge-MaalChain/TokenBridge.sol\":10456:10492  remoteTokenBridge = _newRemoteBridge */\n      0x0100\n      exp\n      dup2\n      sload\n      dup2\n      0xffffffffffffffffffffffffffffffffffffffff\n      mul\n      not\n      and\n      swap1\n      dup4\n      0xffffffffffffffffffffffffffffffffffffffff\n      and\n      mul\n      or\n      swap1\n      sstore\n      pop\n        /* \"RUSD-Bridge-MaalChain/TokenBridge.sol\":10508:10564  RemoteBridgeUpdated(remoteTokenBridge, _newRemoteBridge) */\n      0xfe8ccef60b912abae67bc91efd3ac94ab9cf0dd5c8e49e930ec0ad3ecd42298a\n        /* \"RUSD-Bridge-MaalChain/TokenBridge.sol\":10528:10545  remoteTokenBridge */\n      0x02\n      0x01\n      swap1\n      sload\n      swap1\n      0x0100\n      exp\n      swap1\n      div\n      0xffffffffffffffffffffffffffffffffffffffff\n      and\n        /* \"RUSD-Bridge-MaalChain/TokenBridge.sol\":10547:10563  _newRemoteBridge */\n      dup4\n        /* \"RUSD-Bridge-MaalChain/TokenBridge.sol\":10508:10564  RemoteBridgeUpdated(remoteTokenBridge, _newRemoteBridge) */\n      mload(0x40)\n      tag_268\n      swap3\n      swap2\n      swap1\n      tag_269\n      jump\t// in\n    tag_268:\n      mload(0x40)\n      dup1\n      swap2\n      sub\n      swap1\n      log1\n        /* \"RUSD-Bridge-MaalChain/TokenBridge.sol\":10242:10572  function updateRemoteBridge(address _newRemoteBridge) external onlyRole(DEFAULT_ADMIN_ROLE) {... */\n      pop\n      pop\n      jump\t// out\n        /* \"RUSD-Bridge-MaalChain/AccessControl.sol\":2210:2259  bytes32 public constant DEFAULT_ADMIN_ROLE = 0x00 */\n    tag_108:\n        /* \"RUSD-Bridge-MaalChain/AccessControl.sol\":2255:2259  0x00 */\n      0x00\n        /* \"RUSD-Bridge-MaalChain/AccessControl.sol\":2210:2259  bytes32 public constant DEFAULT_ADMIN_ROLE = 0x00 */\n      dup1\n      shl\n      dup2\n      jump\t// out\n        /* \"RUSD-Bridge-MaalChain/TokenBridge.sol\":10580:10897  function setTokenMapping(address _localToken, address _remoteToken) external onlyRole(OPERATOR_ROLE) {... */\n    tag_112:\n        /* \"RUSD-Bridge-MaalChain/TokenBridge.sol\":879:905  keccak256(\"OPERATOR_ROLE\") */\n      0x97667070c54ef182b0f5858b034beac1b6f3089aa2d3188bb1e8929f4fa9b929\n        /* \"RUSD-Bridge-MaalChain/AccessControl.sol\":2494:2510  _checkRole(role) */\n      tag_271\n        /* \"RUSD-Bridge-MaalChain/AccessControl.sol\":2505:2509  role */\n      dup2\n        /* \"RUSD-Bridge-MaalChain/AccessControl.sol\":2494:2504  _checkRole */\n      tag_192\n        /* \"RUSD-Bridge-MaalChain/AccessControl.sol\":2494:2510  _checkRole(role) */\n      jump\t// in\n    tag_271:\n        /* \"RUSD-Bridge-MaalChain/TokenBridge.sol\":10719:10720  0 */\n      0x00\n        /* \"RUSD-Bridge-MaalChain/TokenBridge.sol\":10696:10721  _localToken == address(0) */\n      0xffffffffffffffffffffffffffffffffffffffff\n      and\n        /* \"RUSD-Bridge-MaalChain/TokenBridge.sol\":10696:10707  _localToken */\n      dup4\n        /* \"RUSD-Bridge-MaalChain/TokenBridge.sol\":10696:10721  _localToken == address(0) */\n      0xffffffffffffffffffffffffffffffffffffffff\n      and\n      eq\n        /* \"RUSD-Bridge-MaalChain/TokenBridge.sol\":10696:10751  _localToken == address(0) || _remoteToken == address(0) */\n      dup1\n      tag_273\n      jumpi\n      pop\n        /* \"RUSD-Bridge-MaalChain/TokenBridge.sol\":10749:10750  0 */\n      0x00\n        /* \"RUSD-Bridge-MaalChain/TokenBridge.sol\":10725:10751  _remoteToken == address(0) */\n      0xffffffffffffffffffffffffffffffffffffffff\n      and\n        /* \"RUSD-Bridge-MaalChain/TokenBridge.sol\":10725:10737  _remoteToken */\n      dup3\n        /* \"RUSD-Bridge-MaalChain/TokenBridge.sol\":10725:10751  _remoteToken == address(0) */\n      0xffffffffffffffffffffffffffffffffffffffff\n      and\n      eq\n        /* \"RUSD-Bridge-MaalChain/TokenBridge.sol\":10696:10751  _localToken == address(0) || _remoteToken == address(0) */\n    tag_273:\n        /* \"RUSD-Bridge-MaalChain/TokenBridge.sol\":10692:10776  if (_localToken == address(0) || _remoteToken == address(0)) revert InvalidAddress() */\n      iszero\n      tag_274\n      jumpi\n        /* \"RUSD-Bridge-MaalChain/TokenBridge.sol\":10760:10776  InvalidAddress() */\n      mload(0x40)\n      0xe6c4247b00000000000000000000000000000000000000000000000000000000\n      dup2\n      mstore\n      0x04\n      add\n      mload(0x40)\n      dup1\n      swap2\n      sub\n      swap1\n      revert\n        /* \"RUSD-Bridge-MaalChain/TokenBridge.sol\":10692:10776  if (_localToken == address(0) || _remoteToken == address(0)) revert InvalidAddress() */\n    tag_274:\n        /* \"RUSD-Bridge-MaalChain/TokenBridge.sol\":10815:10827  _remoteToken */\n      dup2\n        /* \"RUSD-Bridge-MaalChain/TokenBridge.sol\":10787:10799  tokenMapping */\n      0x06\n        /* \"RUSD-Bridge-MaalChain/TokenBridge.sol\":10787:10812  tokenMapping[_localToken] */\n      0x00\n        /* \"RUSD-Bridge-MaalChain/TokenBridge.sol\":10800:10811  _localToken */\n      dup6\n        /* \"RUSD-Bridge-MaalChain/TokenBridge.sol\":10787:10812  tokenMapping[_localToken] */\n      0xffffffffffffffffffffffffffffffffffffffff\n      and\n      0xffffffffffffffffffffffffffffffffffffffff\n      and\n      dup2\n      mstore\n      0x20\n      add\n      swap1\n      dup2\n      mstore\n      0x20\n      add\n      0x00\n      keccak256\n      0x00\n        /* \"RUSD-Bridge-MaalChain/TokenBridge.sol\":10787:10827  tokenMapping[_localToken] = _remoteToken */\n      0x0100\n      exp\n      dup2\n      sload\n      dup2\n      0xffffffffffffffffffffffffffffffffffffffff\n      mul\n      not\n      and\n      swap1\n      dup4\n      0xffffffffffffffffffffffffffffffffffffffff\n      and\n      mul\n      or\n      swap1\n      sstore\n      pop\n        /* \"RUSD-Bridge-MaalChain/TokenBridge.sol\":10876:10888  _remoteToken */\n      dup2\n        /* \"RUSD-Bridge-MaalChain/TokenBridge.sol\":10843:10889  TokenMappingUpdated(_localToken, _remoteToken) */\n      0xffffffffffffffffffffffffffffffffffffffff\n      and\n        /* \"RUSD-Bridge-MaalChain/TokenBridge.sol\":10863:10874  _localToken */\n      dup4\n        /* \"RUSD-Bridge-MaalChain/TokenBridge.sol\":10843:10889  TokenMappingUpdated(_localToken, _remoteToken) */\n      0xffffffffffffffffffffffffffffffffffffffff\n      and\n      0xbbac15b41bda0ccec6e5a6d3f3e149d5d3acffe7913b82e5df6caf2194d8acf5\n      mload(0x40)\n      mload(0x40)\n      dup1\n      swap2\n      sub\n      swap1\n      log3\n        /* \"RUSD-Bridge-MaalChain/TokenBridge.sol\":10580:10897  function setTokenMapping(address _localToken, address _remoteToken) external onlyRole(OPERATOR_ROLE) {... */\n      pop\n      pop\n      pop\n      jump\t// out\n        /* \"RUSD-Bridge-MaalChain/TokenBridge.sol\":12307:12436  function getTokenMapping(address _localToken) external view returns (address) {... */\n    tag_115:\n        /* \"RUSD-Bridge-MaalChain/TokenBridge.sol\":12376:12383  address */\n      0x00\n        /* \"RUSD-Bridge-MaalChain/TokenBridge.sol\":12403:12415  tokenMapping */\n      0x06\n        /* \"RUSD-Bridge-MaalChain/TokenBridge.sol\":12403:12428  tokenMapping[_localToken] */\n      0x00\n        /* \"RUSD-Bridge-MaalChain/TokenBridge.sol\":12416:12427  _localToken */\n      dup4\n        /* \"RUSD-Bridge-MaalChain/TokenBridge.sol\":12403:12428  tokenMapping[_localToken] */\n      0xffffffffffffffffffffffffffffffffffffffff\n      and\n      0xffffffffffffffffffffffffffffffffffffffff\n      and\n      dup2\n      mstore\n      0x20\n      add\n      swap1\n      dup2\n      mstore\n      0x20\n      add\n      0x00\n      keccak256\n      0x00\n      swap1\n      sload\n      swap1\n      0x0100\n      exp\n      swap1\n      div\n      0xffffffffffffffffffffffffffffffffffffffff\n      and\n        /* \"RUSD-Bridge-MaalChain/TokenBridge.sol\":12396:12428  return tokenMapping[_localToken] */\n      swap1\n      pop\n        /* \"RUSD-Bridge-MaalChain/TokenBridge.sol\":12307:12436  function getTokenMapping(address _localToken) external view returns (address) {... */\n      swap2\n      swap1\n      pop\n      jump\t// out\n        /* \"RUSD-Bridge-MaalChain/TokenBridge.sol\":12032:12159  function messageSender(bytes32 _messageId) external view returns (address) {... */\n    tag_120:\n        /* \"RUSD-Bridge-MaalChain/TokenBridge.sol\":12098:12105  address */\n      0x00\n        /* \"RUSD-Bridge-MaalChain/TokenBridge.sol\":12125:12139  messageSenders */\n      0x08\n        /* \"RUSD-Bridge-MaalChain/TokenBridge.sol\":12125:12151  messageSenders[_messageId] */\n      0x00\n        /* \"RUSD-Bridge-MaalChain/TokenBridge.sol\":12140:12150  _messageId */\n      dup4\n        /* \"RUSD-Bridge-MaalChain/TokenBridge.sol\":12125:12151  messageSenders[_messageId] */\n      dup2\n      mstore\n      0x20\n      add\n      swap1\n      dup2\n      mstore\n      0x20\n      add\n      0x00\n      keccak256\n      0x00\n      swap1\n      sload\n      swap1\n      0x0100\n      exp\n      swap1\n      div\n      0xffffffffffffffffffffffffffffffffffffffff\n      and\n        /* \"RUSD-Bridge-MaalChain/TokenBridge.sol\":12118:12151  return messageSenders[_messageId] */\n      swap1\n      pop\n        /* \"RUSD-Bridge-MaalChain/TokenBridge.sol\":12032:12159  function messageSender(bytes32 _messageId) external view returns (address) {... */\n      swap2\n      swap1\n      pop\n      jump\t// out\n        /* \"RUSD-Bridge-MaalChain/TokenBridge.sol\":1089:1119  uint256 public requestGasLimit */\n    tag_123:\n      sload(0x03)\n      dup2\n      jump\t// out\n        /* \"RUSD-Bridge-MaalChain/TokenBridge.sol\":4259:4876  function initialize(address _remoteTokenBridge, address _localToken, address _remoteToken)... */\n    tag_129:\n        /* \"RUSD-Bridge-MaalChain/AccessControl.sol\":2255:2259  0x00 */\n      0x00\n        /* \"RUSD-Bridge-MaalChain/TokenBridge.sol\":4386:4404  DEFAULT_ADMIN_ROLE */\n      dup1\n      shl\n        /* \"RUSD-Bridge-MaalChain/AccessControl.sol\":2494:2510  _checkRole(role) */\n      tag_278\n        /* \"RUSD-Bridge-MaalChain/AccessControl.sol\":2505:2509  role */\n      dup2\n        /* \"RUSD-Bridge-MaalChain/AccessControl.sol\":2494:2504  _checkRole */\n      tag_192\n        /* \"RUSD-Bridge-MaalChain/AccessControl.sol\":2494:2510  _checkRole(role) */\n      jump\t// in\n    tag_278:\n        /* \"RUSD-Bridge-MaalChain/TokenBridge.sol\":4426:4437  initialized */\n      0x04\n      0x00\n      swap1\n      sload\n      swap1\n      0x0100\n      exp\n      swap1\n      div\n      0xff\n      and\n        /* \"RUSD-Bridge-MaalChain/TokenBridge.sol\":4422:4462  if (initialized) revert NotInitialized() */\n      iszero\n      tag_280\n      jumpi\n        /* \"RUSD-Bridge-MaalChain/TokenBridge.sol\":4446:4462  NotInitialized() */\n      mload(0x40)\n      0x87138d5c00000000000000000000000000000000000000000000000000000000\n      dup2\n      mstore\n      0x04\n      add\n      mload(0x40)\n      dup1\n      swap2\n      sub\n      swap1\n      revert\n        /* \"RUSD-Bridge-MaalChain/TokenBridge.sol\":4422:4462  if (initialized) revert NotInitialized() */\n    tag_280:\n        /* \"RUSD-Bridge-MaalChain/TokenBridge.sol\":4507:4508  0 */\n      0x00\n        /* \"RUSD-Bridge-MaalChain/TokenBridge.sol\":4477:4509  _remoteTokenBridge == address(0) */\n      0xffffffffffffffffffffffffffffffffffffffff\n      and\n        /* \"RUSD-Bridge-MaalChain/TokenBridge.sol\":4477:4495  _remoteTokenBridge */\n      dup5\n        /* \"RUSD-Bridge-MaalChain/TokenBridge.sol\":4477:4509  _remoteTokenBridge == address(0) */\n      0xffffffffffffffffffffffffffffffffffffffff\n      and\n      eq\n        /* \"RUSD-Bridge-MaalChain/TokenBridge.sol\":4477:4538  _remoteTokenBridge == address(0) || _localToken == address(0) */\n      dup1\n      tag_281\n      jumpi\n      pop\n        /* \"RUSD-Bridge-MaalChain/TokenBridge.sol\":4536:4537  0 */\n      0x00\n        /* \"RUSD-Bridge-MaalChain/TokenBridge.sol\":4513:4538  _localToken == address(0) */\n      0xffffffffffffffffffffffffffffffffffffffff\n      and\n        /* \"RUSD-Bridge-MaalChain/TokenBridge.sol\":4513:4524  _localToken */\n      dup4\n        /* \"RUSD-Bridge-MaalChain/TokenBridge.sol\":4513:4538  _localToken == address(0) */\n      0xffffffffffffffffffffffffffffffffffffffff\n      and\n      eq\n        /* \"RUSD-Bridge-MaalChain/TokenBridge.sol\":4477:4538  _remoteTokenBridge == address(0) || _localToken == address(0) */\n    tag_281:\n        /* \"RUSD-Bridge-MaalChain/TokenBridge.sol\":4477:4568  _remoteTokenBridge == address(0) || _localToken == address(0) || _remoteToken == address(0) */\n      dup1\n      tag_282\n      jumpi\n      pop\n        /* \"RUSD-Bridge-MaalChain/TokenBridge.sol\":4566:4567  0 */\n      0x00\n        /* \"RUSD-Bridge-MaalChain/TokenBridge.sol\":4542:4568  _remoteToken == address(0) */\n      0xffffffffffffffffffffffffffffffffffffffff\n      and\n        /* \"RUSD-Bridge-MaalChain/TokenBridge.sol\":4542:4554  _remoteToken */\n      dup3\n        /* \"RUSD-Bridge-MaalChain/TokenBridge.sol\":4542:4568  _remoteToken == address(0) */\n      0xffffffffffffffffffffffffffffffffffffffff\n      and\n      eq\n        /* \"RUSD-Bridge-MaalChain/TokenBridge.sol\":4477:4568  _remoteTokenBridge == address(0) || _localToken == address(0) || _remoteToken == address(0) */\n    tag_282:\n        /* \"RUSD-Bridge-MaalChain/TokenBridge.sol\":4473:4606  if (_remoteTokenBridge == address(0) || _localToken == address(0) || _remoteToken == address(0))... */\n      iszero\n      tag_283\n      jumpi\n        /* \"RUSD-Bridge-MaalChain/TokenBridge.sol\":4590:4606  InvalidAddress() */\n      mload(0x40)\n      0xe6c4247b00000000000000000000000000000000000000000000000000000000\n      dup2\n      mstore\n      0x04\n      add\n      mload(0x40)\n      dup1\n      swap2\n      sub\n      swap1\n      revert\n        /* \"RUSD-Bridge-MaalChain/TokenBridge.sol\":4473:4606  if (_remoteTokenBridge == address(0) || _localToken == address(0) || _remoteToken == address(0))... */\n    tag_283:\n        /* \"RUSD-Bridge-MaalChain/TokenBridge.sol\":4639:4657  _remoteTokenBridge */\n      dup4\n        /* \"RUSD-Bridge-MaalChain/TokenBridge.sol\":4619:4636  remoteTokenBridge */\n      0x02\n      0x01\n        /* \"RUSD-Bridge-MaalChain/TokenBridge.sol\":4619:4657  remoteTokenBridge = _remoteTokenBridge */\n      0x0100\n      exp\n      dup2\n      sload\n      dup2\n      0xffffffffffffffffffffffffffffffffffffffff\n      mul\n      not\n      and\n      swap1\n      dup4\n      0xffffffffffffffffffffffffffffffffffffffff\n      and\n      mul\n      or\n      swap1\n      sstore\n      pop\n        /* \"RUSD-Bridge-MaalChain/TokenBridge.sol\":4696:4708  _remoteToken */\n      dup2\n        /* \"RUSD-Bridge-MaalChain/TokenBridge.sol\":4668:4680  tokenMapping */\n      0x06\n        /* \"RUSD-Bridge-MaalChain/TokenBridge.sol\":4668:4693  tokenMapping[_localToken] */\n      0x00\n        /* \"RUSD-Bridge-MaalChain/TokenBridge.sol\":4681:4692  _localToken */\n      dup6\n        /* \"RUSD-Bridge-MaalChain/TokenBridge.sol\":4668:4693  tokenMapping[_localToken] */\n      0xffffffffffffffffffffffffffffffffffffffff\n      and\n      0xffffffffffffffffffffffffffffffffffffffff\n      and\n      dup2\n      mstore\n      0x20\n      add\n      swap1\n      dup2\n      mstore\n      0x20\n      add\n      0x00\n      keccak256\n      0x00\n        /* \"RUSD-Bridge-MaalChain/TokenBridge.sol\":4668:4708  tokenMapping[_localToken] = _remoteToken */\n      0x0100\n      exp\n      dup2\n      sload\n      dup2\n      0xffffffffffffffffffffffffffffffffffffffff\n      mul\n      not\n      and\n      swap1\n      dup4\n      0xffffffffffffffffffffffffffffffffffffffff\n      and\n      mul\n      or\n      swap1\n      sstore\n      pop\n        /* \"RUSD-Bridge-MaalChain/TokenBridge.sol\":4733:4737  true */\n      0x01\n        /* \"RUSD-Bridge-MaalChain/TokenBridge.sol\":4719:4730  initialized */\n      0x04\n      0x00\n        /* \"RUSD-Bridge-MaalChain/TokenBridge.sol\":4719:4737  initialized = true */\n      0x0100\n      exp\n      dup2\n      sload\n      dup2\n      0xff\n      mul\n      not\n      and\n      swap1\n      dup4\n      iszero\n      iszero\n      mul\n      or\n      swap1\n      sstore\n      pop\n        /* \"RUSD-Bridge-MaalChain/TokenBridge.sol\":4755:4806  RemoteBridgeUpdated(address(0), _remoteTokenBridge) */\n      0xfe8ccef60b912abae67bc91efd3ac94ab9cf0dd5c8e49e930ec0ad3ecd42298a\n        /* \"RUSD-Bridge-MaalChain/TokenBridge.sol\":4783:4784  0 */\n      0x00\n        /* \"RUSD-Bridge-MaalChain/TokenBridge.sol\":4787:4805  _remoteTokenBridge */\n      dup6\n        /* \"RUSD-Bridge-MaalChain/TokenBridge.sol\":4755:4806  RemoteBridgeUpdated(address(0), _remoteTokenBridge) */\n      mload(0x40)\n      tag_284\n      swap3\n      swap2\n      swap1\n      tag_269\n      jump\t// in\n    tag_284:\n      mload(0x40)\n      dup1\n      swap2\n      sub\n      swap1\n      log1\n        /* \"RUSD-Bridge-MaalChain/TokenBridge.sol\":4855:4867  _remoteToken */\n      dup2\n        /* \"RUSD-Bridge-MaalChain/TokenBridge.sol\":4822:4868  TokenMappingUpdated(_localToken, _remoteToken) */\n      0xffffffffffffffffffffffffffffffffffffffff\n      and\n        /* \"RUSD-Bridge-MaalChain/TokenBridge.sol\":4842:4853  _localToken */\n      dup4\n        /* \"RUSD-Bridge-MaalChain/TokenBridge.sol\":4822:4868  TokenMappingUpdated(_localToken, _remoteToken) */\n      0xffffffffffffffffffffffffffffffffffffffff\n      and\n      0xbbac15b41bda0ccec6e5a6d3f3e149d5d3acffe7913b82e5df6caf2194d8acf5\n      mload(0x40)\n      mload(0x40)\n      dup1\n      swap2\n      sub\n      swap1\n      log3\n        /* \"RUSD-Bridge-MaalChain/TokenBridge.sol\":4259:4876  function initialize(address _remoteTokenBridge, address _localToken, address _remoteToken)... */\n      pop\n      pop\n      pop\n      pop\n      jump\t// out\n        /* \"RUSD-Bridge-MaalChain/TokenBridge.sol\":1011:1043  address public remoteTokenBridge */\n    tag_131:\n      0x02\n      0x01\n      swap1\n      sload\n      swap1\n      0x0100\n      exp\n      swap1\n      div\n      0xffffffffffffffffffffffffffffffffffffffff\n      and\n      dup2\n      jump\t// out\n        /* \"RUSD-Bridge-MaalChain/AccessControl.sol\":4710:4850  function revokeRole(bytes32 role, address account) public virtual onlyRole(getRoleAdmin(role)) {... */\n    tag_135:\n        /* \"RUSD-Bridge-MaalChain/AccessControl.sol\":4785:4803  getRoleAdmin(role) */\n      tag_285\n        /* \"RUSD-Bridge-MaalChain/AccessControl.sol\":4798:4802  role */\n      dup3\n        /* \"RUSD-Bridge-MaalChain/AccessControl.sol\":4785:4797  getRoleAdmin */\n      tag_72\n        /* \"RUSD-Bridge-MaalChain/AccessControl.sol\":4785:4803  getRoleAdmin(role) */\n      jump\t// in\n    tag_285:\n        /* \"RUSD-Bridge-MaalChain/AccessControl.sol\":2494:2510  _checkRole(role) */\n      tag_287\n        /* \"RUSD-Bridge-MaalChain/AccessControl.sol\":2505:2509  role */\n      dup2\n        /* \"RUSD-Bridge-MaalChain/AccessControl.sol\":2494:2504  _checkRole */\n      tag_192\n        /* \"RUSD-Bridge-MaalChain/AccessControl.sol\":2494:2510  _checkRole(role) */\n      jump\t// in\n    tag_287:\n        /* \"RUSD-Bridge-MaalChain/AccessControl.sol\":4816:4842  _revokeRole(role, account) */\n      tag_289\n        /* \"RUSD-Bridge-MaalChain/AccessControl.sol\":4828:4832  role */\n      dup4\n        /* \"RUSD-Bridge-MaalChain/AccessControl.sol\":4834:4841  account */\n      dup4\n        /* \"RUSD-Bridge-MaalChain/AccessControl.sol\":4816:4827  _revokeRole */\n      tag_216\n        /* \"RUSD-Bridge-MaalChain/AccessControl.sol\":4816:4842  _revokeRole(role, account) */\n      jump\t// in\n    tag_289:\n      pop\n        /* \"RUSD-Bridge-MaalChain/AccessControl.sol\":4710:4850  function revokeRole(bytes32 role, address account) public virtual onlyRole(getRoleAdmin(role)) {... */\n      pop\n      pop\n      pop\n      jump\t// out\n        /* \"RUSD-Bridge-MaalChain/TokenBridge.sol\":10905:11163  function setRequestGasLimit(uint256 _newGasLimit) external onlyRole(OPERATOR_ROLE) {... */\n    tag_139:\n        /* \"RUSD-Bridge-MaalChain/TokenBridge.sol\":879:905  keccak256(\"OPERATOR_ROLE\") */\n      0x97667070c54ef182b0f5858b034beac1b6f3089aa2d3188bb1e8929f4fa9b929\n        /* \"RUSD-Bridge-MaalChain/AccessControl.sol\":2494:2510  _checkRole(role) */\n      tag_291\n        /* \"RUSD-Bridge-MaalChain/AccessControl.sol\":2505:2509  role */\n      dup2\n        /* \"RUSD-Bridge-MaalChain/AccessControl.sol\":2494:2504  _checkRole */\n      tag_192\n        /* \"RUSD-Bridge-MaalChain/AccessControl.sol\":2494:2510  _checkRole(role) */\n      jump\t// in\n    tag_291:\n        /* \"RUSD-Bridge-MaalChain/TokenBridge.sol\":11019:11020  0 */\n      0x00\n        /* \"RUSD-Bridge-MaalChain/TokenBridge.sol\":11003:11015  _newGasLimit */\n      dup3\n        /* \"RUSD-Bridge-MaalChain/TokenBridge.sol\":11003:11020  _newGasLimit == 0 */\n      sub\n        /* \"RUSD-Bridge-MaalChain/TokenBridge.sol\":10999:11045  if (_newGasLimit == 0) revert InvalidAddress() */\n      tag_293\n      jumpi\n        /* \"RUSD-Bridge-MaalChain/TokenBridge.sol\":11029:11045  InvalidAddress() */\n      mload(0x40)\n      0xe6c4247b00000000000000000000000000000000000000000000000000000000\n      dup2\n      mstore\n      0x04\n      add\n      mload(0x40)\n      dup1\n      swap2\n      sub\n      swap1\n      revert\n        /* \"RUSD-Bridge-MaalChain/TokenBridge.sol\":10999:11045  if (_newGasLimit == 0) revert InvalidAddress() */\n    tag_293:\n        /* \"RUSD-Bridge-MaalChain/TokenBridge.sol\":11061:11114  RequestGasLimitUpdated(requestGasLimit, _newGasLimit) */\n      0x521f4b1f69c8fd70487d7f76173a72013d708404a2a63c7434a3eefbb9d8357b\n        /* \"RUSD-Bridge-MaalChain/TokenBridge.sol\":11084:11099  requestGasLimit */\n      sload(0x03)\n        /* \"RUSD-Bridge-MaalChain/TokenBridge.sol\":11101:11113  _newGasLimit */\n      dup4\n        /* \"RUSD-Bridge-MaalChain/TokenBridge.sol\":11061:11114  RequestGasLimitUpdated(requestGasLimit, _newGasLimit) */\n      mload(0x40)\n      tag_294\n      swap3\n      swap2\n      swap1\n      tag_295\n      jump\t// in\n    tag_294:\n      mload(0x40)\n      dup1\n      swap2\n      sub\n      swap1\n      log1\n        /* \"RUSD-Bridge-MaalChain/TokenBridge.sol\":11143:11155  _newGasLimit */\n      dup2\n        /* \"RUSD-Bridge-MaalChain/TokenBridge.sol\":11125:11140  requestGasLimit */\n      0x03\n        /* \"RUSD-Bridge-MaalChain/TokenBridge.sol\":11125:11155  requestGasLimit = _newGasLimit */\n      dup2\n      swap1\n      sstore\n      pop\n        /* \"RUSD-Bridge-MaalChain/TokenBridge.sol\":10905:11163  function setRequestGasLimit(uint256 _newGasLimit) external onlyRole(OPERATOR_ROLE) {... */\n      pop\n      pop\n      jump\t// out\n        /* \"RUSD-Bridge-MaalChain/TokenBridge.sol\":5175:6932  function transferToken(address _recipient, address _tokenAddress, uint256 _value)... */\n    tag_143:\n        /* \"RUSD-Bridge-MaalChain/TokenBridge.sol\":5338:5345  bytes32 */\n      0x00\n        /* \"RUSD-Bridge-MaalChain/Pausable.sol\":1389:1408  _requireNotPaused() */\n      tag_297\n        /* \"RUSD-Bridge-MaalChain/Pausable.sol\":1389:1406  _requireNotPaused */\n      tag_164\n        /* \"RUSD-Bridge-MaalChain/Pausable.sol\":1389:1408  _requireNotPaused() */\n      jump\t// in\n    tag_297:\n        /* \"RUSD-Bridge-MaalChain/ReentrancyGuard.sol\":2557:2578  _nonReentrantBefore() */\n      tag_299\n        /* \"RUSD-Bridge-MaalChain/ReentrancyGuard.sol\":2557:2576  _nonReentrantBefore */\n      tag_161\n        /* \"RUSD-Bridge-MaalChain/ReentrancyGuard.sol\":2557:2578  _nonReentrantBefore() */\n      jump\t// in\n    tag_299:\n        /* \"RUSD-Bridge-MaalChain/TokenBridge.sol\":5368:5379  initialized */\n      0x04\n      0x00\n      swap1\n      sload\n      swap1\n      0x0100\n      exp\n      swap1\n      div\n      0xff\n      and\n        /* \"RUSD-Bridge-MaalChain/TokenBridge.sol\":5363:5404  if (!initialized) revert NotInitialized() */\n      tag_301\n      jumpi\n        /* \"RUSD-Bridge-MaalChain/TokenBridge.sol\":5388:5404  NotInitialized() */\n      mload(0x40)\n      0x87138d5c00000000000000000000000000000000000000000000000000000000\n      dup2\n      mstore\n      0x04\n      add\n      mload(0x40)\n      dup1\n      swap2\n      sub\n      swap1\n      revert\n        /* \"RUSD-Bridge-MaalChain/TokenBridge.sol\":5363:5404  if (!initialized) revert NotInitialized() */\n    tag_301:\n        /* \"RUSD-Bridge-MaalChain/TokenBridge.sol\":5441:5442  0 */\n      0x00\n        /* \"RUSD-Bridge-MaalChain/TokenBridge.sol\":5419:5443  _recipient == address(0) */\n      0xffffffffffffffffffffffffffffffffffffffff\n      and\n        /* \"RUSD-Bridge-MaalChain/TokenBridge.sol\":5419:5429  _recipient */\n      dup5\n        /* \"RUSD-Bridge-MaalChain/TokenBridge.sol\":5419:5443  _recipient == address(0) */\n      0xffffffffffffffffffffffffffffffffffffffff\n      and\n      eq\n        /* \"RUSD-Bridge-MaalChain/TokenBridge.sol\":5419:5474  _recipient == address(0) || _tokenAddress == address(0) */\n      dup1\n      tag_302\n      jumpi\n      pop\n        /* \"RUSD-Bridge-MaalChain/TokenBridge.sol\":5472:5473  0 */\n      0x00\n        /* \"RUSD-Bridge-MaalChain/TokenBridge.sol\":5447:5474  _tokenAddress == address(0) */\n      0xffffffffffffffffffffffffffffffffffffffff\n      and\n        /* \"RUSD-Bridge-MaalChain/TokenBridge.sol\":5447:5460  _tokenAddress */\n      dup4\n        /* \"RUSD-Bridge-MaalChain/TokenBridge.sol\":5447:5474  _tokenAddress == address(0) */\n      0xffffffffffffffffffffffffffffffffffffffff\n      and\n      eq\n        /* \"RUSD-Bridge-MaalChain/TokenBridge.sol\":5419:5474  _recipient == address(0) || _tokenAddress == address(0) */\n    tag_302:\n        /* \"RUSD-Bridge-MaalChain/TokenBridge.sol\":5419:5489  _recipient == address(0) || _tokenAddress == address(0) || _value == 0 */\n      dup1\n      tag_303\n      jumpi\n      pop\n        /* \"RUSD-Bridge-MaalChain/TokenBridge.sol\":5488:5489  0 */\n      0x00\n        /* \"RUSD-Bridge-MaalChain/TokenBridge.sol\":5478:5484  _value */\n      dup3\n        /* \"RUSD-Bridge-MaalChain/TokenBridge.sol\":5478:5489  _value == 0 */\n      eq\n        /* \"RUSD-Bridge-MaalChain/TokenBridge.sol\":5419:5489  _recipient == address(0) || _tokenAddress == address(0) || _value == 0 */\n    tag_303:\n        /* \"RUSD-Bridge-MaalChain/TokenBridge.sol\":5415:5514  if (_recipient == address(0) || _tokenAddress == address(0) || _value == 0) revert InvalidAddress() */\n      iszero\n      tag_304\n      jumpi\n        /* \"RUSD-Bridge-MaalChain/TokenBridge.sol\":5498:5514  InvalidAddress() */\n      mload(0x40)\n      0xe6c4247b00000000000000000000000000000000000000000000000000000000\n      dup2\n      mstore\n      0x04\n      add\n      mload(0x40)\n      dup1\n      swap2\n      sub\n      swap1\n      revert\n        /* \"RUSD-Bridge-MaalChain/TokenBridge.sol\":5415:5514  if (_recipient == address(0) || _tokenAddress == address(0) || _value == 0) revert InvalidAddress() */\n    tag_304:\n        /* \"RUSD-Bridge-MaalChain/TokenBridge.sol\":5568:5569  0 */\n      0x00\n        /* \"RUSD-Bridge-MaalChain/TokenBridge.sol\":5529:5570  tokenMapping[_tokenAddress] == address(0) */\n      0xffffffffffffffffffffffffffffffffffffffff\n      and\n        /* \"RUSD-Bridge-MaalChain/TokenBridge.sol\":5529:5541  tokenMapping */\n      0x06\n        /* \"RUSD-Bridge-MaalChain/TokenBridge.sol\":5529:5556  tokenMapping[_tokenAddress] */\n      0x00\n        /* \"RUSD-Bridge-MaalChain/TokenBridge.sol\":5542:5555  _tokenAddress */\n      dup6\n        /* \"RUSD-Bridge-MaalChain/TokenBridge.sol\":5529:5556  tokenMapping[_tokenAddress] */\n      0xffffffffffffffffffffffffffffffffffffffff\n      and\n      0xffffffffffffffffffffffffffffffffffffffff\n      and\n      dup2\n      mstore\n      0x20\n      add\n      swap1\n      dup2\n      mstore\n      0x20\n      add\n      0x00\n      keccak256\n      0x00\n      swap1\n      sload\n      swap1\n      0x0100\n      exp\n      swap1\n      div\n      0xffffffffffffffffffffffffffffffffffffffff\n      and\n        /* \"RUSD-Bridge-MaalChain/TokenBridge.sol\":5529:5570  tokenMapping[_tokenAddress] == address(0) */\n      0xffffffffffffffffffffffffffffffffffffffff\n      and\n      sub\n        /* \"RUSD-Bridge-MaalChain/TokenBridge.sol\":5525:5608  if (tokenMapping[_tokenAddress] == address(0)) revert TokenNotMapped(_tokenAddress) */\n      tag_305\n      jumpi\n        /* \"RUSD-Bridge-MaalChain/TokenBridge.sol\":5594:5607  _tokenAddress */\n      dup3\n        /* \"RUSD-Bridge-MaalChain/TokenBridge.sol\":5579:5608  TokenNotMapped(_tokenAddress) */\n      mload(0x40)\n      0x82f3609300000000000000000000000000000000000000000000000000000000\n      dup2\n      mstore\n      0x04\n      add\n      tag_306\n      swap2\n      swap1\n      tag_117\n      jump\t// in\n    tag_306:\n      mload(0x40)\n      dup1\n      swap2\n      sub\n      swap1\n      revert\n        /* \"RUSD-Bridge-MaalChain/TokenBridge.sol\":5525:5608  if (tokenMapping[_tokenAddress] == address(0)) revert TokenNotMapped(_tokenAddress) */\n    tag_305:\n        /* \"RUSD-Bridge-MaalChain/TokenBridge.sol\":5645:5657  IERC20 token */\n      0x00\n        /* \"RUSD-Bridge-MaalChain/TokenBridge.sol\":5667:5680  _tokenAddress */\n      dup4\n        /* \"RUSD-Bridge-MaalChain/TokenBridge.sol\":5645:5681  IERC20 token = IERC20(_tokenAddress) */\n      swap1\n      pop\n        /* \"RUSD-Bridge-MaalChain/TokenBridge.sol\":5692:5713  uint256 balanceBefore */\n      0x00\n        /* \"RUSD-Bridge-MaalChain/TokenBridge.sol\":5716:5721  token */\n      dup2\n        /* \"RUSD-Bridge-MaalChain/TokenBridge.sol\":5716:5731  token.balanceOf */\n      0xffffffffffffffffffffffffffffffffffffffff\n      and\n      0x70a08231\n        /* \"RUSD-Bridge-MaalChain/TokenBridge.sol\":5740:5744  this */\n      address\n        /* \"RUSD-Bridge-MaalChain/TokenBridge.sol\":5716:5746  token.balanceOf(address(this)) */\n      mload(0x40)\n      dup3\n      0xffffffff\n      and\n      0xe0\n      shl\n      dup2\n      mstore\n      0x04\n      add\n      tag_307\n      swap2\n      swap1\n      tag_117\n      jump\t// in\n    tag_307:\n      0x20\n      mload(0x40)\n      dup1\n      dup4\n      sub\n      dup2\n      dup7\n      gas\n      staticcall\n      iszero\n      dup1\n      iszero\n      tag_309\n      jumpi\n      returndatasize\n      0x00\n      dup1\n      returndatacopy\n      revert(0x00, returndatasize)\n    tag_309:\n      pop\n      pop\n      pop\n      pop\n      mload(0x40)\n      returndatasize\n      not(0x1f)\n      0x1f\n      dup3\n      add\n      and\n      dup3\n      add\n      dup1\n      0x40\n      mstore\n      pop\n      dup2\n      add\n      swap1\n      tag_310\n      swap2\n      swap1\n      tag_175\n      jump\t// in\n    tag_310:\n        /* \"RUSD-Bridge-MaalChain/TokenBridge.sol\":5692:5746  uint256 balanceBefore = token.balanceOf(address(this)) */\n      swap1\n      pop\n        /* \"RUSD-Bridge-MaalChain/TokenBridge.sol\":5757:5814  token.safeTransferFrom(msg.sender, address(this), _value) */\n      tag_311\n        /* \"RUSD-Bridge-MaalChain/TokenBridge.sol\":5780:5790  msg.sender */\n      caller\n        /* \"RUSD-Bridge-MaalChain/TokenBridge.sol\":5800:5804  this */\n      address\n        /* \"RUSD-Bridge-MaalChain/TokenBridge.sol\":5807:5813  _value */\n      dup7\n        /* \"RUSD-Bridge-MaalChain/TokenBridge.sol\":5757:5762  token */\n      dup6\n        /* \"RUSD-Bridge-MaalChain/TokenBridge.sol\":5757:5779  token.safeTransferFrom */\n      0xffffffffffffffffffffffffffffffffffffffff\n      and\n      tag_312\n      swap1\n        /* \"RUSD-Bridge-MaalChain/TokenBridge.sol\":5757:5814  token.safeTransferFrom(msg.sender, address(this), _value) */\n      swap4\n      swap3\n      swap2\n      swap1\n      0xffffffff\n      and\n      jump\t// in\n    tag_311:\n        /* \"RUSD-Bridge-MaalChain/TokenBridge.sol\":5825:5845  uint256 balanceAfter */\n      0x00\n        /* \"RUSD-Bridge-MaalChain/TokenBridge.sol\":5848:5853  token */\n      dup3\n        /* \"RUSD-Bridge-MaalChain/TokenBridge.sol\":5848:5863  token.balanceOf */\n      0xffffffffffffffffffffffffffffffffffffffff\n      and\n      0x70a08231\n        /* \"RUSD-Bridge-MaalChain/TokenBridge.sol\":5872:5876  this */\n      address\n        /* \"RUSD-Bridge-MaalChain/TokenBridge.sol\":5848:5878  token.balanceOf(address(this)) */\n      mload(0x40)\n      dup3\n      0xffffffff\n      and\n      0xe0\n      shl\n      dup2\n      mstore\n      0x04\n      add\n      tag_313\n      swap2\n      swap1\n      tag_117\n      jump\t// in\n    tag_313:\n      0x20\n      mload(0x40)\n      dup1\n      dup4\n      sub\n      dup2\n      dup7\n      gas\n      staticcall\n      iszero\n      dup1\n      iszero\n      tag_315\n      jumpi\n      returndatasize\n      0x00\n      dup1\n      returndatacopy\n      revert(0x00, returndatasize)\n    tag_315:\n      pop\n      pop\n      pop\n      pop\n      mload(0x40)\n      returndatasize\n      not(0x1f)\n      0x1f\n      dup3\n      add\n      and\n      dup3\n      add\n      dup1\n      0x40\n      mstore\n      pop\n      dup2\n      add\n      swap1\n      tag_316\n      swap2\n      swap1\n      tag_175\n      jump\t// in\n    tag_316:\n        /* \"RUSD-Bridge-MaalChain/TokenBridge.sol\":5825:5878  uint256 balanceAfter = token.balanceOf(address(this)) */\n      swap1\n      pop\n        /* \"RUSD-Bridge-MaalChain/TokenBridge.sol\":5889:5908  uint256 actualValue */\n      0x00\n        /* \"RUSD-Bridge-MaalChain/TokenBridge.sol\":5926:5939  balanceBefore */\n      dup3\n        /* \"RUSD-Bridge-MaalChain/TokenBridge.sol\":5911:5923  balanceAfter */\n      dup3\n        /* \"RUSD-Bridge-MaalChain/TokenBridge.sol\":5911:5939  balanceAfter - balanceBefore */\n      tag_317\n      swap2\n      swap1\n      tag_318\n      jump\t// in\n    tag_317:\n        /* \"RUSD-Bridge-MaalChain/TokenBridge.sol\":5889:5939  uint256 actualValue = balanceAfter - balanceBefore */\n      swap1\n      pop\n        /* \"RUSD-Bridge-MaalChain/TokenBridge.sol\":6004:6009  nonce */\n      0x05\n      0x00\n        /* \"RUSD-Bridge-MaalChain/TokenBridge.sol\":6004:6011  nonce++ */\n      dup2\n      sload\n      dup1\n      swap3\n      swap2\n      swap1\n      tag_319\n      swap1\n      tag_320\n      jump\t// in\n    tag_319:\n      swap2\n      swap1\n      pop\n      sstore\n      pop\n        /* \"RUSD-Bridge-MaalChain/TokenBridge.sol\":6022:6039  bytes32 messageId */\n      0x00\n        /* \"RUSD-Bridge-MaalChain/TokenBridge.sol\":6069:6079  msg.sender */\n      caller\n        /* \"RUSD-Bridge-MaalChain/TokenBridge.sol\":6081:6098  remoteTokenBridge */\n      0x02\n      0x01\n      swap1\n      sload\n      swap1\n      0x0100\n      exp\n      swap1\n      div\n      0xffffffffffffffffffffffffffffffffffffffff\n      and\n        /* \"RUSD-Bridge-MaalChain/TokenBridge.sol\":6100:6113  _tokenAddress */\n      dup10\n        /* \"RUSD-Bridge-MaalChain/TokenBridge.sol\":6115:6126  actualValue */\n      dup5\n        /* \"RUSD-Bridge-MaalChain/TokenBridge.sol\":6128:6133  nonce */\n      sload(0x05)\n        /* \"RUSD-Bridge-MaalChain/TokenBridge.sol\":6135:6148  block.chainid */\n      chainid\n        /* \"RUSD-Bridge-MaalChain/TokenBridge.sol\":6052:6149  abi.encodePacked(msg.sender, remoteTokenBridge, _tokenAddress, actualValue, nonce, block.chainid) */\n      add(0x20, mload(0x40))\n      tag_321\n      swap7\n      swap6\n      swap5\n      swap4\n      swap3\n      swap2\n      swap1\n      tag_322\n      jump\t// in\n    tag_321:\n      mload(0x40)\n      0x20\n      dup2\n      dup4\n      sub\n      sub\n      dup2\n      mstore\n      swap1\n      0x40\n      mstore\n        /* \"RUSD-Bridge-MaalChain/TokenBridge.sol\":6042:6150  keccak256(abi.encodePacked(msg.sender, remoteTokenBridge, _tokenAddress, actualValue, nonce, block.chainid)) */\n      dup1\n      mload\n      swap1\n      0x20\n      add\n      keccak256\n        /* \"RUSD-Bridge-MaalChain/TokenBridge.sol\":6022:6150  bytes32 messageId = keccak256(abi.encodePacked(msg.sender, remoteTokenBridge, _tokenAddress, actualValue, nonce, block.chainid)) */\n      swap1\n      pop\n        /* \"RUSD-Bridge-MaalChain/TokenBridge.sol\":6189:6199  msg.sender */\n      caller\n        /* \"RUSD-Bridge-MaalChain/TokenBridge.sol\":6161:6175  messageSenders */\n      0x08\n        /* \"RUSD-Bridge-MaalChain/TokenBridge.sol\":6161:6186  messageSenders[messageId] */\n      0x00\n        /* \"RUSD-Bridge-MaalChain/TokenBridge.sol\":6176:6185  messageId */\n      dup4\n        /* \"RUSD-Bridge-MaalChain/TokenBridge.sol\":6161:6186  messageSenders[messageId] */\n      dup2\n      mstore\n      0x20\n      add\n      swap1\n      dup2\n      mstore\n      0x20\n      add\n      0x00\n      keccak256\n      0x00\n        /* \"RUSD-Bridge-MaalChain/TokenBridge.sol\":6161:6199  messageSenders[messageId] = msg.sender */\n      0x0100\n      exp\n      dup2\n      sload\n      dup2\n      0xffffffffffffffffffffffffffffffffffffffff\n      mul\n      not\n      and\n      swap1\n      dup4\n      0xffffffffffffffffffffffffffffffffffffffff\n      and\n      mul\n      or\n      swap1\n      sstore\n      pop\n        /* \"RUSD-Bridge-MaalChain/TokenBridge.sol\":6251:6268  bytes memory data */\n      0x00\n        /* \"RUSD-Bridge-MaalChain/TokenBridge.sol\":6308:6341  this.handleBridgedTokens.selector */\n      shl(0xe0, 0x02e1aacf)\n        /* \"RUSD-Bridge-MaalChain/TokenBridge.sol\":6356:6366  _recipient */\n      dup11\n        /* \"RUSD-Bridge-MaalChain/TokenBridge.sol\":6381:6393  tokenMapping */\n      0x06\n        /* \"RUSD-Bridge-MaalChain/TokenBridge.sol\":6381:6408  tokenMapping[_tokenAddress] */\n      0x00\n        /* \"RUSD-Bridge-MaalChain/TokenBridge.sol\":6394:6407  _tokenAddress */\n      dup13\n        /* \"RUSD-Bridge-MaalChain/TokenBridge.sol\":6381:6408  tokenMapping[_tokenAddress] */\n      0xffffffffffffffffffffffffffffffffffffffff\n      and\n      0xffffffffffffffffffffffffffffffffffffffff\n      and\n      dup2\n      mstore\n      0x20\n      add\n      swap1\n      dup2\n      mstore\n      0x20\n      add\n      0x00\n      keccak256\n      0x00\n      swap1\n      sload\n      swap1\n      0x0100\n      exp\n      swap1\n      div\n      0xffffffffffffffffffffffffffffffffffffffff\n      and\n        /* \"RUSD-Bridge-MaalChain/TokenBridge.sol\":6423:6434  actualValue */\n      dup6\n        /* \"RUSD-Bridge-MaalChain/TokenBridge.sol\":6449:6454  nonce */\n      sload(0x05)\n        /* \"RUSD-Bridge-MaalChain/TokenBridge.sol\":6271:6465  abi.encodeWithSelector(... */\n      add(0x24, mload(0x40))\n      tag_323\n      swap5\n      swap4\n      swap3\n      swap2\n      swap1\n      tag_324\n      jump\t// in\n    tag_323:\n      mload(0x40)\n      0x20\n      dup2\n      dup4\n      sub\n      sub\n      dup2\n      mstore\n      swap1\n      0x40\n      mstore\n      swap1\n      not(0xffffffffffffffffffffffffffffffffffffffffffffffffffffffff)\n      and\n      0x20\n      dup3\n      add\n      dup1\n      mload\n      0xffffffffffffffffffffffffffffffffffffffffffffffffffffffff\n      dup4\n      dup2\n      dup4\n      and\n      or\n      dup4\n      mstore\n      pop\n      pop\n      pop\n      pop\n        /* \"RUSD-Bridge-MaalChain/TokenBridge.sol\":6251:6465  bytes memory data = abi.encodeWithSelector(... */\n      swap1\n      pop\n        /* \"RUSD-Bridge-MaalChain/TokenBridge.sol\":6526:6684  Message({... */\n      mload(0x40)\n      dup1\n      0x80\n      add\n      0x40\n      mstore\n      dup1\n        /* \"RUSD-Bridge-MaalChain/TokenBridge.sol\":6560:6570  _recipient */\n      dup12\n        /* \"RUSD-Bridge-MaalChain/TokenBridge.sol\":6526:6684  Message({... */\n      0xffffffffffffffffffffffffffffffffffffffff\n      and\n      dup2\n      mstore\n      0x20\n      add\n        /* \"RUSD-Bridge-MaalChain/TokenBridge.sol\":6599:6612  _tokenAddress */\n      dup11\n        /* \"RUSD-Bridge-MaalChain/TokenBridge.sol\":6526:6684  Message({... */\n      0xffffffffffffffffffffffffffffffffffffffff\n      and\n      dup2\n      mstore\n      0x20\n      add\n        /* \"RUSD-Bridge-MaalChain/TokenBridge.sol\":6634:6645  actualValue */\n      dup5\n        /* \"RUSD-Bridge-MaalChain/TokenBridge.sol\":6526:6684  Message({... */\n      dup2\n      mstore\n      0x20\n      add\n        /* \"RUSD-Bridge-MaalChain/TokenBridge.sol\":6667:6672  nonce */\n      sload(0x05)\n        /* \"RUSD-Bridge-MaalChain/TokenBridge.sol\":6526:6684  Message({... */\n      dup2\n      mstore\n      pop\n        /* \"RUSD-Bridge-MaalChain/TokenBridge.sol\":6504:6512  messages */\n      0x09\n        /* \"RUSD-Bridge-MaalChain/TokenBridge.sol\":6504:6523  messages[messageId] */\n      0x00\n        /* \"RUSD-Bridge-MaalChain/TokenBridge.sol\":6513:6522  messageId */\n      dup5\n        /* \"RUSD-Bridge-MaalChain/TokenBridge.sol\":6504:6523  messages[messageId] */\n      dup2\n      mstore\n      0x20\n      add\n      swap1\n      dup2\n      mstore\n      0x20\n      add\n      0x00\n      keccak256\n        /* \"RUSD-Bridge-MaalChain/TokenBridge.sol\":6504:6684  messages[messageId] = Message({... */\n      0x00\n      dup3\n      add\n      mload\n      dup2\n      0x00\n      add\n      exp(0x0100, 0x00)\n      dup2\n      sload\n      dup2\n      0xffffffffffffffffffffffffffffffffffffffff\n      mul\n      not\n      and\n      swap1\n      dup4\n      0xffffffffffffffffffffffffffffffffffffffff\n      and\n      mul\n      or\n      swap1\n      sstore\n      pop\n      0x20\n      dup3\n      add\n      mload\n      dup2\n      0x01\n      add\n      exp(0x0100, 0x00)\n      dup2\n      sload\n      dup2\n      0xffffffffffffffffffffffffffffffffffffffff\n      mul\n      not\n      and\n      swap1\n      dup4\n      0xffffffffffffffffffffffffffffffffffffffff\n      and\n      mul\n      or\n      swap1\n      sstore\n      pop\n      0x40\n      dup3\n      add\n      mload\n      dup2\n      0x02\n      add\n      sstore\n      0x60\n      dup3\n      add\n      mload\n      dup2\n      0x03\n      add\n      sstore\n      swap1\n      pop\n      pop\n        /* \"RUSD-Bridge-MaalChain/TokenBridge.sol\":6737:6754  remoteTokenBridge */\n      0x02\n      0x01\n      swap1\n      sload\n      swap1\n      0x0100\n      exp\n      swap1\n      div\n      0xffffffffffffffffffffffffffffffffffffffff\n      and\n        /* \"RUSD-Bridge-MaalChain/TokenBridge.sol\":6702:6768  MessageSent(messageId, msg.sender, remoteTokenBridge, data, nonce) */\n      0xffffffffffffffffffffffffffffffffffffffff\n      and\n        /* \"RUSD-Bridge-MaalChain/TokenBridge.sol\":6725:6735  msg.sender */\n      caller\n        /* \"RUSD-Bridge-MaalChain/TokenBridge.sol\":6702:6768  MessageSent(messageId, msg.sender, remoteTokenBridge, data, nonce) */\n      0xffffffffffffffffffffffffffffffffffffffff\n      and\n        /* \"RUSD-Bridge-MaalChain/TokenBridge.sol\":6714:6723  messageId */\n      dup4\n        /* \"RUSD-Bridge-MaalChain/TokenBridge.sol\":6702:6768  MessageSent(messageId, msg.sender, remoteTokenBridge, data, nonce) */\n      0xd8331239dcfe177d02e949e3cfa5969f4a3c658a80554db93c64ab76f7acf9c5\n        /* \"RUSD-Bridge-MaalChain/TokenBridge.sol\":6756:6760  data */\n      dup5\n        /* \"RUSD-Bridge-MaalChain/TokenBridge.sol\":6762:6767  nonce */\n      sload(0x05)\n        /* \"RUSD-Bridge-MaalChain/TokenBridge.sol\":6702:6768  MessageSent(messageId, msg.sender, remoteTokenBridge, data, nonce) */\n      mload(0x40)\n      tag_325\n      swap3\n      swap2\n      swap1\n      tag_326\n      jump\t// in\n    tag_325:\n      mload(0x40)\n      dup1\n      swap2\n      sub\n      swap1\n      log4\n        /* \"RUSD-Bridge-MaalChain/TokenBridge.sol\":6820:6830  _recipient */\n      dup10\n        /* \"RUSD-Bridge-MaalChain/TokenBridge.sol\":6784:6895  TokensLocked(messageId, msg.sender, _recipient, _tokenAddress, tokenMapping[_tokenAddress], actualValue, nonce) */\n      0xffffffffffffffffffffffffffffffffffffffff\n      and\n        /* \"RUSD-Bridge-MaalChain/TokenBridge.sol\":6808:6818  msg.sender */\n      caller\n        /* \"RUSD-Bridge-MaalChain/TokenBridge.sol\":6784:6895  TokensLocked(messageId, msg.sender, _recipient, _tokenAddress, tokenMapping[_tokenAddress], actualValue, nonce) */\n      0xffffffffffffffffffffffffffffffffffffffff\n      and\n        /* \"RUSD-Bridge-MaalChain/TokenBridge.sol\":6797:6806  messageId */\n      dup4\n        /* \"RUSD-Bridge-MaalChain/TokenBridge.sol\":6784:6895  TokensLocked(messageId, msg.sender, _recipient, _tokenAddress, tokenMapping[_tokenAddress], actualValue, nonce) */\n      0xebc0384b967ceefd5309a419c2e26d01fd91727b29add79be1a42444d158dd28\n        /* \"RUSD-Bridge-MaalChain/TokenBridge.sol\":6832:6845  _tokenAddress */\n      dup13\n        /* \"RUSD-Bridge-MaalChain/TokenBridge.sol\":6847:6859  tokenMapping */\n      0x06\n        /* \"RUSD-Bridge-MaalChain/TokenBridge.sol\":6847:6874  tokenMapping[_tokenAddress] */\n      0x00\n        /* \"RUSD-Bridge-MaalChain/TokenBridge.sol\":6860:6873  _tokenAddress */\n      dup16\n        /* \"RUSD-Bridge-MaalChain/TokenBridge.sol\":6847:6874  tokenMapping[_tokenAddress] */\n      0xffffffffffffffffffffffffffffffffffffffff\n      and\n      0xffffffffffffffffffffffffffffffffffffffff\n      and\n      dup2\n      mstore\n      0x20\n      add\n      swap1\n      dup2\n      mstore\n      0x20\n      add\n      0x00\n      keccak256\n      0x00\n      swap1\n      sload\n      swap1\n      0x0100\n      exp\n      swap1\n      div\n      0xffffffffffffffffffffffffffffffffffffffff\n      and\n        /* \"RUSD-Bridge-MaalChain/TokenBridge.sol\":6876:6887  actualValue */\n      dup9\n        /* \"RUSD-Bridge-MaalChain/TokenBridge.sol\":6889:6894  nonce */\n      sload(0x05)\n        /* \"RUSD-Bridge-MaalChain/TokenBridge.sol\":6784:6895  TokensLocked(messageId, msg.sender, _recipient, _tokenAddress, tokenMapping[_tokenAddress], actualValue, nonce) */\n      mload(0x40)\n      tag_327\n      swap5\n      swap4\n      swap3\n      swap2\n      swap1\n      tag_324\n      jump\t// in\n    tag_327:\n      mload(0x40)\n      dup1\n      swap2\n      sub\n      swap1\n      log4\n        /* \"RUSD-Bridge-MaalChain/TokenBridge.sol\":6915:6924  messageId */\n      dup2\n        /* \"RUSD-Bridge-MaalChain/TokenBridge.sol\":6908:6924  return messageId */\n      swap7\n      pop\n      pop\n      pop\n      pop\n      pop\n      pop\n      pop\n        /* \"RUSD-Bridge-MaalChain/ReentrancyGuard.sol\":2601:2621  _nonReentrantAfter() */\n      tag_328\n        /* \"RUSD-Bridge-MaalChain/ReentrancyGuard.sol\":2601:2619  _nonReentrantAfter */\n      tag_185\n        /* \"RUSD-Bridge-MaalChain/ReentrancyGuard.sol\":2601:2621  _nonReentrantAfter() */\n      jump\t// in\n    tag_328:\n        /* \"RUSD-Bridge-MaalChain/TokenBridge.sol\":5175:6932  function transferToken(address _recipient, address _tokenAddress, uint256 _value)... */\n      swap4\n      swap3\n      pop\n      pop\n      pop\n      jump\t// out\n        /* \"RUSD-Bridge-MaalChain/TokenBridge.sol\":839:905  bytes32 public constant OPERATOR_ROLE = keccak256(\"OPERATOR_ROLE\") */\n    tag_146:\n        /* \"RUSD-Bridge-MaalChain/TokenBridge.sol\":879:905  keccak256(\"OPERATOR_ROLE\") */\n      0x97667070c54ef182b0f5858b034beac1b6f3089aa2d3188bb1e8929f4fa9b929\n        /* \"RUSD-Bridge-MaalChain/TokenBridge.sol\":839:905  bytes32 public constant OPERATOR_ROLE = keccak256(\"OPERATOR_ROLE\") */\n      dup2\n      jump\t// out\n        /* \"RUSD-Bridge-MaalChain/TokenBridge.sol\":12577:12700  function isMessageFixed(bytes32 _messageId) external view returns (bool) {... */\n    tag_150:\n        /* \"RUSD-Bridge-MaalChain/TokenBridge.sol\":12644:12648  bool */\n      0x00\n        /* \"RUSD-Bridge-MaalChain/TokenBridge.sol\":12668:12680  messageFixed */\n      0x0a\n        /* \"RUSD-Bridge-MaalChain/TokenBridge.sol\":12668:12692  messageFixed[_messageId] */\n      0x00\n        /* \"RUSD-Bridge-MaalChain/TokenBridge.sol\":12681:12691  _messageId */\n      dup4\n        /* \"RUSD-Bridge-MaalChain/TokenBridge.sol\":12668:12692  messageFixed[_messageId] */\n      dup2\n      mstore\n      0x20\n      add\n      swap1\n      dup2\n      mstore\n      0x20\n      add\n      0x00\n      keccak256\n      0x00\n      swap1\n      sload\n      swap1\n      0x0100\n      exp\n      swap1\n      div\n      0xff\n      and\n        /* \"RUSD-Bridge-MaalChain/TokenBridge.sol\":12661:12692  return messageFixed[_messageId] */\n      swap1\n      pop\n        /* \"RUSD-Bridge-MaalChain/TokenBridge.sol\":12577:12700  function isMessageFixed(bytes32 _messageId) external view returns (bool) {... */\n      swap2\n      swap1\n      pop\n      jump\t// out\n        /* \"RUSD-Bridge-MaalChain/ERC165.sol\":750:898  function supportsInterface(bytes4 interfaceId) public view virtual returns (bool) {... */\n    tag_158:\n        /* \"RUSD-Bridge-MaalChain/ERC165.sol\":826:830  bool */\n      0x00\n        /* \"RUSD-Bridge-MaalChain/ERC165.sol\":865:890  type(IERC165).interfaceId */\n      0x01ffc9a700000000000000000000000000000000000000000000000000000000\n        /* \"RUSD-Bridge-MaalChain/ERC165.sol\":850:890  interfaceId == type(IERC165).interfaceId */\n      not(0xffffffffffffffffffffffffffffffffffffffffffffffffffffffff)\n      and\n        /* \"RUSD-Bridge-MaalChain/ERC165.sol\":850:861  interfaceId */\n      dup3\n        /* \"RUSD-Bridge-MaalChain/ERC165.sol\":850:890  interfaceId == type(IERC165).interfaceId */\n      not(0xffffffffffffffffffffffffffffffffffffffffffffffffffffffff)\n      and\n      eq\n        /* \"RUSD-Bridge-MaalChain/ERC165.sol\":843:890  return interfaceId == type(IERC165).interfaceId */\n      swap1\n      pop\n        /* \"RUSD-Bridge-MaalChain/ERC165.sol\":750:898  function supportsInterface(bytes4 interfaceId) public view virtual returns (bool) {... */\n      swap2\n      swap1\n      pop\n      jump\t// out\n        /* \"RUSD-Bridge-MaalChain/ReentrancyGuard.sol\":2637:2952  function _nonReentrantBefore() private {... */\n    tag_161:\n        /* \"RUSD-Bridge-MaalChain/ReentrancyGuard.sol\":1935:1936  2 */\n      0x02\n        /* \"RUSD-Bridge-MaalChain/ReentrancyGuard.sol\":2766:2773  _status */\n      sload(0x00)\n        /* \"RUSD-Bridge-MaalChain/ReentrancyGuard.sol\":2766:2784  _status == ENTERED */\n      sub\n        /* \"RUSD-Bridge-MaalChain/ReentrancyGuard.sol\":2762:2850  if (_status == ENTERED) {... */\n      tag_332\n      jumpi\n        /* \"RUSD-Bridge-MaalChain/ReentrancyGuard.sol\":2808:2838  ReentrancyGuardReentrantCall() */\n      mload(0x40)\n      0x3ee5aeb500000000000000000000000000000000000000000000000000000000\n      dup2\n      mstore\n      0x04\n      add\n      mload(0x40)\n      dup1\n      swap2\n      sub\n      swap1\n      revert\n        /* \"RUSD-Bridge-MaalChain/ReentrancyGuard.sol\":2762:2850  if (_status == ENTERED) {... */\n    tag_332:\n        /* \"RUSD-Bridge-MaalChain/ReentrancyGuard.sol\":1935:1936  2 */\n      0x02\n        /* \"RUSD-Bridge-MaalChain/ReentrancyGuard.sol\":2927:2934  _status */\n      0x00\n        /* \"RUSD-Bridge-MaalChain/ReentrancyGuard.sol\":2927:2944  _status = ENTERED */\n      dup2\n      swap1\n      sstore\n      pop\n        /* \"RUSD-Bridge-MaalChain/ReentrancyGuard.sol\":2637:2952  function _nonReentrantBefore() private {... */\n      jump\t// out\n        /* \"RUSD-Bridge-MaalChain/Pausable.sol\":1943:2075  function _requireNotPaused() internal view virtual {... */\n    tag_164:\n        /* \"RUSD-Bridge-MaalChain/Pausable.sol\":2009:2017  paused() */\n      tag_334\n        /* \"RUSD-Bridge-MaalChain/Pausable.sol\":2009:2015  paused */\n      tag_88\n        /* \"RUSD-Bridge-MaalChain/Pausable.sol\":2009:2017  paused() */\n      jump\t// in\n    tag_334:\n        /* \"RUSD-Bridge-MaalChain/Pausable.sol\":2005:2068  if (paused()) {... */\n      iszero\n      tag_335\n      jumpi\n        /* \"RUSD-Bridge-MaalChain/Pausable.sol\":2041:2056  EnforcedPause() */\n      mload(0x40)\n      0xd93c066500000000000000000000000000000000000000000000000000000000\n      dup2\n      mstore\n      0x04\n      add\n      mload(0x40)\n      dup1\n      swap2\n      sub\n      swap1\n      revert\n        /* \"RUSD-Bridge-MaalChain/Pausable.sol\":2005:2068  if (paused()) {... */\n    tag_335:\n        /* \"RUSD-Bridge-MaalChain/Pausable.sol\":1943:2075  function _requireNotPaused() internal view virtual {... */\n      jump\t// out\n        /* \"RUSD-Bridge-MaalChain/SafeERC20.sol\":1271:1433  function safeTransfer(IERC20 token, address to, uint256 value) internal {... */\n    tag_180:\n        /* \"RUSD-Bridge-MaalChain/SafeERC20.sol\":1354:1425  _callOptionalReturn(token, abi.encodeCall(token.transfer, (to, value))) */\n      tag_337\n        /* \"RUSD-Bridge-MaalChain/SafeERC20.sol\":1374:1379  token */\n      dup4\n        /* \"RUSD-Bridge-MaalChain/SafeERC20.sol\":1396:1401  token */\n      dup5\n        /* \"RUSD-Bridge-MaalChain/SafeERC20.sol\":1396:1410  token.transfer */\n      0xffffffffffffffffffffffffffffffffffffffff\n      and\n      0xa9059cbb\n        /* \"RUSD-Bridge-MaalChain/SafeERC20.sol\":1413:1415  to */\n      dup6\n        /* \"RUSD-Bridge-MaalChain/SafeERC20.sol\":1417:1422  value */\n      dup6\n        /* \"RUSD-Bridge-MaalChain/SafeERC20.sol\":1381:1424  abi.encodeCall(token.transfer, (to, value)) */\n      add(0x24, mload(0x40))\n      tag_338\n      swap3\n      swap2\n      swap1\n      tag_201\n      jump\t// in\n    tag_338:\n      mload(0x40)\n      0x20\n      dup2\n      dup4\n      sub\n      sub\n      dup2\n      mstore\n      swap1\n      0x40\n      mstore\n      swap2\n      pop\n      0xe0\n      shl\n      0x20\n      dup3\n      add\n      dup1\n      mload\n      0xffffffffffffffffffffffffffffffffffffffffffffffffffffffff\n      dup4\n      dup2\n      dup4\n      and\n      or\n      dup4\n      mstore\n      pop\n      pop\n      pop\n      pop\n        /* \"RUSD-Bridge-MaalChain/SafeERC20.sol\":1354:1373  _callOptionalReturn */\n      tag_339\n        /* \"RUSD-Bridge-MaalChain/SafeERC20.sol\":1354:1425  _callOptionalReturn(token, abi.encodeCall(token.transfer, (to, value))) */\n      jump\t// in\n    tag_337:\n        /* \"RUSD-Bridge-MaalChain/SafeERC20.sol\":1271:1433  function safeTransfer(IERC20 token, address to, uint256 value) internal {... */\n      pop\n      pop\n      pop\n      jump\t// out\n        /* \"RUSD-Bridge-MaalChain/ReentrancyGuard.sol\":2960:3172  function _nonReentrantAfter() private {... */\n    tag_185:\n        /* \"RUSD-Bridge-MaalChain/ReentrancyGuard.sol\":1892:1893  1 */\n      0x01\n        /* \"RUSD-Bridge-MaalChain/ReentrancyGuard.sol\":3143:3150  _status */\n      0x00\n        /* \"RUSD-Bridge-MaalChain/ReentrancyGuard.sol\":3143:3164  _status = NOT_ENTERED */\n      dup2\n      swap1\n      sstore\n      pop\n        /* \"RUSD-Bridge-MaalChain/ReentrancyGuard.sol\":2960:3172  function _nonReentrantAfter() private {... */\n      jump\t// out\n        /* \"RUSD-Bridge-MaalChain/AccessControl.sol\":3216:3321  function _checkRole(bytes32 role) internal view virtual {... */\n    tag_192:\n        /* \"RUSD-Bridge-MaalChain/AccessControl.sol\":3283:3313  _checkRole(role, _msgSender()) */\n      tag_342\n        /* \"RUSD-Bridge-MaalChain/AccessControl.sol\":3294:3298  role */\n      dup2\n        /* \"RUSD-Bridge-MaalChain/AccessControl.sol\":3300:3312  _msgSender() */\n      tag_343\n        /* \"RUSD-Bridge-MaalChain/AccessControl.sol\":3300:3310  _msgSender */\n      tag_213\n        /* \"RUSD-Bridge-MaalChain/AccessControl.sol\":3300:3312  _msgSender() */\n      jump\t// in\n    tag_343:\n        /* \"RUSD-Bridge-MaalChain/AccessControl.sol\":3283:3293  _checkRole */\n      tag_344\n        /* \"RUSD-Bridge-MaalChain/AccessControl.sol\":3283:3313  _checkRole(role, _msgSender()) */\n      jump\t// in\n    tag_342:\n        /* \"RUSD-Bridge-MaalChain/AccessControl.sol\":3216:3321  function _checkRole(bytes32 role) internal view virtual {... */\n      pop\n      jump\t// out\n        /* \"RUSD-Bridge-MaalChain/AccessControl.sol\":6293:6617  function _grantRole(bytes32 role, address account) internal virtual returns (bool) {... */\n    tag_210:\n        /* \"RUSD-Bridge-MaalChain/AccessControl.sol\":6370:6374  bool */\n      0x00\n        /* \"RUSD-Bridge-MaalChain/AccessControl.sol\":6392:6414  hasRole(role, account) */\n      tag_346\n        /* \"RUSD-Bridge-MaalChain/AccessControl.sol\":6400:6404  role */\n      dup4\n        /* \"RUSD-Bridge-MaalChain/AccessControl.sol\":6406:6413  account */\n      dup4\n        /* \"RUSD-Bridge-MaalChain/AccessControl.sol\":6392:6399  hasRole */\n      tag_98\n        /* \"RUSD-Bridge-MaalChain/AccessControl.sol\":6392:6414  hasRole(role, account) */\n      jump\t// in\n    tag_346:\n        /* \"RUSD-Bridge-MaalChain/AccessControl.sol\":6387:6610  if (!hasRole(role, account)) {... */\n      tag_347\n      jumpi\n        /* \"RUSD-Bridge-MaalChain/AccessControl.sol\":6463:6467  true */\n      0x01\n        /* \"RUSD-Bridge-MaalChain/AccessControl.sol\":6431:6437  _roles */\n      dup1\n        /* \"RUSD-Bridge-MaalChain/AccessControl.sol\":6431:6443  _roles[role] */\n      0x00\n        /* \"RUSD-Bridge-MaalChain/AccessControl.sol\":6438:6442  role */\n      dup6\n        /* \"RUSD-Bridge-MaalChain/AccessControl.sol\":6431:6443  _roles[role] */\n      dup2\n      mstore\n      0x20\n      add\n      swap1\n      dup2\n      mstore\n      0x20\n      add\n      0x00\n      keccak256\n        /* \"RUSD-Bridge-MaalChain/AccessControl.sol\":6431:6451  _roles[role].hasRole */\n      0x00\n      add\n        /* \"RUSD-Bridge-MaalChain/AccessControl.sol\":6431:6460  _roles[role].hasRole[account] */\n      0x00\n        /* \"RUSD-Bridge-MaalChain/AccessControl.sol\":6452:6459  account */\n      dup5\n        /* \"RUSD-Bridge-MaalChain/AccessControl.sol\":6431:6460  _roles[role].hasRole[account] */\n      0xffffffffffffffffffffffffffffffffffffffff\n      and\n      0xffffffffffffffffffffffffffffffffffffffff\n      and\n      dup2\n      mstore\n      0x20\n      add\n      swap1\n      dup2\n      mstore\n      0x20\n      add\n      0x00\n      keccak256\n      0x00\n        /* \"RUSD-Bridge-MaalChain/AccessControl.sol\":6431:6467  _roles[role].hasRole[account] = true */\n      0x0100\n      exp\n      dup2\n      sload\n      dup2\n      0xff\n      mul\n      not\n      and\n      swap1\n      dup4\n      iszero\n      iszero\n      mul\n      or\n      swap1\n      sstore\n      pop\n        /* \"RUSD-Bridge-MaalChain/AccessControl.sol\":6514:6526  _msgSender() */\n      tag_348\n        /* \"RUSD-Bridge-MaalChain/AccessControl.sol\":6514:6524  _msgSender */\n      tag_213\n        /* \"RUSD-Bridge-MaalChain/AccessControl.sol\":6514:6526  _msgSender() */\n      jump\t// in\n    tag_348:\n        /* \"RUSD-Bridge-MaalChain/AccessControl.sol\":6487:6527  RoleGranted(role, account, _msgSender()) */\n      0xffffffffffffffffffffffffffffffffffffffff\n      and\n        /* \"RUSD-Bridge-MaalChain/AccessControl.sol\":6505:6512  account */\n      dup3\n        /* \"RUSD-Bridge-MaalChain/AccessControl.sol\":6487:6527  RoleGranted(role, account, _msgSender()) */\n      0xffffffffffffffffffffffffffffffffffffffff\n      and\n        /* \"RUSD-Bridge-MaalChain/AccessControl.sol\":6499:6503  role */\n      dup5\n        /* \"RUSD-Bridge-MaalChain/AccessControl.sol\":6487:6527  RoleGranted(role, account, _msgSender()) */\n      0x2f8788117e7eff1d82e926ec794901d17c78024a50270940304540a733656f0d\n      mload(0x40)\n      mload(0x40)\n      dup1\n      swap2\n      sub\n      swap1\n      log4\n        /* \"RUSD-Bridge-MaalChain/AccessControl.sol\":6549:6553  true */\n      0x01\n        /* \"RUSD-Bridge-MaalChain/AccessControl.sol\":6542:6553  return true */\n      swap1\n      pop\n      jump(tag_345)\n        /* \"RUSD-Bridge-MaalChain/AccessControl.sol\":6387:6610  if (!hasRole(role, account)) {... */\n    tag_347:\n        /* \"RUSD-Bridge-MaalChain/AccessControl.sol\":6593:6598  false */\n      0x00\n        /* \"RUSD-Bridge-MaalChain/AccessControl.sol\":6586:6598  return false */\n      swap1\n      pop\n        /* \"RUSD-Bridge-MaalChain/AccessControl.sol\":6293:6617  function _grantRole(bytes32 role, address account) internal virtual returns (bool) {... */\n    tag_345:\n      swap3\n      swap2\n      pop\n      pop\n      jump\t// out\n        /* \"RUSD-Bridge-MaalChain/Context.sol\":671:769  function _msgSender() internal view virtual returns (address) {... */\n    tag_213:\n        /* \"RUSD-Bridge-MaalChain/Context.sol\":724:731  address */\n      0x00\n        /* \"RUSD-Bridge-MaalChain/Context.sol\":751:761  msg.sender */\n      caller\n        /* \"RUSD-Bridge-MaalChain/Context.sol\":744:761  return msg.sender */\n      swap1\n      pop\n        /* \"RUSD-Bridge-MaalChain/Context.sol\":671:769  function _msgSender() internal view virtual returns (address) {... */\n      swap1\n      jump\t// out\n        /* \"RUSD-Bridge-MaalChain/AccessControl.sol\":6863:7188  function _revokeRole(bytes32 role, address account) internal virtual returns (bool) {... */\n    tag_216:\n        /* \"RUSD-Bridge-MaalChain/AccessControl.sol\":6941:6945  bool */\n      0x00\n        /* \"RUSD-Bridge-MaalChain/AccessControl.sol\":6962:6984  hasRole(role, account) */\n      tag_352\n        /* \"RUSD-Bridge-MaalChain/AccessControl.sol\":6970:6974  role */\n      dup4\n        /* \"RUSD-Bridge-MaalChain/AccessControl.sol\":6976:6983  account */\n      dup4\n        /* \"RUSD-Bridge-MaalChain/AccessControl.sol\":6962:6969  hasRole */\n      tag_98\n        /* \"RUSD-Bridge-MaalChain/AccessControl.sol\":6962:6984  hasRole(role, account) */\n      jump\t// in\n    tag_352:\n        /* \"RUSD-Bridge-MaalChain/AccessControl.sol\":6958:7181  if (hasRole(role, account)) {... */\n      iszero\n      tag_353\n      jumpi\n        /* \"RUSD-Bridge-MaalChain/AccessControl.sol\":7033:7038  false */\n      0x00\n        /* \"RUSD-Bridge-MaalChain/AccessControl.sol\":7001:7007  _roles */\n      0x01\n        /* \"RUSD-Bridge-MaalChain/AccessControl.sol\":7001:7013  _roles[role] */\n      0x00\n        /* \"RUSD-Bridge-MaalChain/AccessControl.sol\":7008:7012  role */\n      dup6\n        /* \"RUSD-Bridge-MaalChain/AccessControl.sol\":7001:7013  _roles[role] */\n      dup2\n      mstore\n      0x20\n      add\n      swap1\n      dup2\n      mstore\n      0x20\n      add\n      0x00\n      keccak256\n        /* \"RUSD-Bridge-MaalChain/AccessControl.sol\":7001:7021  _roles[role].hasRole */\n      0x00\n      add\n        /* \"RUSD-Bridge-MaalChain/AccessControl.sol\":7001:7030  _roles[role].hasRole[account] */\n      0x00\n        /* \"RUSD-Bridge-MaalChain/AccessControl.sol\":7022:7029  account */\n      dup5\n        /* \"RUSD-Bridge-MaalChain/AccessControl.sol\":7001:7030  _roles[role].hasRole[account] */\n      0xffffffffffffffffffffffffffffffffffffffff\n      and\n      0xffffffffffffffffffffffffffffffffffffffff\n      and\n      dup2\n      mstore\n      0x20\n      add\n      swap1\n      dup2\n      mstore\n      0x20\n      add\n      0x00\n      keccak256\n      0x00\n        /* \"RUSD-Bridge-MaalChain/AccessControl.sol\":7001:7038  _roles[role].hasRole[account] = false */\n      0x0100\n      exp\n      dup2\n      sload\n      dup2\n      0xff\n      mul\n      not\n      and\n      swap1\n      dup4\n      iszero\n      iszero\n      mul\n      or\n      swap1\n      sstore\n      pop\n        /* \"RUSD-Bridge-MaalChain/AccessControl.sol\":7085:7097  _msgSender() */\n      tag_354\n        /* \"RUSD-Bridge-MaalChain/AccessControl.sol\":7085:7095  _msgSender */\n      tag_213\n        /* \"RUSD-Bridge-MaalChain/AccessControl.sol\":7085:7097  _msgSender() */\n      jump\t// in\n    tag_354:\n        /* \"RUSD-Bridge-MaalChain/AccessControl.sol\":7058:7098  RoleRevoked(role, account, _msgSender()) */\n      0xffffffffffffffffffffffffffffffffffffffff\n      and\n        /* \"RUSD-Bridge-MaalChain/AccessControl.sol\":7076:7083  account */\n      dup3\n        /* \"RUSD-Bridge-MaalChain/AccessControl.sol\":7058:7098  RoleRevoked(role, account, _msgSender()) */\n      0xffffffffffffffffffffffffffffffffffffffff\n      and\n        /* \"RUSD-Bridge-MaalChain/AccessControl.sol\":7070:7074  role */\n      dup5\n        /* \"RUSD-Bridge-MaalChain/AccessControl.sol\":7058:7098  RoleRevoked(role, account, _msgSender()) */\n      0xf6391f5c32d9c69d2a47ea670b442974b53935d1edc7fd64eb21e047a839171b\n      mload(0x40)\n      mload(0x40)\n      dup1\n      swap2\n      sub\n      swap1\n      log4\n        /* \"RUSD-Bridge-MaalChain/AccessControl.sol\":7120:7124  true */\n      0x01\n        /* \"RUSD-Bridge-MaalChain/AccessControl.sol\":7113:7124  return true */\n      swap1\n      pop\n      jump(tag_351)\n        /* \"RUSD-Bridge-MaalChain/AccessControl.sol\":6958:7181  if (hasRole(role, account)) {... */\n    tag_353:\n        /* \"RUSD-Bridge-MaalChain/AccessControl.sol\":7164:7169  false */\n      0x00\n        /* \"RUSD-Bridge-MaalChain/AccessControl.sol\":7157:7169  return false */\n      swap1\n      pop\n        /* \"RUSD-Bridge-MaalChain/AccessControl.sol\":6863:7188  function _revokeRole(bytes32 role, address account) internal virtual returns (bool) {... */\n    tag_351:\n      swap3\n      swap2\n      pop\n      pop\n      jump\t// out\n        /* \"RUSD-Bridge-MaalChain/Pausable.sol\":2685:2805  function _unpause() internal virtual whenPaused {... */\n    tag_221:\n        /* \"RUSD-Bridge-MaalChain/Pausable.sol\":1648:1664  _requirePaused() */\n      tag_357\n        /* \"RUSD-Bridge-MaalChain/Pausable.sol\":1648:1662  _requirePaused */\n      tag_358\n        /* \"RUSD-Bridge-MaalChain/Pausable.sol\":1648:1664  _requirePaused() */\n      jump\t// in\n    tag_357:\n        /* \"RUSD-Bridge-MaalChain/Pausable.sol\":2754:2759  false */\n      0x00\n        /* \"RUSD-Bridge-MaalChain/Pausable.sol\":2744:2751  _paused */\n      0x02\n      0x00\n        /* \"RUSD-Bridge-MaalChain/Pausable.sol\":2744:2759  _paused = false */\n      0x0100\n      exp\n      dup2\n      sload\n      dup2\n      0xff\n      mul\n      not\n      and\n      swap1\n      dup4\n      iszero\n      iszero\n      mul\n      or\n      swap1\n      sstore\n      pop\n        /* \"RUSD-Bridge-MaalChain/Pausable.sol\":2775:2797  Unpaused(_msgSender()) */\n      0x5db9ee0a495bf2e6ff9c91a7834c1ba4fdd244a5e8aa4e537bd38aeae4b073aa\n        /* \"RUSD-Bridge-MaalChain/Pausable.sol\":2784:2796  _msgSender() */\n      tag_360\n        /* \"RUSD-Bridge-MaalChain/Pausable.sol\":2784:2794  _msgSender */\n      tag_213\n        /* \"RUSD-Bridge-MaalChain/Pausable.sol\":2784:2796  _msgSender() */\n      jump\t// in\n    tag_360:\n        /* \"RUSD-Bridge-MaalChain/Pausable.sol\":2775:2797  Unpaused(_msgSender()) */\n      mload(0x40)\n      tag_361\n      swap2\n      swap1\n      tag_117\n      jump\t// in\n    tag_361:\n      mload(0x40)\n      dup1\n      swap2\n      sub\n      swap1\n      log1\n        /* \"RUSD-Bridge-MaalChain/Pausable.sol\":2685:2805  function _unpause() internal virtual whenPaused {... */\n      jump\t// out\n        /* \"RUSD-Bridge-MaalChain/Pausable.sol\":2426:2544  function _pause() internal virtual whenNotPaused {... */\n    tag_261:\n        /* \"RUSD-Bridge-MaalChain/Pausable.sol\":1389:1408  _requireNotPaused() */\n      tag_363\n        /* \"RUSD-Bridge-MaalChain/Pausable.sol\":1389:1406  _requireNotPaused */\n      tag_164\n        /* \"RUSD-Bridge-MaalChain/Pausable.sol\":1389:1408  _requireNotPaused() */\n      jump\t// in\n    tag_363:\n        /* \"RUSD-Bridge-MaalChain/Pausable.sol\":2496:2500  true */\n      0x01\n        /* \"RUSD-Bridge-MaalChain/Pausable.sol\":2486:2493  _paused */\n      0x02\n      0x00\n        /* \"RUSD-Bridge-MaalChain/Pausable.sol\":2486:2500  _paused = true */\n      0x0100\n      exp\n      dup2\n      sload\n      dup2\n      0xff\n      mul\n      not\n      and\n      swap1\n      dup4\n      iszero\n      iszero\n      mul\n      or\n      swap1\n      sstore\n      pop\n        /* \"RUSD-Bridge-MaalChain/Pausable.sol\":2516:2536  Paused(_msgSender()) */\n      0x62e78cea01bee320cd4e420270b5ea74000d11b0c9f74754ebdbfc544b05a258\n        /* \"RUSD-Bridge-MaalChain/Pausable.sol\":2523:2535  _msgSender() */\n      tag_365\n        /* \"RUSD-Bridge-MaalChain/Pausable.sol\":2523:2533  _msgSender */\n      tag_213\n        /* \"RUSD-Bridge-MaalChain/Pausable.sol\":2523:2535  _msgSender() */\n      jump\t// in\n    tag_365:\n        /* \"RUSD-Bridge-MaalChain/Pausable.sol\":2516:2536  Paused(_msgSender()) */\n      mload(0x40)\n      tag_366\n      swap2\n      swap1\n      tag_117\n      jump\t// in\n    tag_366:\n      mload(0x40)\n      dup1\n      swap2\n      sub\n      swap1\n      log1\n        /* \"RUSD-Bridge-MaalChain/Pausable.sol\":2426:2544  function _pause() internal virtual whenNotPaused {... */\n      jump\t// out\n        /* \"RUSD-Bridge-MaalChain/SafeERC20.sol\":1678:1868  function safeTransferFrom(IERC20 token, address from, address to, uint256 value) internal {... */\n    tag_312:\n        /* \"RUSD-Bridge-MaalChain/SafeERC20.sol\":1779:1860  _callOptionalReturn(token, abi.encodeCall(token.transferFrom, (from, to, value))) */\n      tag_368\n        /* \"RUSD-Bridge-MaalChain/SafeERC20.sol\":1799:1804  token */\n      dup5\n        /* \"RUSD-Bridge-MaalChain/SafeERC20.sol\":1821:1826  token */\n      dup6\n        /* \"RUSD-Bridge-MaalChain/SafeERC20.sol\":1821:1839  token.transferFrom */\n      0xffffffffffffffffffffffffffffffffffffffff\n      and\n      0x23b872dd\n        /* \"RUSD-Bridge-MaalChain/SafeERC20.sol\":1842:1846  from */\n      dup7\n        /* \"RUSD-Bridge-MaalChain/SafeERC20.sol\":1848:1850  to */\n      dup7\n        /* \"RUSD-Bridge-MaalChain/SafeERC20.sol\":1852:1857  value */\n      dup7\n        /* \"RUSD-Bridge-MaalChain/SafeERC20.sol\":1806:1859  abi.encodeCall(token.transferFrom, (from, to, value)) */\n      add(0x24, mload(0x40))\n      tag_369\n      swap4\n      swap3\n      swap2\n      swap1\n      tag_370\n      jump\t// in\n    tag_369:\n      mload(0x40)\n      0x20\n      dup2\n      dup4\n      sub\n      sub\n      dup2\n      mstore\n      swap1\n      0x40\n      mstore\n      swap2\n      pop\n      0xe0\n      shl\n      0x20\n      dup3\n      add\n      dup1\n      mload\n      0xffffffffffffffffffffffffffffffffffffffffffffffffffffffff\n      dup4\n      dup2\n      dup4\n      and\n      or\n      dup4\n      mstore\n      pop\n      pop\n      pop\n      pop\n        /* \"RUSD-Bridge-MaalChain/SafeERC20.sol\":1779:1798  _callOptionalReturn */\n      tag_339\n        /* \"RUSD-Bridge-MaalChain/SafeERC20.sol\":1779:1860  _callOptionalReturn(token, abi.encodeCall(token.transferFrom, (from, to, value))) */\n      jump\t// in\n    tag_368:\n        /* \"RUSD-Bridge-MaalChain/SafeERC20.sol\":1678:1868  function safeTransferFrom(IERC20 token, address from, address to, uint256 value) internal {... */\n      pop\n      pop\n      pop\n      pop\n      jump\t// out\n        /* \"RUSD-Bridge-MaalChain/SafeERC20.sol\":7864:8602  function _callOptionalReturn(IERC20 token, bytes memory data) private {... */\n    tag_339:\n        /* \"RUSD-Bridge-MaalChain/SafeERC20.sol\":7945:7963  uint256 returnSize */\n      0x00\n        /* \"RUSD-Bridge-MaalChain/SafeERC20.sol\":7974:7993  uint256 returnValue */\n      dup1\n        /* \"RUSD-Bridge-MaalChain/SafeERC20.sol\":8114:8118  0x20 */\n      0x20\n        /* \"RUSD-Bridge-MaalChain/SafeERC20.sol\":8111:8112  0 */\n      0x00\n        /* \"RUSD-Bridge-MaalChain/SafeERC20.sol\":8104:8108  data */\n      dup5\n        /* \"RUSD-Bridge-MaalChain/SafeERC20.sol\":8098:8109  mload(data) */\n      mload\n        /* \"RUSD-Bridge-MaalChain/SafeERC20.sol\":8091:8095  0x20 */\n      0x20\n        /* \"RUSD-Bridge-MaalChain/SafeERC20.sol\":8085:8089  data */\n      dup7\n        /* \"RUSD-Bridge-MaalChain/SafeERC20.sol\":8081:8096  add(data, 0x20) */\n      add\n        /* \"RUSD-Bridge-MaalChain/SafeERC20.sol\":8078:8079  0 */\n      0x00\n        /* \"RUSD-Bridge-MaalChain/SafeERC20.sol\":8071:8076  token */\n      dup9\n        /* \"RUSD-Bridge-MaalChain/SafeERC20.sol\":8064:8069  gas() */\n      gas\n        /* \"RUSD-Bridge-MaalChain/SafeERC20.sol\":8059:8119  call(gas(), token, 0, add(data, 0x20), mload(data), 0, 0x20) */\n      call\n        /* \"RUSD-Bridge-MaalChain/SafeERC20.sol\":8173:8180  success */\n      dup1\n        /* \"RUSD-Bridge-MaalChain/SafeERC20.sol\":8163:8343  if iszero(success) {... */\n      tag_372\n      jumpi\n        /* \"RUSD-Bridge-MaalChain/SafeERC20.sol\":8218:8222  0x40 */\n      0x40\n        /* \"RUSD-Bridge-MaalChain/SafeERC20.sol\":8212:8223  mload(0x40) */\n      mload\n        /* \"RUSD-Bridge-MaalChain/SafeERC20.sol\":8264:8280  returndatasize() */\n      returndatasize\n        /* \"RUSD-Bridge-MaalChain/SafeERC20.sol\":8261:8262  0 */\n      0x00\n        /* \"RUSD-Bridge-MaalChain/SafeERC20.sol\":8256:8259  ptr */\n      dup3\n        /* \"RUSD-Bridge-MaalChain/SafeERC20.sol\":8241:8281  returndatacopy(ptr, 0, returndatasize()) */\n      returndatacopy\n        /* \"RUSD-Bridge-MaalChain/SafeERC20.sol\":8311:8327  returndatasize() */\n      returndatasize\n        /* \"RUSD-Bridge-MaalChain/SafeERC20.sol\":8306:8309  ptr */\n      dup2\n        /* \"RUSD-Bridge-MaalChain/SafeERC20.sol\":8299:8328  revert(ptr, returndatasize()) */\n      revert\n        /* \"RUSD-Bridge-MaalChain/SafeERC20.sol\":8163:8343  if iszero(success) {... */\n    tag_372:\n        /* \"RUSD-Bridge-MaalChain/SafeERC20.sol\":8371:8387  returndatasize() */\n      returndatasize\n        /* \"RUSD-Bridge-MaalChain/SafeERC20.sol\":8357:8387  returnSize := returndatasize() */\n      swap3\n      pop\n        /* \"RUSD-Bridge-MaalChain/SafeERC20.sol\":8422:8423  0 */\n      0x00\n        /* \"RUSD-Bridge-MaalChain/SafeERC20.sol\":8416:8424  mload(0) */\n      mload\n        /* \"RUSD-Bridge-MaalChain/SafeERC20.sol\":8401:8424  returnValue := mload(0) */\n      swap2\n      pop\n        /* \"RUSD-Bridge-MaalChain/SafeERC20.sol\":8029:8435  {... */\n      pop\n        /* \"RUSD-Bridge-MaalChain/SafeERC20.sol\":8465:8466  0 */\n      0x00\n        /* \"RUSD-Bridge-MaalChain/SafeERC20.sol\":8451:8461  returnSize */\n      dup3\n        /* \"RUSD-Bridge-MaalChain/SafeERC20.sol\":8451:8466  returnSize == 0 */\n      eq\n        /* \"RUSD-Bridge-MaalChain/SafeERC20.sol\":8451:8519  returnSize == 0 ? address(token).code.length == 0 : returnValue != 1 */\n      tag_373\n      jumpi\n        /* \"RUSD-Bridge-MaalChain/SafeERC20.sol\":8518:8519  1 */\n      0x01\n        /* \"RUSD-Bridge-MaalChain/SafeERC20.sol\":8503:8514  returnValue */\n      dup2\n        /* \"RUSD-Bridge-MaalChain/SafeERC20.sol\":8503:8519  returnValue != 1 */\n      eq\n      iszero\n        /* \"RUSD-Bridge-MaalChain/SafeERC20.sol\":8451:8519  returnSize == 0 ? address(token).code.length == 0 : returnValue != 1 */\n      jump(tag_374)\n    tag_373:\n        /* \"RUSD-Bridge-MaalChain/SafeERC20.sol\":8499:8500  0 */\n      0x00\n        /* \"RUSD-Bridge-MaalChain/SafeERC20.sol\":8477:8482  token */\n      dup5\n        /* \"RUSD-Bridge-MaalChain/SafeERC20.sol\":8469:8495  address(token).code.length */\n      0xffffffffffffffffffffffffffffffffffffffff\n      and\n      extcodesize\n        /* \"RUSD-Bridge-MaalChain/SafeERC20.sol\":8469:8500  address(token).code.length == 0 */\n      eq\n        /* \"RUSD-Bridge-MaalChain/SafeERC20.sol\":8451:8519  returnSize == 0 ? address(token).code.length == 0 : returnValue != 1 */\n    tag_374:\n        /* \"RUSD-Bridge-MaalChain/SafeERC20.sol\":8447:8595  if (returnSize == 0 ? address(token).code.length == 0 : returnValue != 1) {... */\n      iszero\n      tag_375\n      jumpi\n        /* \"RUSD-Bridge-MaalChain/SafeERC20.sol\":8576:8581  token */\n      dup4\n        /* \"RUSD-Bridge-MaalChain/SafeERC20.sol\":8543:8583  SafeERC20FailedOperation(address(token)) */\n      mload(0x40)\n      0x5274afe700000000000000000000000000000000000000000000000000000000\n      dup2\n      mstore\n      0x04\n      add\n      tag_376\n      swap2\n      swap1\n      tag_117\n      jump\t// in\n    tag_376:\n      mload(0x40)\n      dup1\n      swap2\n      sub\n      swap1\n      revert\n        /* \"RUSD-Bridge-MaalChain/SafeERC20.sol\":8447:8595  if (returnSize == 0 ? address(token).code.length == 0 : returnValue != 1) {... */\n    tag_375:\n        /* \"RUSD-Bridge-MaalChain/SafeERC20.sol\":7934:8602  {... */\n      pop\n      pop\n        /* \"RUSD-Bridge-MaalChain/SafeERC20.sol\":7864:8602  function _callOptionalReturn(IERC20 token, bytes memory data) private {... */\n      pop\n      pop\n      jump\t// out\n        /* \"RUSD-Bridge-MaalChain/AccessControl.sol\":3457:3658  function _checkRole(bytes32 role, address account) internal view virtual {... */\n    tag_344:\n        /* \"RUSD-Bridge-MaalChain/AccessControl.sol\":3546:3568  hasRole(role, account) */\n      tag_378\n        /* \"RUSD-Bridge-MaalChain/AccessControl.sol\":3554:3558  role */\n      dup3\n        /* \"RUSD-Bridge-MaalChain/AccessControl.sol\":3560:3567  account */\n      dup3\n        /* \"RUSD-Bridge-MaalChain/AccessControl.sol\":3546:3553  hasRole */\n      tag_98\n        /* \"RUSD-Bridge-MaalChain/AccessControl.sol\":3546:3568  hasRole(role, account) */\n      jump\t// in\n    tag_378:\n        /* \"RUSD-Bridge-MaalChain/AccessControl.sol\":3541:3651  if (!hasRole(role, account)) {... */\n      tag_379\n      jumpi\n        /* \"RUSD-Bridge-MaalChain/AccessControl.sol\":3625:3632  account */\n      dup1\n        /* \"RUSD-Bridge-MaalChain/AccessControl.sol\":3634:3638  role */\n      dup3\n        /* \"RUSD-Bridge-MaalChain/AccessControl.sol\":3592:3639  AccessControlUnauthorizedAccount(account, role) */\n      mload(0x40)\n      0xe2517d3f00000000000000000000000000000000000000000000000000000000\n      dup2\n      mstore\n      0x04\n      add\n      tag_380\n      swap3\n      swap2\n      swap1\n      tag_381\n      jump\t// in\n    tag_380:\n      mload(0x40)\n      dup1\n      swap2\n      sub\n      swap1\n      revert\n        /* \"RUSD-Bridge-MaalChain/AccessControl.sol\":3541:3651  if (!hasRole(role, account)) {... */\n    tag_379:\n        /* \"RUSD-Bridge-MaalChain/AccessControl.sol\":3457:3658  function _checkRole(bytes32 role, address account) internal view virtual {... */\n      pop\n      pop\n      jump\t// out\n        /* \"RUSD-Bridge-MaalChain/Pausable.sol\":2152:2282  function _requirePaused() internal view virtual {... */\n    tag_358:\n        /* \"RUSD-Bridge-MaalChain/Pausable.sol\":2216:2224  paused() */\n      tag_383\n        /* \"RUSD-Bridge-MaalChain/Pausable.sol\":2216:2222  paused */\n      tag_88\n        /* \"RUSD-Bridge-MaalChain/Pausable.sol\":2216:2224  paused() */\n      jump\t// in\n    tag_383:\n        /* \"RUSD-Bridge-MaalChain/Pausable.sol\":2211:2275  if (!paused()) {... */\n      tag_384\n      jumpi\n        /* \"RUSD-Bridge-MaalChain/Pausable.sol\":2248:2263  ExpectedPause() */\n      mload(0x40)\n      0x8dfc202b00000000000000000000000000000000000000000000000000000000\n      dup2\n      mstore\n      0x04\n      add\n      mload(0x40)\n      dup1\n      swap2\n      sub\n      swap1\n      revert\n        /* \"RUSD-Bridge-MaalChain/Pausable.sol\":2211:2275  if (!paused()) {... */\n    tag_384:\n        /* \"RUSD-Bridge-MaalChain/Pausable.sol\":2152:2282  function _requirePaused() internal view virtual {... */\n      jump\t// out\n    tag_153:\n      mload(0x40)\n      dup1\n      0x80\n      add\n      0x40\n      mstore\n      dup1\n      and(0xffffffffffffffffffffffffffffffffffffffff, 0x00)\n      dup2\n      mstore\n      0x20\n      add\n      and(0xffffffffffffffffffffffffffffffffffffffff, 0x00)\n      dup2\n      mstore\n      0x20\n      add\n      0x00\n      dup2\n      mstore\n      0x20\n      add\n      0x00\n      dup2\n      mstore\n      pop\n      swap1\n      jump\t// out\n        /* \"#utility.yul\":88:205   */\n    tag_386:\n        /* \"#utility.yul\":197:198   */\n      0x00\n        /* \"#utility.yul\":194:195   */\n      dup1\n        /* \"#utility.yul\":187:199   */\n      revert\n        /* \"#utility.yul\":211:328   */\n    tag_387:\n        /* \"#utility.yul\":320:321   */\n      0x00\n        /* \"#utility.yul\":317:318   */\n      dup1\n        /* \"#utility.yul\":310:322   */\n      revert\n        /* \"#utility.yul\":334:411   */\n    tag_388:\n        /* \"#utility.yul\":371:378   */\n      0x00\n        /* \"#utility.yul\":400:405   */\n      dup2\n        /* \"#utility.yul\":389:405   */\n      swap1\n      pop\n        /* \"#utility.yul\":334:411   */\n      swap2\n      swap1\n      pop\n      jump\t// out\n        /* \"#utility.yul\":417:539   */\n    tag_389:\n        /* \"#utility.yul\":490:514   */\n      tag_436\n        /* \"#utility.yul\":508:513   */\n      dup2\n        /* \"#utility.yul\":490:514   */\n      tag_388\n      jump\t// in\n    tag_436:\n        /* \"#utility.yul\":483:488   */\n      dup2\n        /* \"#utility.yul\":480:515   */\n      eq\n        /* \"#utility.yul\":470:533   */\n      tag_437\n      jumpi\n        /* \"#utility.yul\":529:530   */\n      0x00\n        /* \"#utility.yul\":526:527   */\n      dup1\n        /* \"#utility.yul\":519:531   */\n      revert\n        /* \"#utility.yul\":470:533   */\n    tag_437:\n        /* \"#utility.yul\":417:539   */\n      pop\n      jump\t// out\n        /* \"#utility.yul\":545:684   */\n    tag_390:\n        /* \"#utility.yul\":591:596   */\n      0x00\n        /* \"#utility.yul\":629:635   */\n      dup2\n        /* \"#utility.yul\":616:636   */\n      calldataload\n        /* \"#utility.yul\":607:636   */\n      swap1\n      pop\n        /* \"#utility.yul\":645:678   */\n      tag_439\n        /* \"#utility.yul\":672:677   */\n      dup2\n        /* \"#utility.yul\":645:678   */\n      tag_389\n      jump\t// in\n    tag_439:\n        /* \"#utility.yul\":545:684   */\n      swap3\n      swap2\n      pop\n      pop\n      jump\t// out\n        /* \"#utility.yul\":690:1019   */\n    tag_42:\n        /* \"#utility.yul\":749:755   */\n      0x00\n        /* \"#utility.yul\":798:800   */\n      0x20\n        /* \"#utility.yul\":786:795   */\n      dup3\n        /* \"#utility.yul\":777:784   */\n      dup5\n        /* \"#utility.yul\":773:796   */\n      sub\n        /* \"#utility.yul\":769:801   */\n      slt\n        /* \"#utility.yul\":766:885   */\n      iszero\n      tag_441\n      jumpi\n        /* \"#utility.yul\":804:883   */\n      tag_442\n      tag_386\n      jump\t// in\n    tag_442:\n        /* \"#utility.yul\":766:885   */\n    tag_441:\n        /* \"#utility.yul\":924:925   */\n      0x00\n        /* \"#utility.yul\":949:1002   */\n      tag_443\n        /* \"#utility.yul\":994:1001   */\n      dup5\n        /* \"#utility.yul\":985:991   */\n      dup3\n        /* \"#utility.yul\":974:983   */\n      dup6\n        /* \"#utility.yul\":970:992   */\n      add\n        /* \"#utility.yul\":949:1002   */\n      tag_390\n      jump\t// in\n    tag_443:\n        /* \"#utility.yul\":939:1002   */\n      swap2\n      pop\n        /* \"#utility.yul\":895:1012   */\n      pop\n        /* \"#utility.yul\":690:1019   */\n      swap3\n      swap2\n      pop\n      pop\n      jump\t// out\n        /* \"#utility.yul\":1025:1151   */\n    tag_391:\n        /* \"#utility.yul\":1062:1069   */\n      0x00\n        /* \"#utility.yul\":1102:1144   */\n      0xffffffffffffffffffffffffffffffffffffffff\n        /* \"#utility.yul\":1095:1100   */\n      dup3\n        /* \"#utility.yul\":1091:1145   */\n      and\n        /* \"#utility.yul\":1080:1145   */\n      swap1\n      pop\n        /* \"#utility.yul\":1025:1151   */\n      swap2\n      swap1\n      pop\n      jump\t// out\n        /* \"#utility.yul\":1157:1253   */\n    tag_392:\n        /* \"#utility.yul\":1194:1201   */\n      0x00\n        /* \"#utility.yul\":1223:1247   */\n      tag_446\n        /* \"#utility.yul\":1241:1246   */\n      dup3\n        /* \"#utility.yul\":1223:1247   */\n      tag_391\n      jump\t// in\n    tag_446:\n        /* \"#utility.yul\":1212:1247   */\n      swap1\n      pop\n        /* \"#utility.yul\":1157:1253   */\n      swap2\n      swap1\n      pop\n      jump\t// out\n        /* \"#utility.yul\":1259:1367   */\n    tag_393:\n        /* \"#utility.yul\":1336:1360   */\n      tag_448\n        /* \"#utility.yul\":1354:1359   */\n      dup2\n        /* \"#utility.yul\":1336:1360   */\n      tag_392\n      jump\t// in\n    tag_448:\n        /* \"#utility.yul\":1331:1334   */\n      dup3\n        /* \"#utility.yul\":1324:1361   */\n      mstore\n        /* \"#utility.yul\":1259:1367   */\n      pop\n      pop\n      jump\t// out\n        /* \"#utility.yul\":1373:1450   */\n    tag_394:\n        /* \"#utility.yul\":1410:1417   */\n      0x00\n        /* \"#utility.yul\":1439:1444   */\n      dup2\n        /* \"#utility.yul\":1428:1444   */\n      swap1\n      pop\n        /* \"#utility.yul\":1373:1450   */\n      swap2\n      swap1\n      pop\n      jump\t// out\n        /* \"#utility.yul\":1456:1564   */\n    tag_395:\n        /* \"#utility.yul\":1533:1557   */\n      tag_451\n        /* \"#utility.yul\":1551:1556   */\n      dup2\n        /* \"#utility.yul\":1533:1557   */\n      tag_394\n      jump\t// in\n    tag_451:\n        /* \"#utility.yul\":1528:1531   */\n      dup3\n        /* \"#utility.yul\":1521:1558   */\n      mstore\n        /* \"#utility.yul\":1456:1564   */\n      pop\n      pop\n      jump\t// out\n        /* \"#utility.yul\":1634:2504   */\n    tag_396:\n        /* \"#utility.yul\":1781:1785   */\n      0x80\n        /* \"#utility.yul\":1776:1779   */\n      dup3\n        /* \"#utility.yul\":1772:1786   */\n      add\n        /* \"#utility.yul\":1873:1877   */\n      0x00\n        /* \"#utility.yul\":1866:1871   */\n      dup3\n        /* \"#utility.yul\":1862:1878   */\n      add\n        /* \"#utility.yul\":1856:1879   */\n      mload\n        /* \"#utility.yul\":1892:1955   */\n      tag_453\n        /* \"#utility.yul\":1949:1953   */\n      0x00\n        /* \"#utility.yul\":1944:1947   */\n      dup6\n        /* \"#utility.yul\":1940:1954   */\n      add\n        /* \"#utility.yul\":1926:1938   */\n      dup3\n        /* \"#utility.yul\":1892:1955   */\n      tag_393\n      jump\t// in\n    tag_453:\n        /* \"#utility.yul\":1796:1965   */\n      pop\n        /* \"#utility.yul\":2055:2059   */\n      0x20\n        /* \"#utility.yul\":2048:2053   */\n      dup3\n        /* \"#utility.yul\":2044:2060   */\n      add\n        /* \"#utility.yul\":2038:2061   */\n      mload\n        /* \"#utility.yul\":2074:2137   */\n      tag_454\n        /* \"#utility.yul\":2131:2135   */\n      0x20\n        /* \"#utility.yul\":2126:2129   */\n      dup6\n        /* \"#utility.yul\":2122:2136   */\n      add\n        /* \"#utility.yul\":2108:2120   */\n      dup3\n        /* \"#utility.yul\":2074:2137   */\n      tag_393\n      jump\t// in\n    tag_454:\n        /* \"#utility.yul\":1975:2147   */\n      pop\n        /* \"#utility.yul\":2230:2234   */\n      0x40\n        /* \"#utility.yul\":2223:2228   */\n      dup3\n        /* \"#utility.yul\":2219:2235   */\n      add\n        /* \"#utility.yul\":2213:2236   */\n      mload\n        /* \"#utility.yul\":2249:2312   */\n      tag_455\n        /* \"#utility.yul\":2306:2310   */\n      0x40\n        /* \"#utility.yul\":2301:2304   */\n      dup6\n        /* \"#utility.yul\":2297:2311   */\n      add\n        /* \"#utility.yul\":2283:2295   */\n      dup3\n        /* \"#utility.yul\":2249:2312   */\n      tag_395\n      jump\t// in\n    tag_455:\n        /* \"#utility.yul\":2157:2322   */\n      pop\n        /* \"#utility.yul\":2405:2409   */\n      0x60\n        /* \"#utility.yul\":2398:2403   */\n      dup3\n        /* \"#utility.yul\":2394:2410   */\n      add\n        /* \"#utility.yul\":2388:2411   */\n      mload\n        /* \"#utility.yul\":2424:2487   */\n      tag_456\n        /* \"#utility.yul\":2481:2485   */\n      0x60\n        /* \"#utility.yul\":2476:2479   */\n      dup6\n        /* \"#utility.yul\":2472:2486   */\n      add\n        /* \"#utility.yul\":2458:2470   */\n      dup3\n        /* \"#utility.yul\":2424:2487   */\n      tag_395\n      jump\t// in\n    tag_456:\n        /* \"#utility.yul\":2332:2497   */\n      pop\n        /* \"#utility.yul\":1750:2504   */\n      pop\n        /* \"#utility.yul\":1634:2504   */\n      pop\n      pop\n      jump\t// out\n        /* \"#utility.yul\":2510:2833   */\n    tag_45:\n        /* \"#utility.yul\":2653:2657   */\n      0x00\n        /* \"#utility.yul\":2691:2694   */\n      0x80\n        /* \"#utility.yul\":2680:2689   */\n      dup3\n        /* \"#utility.yul\":2676:2695   */\n      add\n        /* \"#utility.yul\":2668:2695   */\n      swap1\n      pop\n        /* \"#utility.yul\":2705:2826   */\n      tag_458\n        /* \"#utility.yul\":2823:2824   */\n      0x00\n        /* \"#utility.yul\":2812:2821   */\n      dup4\n        /* \"#utility.yul\":2808:2825   */\n      add\n        /* \"#utility.yul\":2799:2805   */\n      dup5\n        /* \"#utility.yul\":2705:2826   */\n      tag_396\n      jump\t// in\n    tag_458:\n        /* \"#utility.yul\":2510:2833   */\n      swap3\n      swap2\n      pop\n      pop\n      jump\t// out\n        /* \"#utility.yul\":2839:2988   */\n    tag_397:\n        /* \"#utility.yul\":2875:2882   */\n      0x00\n        /* \"#utility.yul\":2915:2981   */\n      0xffffffff00000000000000000000000000000000000000000000000000000000\n        /* \"#utility.yul\":2908:2913   */\n      dup3\n        /* \"#utility.yul\":2904:2982   */\n      and\n        /* \"#utility.yul\":2893:2982   */\n      swap1\n      pop\n        /* \"#utility.yul\":2839:2988   */\n      swap2\n      swap1\n      pop\n      jump\t// out\n        /* \"#utility.yul\":2994:3114   */\n    tag_398:\n        /* \"#utility.yul\":3066:3089   */\n      tag_461\n        /* \"#utility.yul\":3083:3088   */\n      dup2\n        /* \"#utility.yul\":3066:3089   */\n      tag_397\n      jump\t// in\n    tag_461:\n        /* \"#utility.yul\":3059:3064   */\n      dup2\n        /* \"#utility.yul\":3056:3090   */\n      eq\n        /* \"#utility.yul\":3046:3108   */\n      tag_462\n      jumpi\n        /* \"#utility.yul\":3104:3105   */\n      0x00\n        /* \"#utility.yul\":3101:3102   */\n      dup1\n        /* \"#utility.yul\":3094:3106   */\n      revert\n        /* \"#utility.yul\":3046:3108   */\n    tag_462:\n        /* \"#utility.yul\":2994:3114   */\n      pop\n      jump\t// out\n        /* \"#utility.yul\":3120:3257   */\n    tag_399:\n        /* \"#utility.yul\":3165:3170   */\n      0x00\n        /* \"#utility.yul\":3203:3209   */\n      dup2\n        /* \"#utility.yul\":3190:3210   */\n      calldataload\n        /* \"#utility.yul\":3181:3210   */\n      swap1\n      pop\n        /* \"#utility.yul\":3219:3251   */\n      tag_464\n        /* \"#utility.yul\":3245:3250   */\n      dup2\n        /* \"#utility.yul\":3219:3251   */\n      tag_398\n      jump\t// in\n    tag_464:\n        /* \"#utility.yul\":3120:3257   */\n      swap3\n      swap2\n      pop\n      pop\n      jump\t// out\n        /* \"#utility.yul\":3263:3590   */\n    tag_48:\n        /* \"#utility.yul\":3321:3327   */\n      0x00\n        /* \"#utility.yul\":3370:3372   */\n      0x20\n        /* \"#utility.yul\":3358:3367   */\n      dup3\n        /* \"#utility.yul\":3349:3356   */\n      dup5\n        /* \"#utility.yul\":3345:3368   */\n      sub\n        /* \"#utility.yul\":3341:3373   */\n      slt\n        /* \"#utility.yul\":3338:3457   */\n      iszero\n      tag_466\n      jumpi\n        /* \"#utility.yul\":3376:3455   */\n      tag_467\n      tag_386\n      jump\t// in\n    tag_467:\n        /* \"#utility.yul\":3338:3457   */\n    tag_466:\n        /* \"#utility.yul\":3496:3497   */\n      0x00\n        /* \"#utility.yul\":3521:3573   */\n      tag_468\n        /* \"#utility.yul\":3565:3572   */\n      dup5\n        /* \"#utility.yul\":3556:3562   */\n      dup3\n        /* \"#utility.yul\":3545:3554   */\n      dup6\n        /* \"#utility.yul\":3541:3563   */\n      add\n        /* \"#utility.yul\":3521:3573   */\n      tag_399\n      jump\t// in\n    tag_468:\n        /* \"#utility.yul\":3511:3573   */\n      swap2\n      pop\n        /* \"#utility.yul\":3467:3583   */\n      pop\n        /* \"#utility.yul\":3263:3590   */\n      swap3\n      swap2\n      pop\n      pop\n      jump\t// out\n        /* \"#utility.yul\":3596:3686   */\n    tag_400:\n        /* \"#utility.yul\":3630:3637   */\n      0x00\n        /* \"#utility.yul\":3673:3678   */\n      dup2\n        /* \"#utility.yul\":3666:3679   */\n      iszero\n        /* \"#utility.yul\":3659:3680   */\n      iszero\n        /* \"#utility.yul\":3648:3680   */\n      swap1\n      pop\n        /* \"#utility.yul\":3596:3686   */\n      swap2\n      swap1\n      pop\n      jump\t// out\n        /* \"#utility.yul\":3692:3801   */\n    tag_401:\n        /* \"#utility.yul\":3773:3794   */\n      tag_471\n        /* \"#utility.yul\":3788:3793   */\n      dup2\n        /* \"#utility.yul\":3773:3794   */\n      tag_400\n      jump\t// in\n    tag_471:\n        /* \"#utility.yul\":3768:3771   */\n      dup3\n        /* \"#utility.yul\":3761:3795   */\n      mstore\n        /* \"#utility.yul\":3692:3801   */\n      pop\n      pop\n      jump\t// out\n        /* \"#utility.yul\":3807:4017   */\n    tag_51:\n        /* \"#utility.yul\":3894:3898   */\n      0x00\n        /* \"#utility.yul\":3932:3934   */\n      0x20\n        /* \"#utility.yul\":3921:3930   */\n      dup3\n        /* \"#utility.yul\":3917:3935   */\n      add\n        /* \"#utility.yul\":3909:3935   */\n      swap1\n      pop\n        /* \"#utility.yul\":3945:4010   */\n      tag_473\n        /* \"#utility.yul\":4007:4008   */\n      0x00\n        /* \"#utility.yul\":3996:4005   */\n      dup4\n        /* \"#utility.yul\":3992:4009   */\n      add\n        /* \"#utility.yul\":3983:3989   */\n      dup5\n        /* \"#utility.yul\":3945:4010   */\n      tag_401\n      jump\t// in\n    tag_473:\n        /* \"#utility.yul\":3807:4017   */\n      swap3\n      swap2\n      pop\n      pop\n      jump\t// out\n        /* \"#utility.yul\":4023:4145   */\n    tag_402:\n        /* \"#utility.yul\":4096:4120   */\n      tag_475\n        /* \"#utility.yul\":4114:4119   */\n      dup2\n        /* \"#utility.yul\":4096:4120   */\n      tag_392\n      jump\t// in\n    tag_475:\n        /* \"#utility.yul\":4089:4094   */\n      dup2\n        /* \"#utility.yul\":4086:4121   */\n      eq\n        /* \"#utility.yul\":4076:4139   */\n      tag_476\n      jumpi\n        /* \"#utility.yul\":4135:4136   */\n      0x00\n        /* \"#utility.yul\":4132:4133   */\n      dup1\n        /* \"#utility.yul\":4125:4137   */\n      revert\n        /* \"#utility.yul\":4076:4139   */\n    tag_476:\n        /* \"#utility.yul\":4023:4145   */\n      pop\n      jump\t// out\n        /* \"#utility.yul\":4151:4290   */\n    tag_403:\n        /* \"#utility.yul\":4197:4202   */\n      0x00\n        /* \"#utility.yul\":4235:4241   */\n      dup2\n        /* \"#utility.yul\":4222:4242   */\n      calldataload\n        /* \"#utility.yul\":4213:4242   */\n      swap1\n      pop\n        /* \"#utility.yul\":4251:4284   */\n      tag_478\n        /* \"#utility.yul\":4278:4283   */\n      dup2\n        /* \"#utility.yul\":4251:4284   */\n      tag_402\n      jump\t// in\n    tag_478:\n        /* \"#utility.yul\":4151:4290   */\n      swap3\n      swap2\n      pop\n      pop\n      jump\t// out\n        /* \"#utility.yul\":4296:4418   */\n    tag_404:\n        /* \"#utility.yul\":4369:4393   */\n      tag_480\n        /* \"#utility.yul\":4387:4392   */\n      dup2\n        /* \"#utility.yul\":4369:4393   */\n      tag_394\n      jump\t// in\n    tag_480:\n        /* \"#utility.yul\":4362:4367   */\n      dup2\n        /* \"#utility.yul\":4359:4394   */\n      eq\n        /* \"#utility.yul\":4349:4412   */\n      tag_481\n      jumpi\n        /* \"#utility.yul\":4408:4409   */\n      0x00\n        /* \"#utility.yul\":4405:4406   */\n      dup1\n        /* \"#utility.yul\":4398:4410   */\n      revert\n        /* \"#utility.yul\":4349:4412   */\n    tag_481:\n        /* \"#utility.yul\":4296:4418   */\n      pop\n      jump\t// out\n        /* \"#utility.yul\":4424:4563   */\n    tag_405:\n        /* \"#utility.yul\":4470:4475   */\n      0x00\n        /* \"#utility.yul\":4508:4514   */\n      dup2\n        /* \"#utility.yul\":4495:4515   */\n      calldataload\n        /* \"#utility.yul\":4486:4515   */\n      swap1\n      pop\n        /* \"#utility.yul\":4524:4557   */\n      tag_483\n        /* \"#utility.yul\":4551:4556   */\n      dup2\n        /* \"#utility.yul\":4524:4557   */\n      tag_404\n      jump\t// in\n    tag_483:\n        /* \"#utility.yul\":4424:4563   */\n      swap3\n      swap2\n      pop\n      pop\n      jump\t// out\n        /* \"#utility.yul\":4569:5334   */\n    tag_54:\n        /* \"#utility.yul\":4655:4661   */\n      0x00\n        /* \"#utility.yul\":4663:4669   */\n      dup1\n        /* \"#utility.yul\":4671:4677   */\n      0x00\n        /* \"#utility.yul\":4679:4685   */\n      dup1\n        /* \"#utility.yul\":4728:4731   */\n      0x80\n        /* \"#utility.yul\":4716:4725   */\n      dup6\n        /* \"#utility.yul\":4707:4714   */\n      dup8\n        /* \"#utility.yul\":4703:4726   */\n      sub\n        /* \"#utility.yul\":4699:4732   */\n      slt\n        /* \"#utility.yul\":4696:4816   */\n      iszero\n      tag_485\n      jumpi\n        /* \"#utility.yul\":4735:4814   */\n      tag_486\n      tag_386\n      jump\t// in\n    tag_486:\n        /* \"#utility.yul\":4696:4816   */\n    tag_485:\n        /* \"#utility.yul\":4855:4856   */\n      0x00\n        /* \"#utility.yul\":4880:4933   */\n      tag_487\n        /* \"#utility.yul\":4925:4932   */\n      dup8\n        /* \"#utility.yul\":4916:4922   */\n      dup3\n        /* \"#utility.yul\":4905:4914   */\n      dup9\n        /* \"#utility.yul\":4901:4923   */\n      add\n        /* \"#utility.yul\":4880:4933   */\n      tag_403\n      jump\t// in\n    tag_487:\n        /* \"#utility.yul\":4870:4933   */\n      swap5\n      pop\n        /* \"#utility.yul\":4826:4943   */\n      pop\n        /* \"#utility.yul\":4982:4984   */\n      0x20\n        /* \"#utility.yul\":5008:5061   */\n      tag_488\n        /* \"#utility.yul\":5053:5060   */\n      dup8\n        /* \"#utility.yul\":5044:5050   */\n      dup3\n        /* \"#utility.yul\":5033:5042   */\n      dup9\n        /* \"#utility.yul\":5029:5051   */\n      add\n        /* \"#utility.yul\":5008:5061   */\n      tag_403\n      jump\t// in\n    tag_488:\n        /* \"#utility.yul\":4998:5061   */\n      swap4\n      pop\n        /* \"#utility.yul\":4953:5071   */\n      pop\n        /* \"#utility.yul\":5110:5112   */\n      0x40\n        /* \"#utility.yul\":5136:5189   */\n      tag_489\n        /* \"#utility.yul\":5181:5188   */\n      dup8\n        /* \"#utility.yul\":5172:5178   */\n      dup3\n        /* \"#utility.yul\":5161:5170   */\n      dup9\n        /* \"#utility.yul\":5157:5179   */\n      add\n        /* \"#utility.yul\":5136:5189   */\n      tag_405\n      jump\t// in\n    tag_489:\n        /* \"#utility.yul\":5126:5189   */\n      swap3\n      pop\n        /* \"#utility.yul\":5081:5199   */\n      pop\n        /* \"#utility.yul\":5238:5240   */\n      0x60\n        /* \"#utility.yul\":5264:5317   */\n      tag_490\n        /* \"#utility.yul\":5309:5316   */\n      dup8\n        /* \"#utility.yul\":5300:5306   */\n      dup3\n        /* \"#utility.yul\":5289:5298   */\n      dup9\n        /* \"#utility.yul\":5285:5307   */\n      add\n        /* \"#utility.yul\":5264:5317   */\n      tag_405\n      jump\t// in\n    tag_490:\n        /* \"#utility.yul\":5254:5317   */\n      swap2\n      pop\n        /* \"#utility.yul\":5209:5327   */\n      pop\n        /* \"#utility.yul\":4569:5334   */\n      swap3\n      swap6\n      swap2\n      swap5\n      pop\n      swap3\n      pop\n      jump\t// out\n        /* \"#utility.yul\":5340:5458   */\n    tag_406:\n        /* \"#utility.yul\":5427:5451   */\n      tag_492\n        /* \"#utility.yul\":5445:5450   */\n      dup2\n        /* \"#utility.yul\":5427:5451   */\n      tag_388\n      jump\t// in\n    tag_492:\n        /* \"#utility.yul\":5422:5425   */\n      dup3\n        /* \"#utility.yul\":5415:5452   */\n      mstore\n        /* \"#utility.yul\":5340:5458   */\n      pop\n      pop\n      jump\t// out\n        /* \"#utility.yul\":5464:5686   */\n    tag_69:\n        /* \"#utility.yul\":5557:5561   */\n      0x00\n        /* \"#utility.yul\":5595:5597   */\n      0x20\n        /* \"#utility.yul\":5584:5593   */\n      dup3\n        /* \"#utility.yul\":5580:5598   */\n      add\n        /* \"#utility.yul\":5572:5598   */\n      swap1\n      pop\n        /* \"#utility.yul\":5608:5679   */\n      tag_494\n        /* \"#utility.yul\":5676:5677   */\n      0x00\n        /* \"#utility.yul\":5665:5674   */\n      dup4\n        /* \"#utility.yul\":5661:5678   */\n      add\n        /* \"#utility.yul\":5652:5658   */\n      dup5\n        /* \"#utility.yul\":5608:5679   */\n      tag_406\n      jump\t// in\n    tag_494:\n        /* \"#utility.yul\":5464:5686   */\n      swap3\n      swap2\n      pop\n      pop\n      jump\t// out\n        /* \"#utility.yul\":5692:6166   */\n    tag_76:\n        /* \"#utility.yul\":5760:5766   */\n      0x00\n        /* \"#utility.yul\":5768:5774   */\n      dup1\n        /* \"#utility.yul\":5817:5819   */\n      0x40\n        /* \"#utility.yul\":5805:5814   */\n      dup4\n        /* \"#utility.yul\":5796:5803   */\n      dup6\n        /* \"#utility.yul\":5792:5815   */\n      sub\n        /* \"#utility.yul\":5788:5820   */\n      slt\n        /* \"#utility.yul\":5785:5904   */\n      iszero\n      tag_496\n      jumpi\n        /* \"#utility.yul\":5823:5902   */\n      tag_497\n      tag_386\n      jump\t// in\n    tag_497:\n        /* \"#utility.yul\":5785:5904   */\n    tag_496:\n        /* \"#utility.yul\":5943:5944   */\n      0x00\n        /* \"#utility.yul\":5968:6021   */\n      tag_498\n        /* \"#utility.yul\":6013:6020   */\n      dup6\n        /* \"#utility.yul\":6004:6010   */\n      dup3\n        /* \"#utility.yul\":5993:6002   */\n      dup7\n        /* \"#utility.yul\":5989:6011   */\n      add\n        /* \"#utility.yul\":5968:6021   */\n      tag_390\n      jump\t// in\n    tag_498:\n        /* \"#utility.yul\":5958:6021   */\n      swap3\n      pop\n        /* \"#utility.yul\":5914:6031   */\n      pop\n        /* \"#utility.yul\":6070:6072   */\n      0x20\n        /* \"#utility.yul\":6096:6149   */\n      tag_499\n        /* \"#utility.yul\":6141:6148   */\n      dup6\n        /* \"#utility.yul\":6132:6138   */\n      dup3\n        /* \"#utility.yul\":6121:6130   */\n      dup7\n        /* \"#utility.yul\":6117:6139   */\n      add\n        /* \"#utility.yul\":6096:6149   */\n      tag_403\n      jump\t// in\n    tag_499:\n        /* \"#utility.yul\":6086:6149   */\n      swap2\n      pop\n        /* \"#utility.yul\":6041:6159   */\n      pop\n        /* \"#utility.yul\":5692:6166   */\n      swap3\n      pop\n      swap3\n      swap1\n      pop\n      jump\t// out\n        /* \"#utility.yul\":6172:6289   */\n    tag_407:\n        /* \"#utility.yul\":6281:6282   */\n      0x00\n        /* \"#utility.yul\":6278:6279   */\n      dup1\n        /* \"#utility.yul\":6271:6283   */\n      revert\n        /* \"#utility.yul\":6295:6412   */\n    tag_408:\n        /* \"#utility.yul\":6404:6405   */\n      0x00\n        /* \"#utility.yul\":6401:6402   */\n      dup1\n        /* \"#utility.yul\":6394:6406   */\n      revert\n        /* \"#utility.yul\":6418:6535   */\n    tag_409:\n        /* \"#utility.yul\":6527:6528   */\n      0x00\n        /* \"#utility.yul\":6524:6525   */\n      dup1\n        /* \"#utility.yul\":6517:6529   */\n      revert\n        /* \"#utility.yul\":6554:7106   */\n    tag_410:\n        /* \"#utility.yul\":6611:6619   */\n      0x00\n        /* \"#utility.yul\":6621:6627   */\n      dup1\n        /* \"#utility.yul\":6671:6674   */\n      dup4\n        /* \"#utility.yul\":6664:6668   */\n      0x1f\n        /* \"#utility.yul\":6656:6662   */\n      dup5\n        /* \"#utility.yul\":6652:6669   */\n      add\n        /* \"#utility.yul\":6648:6675   */\n      slt\n        /* \"#utility.yul\":6638:6760   */\n      tag_504\n      jumpi\n        /* \"#utility.yul\":6679:6758   */\n      tag_505\n      tag_407\n      jump\t// in\n    tag_505:\n        /* \"#utility.yul\":6638:6760   */\n    tag_504:\n        /* \"#utility.yul\":6792:6798   */\n      dup3\n        /* \"#utility.yul\":6779:6799   */\n      calldataload\n        /* \"#utility.yul\":6769:6799   */\n      swap1\n      pop\n        /* \"#utility.yul\":6822:6840   */\n      0xffffffffffffffff\n        /* \"#utility.yul\":6814:6820   */\n      dup2\n        /* \"#utility.yul\":6811:6841   */\n      gt\n        /* \"#utility.yul\":6808:6925   */\n      iszero\n      tag_506\n      jumpi\n        /* \"#utility.yul\":6844:6923   */\n      tag_507\n      tag_408\n      jump\t// in\n    tag_507:\n        /* \"#utility.yul\":6808:6925   */\n    tag_506:\n        /* \"#utility.yul\":6958:6962   */\n      0x20\n        /* \"#utility.yul\":6950:6956   */\n      dup4\n        /* \"#utility.yul\":6946:6963   */\n      add\n        /* \"#utility.yul\":6934:6963   */\n      swap2\n      pop\n        /* \"#utility.yul\":7012:7015   */\n      dup4\n        /* \"#utility.yul\":7004:7008   */\n      0x01\n        /* \"#utility.yul\":6996:7002   */\n      dup3\n        /* \"#utility.yul\":6992:7009   */\n      mul\n        /* \"#utility.yul\":6982:6990   */\n      dup4\n        /* \"#utility.yul\":6978:7010   */\n      add\n        /* \"#utility.yul\":6975:7016   */\n      gt\n        /* \"#utility.yul\":6972:7100   */\n      iszero\n      tag_508\n      jumpi\n        /* \"#utility.yul\":7019:7098   */\n      tag_509\n      tag_409\n      jump\t// in\n    tag_509:\n        /* \"#utility.yul\":6972:7100   */\n    tag_508:\n        /* \"#utility.yul\":6554:7106   */\n      swap3\n      pop\n      swap3\n      swap1\n      pop\n      jump\t// out\n        /* \"#utility.yul\":7112:8075   */\n    tag_85:\n        /* \"#utility.yul\":7209:7215   */\n      0x00\n        /* \"#utility.yul\":7217:7223   */\n      dup1\n        /* \"#utility.yul\":7225:7231   */\n      0x00\n        /* \"#utility.yul\":7233:7239   */\n      dup1\n        /* \"#utility.yul\":7241:7247   */\n      0x00\n        /* \"#utility.yul\":7290:7293   */\n      0x80\n        /* \"#utility.yul\":7278:7287   */\n      dup7\n        /* \"#utility.yul\":7269:7276   */\n      dup9\n        /* \"#utility.yul\":7265:7288   */\n      sub\n        /* \"#utility.yul\":7261:7294   */\n      slt\n        /* \"#utility.yul\":7258:7378   */\n      iszero\n      tag_511\n      jumpi\n        /* \"#utility.yul\":7297:7376   */\n      tag_512\n      tag_386\n      jump\t// in\n    tag_512:\n        /* \"#utility.yul\":7258:7378   */\n    tag_511:\n        /* \"#utility.yul\":7417:7418   */\n      0x00\n        /* \"#utility.yul\":7442:7495   */\n      tag_513\n        /* \"#utility.yul\":7487:7494   */\n      dup9\n        /* \"#utility.yul\":7478:7484   */\n      dup3\n        /* \"#utility.yul\":7467:7476   */\n      dup10\n        /* \"#utility.yul\":7463:7485   */\n      add\n        /* \"#utility.yul\":7442:7495   */\n      tag_390\n      jump\t// in\n    tag_513:\n        /* \"#utility.yul\":7432:7495   */\n      swap6\n      pop\n        /* \"#utility.yul\":7388:7505   */\n      pop\n        /* \"#utility.yul\":7544:7546   */\n      0x20\n        /* \"#utility.yul\":7570:7623   */\n      tag_514\n        /* \"#utility.yul\":7615:7622   */\n      dup9\n        /* \"#utility.yul\":7606:7612   */\n      dup3\n        /* \"#utility.yul\":7595:7604   */\n      dup10\n        /* \"#utility.yul\":7591:7613   */\n      add\n        /* \"#utility.yul\":7570:7623   */\n      tag_403\n      jump\t// in\n    tag_514:\n        /* \"#utility.yul\":7560:7623   */\n      swap5\n      pop\n        /* \"#utility.yul\":7515:7633   */\n      pop\n        /* \"#utility.yul\":7672:7674   */\n      0x40\n        /* \"#utility.yul\":7698:7751   */\n      tag_515\n        /* \"#utility.yul\":7743:7750   */\n      dup9\n        /* \"#utility.yul\":7734:7740   */\n      dup3\n        /* \"#utility.yul\":7723:7732   */\n      dup10\n        /* \"#utility.yul\":7719:7741   */\n      add\n        /* \"#utility.yul\":7698:7751   */\n      tag_403\n      jump\t// in\n    tag_515:\n        /* \"#utility.yul\":7688:7751   */\n      swap4\n      pop\n        /* \"#utility.yul\":7643:7761   */\n      pop\n        /* \"#utility.yul\":7828:7830   */\n      0x60\n        /* \"#utility.yul\":7817:7826   */\n      dup7\n        /* \"#utility.yul\":7813:7831   */\n      add\n        /* \"#utility.yul\":7800:7832   */\n      calldataload\n        /* \"#utility.yul\":7859:7877   */\n      0xffffffffffffffff\n        /* \"#utility.yul\":7851:7857   */\n      dup2\n        /* \"#utility.yul\":7848:7878   */\n      gt\n        /* \"#utility.yul\":7845:7962   */\n      iszero\n      tag_516\n      jumpi\n        /* \"#utility.yul\":7881:7960   */\n      tag_517\n      tag_387\n      jump\t// in\n    tag_517:\n        /* \"#utility.yul\":7845:7962   */\n    tag_516:\n        /* \"#utility.yul\":7994:8058   */\n      tag_518\n        /* \"#utility.yul\":8050:8057   */\n      dup9\n        /* \"#utility.yul\":8041:8047   */\n      dup3\n        /* \"#utility.yul\":8030:8039   */\n      dup10\n        /* \"#utility.yul\":8026:8048   */\n      add\n        /* \"#utility.yul\":7994:8058   */\n      tag_410\n      jump\t// in\n    tag_518:\n        /* \"#utility.yul\":7976:8058   */\n      swap3\n      pop\n      swap3\n      pop\n        /* \"#utility.yul\":7771:8068   */\n      pop\n        /* \"#utility.yul\":7112:8075   */\n      swap3\n      swap6\n      pop\n      swap3\n      swap6\n      swap1\n      swap4\n      pop\n      jump\t// out\n        /* \"#utility.yul\":8081:8555   */\n    tag_92:\n        /* \"#utility.yul\":8149:8155   */\n      0x00\n        /* \"#utility.yul\":8157:8163   */\n      dup1\n        /* \"#utility.yul\":8206:8208   */\n      0x40\n        /* \"#utility.yul\":8194:8203   */\n      dup4\n        /* \"#utility.yul\":8185:8192   */\n      dup6\n        /* \"#utility.yul\":8181:8204   */\n      sub\n        /* \"#utility.yul\":8177:8209   */\n      slt\n        /* \"#utility.yul\":8174:8293   */\n      iszero\n      tag_520\n      jumpi\n        /* \"#utility.yul\":8212:8291   */\n      tag_521\n      tag_386\n      jump\t// in\n    tag_521:\n        /* \"#utility.yul\":8174:8293   */\n    tag_520:\n        /* \"#utility.yul\":8332:8333   */\n      0x00\n        /* \"#utility.yul\":8357:8410   */\n      tag_522\n        /* \"#utility.yul\":8402:8409   */\n      dup6\n        /* \"#utility.yul\":8393:8399   */\n      dup3\n        /* \"#utility.yul\":8382:8391   */\n      dup7\n        /* \"#utility.yul\":8378:8400   */\n      add\n        /* \"#utility.yul\":8357:8410   */\n      tag_403\n      jump\t// in\n    tag_522:\n        /* \"#utility.yul\":8347:8410   */\n      swap3\n      pop\n        /* \"#utility.yul\":8303:8420   */\n      pop\n        /* \"#utility.yul\":8459:8461   */\n      0x20\n        /* \"#utility.yul\":8485:8538   */\n      tag_523\n        /* \"#utility.yul\":8530:8537   */\n      dup6\n        /* \"#utility.yul\":8521:8527   */\n      dup3\n        /* \"#utility.yul\":8510:8519   */\n      dup7\n        /* \"#utility.yul\":8506:8528   */\n      add\n        /* \"#utility.yul\":8485:8538   */\n      tag_403\n      jump\t// in\n    tag_523:\n        /* \"#utility.yul\":8475:8538   */\n      swap2\n      pop\n        /* \"#utility.yul\":8430:8548   */\n      pop\n        /* \"#utility.yul\":8081:8555   */\n      swap3\n      pop\n      swap3\n      swap1\n      pop\n      jump\t// out\n        /* \"#utility.yul\":8561:8890   */\n    tag_105:\n        /* \"#utility.yul\":8620:8626   */\n      0x00\n        /* \"#utility.yul\":8669:8671   */\n      0x20\n        /* \"#utility.yul\":8657:8666   */\n      dup3\n        /* \"#utility.yul\":8648:8655   */\n      dup5\n        /* \"#utility.yul\":8644:8667   */\n      sub\n        /* \"#utility.yul\":8640:8672   */\n      slt\n        /* \"#utility.yul\":8637:8756   */\n      iszero\n      tag_525\n      jumpi\n        /* \"#utility.yul\":8675:8754   */\n      tag_526\n      tag_386\n      jump\t// in\n    tag_526:\n        /* \"#utility.yul\":8637:8756   */\n    tag_525:\n        /* \"#utility.yul\":8795:8796   */\n      0x00\n        /* \"#utility.yul\":8820:8873   */\n      tag_527\n        /* \"#utility.yul\":8865:8872   */\n      dup5\n        /* \"#utility.yul\":8856:8862   */\n      dup3\n        /* \"#utility.yul\":8845:8854   */\n      dup6\n        /* \"#utility.yul\":8841:8863   */\n      add\n        /* \"#utility.yul\":8820:8873   */\n      tag_403\n      jump\t// in\n    tag_527:\n        /* \"#utility.yul\":8810:8873   */\n      swap2\n      pop\n        /* \"#utility.yul\":8766:8883   */\n      pop\n        /* \"#utility.yul\":8561:8890   */\n      swap3\n      swap2\n      pop\n      pop\n      jump\t// out\n        /* \"#utility.yul\":8896:9014   */\n    tag_411:\n        /* \"#utility.yul\":8983:9007   */\n      tag_529\n        /* \"#utility.yul\":9001:9006   */\n      dup2\n        /* \"#utility.yul\":8983:9007   */\n      tag_392\n      jump\t// in\n    tag_529:\n        /* \"#utility.yul\":8978:8981   */\n      dup3\n        /* \"#utility.yul\":8971:9008   */\n      mstore\n        /* \"#utility.yul\":8896:9014   */\n      pop\n      pop\n      jump\t// out\n        /* \"#utility.yul\":9020:9242   */\n    tag_117:\n        /* \"#utility.yul\":9113:9117   */\n      0x00\n        /* \"#utility.yul\":9151:9153   */\n      0x20\n        /* \"#utility.yul\":9140:9149   */\n      dup3\n        /* \"#utility.yul\":9136:9154   */\n      add\n        /* \"#utility.yul\":9128:9154   */\n      swap1\n      pop\n        /* \"#utility.yul\":9164:9235   */\n      tag_531\n        /* \"#utility.yul\":9232:9233   */\n      0x00\n        /* \"#utility.yul\":9221:9230   */\n      dup4\n        /* \"#utility.yul\":9217:9234   */\n      add\n        /* \"#utility.yul\":9208:9214   */\n      dup5\n        /* \"#utility.yul\":9164:9235   */\n      tag_411\n      jump\t// in\n    tag_531:\n        /* \"#utility.yul\":9020:9242   */\n      swap3\n      swap2\n      pop\n      pop\n      jump\t// out\n        /* \"#utility.yul\":9248:9366   */\n    tag_412:\n        /* \"#utility.yul\":9335:9359   */\n      tag_533\n        /* \"#utility.yul\":9353:9358   */\n      dup2\n        /* \"#utility.yul\":9335:9359   */\n      tag_394\n      jump\t// in\n    tag_533:\n        /* \"#utility.yul\":9330:9333   */\n      dup3\n        /* \"#utility.yul\":9323:9360   */\n      mstore\n        /* \"#utility.yul\":9248:9366   */\n      pop\n      pop\n      jump\t// out\n        /* \"#utility.yul\":9372:9594   */\n    tag_125:\n        /* \"#utility.yul\":9465:9469   */\n      0x00\n        /* \"#utility.yul\":9503:9505   */\n      0x20\n        /* \"#utility.yul\":9492:9501   */\n      dup3\n        /* \"#utility.yul\":9488:9506   */\n      add\n        /* \"#utility.yul\":9480:9506   */\n      swap1\n      pop\n        /* \"#utility.yul\":9516:9587   */\n      tag_535\n        /* \"#utility.yul\":9584:9585   */\n      0x00\n        /* \"#utility.yul\":9573:9582   */\n      dup4\n        /* \"#utility.yul\":9569:9586   */\n      add\n        /* \"#utility.yul\":9560:9566   */\n      dup5\n        /* \"#utility.yul\":9516:9587   */\n      tag_412\n      jump\t// in\n    tag_535:\n        /* \"#utility.yul\":9372:9594   */\n      swap3\n      swap2\n      pop\n      pop\n      jump\t// out\n        /* \"#utility.yul\":9600:10219   */\n    tag_128:\n        /* \"#utility.yul\":9677:9683   */\n      0x00\n        /* \"#utility.yul\":9685:9691   */\n      dup1\n        /* \"#utility.yul\":9693:9699   */\n      0x00\n        /* \"#utility.yul\":9742:9744   */\n      0x60\n        /* \"#utility.yul\":9730:9739   */\n      dup5\n        /* \"#utility.yul\":9721:9728   */\n      dup7\n        /* \"#utility.yul\":9717:9740   */\n      sub\n        /* \"#utility.yul\":9713:9745   */\n      slt\n        /* \"#utility.yul\":9710:9829   */\n      iszero\n      tag_537\n      jumpi\n        /* \"#utility.yul\":9748:9827   */\n      tag_538\n      tag_386\n      jump\t// in\n    tag_538:\n        /* \"#utility.yul\":9710:9829   */\n    tag_537:\n        /* \"#utility.yul\":9868:9869   */\n      0x00\n        /* \"#utility.yul\":9893:9946   */\n      tag_539\n        /* \"#utility.yul\":9938:9945   */\n      dup7\n        /* \"#utility.yul\":9929:9935   */\n      dup3\n        /* \"#utility.yul\":9918:9927   */\n      dup8\n        /* \"#utility.yul\":9914:9936   */\n      add\n        /* \"#utility.yul\":9893:9946   */\n      tag_403\n      jump\t// in\n    tag_539:\n        /* \"#utility.yul\":9883:9946   */\n      swap4\n      pop\n        /* \"#utility.yul\":9839:9956   */\n      pop\n        /* \"#utility.yul\":9995:9997   */\n      0x20\n        /* \"#utility.yul\":10021:10074   */\n      tag_540\n        /* \"#utility.yul\":10066:10073   */\n      dup7\n        /* \"#utility.yul\":10057:10063   */\n      dup3\n        /* \"#utility.yul\":10046:10055   */\n      dup8\n        /* \"#utility.yul\":10042:10064   */\n      add\n        /* \"#utility.yul\":10021:10074   */\n      tag_403\n      jump\t// in\n    tag_540:\n        /* \"#utility.yul\":10011:10074   */\n      swap3\n      pop\n        /* \"#utility.yul\":9966:10084   */\n      pop\n        /* \"#utility.yul\":10123:10125   */\n      0x40\n        /* \"#utility.yul\":10149:10202   */\n      tag_541\n        /* \"#utility.yul\":10194:10201   */\n      dup7\n        /* \"#utility.yul\":10185:10191   */\n      dup3\n        /* \"#utility.yul\":10174:10183   */\n      dup8\n        /* \"#utility.yul\":10170:10192   */\n      add\n        /* \"#utility.yul\":10149:10202   */\n      tag_403\n      jump\t// in\n    tag_541:\n        /* \"#utility.yul\":10139:10202   */\n      swap2\n      pop\n        /* \"#utility.yul\":10094:10212   */\n      pop\n        /* \"#utility.yul\":9600:10219   */\n      swap3\n      pop\n      swap3\n      pop\n      swap3\n      jump\t// out\n        /* \"#utility.yul\":10225:10554   */\n    tag_138:\n        /* \"#utility.yul\":10284:10290   */\n      0x00\n        /* \"#utility.yul\":10333:10335   */\n      0x20\n        /* \"#utility.yul\":10321:10330   */\n      dup3\n        /* \"#utility.yul\":10312:10319   */\n      dup5\n        /* \"#utility.yul\":10308:10331   */\n      sub\n        /* \"#utility.yul\":10304:10336   */\n      slt\n        /* \"#utility.yul\":10301:10420   */\n      iszero\n      tag_543\n      jumpi\n        /* \"#utility.yul\":10339:10418   */\n      tag_544\n      tag_386\n      jump\t// in\n    tag_544:\n        /* \"#utility.yul\":10301:10420   */\n    tag_543:\n        /* \"#utility.yul\":10459:10460   */\n      0x00\n        /* \"#utility.yul\":10484:10537   */\n      tag_545\n        /* \"#utility.yul\":10529:10536   */\n      dup5\n        /* \"#utility.yul\":10520:10526   */\n      dup3\n        /* \"#utility.yul\":10509:10518   */\n      dup6\n        /* \"#utility.yul\":10505:10527   */\n      add\n        /* \"#utility.yul\":10484:10537   */\n      tag_405\n      jump\t// in\n    tag_545:\n        /* \"#utility.yul\":10474:10537   */\n      swap2\n      pop\n        /* \"#utility.yul\":10430:10547   */\n      pop\n        /* \"#utility.yul\":10225:10554   */\n      swap3\n      swap2\n      pop\n      pop\n      jump\t// out\n        /* \"#utility.yul\":10560:11179   */\n    tag_142:\n        /* \"#utility.yul\":10637:10643   */\n      0x00\n        /* \"#utility.yul\":10645:10651   */\n      dup1\n        /* \"#utility.yul\":10653:10659   */\n      0x00\n        /* \"#utility.yul\":10702:10704   */\n      0x60\n        /* \"#utility.yul\":10690:10699   */\n      dup5\n        /* \"#utility.yul\":10681:10688   */\n      dup7\n        /* \"#utility.yul\":10677:10700   */\n      sub\n        /* \"#utility.yul\":10673:10705   */\n      slt\n        /* \"#utility.yul\":10670:10789   */\n      iszero\n      tag_547\n      jumpi\n        /* \"#utility.yul\":10708:10787   */\n      tag_548\n      tag_386\n      jump\t// in\n    tag_548:\n        /* \"#utility.yul\":10670:10789   */\n    tag_547:\n        /* \"#utility.yul\":10828:10829   */\n      0x00\n        /* \"#utility.yul\":10853:10906   */\n      tag_549\n        /* \"#utility.yul\":10898:10905   */\n      dup7\n        /* \"#utility.yul\":10889:10895   */\n      dup3\n        /* \"#utility.yul\":10878:10887   */\n      dup8\n        /* \"#utility.yul\":10874:10896   */\n      add\n        /* \"#utility.yul\":10853:10906   */\n      tag_403\n      jump\t// in\n    tag_549:\n        /* \"#utility.yul\":10843:10906   */\n      swap4\n      pop\n        /* \"#utility.yul\":10799:10916   */\n      pop\n        /* \"#utility.yul\":10955:10957   */\n      0x20\n        /* \"#utility.yul\":10981:11034   */\n      tag_550\n        /* \"#utility.yul\":11026:11033   */\n      dup7\n        /* \"#utility.yul\":11017:11023   */\n      dup3\n        /* \"#utility.yul\":11006:11015   */\n      dup8\n        /* \"#utility.yul\":11002:11024   */\n      add\n        /* \"#utility.yul\":10981:11034   */\n      tag_403\n      jump\t// in\n    tag_550:\n        /* \"#utility.yul\":10971:11034   */\n      swap3\n      pop\n        /* \"#utility.yul\":10926:11044   */\n      pop\n        /* \"#utility.yul\":11083:11085   */\n      0x40\n        /* \"#utility.yul\":11109:11162   */\n      tag_551\n        /* \"#utility.yul\":11154:11161   */\n      dup7\n        /* \"#utility.yul\":11145:11151   */\n      dup3\n        /* \"#utility.yul\":11134:11143   */\n      dup8\n        /* \"#utility.yul\":11130:11152   */\n      add\n        /* \"#utility.yul\":11109:11162   */\n      tag_405\n      jump\t// in\n    tag_551:\n        /* \"#utility.yul\":11099:11162   */\n      swap2\n      pop\n        /* \"#utility.yul\":11054:11172   */\n      pop\n        /* \"#utility.yul\":10560:11179   */\n      swap3\n      pop\n      swap3\n      pop\n      swap3\n      jump\t// out\n        /* \"#utility.yul\":11185:11328   */\n    tag_413:\n        /* \"#utility.yul\":11242:11247   */\n      0x00\n        /* \"#utility.yul\":11273:11279   */\n      dup2\n        /* \"#utility.yul\":11267:11280   */\n      mload\n        /* \"#utility.yul\":11258:11280   */\n      swap1\n      pop\n        /* \"#utility.yul\":11289:11322   */\n      tag_553\n        /* \"#utility.yul\":11316:11321   */\n      dup2\n        /* \"#utility.yul\":11289:11322   */\n      tag_404\n      jump\t// in\n    tag_553:\n        /* \"#utility.yul\":11185:11328   */\n      swap3\n      swap2\n      pop\n      pop\n      jump\t// out\n        /* \"#utility.yul\":11334:11685   */\n    tag_175:\n        /* \"#utility.yul\":11404:11410   */\n      0x00\n        /* \"#utility.yul\":11453:11455   */\n      0x20\n        /* \"#utility.yul\":11441:11450   */\n      dup3\n        /* \"#utility.yul\":11432:11439   */\n      dup5\n        /* \"#utility.yul\":11428:11451   */\n      sub\n        /* \"#utility.yul\":11424:11456   */\n      slt\n        /* \"#utility.yul\":11421:11540   */\n      iszero\n      tag_555\n      jumpi\n        /* \"#utility.yul\":11459:11538   */\n      tag_556\n      tag_386\n      jump\t// in\n    tag_556:\n        /* \"#utility.yul\":11421:11540   */\n    tag_555:\n        /* \"#utility.yul\":11579:11580   */\n      0x00\n        /* \"#utility.yul\":11604:11668   */\n      tag_557\n        /* \"#utility.yul\":11660:11667   */\n      dup5\n        /* \"#utility.yul\":11651:11657   */\n      dup3\n        /* \"#utility.yul\":11640:11649   */\n      dup6\n        /* \"#utility.yul\":11636:11658   */\n      add\n        /* \"#utility.yul\":11604:11668   */\n      tag_413\n      jump\t// in\n    tag_557:\n        /* \"#utility.yul\":11594:11668   */\n      swap2\n      pop\n        /* \"#utility.yul\":11550:11678   */\n      pop\n        /* \"#utility.yul\":11334:11685   */\n      swap3\n      swap2\n      pop\n      pop\n      jump\t// out\n        /* \"#utility.yul\":11691:12133   */\n    tag_178:\n        /* \"#utility.yul\":11840:11844   */\n      0x00\n        /* \"#utility.yul\":11878:11880   */\n      0x60\n        /* \"#utility.yul\":11867:11876   */\n      dup3\n        /* \"#utility.yul\":11863:11881   */\n      add\n        /* \"#utility.yul\":11855:11881   */\n      swap1\n      pop\n        /* \"#utility.yul\":11891:11962   */\n      tag_559\n        /* \"#utility.yul\":11959:11960   */\n      0x00\n        /* \"#utility.yul\":11948:11957   */\n      dup4\n        /* \"#utility.yul\":11944:11961   */\n      add\n        /* \"#utility.yul\":11935:11941   */\n      dup7\n        /* \"#utility.yul\":11891:11962   */\n      tag_411\n      jump\t// in\n    tag_559:\n        /* \"#utility.yul\":11972:12044   */\n      tag_560\n        /* \"#utility.yul\":12040:12042   */\n      0x20\n        /* \"#utility.yul\":12029:12038   */\n      dup4\n        /* \"#utility.yul\":12025:12043   */\n      add\n        /* \"#utility.yul\":12016:12022   */\n      dup6\n        /* \"#utility.yul\":11972:12044   */\n      tag_412\n      jump\t// in\n    tag_560:\n        /* \"#utility.yul\":12054:12126   */\n      tag_561\n        /* \"#utility.yul\":12122:12124   */\n      0x40\n        /* \"#utility.yul\":12111:12120   */\n      dup4\n        /* \"#utility.yul\":12107:12125   */\n      add\n        /* \"#utility.yul\":12098:12104   */\n      dup5\n        /* \"#utility.yul\":12054:12126   */\n      tag_412\n      jump\t// in\n    tag_561:\n        /* \"#utility.yul\":11691:12133   */\n      swap5\n      swap4\n      pop\n      pop\n      pop\n      pop\n      jump\t// out\n        /* \"#utility.yul\":12139:12233   */\n    tag_414:\n        /* \"#utility.yul\":12172:12180   */\n      0x00\n        /* \"#utility.yul\":12220:12225   */\n      dup2\n        /* \"#utility.yul\":12216:12218   */\n      0x60\n        /* \"#utility.yul\":12212:12226   */\n      shl\n        /* \"#utility.yul\":12191:12226   */\n      swap1\n      pop\n        /* \"#utility.yul\":12139:12233   */\n      swap2\n      swap1\n      pop\n      jump\t// out\n        /* \"#utility.yul\":12239:12333   */\n    tag_415:\n        /* \"#utility.yul\":12278:12285   */\n      0x00\n        /* \"#utility.yul\":12307:12327   */\n      tag_564\n        /* \"#utility.yul\":12321:12326   */\n      dup3\n        /* \"#utility.yul\":12307:12327   */\n      tag_414\n      jump\t// in\n    tag_564:\n        /* \"#utility.yul\":12296:12327   */\n      swap1\n      pop\n        /* \"#utility.yul\":12239:12333   */\n      swap2\n      swap1\n      pop\n      jump\t// out\n        /* \"#utility.yul\":12339:12439   */\n    tag_416:\n        /* \"#utility.yul\":12378:12385   */\n      0x00\n        /* \"#utility.yul\":12407:12433   */\n      tag_566\n        /* \"#utility.yul\":12427:12432   */\n      dup3\n        /* \"#utility.yul\":12407:12433   */\n      tag_415\n      jump\t// in\n    tag_566:\n        /* \"#utility.yul\":12396:12433   */\n      swap1\n      pop\n        /* \"#utility.yul\":12339:12439   */\n      swap2\n      swap1\n      pop\n      jump\t// out\n        /* \"#utility.yul\":12445:12602   */\n    tag_417:\n        /* \"#utility.yul\":12550:12595   */\n      tag_568\n        /* \"#utility.yul\":12570:12594   */\n      tag_569\n        /* \"#utility.yul\":12588:12593   */\n      dup3\n        /* \"#utility.yul\":12570:12594   */\n      tag_392\n      jump\t// in\n    tag_569:\n        /* \"#utility.yul\":12550:12595   */\n      tag_416\n      jump\t// in\n    tag_568:\n        /* \"#utility.yul\":12545:12548   */\n      dup3\n        /* \"#utility.yul\":12538:12596   */\n      mstore\n        /* \"#utility.yul\":12445:12602   */\n      pop\n      pop\n      jump\t// out\n        /* \"#utility.yul\":12608:12687   */\n    tag_418:\n        /* \"#utility.yul\":12647:12654   */\n      0x00\n        /* \"#utility.yul\":12676:12681   */\n      dup2\n        /* \"#utility.yul\":12665:12681   */\n      swap1\n      pop\n        /* \"#utility.yul\":12608:12687   */\n      swap2\n      swap1\n      pop\n      jump\t// out\n        /* \"#utility.yul\":12693:12850   */\n    tag_419:\n        /* \"#utility.yul\":12798:12843   */\n      tag_572\n        /* \"#utility.yul\":12818:12842   */\n      tag_573\n        /* \"#utility.yul\":12836:12841   */\n      dup3\n        /* \"#utility.yul\":12818:12842   */\n      tag_394\n      jump\t// in\n    tag_573:\n        /* \"#utility.yul\":12798:12843   */\n      tag_418\n      jump\t// in\n    tag_572:\n        /* \"#utility.yul\":12793:12796   */\n      dup3\n        /* \"#utility.yul\":12786:12844   */\n      mstore\n        /* \"#utility.yul\":12693:12850   */\n      pop\n      pop\n      jump\t// out\n        /* \"#utility.yul\":12856:13535   */\n    tag_182:\n        /* \"#utility.yul\":13052:13055   */\n      0x00\n        /* \"#utility.yul\":13067:13142   */\n      tag_575\n        /* \"#utility.yul\":13138:13141   */\n      dup3\n        /* \"#utility.yul\":13129:13135   */\n      dup8\n        /* \"#utility.yul\":13067:13142   */\n      tag_417\n      jump\t// in\n    tag_575:\n        /* \"#utility.yul\":13167:13169   */\n      0x14\n        /* \"#utility.yul\":13162:13165   */\n      dup3\n        /* \"#utility.yul\":13158:13170   */\n      add\n        /* \"#utility.yul\":13151:13170   */\n      swap2\n      pop\n        /* \"#utility.yul\":13180:13255   */\n      tag_576\n        /* \"#utility.yul\":13251:13254   */\n      dup3\n        /* \"#utility.yul\":13242:13248   */\n      dup7\n        /* \"#utility.yul\":13180:13255   */\n      tag_417\n      jump\t// in\n    tag_576:\n        /* \"#utility.yul\":13280:13282   */\n      0x14\n        /* \"#utility.yul\":13275:13278   */\n      dup3\n        /* \"#utility.yul\":13271:13283   */\n      add\n        /* \"#utility.yul\":13264:13283   */\n      swap2\n      pop\n        /* \"#utility.yul\":13293:13368   */\n      tag_577\n        /* \"#utility.yul\":13364:13367   */\n      dup3\n        /* \"#utility.yul\":13355:13361   */\n      dup6\n        /* \"#utility.yul\":13293:13368   */\n      tag_419\n      jump\t// in\n    tag_577:\n        /* \"#utility.yul\":13393:13395   */\n      0x20\n        /* \"#utility.yul\":13388:13391   */\n      dup3\n        /* \"#utility.yul\":13384:13396   */\n      add\n        /* \"#utility.yul\":13377:13396   */\n      swap2\n      pop\n        /* \"#utility.yul\":13406:13481   */\n      tag_578\n        /* \"#utility.yul\":13477:13480   */\n      dup3\n        /* \"#utility.yul\":13468:13474   */\n      dup5\n        /* \"#utility.yul\":13406:13481   */\n      tag_419\n      jump\t// in\n    tag_578:\n        /* \"#utility.yul\":13506:13508   */\n      0x20\n        /* \"#utility.yul\":13501:13504   */\n      dup3\n        /* \"#utility.yul\":13497:13509   */\n      add\n        /* \"#utility.yul\":13490:13509   */\n      swap2\n      pop\n        /* \"#utility.yul\":13526:13529   */\n      dup2\n        /* \"#utility.yul\":13519:13529   */\n      swap1\n      pop\n        /* \"#utility.yul\":12856:13535   */\n      swap6\n      swap5\n      pop\n      pop\n      pop\n      pop\n      pop\n      jump\t// out\n        /* \"#utility.yul\":13541:13873   */\n    tag_201:\n        /* \"#utility.yul\":13662:13666   */\n      0x00\n        /* \"#utility.yul\":13700:13702   */\n      0x40\n        /* \"#utility.yul\":13689:13698   */\n      dup3\n        /* \"#utility.yul\":13685:13703   */\n      add\n        /* \"#utility.yul\":13677:13703   */\n      swap1\n      pop\n        /* \"#utility.yul\":13713:13784   */\n      tag_580\n        /* \"#utility.yul\":13781:13782   */\n      0x00\n        /* \"#utility.yul\":13770:13779   */\n      dup4\n        /* \"#utility.yul\":13766:13783   */\n      add\n        /* \"#utility.yul\":13757:13763   */\n      dup6\n        /* \"#utility.yul\":13713:13784   */\n      tag_411\n      jump\t// in\n    tag_580:\n        /* \"#utility.yul\":13794:13866   */\n      tag_581\n        /* \"#utility.yul\":13862:13864   */\n      0x20\n        /* \"#utility.yul\":13851:13860   */\n      dup4\n        /* \"#utility.yul\":13847:13865   */\n      add\n        /* \"#utility.yul\":13838:13844   */\n      dup5\n        /* \"#utility.yul\":13794:13866   */\n      tag_412\n      jump\t// in\n    tag_581:\n        /* \"#utility.yul\":13541:13873   */\n      swap4\n      swap3\n      pop\n      pop\n      pop\n      jump\t// out\n        /* \"#utility.yul\":13879:14026   */\n    tag_420:\n        /* \"#utility.yul\":13980:13991   */\n      0x00\n        /* \"#utility.yul\":14017:14020   */\n      dup2\n        /* \"#utility.yul\":14002:14020   */\n      swap1\n      pop\n        /* \"#utility.yul\":13879:14026   */\n      swap3\n      swap2\n      pop\n      pop\n      jump\t// out\n        /* \"#utility.yul\":14032:14178   */\n    tag_421:\n        /* \"#utility.yul\":14129:14135   */\n      dup3\n        /* \"#utility.yul\":14124:14127   */\n      dup2\n        /* \"#utility.yul\":14119:14122   */\n      dup4\n        /* \"#utility.yul\":14106:14136   */\n      calldatacopy\n        /* \"#utility.yul\":14170:14171   */\n      0x00\n        /* \"#utility.yul\":14161:14167   */\n      dup4\n        /* \"#utility.yul\":14156:14159   */\n      dup4\n        /* \"#utility.yul\":14152:14168   */\n      add\n        /* \"#utility.yul\":14145:14172   */\n      mstore\n        /* \"#utility.yul\":14032:14178   */\n      pop\n      pop\n      pop\n      jump\t// out\n        /* \"#utility.yul\":14206:14533   */\n    tag_422:\n        /* \"#utility.yul\":14320:14323   */\n      0x00\n        /* \"#utility.yul\":14341:14429   */\n      tag_585\n        /* \"#utility.yul\":14422:14428   */\n      dup4\n        /* \"#utility.yul\":14417:14420   */\n      dup6\n        /* \"#utility.yul\":14341:14429   */\n      tag_420\n      jump\t// in\n    tag_585:\n        /* \"#utility.yul\":14334:14429   */\n      swap4\n      pop\n        /* \"#utility.yul\":14439:14495   */\n      tag_586\n        /* \"#utility.yul\":14488:14494   */\n      dup4\n        /* \"#utility.yul\":14483:14486   */\n      dup6\n        /* \"#utility.yul\":14476:14481   */\n      dup5\n        /* \"#utility.yul\":14439:14495   */\n      tag_421\n      jump\t// in\n    tag_586:\n        /* \"#utility.yul\":14520:14526   */\n      dup3\n        /* \"#utility.yul\":14515:14518   */\n      dup5\n        /* \"#utility.yul\":14511:14527   */\n      add\n        /* \"#utility.yul\":14504:14527   */\n      swap1\n      pop\n        /* \"#utility.yul\":14206:14533   */\n      swap4\n      swap3\n      pop\n      pop\n      pop\n      jump\t// out\n        /* \"#utility.yul\":14539:14830   */\n    tag_233:\n        /* \"#utility.yul\":14679:14682   */\n      0x00\n        /* \"#utility.yul\":14701:14804   */\n      tag_588\n        /* \"#utility.yul\":14800:14803   */\n      dup3\n        /* \"#utility.yul\":14791:14797   */\n      dup5\n        /* \"#utility.yul\":14783:14789   */\n      dup7\n        /* \"#utility.yul\":14701:14804   */\n      tag_422\n      jump\t// in\n    tag_588:\n        /* \"#utility.yul\":14694:14804   */\n      swap2\n      pop\n        /* \"#utility.yul\":14821:14824   */\n      dup2\n        /* \"#utility.yul\":14814:14824   */\n      swap1\n      pop\n        /* \"#utility.yul\":14539:14830   */\n      swap4\n      swap3\n      pop\n      pop\n      pop\n      jump\t// out\n        /* \"#utility.yul\":14836:15004   */\n    tag_423:\n        /* \"#utility.yul\":14919:14930   */\n      0x00\n        /* \"#utility.yul\":14953:14959   */\n      dup3\n        /* \"#utility.yul\":14948:14951   */\n      dup3\n        /* \"#utility.yul\":14941:14960   */\n      mstore\n        /* \"#utility.yul\":14993:14997   */\n      0x20\n        /* \"#utility.yul\":14988:14991   */\n      dup3\n        /* \"#utility.yul\":14984:14998   */\n      add\n        /* \"#utility.yul\":14969:14998   */\n      swap1\n      pop\n        /* \"#utility.yul\":14836:15004   */\n      swap3\n      swap2\n      pop\n      pop\n      jump\t// out\n        /* \"#utility.yul\":15010:15112   */\n    tag_424:\n        /* \"#utility.yul\":15051:15057   */\n      0x00\n        /* \"#utility.yul\":15102:15104   */\n      0x1f\n        /* \"#utility.yul\":15098:15105   */\n      not\n        /* \"#utility.yul\":15093:15095   */\n      0x1f\n        /* \"#utility.yul\":15086:15091   */\n      dup4\n        /* \"#utility.yul\":15082:15096   */\n      add\n        /* \"#utility.yul\":15078:15106   */\n      and\n        /* \"#utility.yul\":15068:15106   */\n      swap1\n      pop\n        /* \"#utility.yul\":15010:15112   */\n      swap2\n      swap1\n      pop\n      jump\t// out\n        /* \"#utility.yul\":15140:15454   */\n    tag_425:\n        /* \"#utility.yul\":15236:15239   */\n      0x00\n        /* \"#utility.yul\":15257:15327   */\n      tag_592\n        /* \"#utility.yul\":15320:15326   */\n      dup4\n        /* \"#utility.yul\":15315:15318   */\n      dup6\n        /* \"#utility.yul\":15257:15327   */\n      tag_423\n      jump\t// in\n    tag_592:\n        /* \"#utility.yul\":15250:15327   */\n      swap4\n      pop\n        /* \"#utility.yul\":15337:15393   */\n      tag_593\n        /* \"#utility.yul\":15386:15392   */\n      dup4\n        /* \"#utility.yul\":15381:15384   */\n      dup6\n        /* \"#utility.yul\":15374:15379   */\n      dup5\n        /* \"#utility.yul\":15337:15393   */\n      tag_421\n      jump\t// in\n    tag_593:\n        /* \"#utility.yul\":15418:15447   */\n      tag_594\n        /* \"#utility.yul\":15440:15446   */\n      dup4\n        /* \"#utility.yul\":15418:15447   */\n      tag_424\n      jump\t// in\n    tag_594:\n        /* \"#utility.yul\":15413:15416   */\n      dup5\n        /* \"#utility.yul\":15409:15448   */\n      add\n        /* \"#utility.yul\":15402:15448   */\n      swap1\n      pop\n        /* \"#utility.yul\":15140:15454   */\n      swap4\n      swap3\n      pop\n      pop\n      pop\n      jump\t// out\n        /* \"#utility.yul\":15460:15899   */\n    tag_240:\n        /* \"#utility.yul\":15609:15613   */\n      0x00\n        /* \"#utility.yul\":15647:15649   */\n      0x40\n        /* \"#utility.yul\":15636:15645   */\n      dup3\n        /* \"#utility.yul\":15632:15650   */\n      add\n        /* \"#utility.yul\":15624:15650   */\n      swap1\n      pop\n        /* \"#utility.yul\":15696:15705   */\n      dup2\n        /* \"#utility.yul\":15690:15694   */\n      dup2\n        /* \"#utility.yul\":15686:15706   */\n      sub\n        /* \"#utility.yul\":15682:15683   */\n      0x00\n        /* \"#utility.yul\":15671:15680   */\n      dup4\n        /* \"#utility.yul\":15667:15684   */\n      add\n        /* \"#utility.yul\":15660:15707   */\n      mstore\n        /* \"#utility.yul\":15724:15810   */\n      tag_596\n        /* \"#utility.yul\":15805:15809   */\n      dup2\n        /* \"#utility.yul\":15796:15802   */\n      dup6\n        /* \"#utility.yul\":15788:15794   */\n      dup8\n        /* \"#utility.yul\":15724:15810   */\n      tag_425\n      jump\t// in\n    tag_596:\n        /* \"#utility.yul\":15716:15810   */\n      swap1\n      pop\n        /* \"#utility.yul\":15820:15892   */\n      tag_597\n        /* \"#utility.yul\":15888:15890   */\n      0x20\n        /* \"#utility.yul\":15877:15886   */\n      dup4\n        /* \"#utility.yul\":15873:15891   */\n      add\n        /* \"#utility.yul\":15864:15870   */\n      dup5\n        /* \"#utility.yul\":15820:15892   */\n      tag_412\n      jump\t// in\n    tag_597:\n        /* \"#utility.yul\":15460:15899   */\n      swap5\n      swap4\n      pop\n      pop\n      pop\n      pop\n      jump\t// out\n        /* \"#utility.yul\":15905:16237   */\n    tag_269:\n        /* \"#utility.yul\":16026:16030   */\n      0x00\n        /* \"#utility.yul\":16064:16066   */\n      0x40\n        /* \"#utility.yul\":16053:16062   */\n      dup3\n        /* \"#utility.yul\":16049:16067   */\n      add\n        /* \"#utility.yul\":16041:16067   */\n      swap1\n      pop\n        /* \"#utility.yul\":16077:16148   */\n      tag_599\n        /* \"#utility.yul\":16145:16146   */\n      0x00\n        /* \"#utility.yul\":16134:16143   */\n      dup4\n        /* \"#utility.yul\":16130:16147   */\n      add\n        /* \"#utility.yul\":16121:16127   */\n      dup6\n        /* \"#utility.yul\":16077:16148   */\n      tag_411\n      jump\t// in\n    tag_599:\n        /* \"#utility.yul\":16158:16230   */\n      tag_600\n        /* \"#utility.yul\":16226:16228   */\n      0x20\n        /* \"#utility.yul\":16215:16224   */\n      dup4\n        /* \"#utility.yul\":16211:16229   */\n      add\n        /* \"#utility.yul\":16202:16208   */\n      dup5\n        /* \"#utility.yul\":16158:16230   */\n      tag_411\n      jump\t// in\n    tag_600:\n        /* \"#utility.yul\":15905:16237   */\n      swap4\n      swap3\n      pop\n      pop\n      pop\n      jump\t// out\n        /* \"#utility.yul\":16243:16575   */\n    tag_295:\n        /* \"#utility.yul\":16364:16368   */\n      0x00\n        /* \"#utility.yul\":16402:16404   */\n      0x40\n        /* \"#utility.yul\":16391:16400   */\n      dup3\n        /* \"#utility.yul\":16387:16405   */\n      add\n        /* \"#utility.yul\":16379:16405   */\n      swap1\n      pop\n        /* \"#utility.yul\":16415:16486   */\n      tag_602\n        /* \"#utility.yul\":16483:16484   */\n      0x00\n        /* \"#utility.yul\":16472:16481   */\n      dup4\n        /* \"#utility.yul\":16468:16485   */\n      add\n        /* \"#utility.yul\":16459:16465   */\n      dup6\n        /* \"#utility.yul\":16415:16486   */\n      tag_412\n      jump\t// in\n    tag_602:\n        /* \"#utility.yul\":16496:16568   */\n      tag_603\n        /* \"#utility.yul\":16564:16566   */\n      0x20\n        /* \"#utility.yul\":16553:16562   */\n      dup4\n        /* \"#utility.yul\":16549:16567   */\n      add\n        /* \"#utility.yul\":16540:16546   */\n      dup5\n        /* \"#utility.yul\":16496:16568   */\n      tag_412\n      jump\t// in\n    tag_603:\n        /* \"#utility.yul\":16243:16575   */\n      swap4\n      swap3\n      pop\n      pop\n      pop\n      jump\t// out\n        /* \"#utility.yul\":16581:16761   */\n    tag_426:\n        /* \"#utility.yul\":16629:16706   */\n      0x4e487b7100000000000000000000000000000000000000000000000000000000\n        /* \"#utility.yul\":16626:16627   */\n      0x00\n        /* \"#utility.yul\":16619:16707   */\n      mstore\n        /* \"#utility.yul\":16726:16730   */\n      0x11\n        /* \"#utility.yul\":16723:16724   */\n      0x04\n        /* \"#utility.yul\":16716:16731   */\n      mstore\n        /* \"#utility.yul\":16750:16754   */\n      0x24\n        /* \"#utility.yul\":16747:16748   */\n      0x00\n        /* \"#utility.yul\":16740:16755   */\n      revert\n        /* \"#utility.yul\":16767:16961   */\n    tag_318:\n        /* \"#utility.yul\":16807:16811   */\n      0x00\n        /* \"#utility.yul\":16827:16847   */\n      tag_606\n        /* \"#utility.yul\":16845:16846   */\n      dup3\n        /* \"#utility.yul\":16827:16847   */\n      tag_394\n      jump\t// in\n    tag_606:\n        /* \"#utility.yul\":16822:16847   */\n      swap2\n      pop\n        /* \"#utility.yul\":16861:16881   */\n      tag_607\n        /* \"#utility.yul\":16879:16880   */\n      dup4\n        /* \"#utility.yul\":16861:16881   */\n      tag_394\n      jump\t// in\n    tag_607:\n        /* \"#utility.yul\":16856:16881   */\n      swap3\n      pop\n        /* \"#utility.yul\":16905:16906   */\n      dup3\n        /* \"#utility.yul\":16902:16903   */\n      dup3\n        /* \"#utility.yul\":16898:16907   */\n      sub\n        /* \"#utility.yul\":16890:16907   */\n      swap1\n      pop\n        /* \"#utility.yul\":16929:16930   */\n      dup2\n        /* \"#utility.yul\":16923:16927   */\n      dup2\n        /* \"#utility.yul\":16920:16931   */\n      gt\n        /* \"#utility.yul\":16917:16954   */\n      iszero\n      tag_608\n      jumpi\n        /* \"#utility.yul\":16934:16952   */\n      tag_609\n      tag_426\n      jump\t// in\n    tag_609:\n        /* \"#utility.yul\":16917:16954   */\n    tag_608:\n        /* \"#utility.yul\":16767:16961   */\n      swap3\n      swap2\n      pop\n      pop\n      jump\t// out\n        /* \"#utility.yul\":16967:17200   */\n    tag_320:\n        /* \"#utility.yul\":17006:17009   */\n      0x00\n        /* \"#utility.yul\":17029:17053   */\n      tag_611\n        /* \"#utility.yul\":17047:17052   */\n      dup3\n        /* \"#utility.yul\":17029:17053   */\n      tag_394\n      jump\t// in\n    tag_611:\n        /* \"#utility.yul\":17020:17053   */\n      swap2\n      pop\n        /* \"#utility.yul\":17075:17141   */\n      0xffffffffffffffffffffffffffffffffffffffffffffffffffffffffffffffff\n        /* \"#utility.yul\":17068:17073   */\n      dup3\n        /* \"#utility.yul\":17065:17142   */\n      sub\n        /* \"#utility.yul\":17062:17165   */\n      tag_612\n      jumpi\n        /* \"#utility.yul\":17145:17163   */\n      tag_613\n      tag_426\n      jump\t// in\n    tag_613:\n        /* \"#utility.yul\":17062:17165   */\n    tag_612:\n        /* \"#utility.yul\":17192:17193   */\n      0x01\n        /* \"#utility.yul\":17185:17190   */\n      dup3\n        /* \"#utility.yul\":17181:17194   */\n      add\n        /* \"#utility.yul\":17174:17194   */\n      swap1\n      pop\n        /* \"#utility.yul\":16967:17200   */\n      swap2\n      swap1\n      pop\n      jump\t// out\n        /* \"#utility.yul\":17206:18167   */\n    tag_322:\n        /* \"#utility.yul\":17458:17461   */\n      0x00\n        /* \"#utility.yul\":17473:17548   */\n      tag_615\n        /* \"#utility.yul\":17544:17547   */\n      dup3\n        /* \"#utility.yul\":17535:17541   */\n      dup10\n        /* \"#utility.yul\":17473:17548   */\n      tag_417\n      jump\t// in\n    tag_615:\n        /* \"#utility.yul\":17573:17575   */\n      0x14\n        /* \"#utility.yul\":17568:17571   */\n      dup3\n        /* \"#utility.yul\":17564:17576   */\n      add\n        /* \"#utility.yul\":17557:17576   */\n      swap2\n      pop\n        /* \"#utility.yul\":17586:17661   */\n      tag_616\n        /* \"#utility.yul\":17657:17660   */\n      dup3\n        /* \"#utility.yul\":17648:17654   */\n      dup9\n        /* \"#utility.yul\":17586:17661   */\n      tag_417\n      jump\t// in\n    tag_616:\n        /* \"#utility.yul\":17686:17688   */\n      0x14\n        /* \"#utility.yul\":17681:17684   */\n      dup3\n        /* \"#utility.yul\":17677:17689   */\n      add\n        /* \"#utility.yul\":17670:17689   */\n      swap2\n      pop\n        /* \"#utility.yul\":17699:17774   */\n      tag_617\n        /* \"#utility.yul\":17770:17773   */\n      dup3\n        /* \"#utility.yul\":17761:17767   */\n      dup8\n        /* \"#utility.yul\":17699:17774   */\n      tag_417\n      jump\t// in\n    tag_617:\n        /* \"#utility.yul\":17799:17801   */\n      0x14\n        /* \"#utility.yul\":17794:17797   */\n      dup3\n        /* \"#utility.yul\":17790:17802   */\n      add\n        /* \"#utility.yul\":17783:17802   */\n      swap2\n      pop\n        /* \"#utility.yul\":17812:17887   */\n      tag_618\n        /* \"#utility.yul\":17883:17886   */\n      dup3\n        /* \"#utility.yul\":17874:17880   */\n      dup7\n        /* \"#utility.yul\":17812:17887   */\n      tag_419\n      jump\t// in\n    tag_618:\n        /* \"#utility.yul\":17912:17914   */\n      0x20\n        /* \"#utility.yul\":17907:17910   */\n      dup3\n        /* \"#utility.yul\":17903:17915   */\n      add\n        /* \"#utility.yul\":17896:17915   */\n      swap2\n      pop\n        /* \"#utility.yul\":17925:18000   */\n      tag_619\n        /* \"#utility.yul\":17996:17999   */\n      dup3\n        /* \"#utility.yul\":17987:17993   */\n      dup6\n        /* \"#utility.yul\":17925:18000   */\n      tag_419\n      jump\t// in\n    tag_619:\n        /* \"#utility.yul\":18025:18027   */\n      0x20\n        /* \"#utility.yul\":18020:18023   */\n      dup3\n        /* \"#utility.yul\":18016:18028   */\n      add\n        /* \"#utility.yul\":18009:18028   */\n      swap2\n      pop\n        /* \"#utility.yul\":18038:18113   */\n      tag_620\n        /* \"#utility.yul\":18109:18112   */\n      dup3\n        /* \"#utility.yul\":18100:18106   */\n      dup5\n        /* \"#utility.yul\":18038:18113   */\n      tag_419\n      jump\t// in\n    tag_620:\n        /* \"#utility.yul\":18138:18140   */\n      0x20\n        /* \"#utility.yul\":18133:18136   */\n      dup3\n        /* \"#utility.yul\":18129:18141   */\n      add\n        /* \"#utility.yul\":18122:18141   */\n      swap2\n      pop\n        /* \"#utility.yul\":18158:18161   */\n      dup2\n        /* \"#utility.yul\":18151:18161   */\n      swap1\n      pop\n        /* \"#utility.yul\":17206:18167   */\n      swap8\n      swap7\n      pop\n      pop\n      pop\n      pop\n      pop\n      pop\n      pop\n      jump\t// out\n        /* \"#utility.yul\":18173:18726   */\n    tag_324:\n        /* \"#utility.yul\":18350:18354   */\n      0x00\n        /* \"#utility.yul\":18388:18391   */\n      0x80\n        /* \"#utility.yul\":18377:18386   */\n      dup3\n        /* \"#utility.yul\":18373:18392   */\n      add\n        /* \"#utility.yul\":18365:18392   */\n      swap1\n      pop\n        /* \"#utility.yul\":18402:18473   */\n      tag_622\n        /* \"#utility.yul\":18470:18471   */\n      0x00\n        /* \"#utility.yul\":18459:18468   */\n      dup4\n        /* \"#utility.yul\":18455:18472   */\n      add\n        /* \"#utility.yul\":18446:18452   */\n      dup8\n        /* \"#utility.yul\":18402:18473   */\n      tag_411\n      jump\t// in\n    tag_622:\n        /* \"#utility.yul\":18483:18555   */\n      tag_623\n        /* \"#utility.yul\":18551:18553   */\n      0x20\n        /* \"#utility.yul\":18540:18549   */\n      dup4\n        /* \"#utility.yul\":18536:18554   */\n      add\n        /* \"#utility.yul\":18527:18533   */\n      dup7\n        /* \"#utility.yul\":18483:18555   */\n      tag_411\n      jump\t// in\n    tag_623:\n        /* \"#utility.yul\":18565:18637   */\n      tag_624\n        /* \"#utility.yul\":18633:18635   */\n      0x40\n        /* \"#utility.yul\":18622:18631   */\n      dup4\n        /* \"#utility.yul\":18618:18636   */\n      add\n        /* \"#utility.yul\":18609:18615   */\n      dup6\n        /* \"#utility.yul\":18565:18637   */\n      tag_412\n      jump\t// in\n    tag_624:\n        /* \"#utility.yul\":18647:18719   */\n      tag_625\n        /* \"#utility.yul\":18715:18717   */\n      0x60\n        /* \"#utility.yul\":18704:18713   */\n      dup4\n        /* \"#utility.yul\":18700:18718   */\n      add\n        /* \"#utility.yul\":18691:18697   */\n      dup5\n        /* \"#utility.yul\":18647:18719   */\n      tag_412\n      jump\t// in\n    tag_625:\n        /* \"#utility.yul\":18173:18726   */\n      swap6\n      swap5\n      pop\n      pop\n      pop\n      pop\n      pop\n      jump\t// out\n        /* \"#utility.yul\":18732:18830   */\n    tag_427:\n        /* \"#utility.yul\":18783:18789   */\n      0x00\n        /* \"#utility.yul\":18817:18822   */\n      dup2\n        /* \"#utility.yul\":18811:18823   */\n      mload\n        /* \"#utility.yul\":18801:18823   */\n      swap1\n      pop\n        /* \"#utility.yul\":18732:18830   */\n      swap2\n      swap1\n      pop\n      jump\t// out\n        /* \"#utility.yul\":18836:19082   */\n    tag_428:\n        /* \"#utility.yul\":18917:18918   */\n      0x00\n        /* \"#utility.yul\":18927:19040   */\n    tag_628:\n        /* \"#utility.yul\":18941:18947   */\n      dup4\n        /* \"#utility.yul\":18938:18939   */\n      dup2\n        /* \"#utility.yul\":18935:18948   */\n      lt\n        /* \"#utility.yul\":18927:19040   */\n      iszero\n      tag_630\n      jumpi\n        /* \"#utility.yul\":19026:19027   */\n      dup1\n        /* \"#utility.yul\":19021:19024   */\n      dup3\n        /* \"#utility.yul\":19017:19028   */\n      add\n        /* \"#utility.yul\":19011:19029   */\n      mload\n        /* \"#utility.yul\":19007:19008   */\n      dup2\n        /* \"#utility.yul\":19002:19005   */\n      dup5\n        /* \"#utility.yul\":18998:19009   */\n      add\n        /* \"#utility.yul\":18991:19030   */\n      mstore\n        /* \"#utility.yul\":18963:18965   */\n      0x20\n        /* \"#utility.yul\":18960:18961   */\n      dup2\n        /* \"#utility.yul\":18956:18966   */\n      add\n        /* \"#utility.yul\":18951:18966   */\n      swap1\n      pop\n        /* \"#utility.yul\":18927:19040   */\n      jump(tag_628)\n    tag_630:\n        /* \"#utility.yul\":19074:19075   */\n      0x00\n        /* \"#utility.yul\":19065:19071   */\n      dup5\n        /* \"#utility.yul\":19060:19063   */\n      dup5\n        /* \"#utility.yul\":19056:19072   */\n      add\n        /* \"#utility.yul\":19049:19076   */\n      mstore\n        /* \"#utility.yul\":18898:19082   */\n      pop\n        /* \"#utility.yul\":18836:19082   */\n      pop\n      pop\n      pop\n      jump\t// out\n        /* \"#utility.yul\":19088:19461   */\n    tag_429:\n        /* \"#utility.yul\":19174:19177   */\n      0x00\n        /* \"#utility.yul\":19202:19240   */\n      tag_632\n        /* \"#utility.yul\":19234:19239   */\n      dup3\n        /* \"#utility.yul\":19202:19240   */\n      tag_427\n      jump\t// in\n    tag_632:\n        /* \"#utility.yul\":19256:19326   */\n      tag_633\n        /* \"#utility.yul\":19319:19325   */\n      dup2\n        /* \"#utility.yul\":19314:19317   */\n      dup6\n        /* \"#utility.yul\":19256:19326   */\n      tag_423\n      jump\t// in\n    tag_633:\n        /* \"#utility.yul\":19249:19326   */\n      swap4\n      pop\n        /* \"#utility.yul\":19335:19400   */\n      tag_634\n        /* \"#utility.yul\":19393:19399   */\n      dup2\n        /* \"#utility.yul\":19388:19391   */\n      dup6\n        /* \"#utility.yul\":19381:19385   */\n      0x20\n        /* \"#utility.yul\":19374:19379   */\n      dup7\n        /* \"#utility.yul\":19370:19386   */\n      add\n        /* \"#utility.yul\":19335:19400   */\n      tag_428\n      jump\t// in\n    tag_634:\n        /* \"#utility.yul\":19425:19454   */\n      tag_635\n        /* \"#utility.yul\":19447:19453   */\n      dup2\n        /* \"#utility.yul\":19425:19454   */\n      tag_424\n      jump\t// in\n    tag_635:\n        /* \"#utility.yul\":19420:19423   */\n      dup5\n        /* \"#utility.yul\":19416:19455   */\n      add\n        /* \"#utility.yul\":19409:19455   */\n      swap2\n      pop\n        /* \"#utility.yul\":19178:19461   */\n      pop\n        /* \"#utility.yul\":19088:19461   */\n      swap3\n      swap2\n      pop\n      pop\n      jump\t// out\n        /* \"#utility.yul\":19467:19886   */\n    tag_326:\n        /* \"#utility.yul\":19606:19610   */\n      0x00\n        /* \"#utility.yul\":19644:19646   */\n      0x40\n        /* \"#utility.yul\":19633:19642   */\n      dup3\n        /* \"#utility.yul\":19629:19647   */\n      add\n        /* \"#utility.yul\":19621:19647   */\n      swap1\n      pop\n        /* \"#utility.yul\":19693:19702   */\n      dup2\n        /* \"#utility.yul\":19687:19691   */\n      dup2\n        /* \"#utility.yul\":19683:19703   */\n      sub\n        /* \"#utility.yul\":19679:19680   */\n      0x00\n        /* \"#utility.yul\":19668:19677   */\n      dup4\n        /* \"#utility.yul\":19664:19681   */\n      add\n        /* \"#utility.yul\":19657:19704   */\n      mstore\n        /* \"#utility.yul\":19721:19797   */\n      tag_637\n        /* \"#utility.yul\":19792:19796   */\n      dup2\n        /* \"#utility.yul\":19783:19789   */\n      dup6\n        /* \"#utility.yul\":19721:19797   */\n      tag_429\n      jump\t// in\n    tag_637:\n        /* \"#utility.yul\":19713:19797   */\n      swap1\n      pop\n        /* \"#utility.yul\":19807:19879   */\n      tag_638\n        /* \"#utility.yul\":19875:19877   */\n      0x20\n        /* \"#utility.yul\":19864:19873   */\n      dup4\n        /* \"#utility.yul\":19860:19878   */\n      add\n        /* \"#utility.yul\":19851:19857   */\n      dup5\n        /* \"#utility.yul\":19807:19879   */\n      tag_412\n      jump\t// in\n    tag_638:\n        /* \"#utility.yul\":19467:19886   */\n      swap4\n      swap3\n      pop\n      pop\n      pop\n      jump\t// out\n        /* \"#utility.yul\":19892:20334   */\n    tag_370:\n        /* \"#utility.yul\":20041:20045   */\n      0x00\n        /* \"#utility.yul\":20079:20081   */\n      0x60\n        /* \"#utility.yul\":20068:20077   */\n      dup3\n        /* \"#utility.yul\":20064:20082   */\n      add\n        /* \"#utility.yul\":20056:20082   */\n      swap1\n      pop\n        /* \"#utility.yul\":20092:20163   */\n      tag_640\n        /* \"#utility.yul\":20160:20161   */\n      0x00\n        /* \"#utility.yul\":20149:20158   */\n      dup4\n        /* \"#utility.yul\":20145:20162   */\n      add\n        /* \"#utility.yul\":20136:20142   */\n      dup7\n        /* \"#utility.yul\":20092:20163   */\n      tag_411\n      jump\t// in\n    tag_640:\n        /* \"#utility.yul\":20173:20245   */\n      tag_641\n        /* \"#utility.yul\":20241:20243   */\n      0x20\n        /* \"#utility.yul\":20230:20239   */\n      dup4\n        /* \"#utility.yul\":20226:20244   */\n      add\n        /* \"#utility.yul\":20217:20223   */\n      dup6\n        /* \"#utility.yul\":20173:20245   */\n      tag_411\n      jump\t// in\n    tag_641:\n        /* \"#utility.yul\":20255:20327   */\n      tag_642\n        /* \"#utility.yul\":20323:20325   */\n      0x40\n        /* \"#utility.yul\":20312:20321   */\n      dup4\n        /* \"#utility.yul\":20308:20326   */\n      add\n        /* \"#utility.yul\":20299:20305   */\n      dup5\n        /* \"#utility.yul\":20255:20327   */\n      tag_412\n      jump\t// in\n    tag_642:\n        /* \"#utility.yul\":19892:20334   */\n      swap5\n      swap4\n      pop\n      pop\n      pop\n      pop\n      jump\t// out\n        /* \"#utility.yul\":20340:20672   */\n    tag_381:\n        /* \"#utility.yul\":20461:20465   */\n      0x00\n        /* \"#utility.yul\":20499:20501   */\n      0x40\n        /* \"#utility.yul\":20488:20497   */\n      dup3\n        /* \"#utility.yul\":20484:20502   */\n      add\n        /* \"#utility.yul\":20476:20502   */\n      swap1\n      pop\n        /* \"#utility.yul\":20512:20583   */\n      tag_644\n        /* \"#utility.yul\":20580:20581   */\n      0x00\n        /* \"#utility.yul\":20569:20578   */\n      dup4\n        /* \"#utility.yul\":20565:20582   */\n      add\n        /* \"#utility.yul\":20556:20562   */\n      dup6\n        /* \"#utility.yul\":20512:20583   */\n      tag_411\n      jump\t// in\n    tag_644:\n        /* \"#utility.yul\":20593:20665   */\n      tag_645\n        /* \"#utility.yul\":20661:20663   */\n      0x20\n        /* \"#utility.yul\":20650:20659   */\n      dup4\n        /* \"#utility.yul\":20646:20664   */\n      add\n        /* \"#utility.yul\":20637:20643   */\n      dup5\n        /* \"#utility.yul\":20593:20665   */\n      tag_406\n      jump\t// in\n    tag_645:\n        /* \"#utility.yul\":20340:20672   */\n      swap4\n      swap3\n      pop\n      pop\n      pop\n      jump\t// out\n\n    auxdata: 0xa2646970667358221220cd7e76bfd54b25760502c17b7220d03335afd56f2bd1004c763c518e0c04d06f64736f6c63430008110033\n}\n",
				"bytecode": {
					"linkReferences": {},
					"object": "60806040523480156200001157600080fd5b5060016000819055506200002f6000801b33620000e160201b60201c565b50620000627fe2b7fb3b832174769106daebcfd6d1970523240dda11281102db9363b83b0dc433620000e160201b60201c565b50620000957f97667070c54ef182b0f5858b034beac1b6f3089aa2d3188bb1e8929f4fa9b92933620000e160201b60201c565b50620000c87fbf233dd2aafeb4d50879c4aa5c81e96d92f6e6945c906a58f9f2d1c1631b4b2633620000e160201b60201c565b506000600581905550620c350060038190555062000257565b6000620000f58383620001e460201b60201c565b620001d957600180600085815260200190815260200160002060000160008473ffffffffffffffffffffffffffffffffffffffff1673ffffffffffffffffffffffffffffffffffffffff16815260200190815260200160002060006101000a81548160ff021916908315150217905550620001756200024f60201b60201c565b73ffffffffffffffffffffffffffffffffffffffff168273ffffffffffffffffffffffffffffffffffffffff16847f2f8788117e7eff1d82e926ec794901d17c78024a50270940304540a733656f0d60405160405180910390a460019050620001de565b600090505b92915050565b60006001600084815260200190815260200160002060000160008373ffffffffffffffffffffffffffffffffffffffff1673ffffffffffffffffffffffffffffffffffffffff16815260200190815260200160002060009054906101000a900460ff16905092915050565b600033905090565b61348380620002676000396000f3fe608060405234801561001057600080fd5b50600436106101da5760003560e01c806391d1485411610104578063be3b625b116100a2578063f3b8379111610071578063f3b837911461052d578063f5537ede14610549578063f5b541a614610579578063f63ca17914610597576101da565b8063be3b625b146104b9578063c0c53b8b146104d7578063d191bcf9146104f3578063d547741f14610511576101da565b8063a217fddf116100de578063a217fddf1461041f578063a8ae52071461043d578063b66df03114610459578063bbd0ec6414610489576101da565b806391d14854146103b5578063926d7d7f146103e55780639a54a1ff14610403576101da565b8063248a9ca31161017c578063412df7561161014b578063412df756146103555780635c975abb1461037157806369ffa08a1461038f5780638456cb59146103ab576101da565b8063248a9ca3146102e35780632f2ff15d1461031357806336568abe1461032f5780633f4ba83a1461034b576101da565b80630950d515116101b85780630950d5151461025b578063158ef93e146102775780631bd31ef61461029557806320df4359146102c5576101da565b80630139a221146101df57806301ffc9a71461020f57806302e1aacf1461023f575b600080fd5b6101f960048036038101906101f49190612a0f565b6105c7565b6040516102069190612aeb565b60405180910390f35b61022960048036038101906102249190612b5e565b6106b4565b6040516102369190612ba6565b60405180910390f35b61025960048036038101906102549190612c19565b61072e565b005b61027560048036038101906102709190612a0f565b610a1e565b005b61027f610d89565b60405161028c9190612ba6565b60405180910390f35b6102af60048036038101906102aa9190612a0f565b610d9c565b6040516102bc9190612ba6565b60405180910390f35b6102cd610dc6565b6040516102da9190612c8f565b60405180910390f35b6102fd60048036038101906102f89190612a0f565b610dea565b60405161030a9190612c8f565b60405180910390f35b61032d60048036038101906103289190612caa565b610e0a565b005b61034960048036038101906103449190612caa565b610e2c565b005b610353610ea7565b005b61036f600480360381019061036a9190612d4f565b610edc565b005b610379611237565b6040516103869190612ba6565b60405180910390f35b6103a960048036038101906103a49190612dd7565b61124e565b005b6103b36113f5565b005b6103cf60048036038101906103ca9190612caa565b61142a565b6040516103dc9190612ba6565b60405180910390f35b6103ed611495565b6040516103fa9190612c8f565b60405180910390f35b61041d60048036038101906104189190612e17565b6114b9565b005b610427611626565b6040516104349190612c8f565b60405180910390f35b61045760048036038101906104529190612dd7565b61162d565b005b610473600480360381019061046e9190612e17565b6117d2565b6040516104809190612e53565b60405180910390f35b6104a3600480360381019061049e9190612a0f565b61183b565b6040516104b09190612e53565b60405180910390f35b6104c1611878565b6040516104ce9190612e7d565b60405180910390f35b6104f160048036038101906104ec9190612e98565b61187e565b005b6104fb611b1b565b6040516105089190612e53565b60405180910390f35b61052b60048036038101906105269190612caa565b611b41565b005b61054760048036038101906105429190612eeb565b611b63565b005b610563600480360381019061055e9190612f18565b611c0d565b6040516105709190612c8f565b60405180910390f35b610581612338565b60405161058e9190612c8f565b60405180910390f35b6105b160048036038101906105ac9190612a0f565b61235c565b6040516105be9190612ba6565b60405180910390f35b6105cf61297b565b600960008381526020019081526020016000206040518060800160405290816000820160009054906101000a900473ffffffffffffffffffffffffffffffffffffffff1673ffffffffffffffffffffffffffffffffffffffff1673ffffffffffffffffffffffffffffffffffffffff1681526020016001820160009054906101000a900473ffffffffffffffffffffffffffffffffffffffff1673ffffffffffffffffffffffffffffffffffffffff1673ffffffffffffffffffffffffffffffffffffffff168152602001600282015481526020016003820154815250509050919050565b60007f7965db0b000000000000000000000000000000000000000000000000000000007bffffffffffffffffffffffffffffffffffffffffffffffffffffffff1916827bffffffffffffffffffffffffffffffffffffffffffffffffffffffff19161480610727575061072682612386565b5b9050919050565b6107366123f0565b61073e612436565b600460009054906101000a900460ff16610784576040517f87138d5c00000000000000000000000000000000000000000000000000000000815260040160405180910390fd5b3073ffffffffffffffffffffffffffffffffffffffff163373ffffffffffffffffffffffffffffffffffffffff16146107e9576040517f5c427cd900000000000000000000000000000000000000000000000000000000815260040160405180910390fd5b600073ffffffffffffffffffffffffffffffffffffffff168473ffffffffffffffffffffffffffffffffffffffff1614806108505750600073ffffffffffffffffffffffffffffffffffffffff168373ffffffffffffffffffffffffffffffffffffffff16145b8061085b5750600082145b15610892576040517fe6c4247b00000000000000000000000000000000000000000000000000000000815260040160405180910390fd5b600083905060008173ffffffffffffffffffffffffffffffffffffffff166370a08231306040518263ffffffff1660e01b81526004016108d29190612e53565b602060405180830381865afa1580156108ef573d6000803e3d6000fd5b505050506040513d601f19601f820116820180604052508101906109139190612f80565b90508381101561095e578484826040517fdb42144d00000000000000000000000000000000000000000000000000000000815260040161095593929190612fad565b60405180910390fd5b61098986858473ffffffffffffffffffffffffffffffffffffffff166124779092919063ffffffff16565b6000868686866040516020016109a2949392919061304d565b6040516020818303038152906040528051906020012090508673ffffffffffffffffffffffffffffffffffffffff16817f1705447c4ca6f25bc2e5da6270d2bcffd3fef27675b023c5a76e075e99863699888888604051610a0593929190612fad565b60405180910390a3505050610a186124f6565b50505050565b610a26612436565b610a2e6123f0565b7fe2b7fb3b832174769106daebcfd6d1970523240dda11281102db9363b83b0dc4610a5881612500565b600460009054906101000a900460ff16610a9e576040517f87138d5c00000000000000000000000000000000000000000000000000000000815260040160405180910390fd5b600a600083815260200190815260200160002060009054906101000a900460ff1615610b0157816040517f4bb3dcbf000000000000000000000000000000000000000000000000000000008152600401610af89190612c8f565b60405180910390fd5b600073ffffffffffffffffffffffffffffffffffffffff166009600084815260200190815260200160002060000160009054906101000a900473ffffffffffffffffffffffffffffffffffffffff1673ffffffffffffffffffffffffffffffffffffffff1603610ba857816040517f5d803cca000000000000000000000000000000000000000000000000000000008152600401610b9f9190612c8f565b60405180910390fd5b6000600960008481526020019081526020016000206040518060800160405290816000820160009054906101000a900473ffffffffffffffffffffffffffffffffffffffff1673ffffffffffffffffffffffffffffffffffffffff1673ffffffffffffffffffffffffffffffffffffffff1681526020016001820160009054906101000a900473ffffffffffffffffffffffffffffffffffffffff1673ffffffffffffffffffffffffffffffffffffffff1673ffffffffffffffffffffffffffffffffffffffff1681526020016002820154815260200160038201548152505090506001600a600085815260200190815260200160002060006101000a81548160ff021916908315150217905550610d1f816000015182604001516009600087815260200190815260200160002060010160009054906101000a900473ffffffffffffffffffffffffffffffffffffffff1673ffffffffffffffffffffffffffffffffffffffff166124779092919063ffffffff16565b806000015173ffffffffffffffffffffffffffffffffffffffff16837f07b5483b8e4bd8ea240a474d5117738350e7d431e3668c48a97910b0b397796a83602001518460400151604051610d7492919061309b565b60405180910390a35050610d866124f6565b50565b600460009054906101000a900460ff1681565b60006007600083815260200190815260200160002060009054906101000a900460ff169050919050565b7fbf233dd2aafeb4d50879c4aa5c81e96d92f6e6945c906a58f9f2d1c1631b4b2681565b600060016000838152602001908152602001600020600101549050919050565b610e1382610dea565b610e1c81612500565b610e268383612514565b50505050565b610e34612605565b73ffffffffffffffffffffffffffffffffffffffff168173ffffffffffffffffffffffffffffffffffffffff1614610e98576040517f6697b23200000000000000000000000000000000000000000000000000000000815260040160405180910390fd5b610ea2828261260d565b505050565b7fbf233dd2aafeb4d50879c4aa5c81e96d92f6e6945c906a58f9f2d1c1631b4b26610ed181612500565b610ed9612700565b50565b610ee4612436565b7fe2b7fb3b832174769106daebcfd6d1970523240dda11281102db9363b83b0dc4610f0e81612500565b600460009054906101000a900460ff16610f54576040517f87138d5c00000000000000000000000000000000000000000000000000000000815260040160405180910390fd5b600260019054906101000a900473ffffffffffffffffffffffffffffffffffffffff1673ffffffffffffffffffffffffffffffffffffffff168573ffffffffffffffffffffffffffffffffffffffff1614610fdb576040517f7fee69a100000000000000000000000000000000000000000000000000000000815260040160405180910390fd5b3073ffffffffffffffffffffffffffffffffffffffff168473ffffffffffffffffffffffffffffffffffffffff1614611040576040517f82d5d76a00000000000000000000000000000000000000000000000000000000815260040160405180910390fd5b6007600087815260200190815260200160002060009054906101000a900460ff16156110a357856040517f730ac1e200000000000000000000000000000000000000000000000000000000815260040161109a9190612c8f565b60405180910390fd5b60016007600088815260200190815260200160002060006101000a81548160ff0219169083151502179055506000803073ffffffffffffffffffffffffffffffffffffffff1685856040516110f9929190613103565b6000604051808303816000865af19150503d8060008114611136576040519150601f19603f3d011682016040523d82523d6000602084013e61113b565b606091505b5091509150816111895760008151111561115757805160208201fd5b6040517facfdb44400000000000000000000000000000000000000000000000000000000815260040160405180910390fd5b8573ffffffffffffffffffffffffffffffffffffffff168773ffffffffffffffffffffffffffffffffffffffff16897fae7333f737c1a470cc349ec73a22eb150caf01dd73b27e6542e556901057d1c888886005546040516111ed9392919061316b565b60405180910390a4877fce1682f5002e4561cc52ee288e67110a7e66071f7f158d4c146bc35616eddeab836040516112259190612ba6565b60405180910390a25050505050505050565b6000600260009054906101000a900460ff16905090565b6000801b61125b81612500565b6112636123f0565b600073ffffffffffffffffffffffffffffffffffffffff168273ffffffffffffffffffffffffffffffffffffffff16036112c9576040517fe6c4247b00000000000000000000000000000000000000000000000000000000815260040160405180910390fd5b600083905060008173ffffffffffffffffffffffffffffffffffffffff166370a08231306040518263ffffffff1660e01b81526004016113099190612e53565b602060405180830381865afa158015611326573d6000803e3d6000fd5b505050506040513d601f19601f8201168201806040525081019061134a9190612f80565b905060008111156113e65761138084828473ffffffffffffffffffffffffffffffffffffffff166124779092919063ffffffff16565b8373ffffffffffffffffffffffffffffffffffffffff168573ffffffffffffffffffffffffffffffffffffffff167fa86305abc2db271df4609aa86a8d044bc11fb36939841bfdad6c1ab2b26e9471836040516113dd9190612e7d565b60405180910390a35b50506113f06124f6565b505050565b7fbf233dd2aafeb4d50879c4aa5c81e96d92f6e6945c906a58f9f2d1c1631b4b2661141f81612500565b611427612763565b50565b60006001600084815260200190815260200160002060000160008373ffffffffffffffffffffffffffffffffffffffff1673ffffffffffffffffffffffffffffffffffffffff16815260200190815260200160002060009054906101000a900460ff16905092915050565b7fe2b7fb3b832174769106daebcfd6d1970523240dda11281102db9363b83b0dc481565b6000801b6114c681612500565b600073ffffffffffffffffffffffffffffffffffffffff168273ffffffffffffffffffffffffffffffffffffffff1614801561154f5750600260019054906101000a900473ffffffffffffffffffffffffffffffffffffffff1673ffffffffffffffffffffffffffffffffffffffff168273ffffffffffffffffffffffffffffffffffffffff16145b15611586576040517fe6c4247b00000000000000000000000000000000000000000000000000000000815260040160405180910390fd5b81600260016101000a81548173ffffffffffffffffffffffffffffffffffffffff021916908373ffffffffffffffffffffffffffffffffffffffff1602179055507ffe8ccef60b912abae67bc91efd3ac94ab9cf0dd5c8e49e930ec0ad3ecd42298a600260019054906101000a900473ffffffffffffffffffffffffffffffffffffffff168360405161161a92919061319d565b60405180910390a15050565b6000801b81565b7f97667070c54ef182b0f5858b034beac1b6f3089aa2d3188bb1e8929f4fa9b92961165781612500565b600073ffffffffffffffffffffffffffffffffffffffff168373ffffffffffffffffffffffffffffffffffffffff1614806116be5750600073ffffffffffffffffffffffffffffffffffffffff168273ffffffffffffffffffffffffffffffffffffffff16145b156116f5576040517fe6c4247b00000000000000000000000000000000000000000000000000000000815260040160405180910390fd5b81600660008573ffffffffffffffffffffffffffffffffffffffff1673ffffffffffffffffffffffffffffffffffffffff16815260200190815260200160002060006101000a81548173ffffffffffffffffffffffffffffffffffffffff021916908373ffffffffffffffffffffffffffffffffffffffff1602179055508173ffffffffffffffffffffffffffffffffffffffff168373ffffffffffffffffffffffffffffffffffffffff167fbbac15b41bda0ccec6e5a6d3f3e149d5d3acffe7913b82e5df6caf2194d8acf560405160405180910390a3505050565b6000600660008373ffffffffffffffffffffffffffffffffffffffff1673ffffffffffffffffffffffffffffffffffffffff16815260200190815260200160002060009054906101000a900473ffffffffffffffffffffffffffffffffffffffff169050919050565b60006008600083815260200190815260200160002060009054906101000a900473ffffffffffffffffffffffffffffffffffffffff169050919050565b60035481565b6000801b61188b81612500565b600460009054906101000a900460ff16156118d2576040517f87138d5c00000000000000000000000000000000000000000000000000000000815260040160405180910390fd5b600073ffffffffffffffffffffffffffffffffffffffff168473ffffffffffffffffffffffffffffffffffffffff1614806119395750600073ffffffffffffffffffffffffffffffffffffffff168373ffffffffffffffffffffffffffffffffffffffff16145b806119705750600073ffffffffffffffffffffffffffffffffffffffff168273ffffffffffffffffffffffffffffffffffffffff16145b156119a7576040517fe6c4247b00000000000000000000000000000000000000000000000000000000815260040160405180910390fd5b83600260016101000a81548173ffffffffffffffffffffffffffffffffffffffff021916908373ffffffffffffffffffffffffffffffffffffffff16021790555081600660008573ffffffffffffffffffffffffffffffffffffffff1673ffffffffffffffffffffffffffffffffffffffff16815260200190815260200160002060006101000a81548173ffffffffffffffffffffffffffffffffffffffff021916908373ffffffffffffffffffffffffffffffffffffffff1602179055506001600460006101000a81548160ff0219169083151502179055507ffe8ccef60b912abae67bc91efd3ac94ab9cf0dd5c8e49e930ec0ad3ecd42298a600085604051611ab392919061319d565b60405180910390a18173ffffffffffffffffffffffffffffffffffffffff168373ffffffffffffffffffffffffffffffffffffffff167fbbac15b41bda0ccec6e5a6d3f3e149d5d3acffe7913b82e5df6caf2194d8acf560405160405180910390a350505050565b600260019054906101000a900473ffffffffffffffffffffffffffffffffffffffff1681565b611b4a82610dea565b611b5381612500565b611b5d838361260d565b50505050565b7f97667070c54ef182b0f5858b034beac1b6f3089aa2d3188bb1e8929f4fa9b929611b8d81612500565b60008203611bc7576040517fe6c4247b00000000000000000000000000000000000000000000000000000000815260040160405180910390fd5b7f521f4b1f69c8fd70487d7f76173a72013d708404a2a63c7434a3eefbb9d8357b60035483604051611bfa9291906131c6565b60405180910390a1816003819055505050565b6000611c17612436565b611c1f6123f0565b600460009054906101000a900460ff16611c65576040517f87138d5c00000000000000000000000000000000000000000000000000000000815260040160405180910390fd5b600073ffffffffffffffffffffffffffffffffffffffff168473ffffffffffffffffffffffffffffffffffffffff161480611ccc5750600073ffffffffffffffffffffffffffffffffffffffff168373ffffffffffffffffffffffffffffffffffffffff16145b80611cd75750600082145b15611d0e576040517fe6c4247b00000000000000000000000000000000000000000000000000000000815260040160405180910390fd5b600073ffffffffffffffffffffffffffffffffffffffff16600660008573ffffffffffffffffffffffffffffffffffffffff1673ffffffffffffffffffffffffffffffffffffffff16815260200190815260200160002060009054906101000a900473ffffffffffffffffffffffffffffffffffffffff1673ffffffffffffffffffffffffffffffffffffffff1603611dde57826040517f82f36093000000000000000000000000000000000000000000000000000000008152600401611dd59190612e53565b60405180910390fd5b600083905060008173ffffffffffffffffffffffffffffffffffffffff166370a08231306040518263ffffffff1660e01b8152600401611e1e9190612e53565b602060405180830381865afa158015611e3b573d6000803e3d6000fd5b505050506040513d601f19601f82011682018060405250810190611e5f9190612f80565b9050611e8e3330868573ffffffffffffffffffffffffffffffffffffffff166127c6909392919063ffffffff16565b60008273ffffffffffffffffffffffffffffffffffffffff166370a08231306040518263ffffffff1660e01b8152600401611ec99190612e53565b602060405180830381865afa158015611ee6573d6000803e3d6000fd5b505050506040513d601f19601f82011682018060405250810190611f0a9190612f80565b905060008282611f1a919061321e565b905060056000815480929190611f2f90613252565b9190505550600033600260019054906101000a900473ffffffffffffffffffffffffffffffffffffffff16898460055446604051602001611f759695949392919061329a565b604051602081830303815290604052805190602001209050336008600083815260200190815260200160002060006101000a81548173ffffffffffffffffffffffffffffffffffffffff021916908373ffffffffffffffffffffffffffffffffffffffff16021790555060006302e1aacf60e01b8a600660008c73ffffffffffffffffffffffffffffffffffffffff1673ffffffffffffffffffffffffffffffffffffffff16815260200190815260200160002060009054906101000a900473ffffffffffffffffffffffffffffffffffffffff1685600554604051602401612061949392919061330a565b604051602081830303815290604052907bffffffffffffffffffffffffffffffffffffffffffffffffffffffff19166020820180517bffffffffffffffffffffffffffffffffffffffffffffffffffffffff8381831617835250505050905060405180608001604052808b73ffffffffffffffffffffffffffffffffffffffff1681526020018a73ffffffffffffffffffffffffffffffffffffffff1681526020018481526020016005548152506009600084815260200190815260200160002060008201518160000160006101000a81548173ffffffffffffffffffffffffffffffffffffffff021916908373ffffffffffffffffffffffffffffffffffffffff16021790555060208201518160010160006101000a81548173ffffffffffffffffffffffffffffffffffffffff021916908373ffffffffffffffffffffffffffffffffffffffff1602179055506040820151816002015560608201518160030155905050600260019054906101000a900473ffffffffffffffffffffffffffffffffffffffff1673ffffffffffffffffffffffffffffffffffffffff163373ffffffffffffffffffffffffffffffffffffffff16837fd8331239dcfe177d02e949e3cfa5969f4a3c658a80554db93c64ab76f7acf9c58460055460405161224b9291906133bd565b60405180910390a48973ffffffffffffffffffffffffffffffffffffffff163373ffffffffffffffffffffffffffffffffffffffff16837febc0384b967ceefd5309a419c2e26d01fd91727b29add79be1a42444d158dd288c600660008f73ffffffffffffffffffffffffffffffffffffffff1673ffffffffffffffffffffffffffffffffffffffff16815260200190815260200160002060009054906101000a900473ffffffffffffffffffffffffffffffffffffffff1688600554604051612318949392919061330a565b60405180910390a48196505050505050506123316124f6565b9392505050565b7f97667070c54ef182b0f5858b034beac1b6f3089aa2d3188bb1e8929f4fa9b92981565b6000600a600083815260200190815260200160002060009054906101000a900460ff169050919050565b60007f01ffc9a7000000000000000000000000000000000000000000000000000000007bffffffffffffffffffffffffffffffffffffffffffffffffffffffff1916827bffffffffffffffffffffffffffffffffffffffffffffffffffffffff1916149050919050565b60026000540361242c576040517f3ee5aeb500000000000000000000000000000000000000000000000000000000815260040160405180910390fd5b6002600081905550565b61243e611237565b15612475576040517fd93c066500000000000000000000000000000000000000000000000000000000815260040160405180910390fd5b565b6124f1838473ffffffffffffffffffffffffffffffffffffffff1663a9059cbb85856040516024016124aa92919061309b565b604051602081830303815290604052915060e01b6020820180517bffffffffffffffffffffffffffffffffffffffffffffffffffffffff8381831617835250505050612848565b505050565b6001600081905550565b6125118161250c612605565b6128ea565b50565b6000612520838361142a565b6125fa57600180600085815260200190815260200160002060000160008473ffffffffffffffffffffffffffffffffffffffff1673ffffffffffffffffffffffffffffffffffffffff16815260200190815260200160002060006101000a81548160ff021916908315150217905550612597612605565b73ffffffffffffffffffffffffffffffffffffffff168273ffffffffffffffffffffffffffffffffffffffff16847f2f8788117e7eff1d82e926ec794901d17c78024a50270940304540a733656f0d60405160405180910390a4600190506125ff565b600090505b92915050565b600033905090565b6000612619838361142a565b156126f55760006001600085815260200190815260200160002060000160008473ffffffffffffffffffffffffffffffffffffffff1673ffffffffffffffffffffffffffffffffffffffff16815260200190815260200160002060006101000a81548160ff021916908315150217905550612692612605565b73ffffffffffffffffffffffffffffffffffffffff168273ffffffffffffffffffffffffffffffffffffffff16847ff6391f5c32d9c69d2a47ea670b442974b53935d1edc7fd64eb21e047a839171b60405160405180910390a4600190506126fa565b600090505b92915050565b61270861293b565b6000600260006101000a81548160ff0219169083151502179055507f5db9ee0a495bf2e6ff9c91a7834c1ba4fdd244a5e8aa4e537bd38aeae4b073aa61274c612605565b6040516127599190612e53565b60405180910390a1565b61276b612436565b6001600260006101000a81548160ff0219169083151502179055507f62e78cea01bee320cd4e420270b5ea74000d11b0c9f74754ebdbfc544b05a2586127af612605565b6040516127bc9190612e53565b60405180910390a1565b612842848573ffffffffffffffffffffffffffffffffffffffff166323b872dd8686866040516024016127fb939291906133ed565b604051602081830303815290604052915060e01b6020820180517bffffffffffffffffffffffffffffffffffffffffffffffffffffffff8381831617835250505050612848565b50505050565b600080602060008451602086016000885af18061286b576040513d6000823e3d81fd5b3d9250600051915050600082146128865760018114156128a2565b60008473ffffffffffffffffffffffffffffffffffffffff163b145b156128e457836040517f5274afe70000000000000000000000000000000000000000000000000000000081526004016128db9190612e53565b60405180910390fd5b50505050565b6128f4828261142a565b6129375780826040517fe2517d3f00000000000000000000000000000000000000000000000000000000815260040161292e929190613424565b60405180910390fd5b5050565b612943611237565b612979576040517f8dfc202b00000000000000000000000000000000000000000000000000000000815260040160405180910390fd5b565b6040518060800160405280600073ffffffffffffffffffffffffffffffffffffffff168152602001600073ffffffffffffffffffffffffffffffffffffffff16815260200160008152602001600081525090565b600080fd5b600080fd5b6000819050919050565b6129ec816129d9565b81146129f757600080fd5b50565b600081359050612a09816129e3565b92915050565b600060208284031215612a2557612a246129cf565b5b6000612a33848285016129fa565b91505092915050565b600073ffffffffffffffffffffffffffffffffffffffff82169050919050565b6000612a6782612a3c565b9050919050565b612a7781612a5c565b82525050565b6000819050919050565b612a9081612a7d565b82525050565b608082016000820151612aac6000850182612a6e565b506020820151612abf6020850182612a6e565b506040820151612ad26040850182612a87565b506060820151612ae56060850182612a87565b50505050565b6000608082019050612b006000830184612a96565b92915050565b60007fffffffff0000000000000000000000000000000000000000000000000000000082169050919050565b612b3b81612b06565b8114612b4657600080fd5b50565b600081359050612b5881612b32565b92915050565b600060208284031215612b7457612b736129cf565b5b6000612b8284828501612b49565b91505092915050565b60008115159050919050565b612ba081612b8b565b82525050565b6000602082019050612bbb6000830184612b97565b92915050565b612bca81612a5c565b8114612bd557600080fd5b50565b600081359050612be781612bc1565b92915050565b612bf681612a7d565b8114612c0157600080fd5b50565b600081359050612c1381612bed565b92915050565b60008060008060808587031215612c3357612c326129cf565b5b6000612c4187828801612bd8565b9450506020612c5287828801612bd8565b9350506040612c6387828801612c04565b9250506060612c7487828801612c04565b91505092959194509250565b612c89816129d9565b82525050565b6000602082019050612ca46000830184612c80565b92915050565b60008060408385031215612cc157612cc06129cf565b5b6000612ccf858286016129fa565b9250506020612ce085828601612bd8565b9150509250929050565b600080fd5b600080fd5b600080fd5b60008083601f840112612d0f57612d0e612cea565b5b8235905067ffffffffffffffff811115612d2c57612d2b612cef565b5b602083019150836001820283011115612d4857612d47612cf4565b5b9250929050565b600080600080600060808688031215612d6b57612d6a6129cf565b5b6000612d79888289016129fa565b9550506020612d8a88828901612bd8565b9450506040612d9b88828901612bd8565b935050606086013567ffffffffffffffff811115612dbc57612dbb6129d4565b5b612dc888828901612cf9565b92509250509295509295909350565b60008060408385031215612dee57612ded6129cf565b5b6000612dfc85828601612bd8565b9250506020612e0d85828601612bd8565b9150509250929050565b600060208284031215612e2d57612e2c6129cf565b5b6000612e3b84828501612bd8565b91505092915050565b612e4d81612a5c565b82525050565b6000602082019050612e686000830184612e44565b92915050565b612e7781612a7d565b82525050565b6000602082019050612e926000830184612e6e565b92915050565b600080600060608486031215612eb157612eb06129cf565b5b6000612ebf86828701612bd8565b9350506020612ed086828701612bd8565b9250506040612ee186828701612bd8565b9150509250925092565b600060208284031215612f0157612f006129cf565b5b6000612f0f84828501612c04565b91505092915050565b600080600060608486031215612f3157612f306129cf565b5b6000612f3f86828701612bd8565b9350506020612f5086828701612bd8565b9250506040612f6186828701612c04565b9150509250925092565b600081519050612f7a81612bed565b92915050565b600060208284031215612f9657612f956129cf565b5b6000612fa484828501612f6b565b91505092915050565b6000606082019050612fc26000830186612e44565b612fcf6020830185612e6e565b612fdc6040830184612e6e565b949350505050565b60008160601b9050919050565b6000612ffc82612fe4565b9050919050565b600061300e82612ff1565b9050919050565b61302661302182612a5c565b613003565b82525050565b6000819050919050565b61304761304282612a7d565b61302c565b82525050565b60006130598287613015565b6014820191506130698286613015565b6014820191506130798285613036565b6020820191506130898284613036565b60208201915081905095945050505050565b60006040820190506130b06000830185612e44565b6130bd6020830184612e6e565b9392505050565b600081905092915050565b82818337600083830152505050565b60006130ea83856130c4565b93506130f78385846130cf565b82840190509392505050565b60006131108284866130de565b91508190509392505050565b600082825260208201905092915050565b6000601f19601f8301169050919050565b600061314a838561311c565b93506131578385846130cf565b6131608361312d565b840190509392505050565b6000604082019050818103600083015261318681858761313e565b90506131956020830184612e6e565b949350505050565b60006040820190506131b26000830185612e44565b6131bf6020830184612e44565b9392505050565b60006040820190506131db6000830185612e6e565b6131e86020830184612e6e565b9392505050565b7f4e487b7100000000000000000000000000000000000000000000000000000000600052601160045260246000fd5b600061322982612a7d565b915061323483612a7d565b925082820390508181111561324c5761324b6131ef565b5b92915050565b600061325d82612a7d565b91507fffffffffffffffffffffffffffffffffffffffffffffffffffffffffffffffff820361328f5761328e6131ef565b5b600182019050919050565b60006132a68289613015565b6014820191506132b68288613015565b6014820191506132c68287613015565b6014820191506132d68286613036565b6020820191506132e68285613036565b6020820191506132f68284613036565b602082019150819050979650505050505050565b600060808201905061331f6000830187612e44565b61332c6020830186612e44565b6133396040830185612e6e565b6133466060830184612e6e565b95945050505050565b600081519050919050565b60005b8381101561337857808201518184015260208101905061335d565b60008484015250505050565b600061338f8261334f565b613399818561311c565b93506133a981856020860161335a565b6133b28161312d565b840191505092915050565b600060408201905081810360008301526133d78185613384565b90506133e66020830184612e6e565b9392505050565b60006060820190506134026000830186612e44565b61340f6020830185612e44565b61341c6040830184612e6e565b949350505050565b60006040820190506134396000830185612e44565b6134466020830184612c80565b939250505056fea2646970667358221220cd7e76bfd54b25760502c17b7220d03335afd56f2bd1004c763c518e0c04d06f64736f6c63430008110033",
					"opcodes": "PUSH1 0x80 PUSH1 0x40 MSTORE CALLVALUE DUP1 ISZERO PUSH3 0x11 JUMPI PUSH1 0x0 DUP1 REVERT JUMPDEST POP PUSH1 0x1 PUSH1 0x0 DUP2 SWAP1 SSTORE POP PUSH3 0x2F PUSH1 0x0 DUP1 SHL CALLER PUSH3 0xE1 PUSH1 0x20 SHL PUSH1 0x20 SHR JUMP JUMPDEST POP PUSH3 0x62 PUSH32 0xE2B7FB3B832174769106DAEBCFD6D1970523240DDA11281102DB9363B83B0DC4 CALLER PUSH3 0xE1 PUSH1 0x20 SHL PUSH1 0x20 SHR JUMP JUMPDEST POP PUSH3 0x95 PUSH32 0x97667070C54EF182B0F5858B034BEAC1B6F3089AA2D3188BB1E8929F4FA9B929 CALLER PUSH3 0xE1 PUSH1 0x20 SHL PUSH1 0x20 SHR JUMP JUMPDEST POP PUSH3 0xC8 PUSH32 0xBF233DD2AAFEB4D50879C4AA5C81E96D92F6E6945C906A58F9F2D1C1631B4B26 CALLER PUSH3 0xE1 PUSH1 0x20 SHL PUSH1 0x20 SHR JUMP JUMPDEST POP PUSH1 0x0 PUSH1 0x5 DUP2 SWAP1 SSTORE POP PUSH3 0xC3500 PUSH1 0x3 DUP2 SWAP1 SSTORE POP PUSH3 0x257 JUMP JUMPDEST PUSH1 0x0 PUSH3 0xF5 DUP4 DUP4 PUSH3 0x1E4 PUSH1 0x20 SHL PUSH1 0x20 SHR JUMP JUMPDEST PUSH3 0x1D9 JUMPI PUSH1 0x1 DUP1 PUSH1 0x0 DUP6 DUP2 MSTORE PUSH1 0x20 ADD SWAP1 DUP2 MSTORE PUSH1 0x20 ADD PUSH1 0x0 KECCAK256 PUSH1 0x0 ADD PUSH1 0x0 DUP5 PUSH20 0xFFFFFFFFFFFFFFFFFFFFFFFFFFFFFFFFFFFFFFFF AND PUSH20 0xFFFFFFFFFFFFFFFFFFFFFFFFFFFFFFFFFFFFFFFF AND DUP2 MSTORE PUSH1 0x20 ADD SWAP1 DUP2 MSTORE PUSH1 0x20 ADD PUSH1 0x0 KECCAK256 PUSH1 0x0 PUSH2 0x100 EXP DUP2 SLOAD DUP2 PUSH1 0xFF MUL NOT AND SWAP1 DUP4 ISZERO ISZERO MUL OR SWAP1 SSTORE POP PUSH3 0x175 PUSH3 0x24F PUSH1 0x20 SHL PUSH1 0x20 SHR JUMP JUMPDEST PUSH20 0xFFFFFFFFFFFFFFFFFFFFFFFFFFFFFFFFFFFFFFFF AND DUP3 PUSH20 0xFFFFFFFFFFFFFFFFFFFFFFFFFFFFFFFFFFFFFFFF AND DUP5 PUSH32 0x2F8788117E7EFF1D82E926EC794901D17C78024A50270940304540A733656F0D PUSH1 0x40 MLOAD PUSH1 0x40 MLOAD DUP1 SWAP2 SUB SWAP1 LOG4 PUSH1 0x1 SWAP1 POP PUSH3 0x1DE JUMP JUMPDEST PUSH1 0x0 SWAP1 POP JUMPDEST SWAP3 SWAP2 POP POP JUMP JUMPDEST PUSH1 0x0 PUSH1 0x1 PUSH1 0x0 DUP5 DUP2 MSTORE PUSH1 0x20 ADD SWAP1 DUP2 MSTORE PUSH1 0x20 ADD PUSH1 0x0 KECCAK256 PUSH1 0x0 ADD PUSH1 0x0 DUP4 PUSH20 0xFFFFFFFFFFFFFFFFFFFFFFFFFFFFFFFFFFFFFFFF AND PUSH20 0xFFFFFFFFFFFFFFFFFFFFFFFFFFFFFFFFFFFFFFFF AND DUP2 MSTORE PUSH1 0x20 ADD SWAP1 DUP2 MSTORE PUSH1 0x20 ADD PUSH1 0x0 KECCAK256 PUSH1 0x0 SWAP1 SLOAD SWAP1 PUSH2 0x100 EXP SWAP1 DIV PUSH1 0xFF AND SWAP1 POP SWAP3 SWAP2 POP POP JUMP JUMPDEST PUSH1 0x0 CALLER SWAP1 POP SWAP1 JUMP JUMPDEST PUSH2 0x3483 DUP1 PUSH3 0x267 PUSH1 0x0 CODECOPY PUSH1 0x0 RETURN INVALID PUSH1 0x80 PUSH1 0x40 MSTORE CALLVALUE DUP1 ISZERO PUSH2 0x10 JUMPI PUSH1 0x0 DUP1 REVERT JUMPDEST POP PUSH1 0x4 CALLDATASIZE LT PUSH2 0x1DA JUMPI PUSH1 0x0 CALLDATALOAD PUSH1 0xE0 SHR DUP1 PUSH4 0x91D14854 GT PUSH2 0x104 JUMPI DUP1 PUSH4 0xBE3B625B GT PUSH2 0xA2 JUMPI DUP1 PUSH4 0xF3B83791 GT PUSH2 0x71 JUMPI DUP1 PUSH4 0xF3B83791 EQ PUSH2 0x52D JUMPI DUP1 PUSH4 0xF5537EDE EQ PUSH2 0x549 JUMPI DUP1 PUSH4 0xF5B541A6 EQ PUSH2 0x579 JUMPI DUP1 PUSH4 0xF63CA179 EQ PUSH2 0x597 JUMPI PUSH2 0x1DA JUMP JUMPDEST DUP1 PUSH4 0xBE3B625B EQ PUSH2 0x4B9 JUMPI DUP1 PUSH4 0xC0C53B8B EQ PUSH2 0x4D7 JUMPI DUP1 PUSH4 0xD191BCF9 EQ PUSH2 0x4F3 JUMPI DUP1 PUSH4 0xD547741F EQ PUSH2 0x511 JUMPI PUSH2 0x1DA JUMP JUMPDEST DUP1 PUSH4 0xA217FDDF GT PUSH2 0xDE JUMPI DUP1 PUSH4 0xA217FDDF EQ PUSH2 0x41F JUMPI DUP1 PUSH4 0xA8AE5207 EQ PUSH2 0x43D JUMPI DUP1 PUSH4 0xB66DF031 EQ PUSH2 0x459 JUMPI DUP1 PUSH4 0xBBD0EC64 EQ PUSH2 0x489 JUMPI PUSH2 0x1DA JUMP JUMPDEST DUP1 PUSH4 0x91D14854 EQ PUSH2 0x3B5 JUMPI DUP1 PUSH4 0x926D7D7F EQ PUSH2 0x3E5 JUMPI DUP1 PUSH4 0x9A54A1FF EQ PUSH2 0x403 JUMPI PUSH2 0x1DA JUMP JUMPDEST DUP1 PUSH4 0x248A9CA3 GT PUSH2 0x17C JUMPI DUP1 PUSH4 0x412DF756 GT PUSH2 0x14B JUMPI DUP1 PUSH4 0x412DF756 EQ PUSH2 0x355 JUMPI DUP1 PUSH4 0x5C975ABB EQ PUSH2 0x371 JUMPI DUP1 PUSH4 0x69FFA08A EQ PUSH2 0x38F JUMPI DUP1 PUSH4 0x8456CB59 EQ PUSH2 0x3AB JUMPI PUSH2 0x1DA JUMP JUMPDEST DUP1 PUSH4 0x248A9CA3 EQ PUSH2 0x2E3 JUMPI DUP1 PUSH4 0x2F2FF15D EQ PUSH2 0x313 JUMPI DUP1 PUSH4 0x36568ABE EQ PUSH2 0x32F JUMPI DUP1 PUSH4 0x3F4BA83A EQ PUSH2 0x34B JUMPI PUSH2 0x1DA JUMP JUMPDEST DUP1 PUSH4 0x950D515 GT PUSH2 0x1B8 JUMPI DUP1 PUSH4 0x950D515 EQ PUSH2 0x25B JUMPI DUP1 PUSH4 0x158EF93E EQ PUSH2 0x277 JUMPI DUP1 PUSH4 0x1BD31EF6 EQ PUSH2 0x295 JUMPI DUP1 PUSH4 0x20DF4359 EQ PUSH2 0x2C5 JUMPI PUSH2 0x1DA JUMP JUMPDEST DUP1 PUSH4 0x139A221 EQ PUSH2 0x1DF JUMPI DUP1 PUSH4 0x1FFC9A7 EQ PUSH2 0x20F JUMPI DUP1 PUSH4 0x2E1AACF EQ PUSH2 0x23F JUMPI JUMPDEST PUSH1 0x0 DUP1 REVERT JUMPDEST PUSH2 0x1F9 PUSH1 0x4 DUP1 CALLDATASIZE SUB DUP2 ADD SWAP1 PUSH2 0x1F4 SWAP2 SWAP1 PUSH2 0x2A0F JUMP JUMPDEST PUSH2 0x5C7 JUMP JUMPDEST PUSH1 0x40 MLOAD PUSH2 0x206 SWAP2 SWAP1 PUSH2 0x2AEB JUMP JUMPDEST PUSH1 0x40 MLOAD DUP1 SWAP2 SUB SWAP1 RETURN JUMPDEST PUSH2 0x229 PUSH1 0x4 DUP1 CALLDATASIZE SUB DUP2 ADD SWAP1 PUSH2 0x224 SWAP2 SWAP1 PUSH2 0x2B5E JUMP JUMPDEST PUSH2 0x6B4 JUMP JUMPDEST PUSH1 0x40 MLOAD PUSH2 0x236 SWAP2 SWAP1 PUSH2 0x2BA6 JUMP JUMPDEST PUSH1 0x40 MLOAD DUP1 SWAP2 SUB SWAP1 RETURN JUMPDEST PUSH2 0x259 PUSH1 0x4 DUP1 CALLDATASIZE SUB DUP2 ADD SWAP1 PUSH2 0x254 SWAP2 SWAP1 PUSH2 0x2C19 JUMP JUMPDEST PUSH2 0x72E JUMP JUMPDEST STOP JUMPDEST PUSH2 0x275 PUSH1 0x4 DUP1 CALLDATASIZE SUB DUP2 ADD SWAP1 PUSH2 0x270 SWAP2 SWAP1 PUSH2 0x2A0F JUMP JUMPDEST PUSH2 0xA1E JUMP JUMPDEST STOP JUMPDEST PUSH2 0x27F PUSH2 0xD89 JUMP JUMPDEST PUSH1 0x40 MLOAD PUSH2 0x28C SWAP2 SWAP1 PUSH2 0x2BA6 JUMP JUMPDEST PUSH1 0x40 MLOAD DUP1 SWAP2 SUB SWAP1 RETURN JUMPDEST PUSH2 0x2AF PUSH1 0x4 DUP1 CALLDATASIZE SUB DUP2 ADD SWAP1 PUSH2 0x2AA SWAP2 SWAP1 PUSH2 0x2A0F JUMP JUMPDEST PUSH2 0xD9C JUMP JUMPDEST PUSH1 0x40 MLOAD PUSH2 0x2BC SWAP2 SWAP1 PUSH2 0x2BA6 JUMP JUMPDEST PUSH1 0x40 MLOAD DUP1 SWAP2 SUB SWAP1 RETURN JUMPDEST PUSH2 0x2CD PUSH2 0xDC6 JUMP JUMPDEST PUSH1 0x40 MLOAD PUSH2 0x2DA SWAP2 SWAP1 PUSH2 0x2C8F JUMP JUMPDEST PUSH1 0x40 MLOAD DUP1 SWAP2 SUB SWAP1 RETURN JUMPDEST PUSH2 0x2FD PUSH1 0x4 DUP1 CALLDATASIZE SUB DUP2 ADD SWAP1 PUSH2 0x2F8 SWAP2 SWAP1 PUSH2 0x2A0F JUMP JUMPDEST PUSH2 0xDEA JUMP JUMPDEST PUSH1 0x40 MLOAD PUSH2 0x30A SWAP2 SWAP1 PUSH2 0x2C8F JUMP JUMPDEST PUSH1 0x40 MLOAD DUP1 SWAP2 SUB SWAP1 RETURN JUMPDEST PUSH2 0x32D PUSH1 0x4 DUP1 CALLDATASIZE SUB DUP2 ADD SWAP1 PUSH2 0x328 SWAP2 SWAP1 PUSH2 0x2CAA JUMP JUMPDEST PUSH2 0xE0A JUMP JUMPDEST STOP JUMPDEST PUSH2 0x349 PUSH1 0x4 DUP1 CALLDATASIZE SUB DUP2 ADD SWAP1 PUSH2 0x344 SWAP2 SWAP1 PUSH2 0x2CAA JUMP JUMPDEST PUSH2 0xE2C JUMP JUMPDEST STOP JUMPDEST PUSH2 0x353 PUSH2 0xEA7 JUMP JUMPDEST STOP JUMPDEST PUSH2 0x36F PUSH1 0x4 DUP1 CALLDATASIZE SUB DUP2 ADD SWAP1 PUSH2 0x36A SWAP2 SWAP1 PUSH2 0x2D4F JUMP JUMPDEST PUSH2 0xEDC JUMP JUMPDEST STOP JUMPDEST PUSH2 0x379 PUSH2 0x1237 JUMP JUMPDEST PUSH1 0x40 MLOAD PUSH2 0x386 SWAP2 SWAP1 PUSH2 0x2BA6 JUMP JUMPDEST PUSH1 0x40 MLOAD DUP1 SWAP2 SUB SWAP1 RETURN JUMPDEST PUSH2 0x3A9 PUSH1 0x4 DUP1 CALLDATASIZE SUB DUP2 ADD SWAP1 PUSH2 0x3A4 SWAP2 SWAP1 PUSH2 0x2DD7 JUMP JUMPDEST PUSH2 0x124E JUMP JUMPDEST STOP JUMPDEST PUSH2 0x3B3 PUSH2 0x13F5 JUMP JUMPDEST STOP JUMPDEST PUSH2 0x3CF PUSH1 0x4 DUP1 CALLDATASIZE SUB DUP2 ADD SWAP1 PUSH2 0x3CA SWAP2 SWAP1 PUSH2 0x2CAA JUMP JUMPDEST PUSH2 0x142A JUMP JUMPDEST PUSH1 0x40 MLOAD PUSH2 0x3DC SWAP2 SWAP1 PUSH2 0x2BA6 JUMP JUMPDEST PUSH1 0x40 MLOAD DUP1 SWAP2 SUB SWAP1 RETURN JUMPDEST PUSH2 0x3ED PUSH2 0x1495 JUMP JUMPDEST PUSH1 0x40 MLOAD PUSH2 0x3FA SWAP2 SWAP1 PUSH2 0x2C8F JUMP JUMPDEST PUSH1 0x40 MLOAD DUP1 SWAP2 SUB SWAP1 RETURN JUMPDEST PUSH2 0x41D PUSH1 0x4 DUP1 CALLDATASIZE SUB DUP2 ADD SWAP1 PUSH2 0x418 SWAP2 SWAP1 PUSH2 0x2E17 JUMP JUMPDEST PUSH2 0x14B9 JUMP JUMPDEST STOP JUMPDEST PUSH2 0x427 PUSH2 0x1626 JUMP JUMPDEST PUSH1 0x40 MLOAD PUSH2 0x434 SWAP2 SWAP1 PUSH2 0x2C8F JUMP JUMPDEST PUSH1 0x40 MLOAD DUP1 SWAP2 SUB SWAP1 RETURN JUMPDEST PUSH2 0x457 PUSH1 0x4 DUP1 CALLDATASIZE SUB DUP2 ADD SWAP1 PUSH2 0x452 SWAP2 SWAP1 PUSH2 0x2DD7 JUMP JUMPDEST PUSH2 0x162D JUMP JUMPDEST STOP JUMPDEST PUSH2 0x473 PUSH1 0x4 DUP1 CALLDATASIZE SUB DUP2 ADD SWAP1 PUSH2 0x46E SWAP2 SWAP1 PUSH2 0x2E17 JUMP JUMPDEST PUSH2 0x17D2 JUMP JUMPDEST PUSH1 0x40 MLOAD PUSH2 0x480 SWAP2 SWAP1 PUSH2 0x2E53 JUMP JUMPDEST PUSH1 0x40 MLOAD DUP1 SWAP2 SUB SWAP1 RETURN JUMPDEST PUSH2 0x4A3 PUSH1 0x4 DUP1 CALLDATASIZE SUB DUP2 ADD SWAP1 PUSH2 0x49E SWAP2 SWAP1 PUSH2 0x2A0F JUMP JUMPDEST PUSH2 0x183B JUMP JUMPDEST PUSH1 0x40 MLOAD PUSH2 0x4B0 SWAP2 SWAP1 PUSH2 0x2E53 JUMP JUMPDEST PUSH1 0x40 MLOAD DUP1 SWAP2 SUB SWAP1 RETURN JUMPDEST PUSH2 0x4C1 PUSH2 0x1878 JUMP JUMPDEST PUSH1 0x40 MLOAD PUSH2 0x4CE SWAP2 SWAP1 PUSH2 0x2E7D JUMP JUMPDEST PUSH1 0x40 MLOAD DUP1 SWAP2 SUB SWAP1 RETURN JUMPDEST PUSH2 0x4F1 PUSH1 0x4 DUP1 CALLDATASIZE SUB DUP2 ADD SWAP1 PUSH2 0x4EC SWAP2 SWAP1 PUSH2 0x2E98 JUMP JUMPDEST PUSH2 0x187E JUMP JUMPDEST STOP JUMPDEST PUSH2 0x4FB PUSH2 0x1B1B JUMP JUMPDEST PUSH1 0x40 MLOAD PUSH2 0x508 SWAP2 SWAP1 PUSH2 0x2E53 JUMP JUMPDEST PUSH1 0x40 MLOAD DUP1 SWAP2 SUB SWAP1 RETURN JUMPDEST PUSH2 0x52B PUSH1 0x4 DUP1 CALLDATASIZE SUB DUP2 ADD SWAP1 PUSH2 0x526 SWAP2 SWAP1 PUSH2 0x2CAA JUMP JUMPDEST PUSH2 0x1B41 JUMP JUMPDEST STOP JUMPDEST PUSH2 0x547 PUSH1 0x4 DUP1 CALLDATASIZE SUB DUP2 ADD SWAP1 PUSH2 0x542 SWAP2 SWAP1 PUSH2 0x2EEB JUMP JUMPDEST PUSH2 0x1B63 JUMP JUMPDEST STOP JUMPDEST PUSH2 0x563 PUSH1 0x4 DUP1 CALLDATASIZE SUB DUP2 ADD SWAP1 PUSH2 0x55E SWAP2 SWAP1 PUSH2 0x2F18 JUMP JUMPDEST PUSH2 0x1C0D JUMP JUMPDEST PUSH1 0x40 MLOAD PUSH2 0x570 SWAP2 SWAP1 PUSH2 0x2C8F JUMP JUMPDEST PUSH1 0x40 MLOAD DUP1 SWAP2 SUB SWAP1 RETURN JUMPDEST PUSH2 0x581 PUSH2 0x2338 JUMP JUMPDEST PUSH1 0x40 MLOAD PUSH2 0x58E SWAP2 SWAP1 PUSH2 0x2C8F JUMP JUMPDEST PUSH1 0x40 MLOAD DUP1 SWAP2 SUB SWAP1 RETURN JUMPDEST PUSH2 0x5B1 PUSH1 0x4 DUP1 CALLDATASIZE SUB DUP2 ADD SWAP1 PUSH2 0x5AC SWAP2 SWAP1 PUSH2 0x2A0F JUMP JUMPDEST PUSH2 0x235C JUMP JUMPDEST PUSH1 0x40 MLOAD PUSH2 0x5BE SWAP2 SWAP1 PUSH2 0x2BA6 JUMP JUMPDEST PUSH1 0x40 MLOAD DUP1 SWAP2 SUB SWAP1 RETURN JUMPDEST PUSH2 0x5CF PUSH2 0x297B JUMP JUMPDEST PUSH1 0x9 PUSH1 0x0 DUP4 DUP2 MSTORE PUSH1 0x20 ADD SWAP1 DUP2 MSTORE PUSH1 0x20 ADD PUSH1 0x0 KECCAK256 PUSH1 0x40 MLOAD DUP1 PUSH1 0x80 ADD PUSH1 0x40 MSTORE SWAP1 DUP2 PUSH1 0x0 DUP3 ADD PUSH1 0x0 SWAP1 SLOAD SWAP1 PUSH2 0x100 EXP SWAP1 DIV PUSH20 0xFFFFFFFFFFFFFFFFFFFFFFFFFFFFFFFFFFFFFFFF AND PUSH20 0xFFFFFFFFFFFFFFFFFFFFFFFFFFFFFFFFFFFFFFFF AND PUSH20 0xFFFFFFFFFFFFFFFFFFFFFFFFFFFFFFFFFFFFFFFF AND DUP2 MSTORE PUSH1 0x20 ADD PUSH1 0x1 DUP3 ADD PUSH1 0x0 SWAP1 SLOAD SWAP1 PUSH2 0x100 EXP SWAP1 DIV PUSH20 0xFFFFFFFFFFFFFFFFFFFFFFFFFFFFFFFFFFFFFFFF AND PUSH20 0xFFFFFFFFFFFFFFFFFFFFFFFFFFFFFFFFFFFFFFFF AND PUSH20 0xFFFFFFFFFFFFFFFFFFFFFFFFFFFFFFFFFFFFFFFF AND DUP2 MSTORE PUSH1 0x20 ADD PUSH1 0x2 DUP3 ADD SLOAD DUP2 MSTORE PUSH1 0x20 ADD PUSH1 0x3 DUP3 ADD SLOAD DUP2 MSTORE POP POP SWAP1 POP SWAP2 SWAP1 POP JUMP JUMPDEST PUSH1 0x0 PUSH32 0x7965DB0B00000000000000000000000000000000000000000000000000000000 PUSH28 0xFFFFFFFFFFFFFFFFFFFFFFFFFFFFFFFFFFFFFFFFFFFFFFFFFFFFFFFF NOT AND DUP3 PUSH28 0xFFFFFFFFFFFFFFFFFFFFFFFFFFFFFFFFFFFFFFFFFFFFFFFFFFFFFFFF NOT AND EQ DUP1 PUSH2 0x727 JUMPI POP PUSH2 0x726 DUP3 PUSH2 0x2386 JUMP JUMPDEST JUMPDEST SWAP1 POP SWAP2 SWAP1 POP JUMP JUMPDEST PUSH2 0x736 PUSH2 0x23F0 JUMP JUMPDEST PUSH2 0x73E PUSH2 0x2436 JUMP JUMPDEST PUSH1 0x4 PUSH1 0x0 SWAP1 SLOAD SWAP1 PUSH2 0x100 EXP SWAP1 DIV PUSH1 0xFF AND PUSH2 0x784 JUMPI PUSH1 0x40 MLOAD PUSH32 0x87138D5C00000000000000000000000000000000000000000000000000000000 DUP2 MSTORE PUSH1 0x4 ADD PUSH1 0x40 MLOAD DUP1 SWAP2 SUB SWAP1 REVERT JUMPDEST ADDRESS PUSH20 0xFFFFFFFFFFFFFFFFFFFFFFFFFFFFFFFFFFFFFFFF AND CALLER PUSH20 0xFFFFFFFFFFFFFFFFFFFFFFFFFFFFFFFFFFFFFFFF AND EQ PUSH2 0x7E9 JUMPI PUSH1 0x40 MLOAD PUSH32 0x5C427CD900000000000000000000000000000000000000000000000000000000 DUP2 MSTORE PUSH1 0x4 ADD PUSH1 0x40 MLOAD DUP1 SWAP2 SUB SWAP1 REVERT JUMPDEST PUSH1 0x0 PUSH20 0xFFFFFFFFFFFFFFFFFFFFFFFFFFFFFFFFFFFFFFFF AND DUP5 PUSH20 0xFFFFFFFFFFFFFFFFFFFFFFFFFFFFFFFFFFFFFFFF AND EQ DUP1 PUSH2 0x850 JUMPI POP PUSH1 0x0 PUSH20 0xFFFFFFFFFFFFFFFFFFFFFFFFFFFFFFFFFFFFFFFF AND DUP4 PUSH20 0xFFFFFFFFFFFFFFFFFFFFFFFFFFFFFFFFFFFFFFFF AND EQ JUMPDEST DUP1 PUSH2 0x85B JUMPI POP PUSH1 0x0 DUP3 EQ JUMPDEST ISZERO PUSH2 0x892 JUMPI PUSH1 0x40 MLOAD PUSH32 0xE6C4247B00000000000000000000000000000000000000000000000000000000 DUP2 MSTORE PUSH1 0x4 ADD PUSH1 0x40 MLOAD DUP1 SWAP2 SUB SWAP1 REVERT JUMPDEST PUSH1 0x0 DUP4 SWAP1 POP PUSH1 0x0 DUP2 PUSH20 0xFFFFFFFFFFFFFFFFFFFFFFFFFFFFFFFFFFFFFFFF AND PUSH4 0x70A08231 ADDRESS PUSH1 0x40 MLOAD DUP3 PUSH4 0xFFFFFFFF AND PUSH1 0xE0 SHL DUP2 MSTORE PUSH1 0x4 ADD PUSH2 0x8D2 SWAP2 SWAP1 PUSH2 0x2E53 JUMP JUMPDEST PUSH1 0x20 PUSH1 0x40 MLOAD DUP1 DUP4 SUB DUP2 DUP7 GAS STATICCALL ISZERO DUP1 ISZERO PUSH2 0x8EF JUMPI RETURNDATASIZE PUSH1 0x0 DUP1 RETURNDATACOPY RETURNDATASIZE PUSH1 0x0 REVERT JUMPDEST POP POP POP POP PUSH1 0x40 MLOAD RETURNDATASIZE PUSH1 0x1F NOT PUSH1 0x1F DUP3 ADD AND DUP3 ADD DUP1 PUSH1 0x40 MSTORE POP DUP2 ADD SWAP1 PUSH2 0x913 SWAP2 SWAP1 PUSH2 0x2F80 JUMP JUMPDEST SWAP1 POP DUP4 DUP2 LT ISZERO PUSH2 0x95E JUMPI DUP5 DUP5 DUP3 PUSH1 0x40 MLOAD PUSH32 0xDB42144D00000000000000000000000000000000000000000000000000000000 DUP2 MSTORE PUSH1 0x4 ADD PUSH2 0x955 SWAP4 SWAP3 SWAP2 SWAP1 PUSH2 0x2FAD JUMP JUMPDEST PUSH1 0x40 MLOAD DUP1 SWAP2 SUB SWAP1 REVERT JUMPDEST PUSH2 0x989 DUP7 DUP6 DUP5 PUSH20 0xFFFFFFFFFFFFFFFFFFFFFFFFFFFFFFFFFFFFFFFF AND PUSH2 0x2477 SWAP1 SWAP3 SWAP2 SWAP1 PUSH4 0xFFFFFFFF AND JUMP JUMPDEST PUSH1 0x0 DUP7 DUP7 DUP7 DUP7 PUSH1 0x40 MLOAD PUSH1 0x20 ADD PUSH2 0x9A2 SWAP5 SWAP4 SWAP3 SWAP2 SWAP1 PUSH2 0x304D JUMP JUMPDEST PUSH1 0x40 MLOAD PUSH1 0x20 DUP2 DUP4 SUB SUB DUP2 MSTORE SWAP1 PUSH1 0x40 MSTORE DUP1 MLOAD SWAP1 PUSH1 0x20 ADD KECCAK256 SWAP1 POP DUP7 PUSH20 0xFFFFFFFFFFFFFFFFFFFFFFFFFFFFFFFFFFFFFFFF AND DUP2 PUSH32 0x1705447C4CA6F25BC2E5DA6270D2BCFFD3FEF27675B023C5A76E075E99863699 DUP9 DUP9 DUP9 PUSH1 0x40 MLOAD PUSH2 0xA05 SWAP4 SWAP3 SWAP2 SWAP1 PUSH2 0x2FAD JUMP JUMPDEST PUSH1 0x40 MLOAD DUP1 SWAP2 SUB SWAP1 LOG3 POP POP POP PUSH2 0xA18 PUSH2 0x24F6 JUMP JUMPDEST POP POP POP POP JUMP JUMPDEST PUSH2 0xA26 PUSH2 0x2436 JUMP JUMPDEST PUSH2 0xA2E PUSH2 0x23F0 JUMP JUMPDEST PUSH32 0xE2B7FB3B832174769106DAEBCFD6D1970523240DDA11281102DB9363B83B0DC4 PUSH2 0xA58 DUP2 PUSH2 0x2500 JUMP JUMPDEST PUSH1 0x4 PUSH1 0x0 SWAP1 SLOAD SWAP1 PUSH2 0x100 EXP SWAP1 DIV PUSH1 0xFF AND PUSH2 0xA9E JUMPI PUSH1 0x40 MLOAD PUSH32 0x87138D5C00000000000000000000000000000000000000000000000000000000 DUP2 MSTORE PUSH1 0x4 ADD PUSH1 0x40 MLOAD DUP1 SWAP2 SUB SWAP1 REVERT JUMPDEST PUSH1 0xA PUSH1 0x0 DUP4 DUP2 MSTORE PUSH1 0x20 ADD SWAP1 DUP2 MSTORE PUSH1 0x20 ADD PUSH1 0x0 KECCAK256 PUSH1 0x0 SWAP1 SLOAD SWAP1 PUSH2 0x100 EXP SWAP1 DIV PUSH1 0xFF AND ISZERO PUSH2 0xB01 JUMPI DUP2 PUSH1 0x40 MLOAD PUSH32 0x4BB3DCBF00000000000000000000000000000000000000000000000000000000 DUP2 MSTORE PUSH1 0x4 ADD PUSH2 0xAF8 SWAP2 SWAP1 PUSH2 0x2C8F JUMP JUMPDEST PUSH1 0x40 MLOAD DUP1 SWAP2 SUB SWAP1 REVERT JUMPDEST PUSH1 0x0 PUSH20 0xFFFFFFFFFFFFFFFFFFFFFFFFFFFFFFFFFFFFFFFF AND PUSH1 0x9 PUSH1 0x0 DUP5 DUP2 MSTORE PUSH1 0x20 ADD SWAP1 DUP2 MSTORE PUSH1 0x20 ADD PUSH1 0x0 KECCAK256 PUSH1 0x0 ADD PUSH1 0x0 SWAP1 SLOAD SWAP1 PUSH2 0x100 EXP SWAP1 DIV PUSH20 0xFFFFFFFFFFFFFFFFFFFFFFFFFFFFFFFFFFFFFFFF AND PUSH20 0xFFFFFFFFFFFFFFFFFFFFFFFFFFFFFFFFFFFFFFFF AND SUB PUSH2 0xBA8 JUMPI DUP2 PUSH1 0x40 MLOAD PUSH32 0x5D803CCA00000000000000000000000000000000000000000000000000000000 DUP2 MSTORE PUSH1 0x4 ADD PUSH2 0xB9F SWAP2 SWAP1 PUSH2 0x2C8F JUMP JUMPDEST PUSH1 0x40 MLOAD DUP1 SWAP2 SUB SWAP1 REVERT JUMPDEST PUSH1 0x0 PUSH1 0x9 PUSH1 0x0 DUP5 DUP2 MSTORE PUSH1 0x20 ADD SWAP1 DUP2 MSTORE PUSH1 0x20 ADD PUSH1 0x0 KECCAK256 PUSH1 0x40 MLOAD DUP1 PUSH1 0x80 ADD PUSH1 0x40 MSTORE SWAP1 DUP2 PUSH1 0x0 DUP3 ADD PUSH1 0x0 SWAP1 SLOAD SWAP1 PUSH2 0x100 EXP SWAP1 DIV PUSH20 0xFFFFFFFFFFFFFFFFFFFFFFFFFFFFFFFFFFFFFFFF AND PUSH20 0xFFFFFFFFFFFFFFFFFFFFFFFFFFFFFFFFFFFFFFFF AND PUSH20 0xFFFFFFFFFFFFFFFFFFFFFFFFFFFFFFFFFFFFFFFF AND DUP2 MSTORE PUSH1 0x20 ADD PUSH1 0x1 DUP3 ADD PUSH1 0x0 SWAP1 SLOAD SWAP1 PUSH2 0x100 EXP SWAP1 DIV PUSH20 0xFFFFFFFFFFFFFFFFFFFFFFFFFFFFFFFFFFFFFFFF AND PUSH20 0xFFFFFFFFFFFFFFFFFFFFFFFFFFFFFFFFFFFFFFFF AND PUSH20 0xFFFFFFFFFFFFFFFFFFFFFFFFFFFFFFFFFFFFFFFF AND DUP2 MSTORE PUSH1 0x20 ADD PUSH1 0x2 DUP3 ADD SLOAD DUP2 MSTORE PUSH1 0x20 ADD PUSH1 0x3 DUP3 ADD SLOAD DUP2 MSTORE POP POP SWAP1 POP PUSH1 0x1 PUSH1 0xA PUSH1 0x0 DUP6 DUP2 MSTORE PUSH1 0x20 ADD SWAP1 DUP2 MSTORE PUSH1 0x20 ADD PUSH1 0x0 KECCAK256 PUSH1 0x0 PUSH2 0x100 EXP DUP2 SLOAD DUP2 PUSH1 0xFF MUL NOT AND SWAP1 DUP4 ISZERO ISZERO MUL OR SWAP1 SSTORE POP PUSH2 0xD1F DUP2 PUSH1 0x0 ADD MLOAD DUP3 PUSH1 0x40 ADD MLOAD PUSH1 0x9 PUSH1 0x0 DUP8 DUP2 MSTORE PUSH1 0x20 ADD SWAP1 DUP2 MSTORE PUSH1 0x20 ADD PUSH1 0x0 KECCAK256 PUSH1 0x1 ADD PUSH1 0x0 SWAP1 SLOAD SWAP1 PUSH2 0x100 EXP SWAP1 DIV PUSH20 0xFFFFFFFFFFFFFFFFFFFFFFFFFFFFFFFFFFFFFFFF AND PUSH20 0xFFFFFFFFFFFFFFFFFFFFFFFFFFFFFFFFFFFFFFFF AND PUSH2 0x2477 SWAP1 SWAP3 SWAP2 SWAP1 PUSH4 0xFFFFFFFF AND JUMP JUMPDEST DUP1 PUSH1 0x0 ADD MLOAD PUSH20 0xFFFFFFFFFFFFFFFFFFFFFFFFFFFFFFFFFFFFFFFF AND DUP4 PUSH32 0x7B5483B8E4BD8EA240A474D5117738350E7D431E3668C48A97910B0B397796A DUP4 PUSH1 0x20 ADD MLOAD DUP5 PUSH1 0x40 ADD MLOAD PUSH1 0x40 MLOAD PUSH2 0xD74 SWAP3 SWAP2 SWAP1 PUSH2 0x309B JUMP JUMPDEST PUSH1 0x40 MLOAD DUP1 SWAP2 SUB SWAP1 LOG3 POP POP PUSH2 0xD86 PUSH2 0x24F6 JUMP JUMPDEST POP JUMP JUMPDEST PUSH1 0x4 PUSH1 0x0 SWAP1 SLOAD SWAP1 PUSH2 0x100 EXP SWAP1 DIV PUSH1 0xFF AND DUP2 JUMP JUMPDEST PUSH1 0x0 PUSH1 0x7 PUSH1 0x0 DUP4 DUP2 MSTORE PUSH1 0x20 ADD SWAP1 DUP2 MSTORE PUSH1 0x20 ADD PUSH1 0x0 KECCAK256 PUSH1 0x0 SWAP1 SLOAD SWAP1 PUSH2 0x100 EXP SWAP1 DIV PUSH1 0xFF AND SWAP1 POP SWAP2 SWAP1 POP JUMP JUMPDEST PUSH32 0xBF233DD2AAFEB4D50879C4AA5C81E96D92F6E6945C906A58F9F2D1C1631B4B26 DUP2 JUMP JUMPDEST PUSH1 0x0 PUSH1 0x1 PUSH1 0x0 DUP4 DUP2 MSTORE PUSH1 0x20 ADD SWAP1 DUP2 MSTORE PUSH1 0x20 ADD PUSH1 0x0 KECCAK256 PUSH1 0x1 ADD SLOAD SWAP1 POP SWAP2 SWAP1 POP JUMP JUMPDEST PUSH2 0xE13 DUP3 PUSH2 0xDEA JUMP JUMPDEST PUSH2 0xE1C DUP2 PUSH2 0x2500 JUMP JUMPDEST PUSH2 0xE26 DUP4 DUP4 PUSH2 0x2514 JUMP JUMPDEST POP POP POP POP JUMP JUMPDEST PUSH2 0xE34 PUSH2 0x2605 JUMP JUMPDEST PUSH20 0xFFFFFFFFFFFFFFFFFFFFFFFFFFFFFFFFFFFFFFFF AND DUP2 PUSH20 0xFFFFFFFFFFFFFFFFFFFFFFFFFFFFFFFFFFFFFFFF AND EQ PUSH2 0xE98 JUMPI PUSH1 0x40 MLOAD PUSH32 0x6697B23200000000000000000000000000000000000000000000000000000000 DUP2 MSTORE PUSH1 0x4 ADD PUSH1 0x40 MLOAD DUP1 SWAP2 SUB SWAP1 REVERT JUMPDEST PUSH2 0xEA2 DUP3 DUP3 PUSH2 0x260D JUMP JUMPDEST POP POP POP JUMP JUMPDEST PUSH32 0xBF233DD2AAFEB4D50879C4AA5C81E96D92F6E6945C906A58F9F2D1C1631B4B26 PUSH2 0xED1 DUP2 PUSH2 0x2500 JUMP JUMPDEST PUSH2 0xED9 PUSH2 0x2700 JUMP JUMPDEST POP JUMP JUMPDEST PUSH2 0xEE4 PUSH2 0x2436 JUMP JUMPDEST PUSH32 0xE2B7FB3B832174769106DAEBCFD6D1970523240DDA11281102DB9363B83B0DC4 PUSH2 0xF0E DUP2 PUSH2 0x2500 JUMP JUMPDEST PUSH1 0x4 PUSH1 0x0 SWAP1 SLOAD SWAP1 PUSH2 0x100 EXP SWAP1 DIV PUSH1 0xFF AND PUSH2 0xF54 JUMPI PUSH1 0x40 MLOAD PUSH32 0x87138D5C00000000000000000000000000000000000000000000000000000000 DUP2 MSTORE PUSH1 0x4 ADD PUSH1 0x40 MLOAD DUP1 SWAP2 SUB SWAP1 REVERT JUMPDEST PUSH1 0x2 PUSH1 0x1 SWAP1 SLOAD SWAP1 PUSH2 0x100 EXP SWAP1 DIV PUSH20 0xFFFFFFFFFFFFFFFFFFFFFFFFFFFFFFFFFFFFFFFF AND PUSH20 0xFFFFFFFFFFFFFFFFFFFFFFFFFFFFFFFFFFFFFFFF AND DUP6 PUSH20 0xFFFFFFFFFFFFFFFFFFFFFFFFFFFFFFFFFFFFFFFF AND EQ PUSH2 0xFDB JUMPI PUSH1 0x40 MLOAD PUSH32 0x7FEE69A100000000000000000000000000000000000000000000000000000000 DUP2 MSTORE PUSH1 0x4 ADD PUSH1 0x40 MLOAD DUP1 SWAP2 SUB SWAP1 REVERT JUMPDEST ADDRESS PUSH20 0xFFFFFFFFFFFFFFFFFFFFFFFFFFFFFFFFFFFFFFFF AND DUP5 PUSH20 0xFFFFFFFFFFFFFFFFFFFFFFFFFFFFFFFFFFFFFFFF AND EQ PUSH2 0x1040 JUMPI PUSH1 0x40 MLOAD PUSH32 0x82D5D76A00000000000000000000000000000000000000000000000000000000 DUP2 MSTORE PUSH1 0x4 ADD PUSH1 0x40 MLOAD DUP1 SWAP2 SUB SWAP1 REVERT JUMPDEST PUSH1 0x7 PUSH1 0x0 DUP8 DUP2 MSTORE PUSH1 0x20 ADD SWAP1 DUP2 MSTORE PUSH1 0x20 ADD PUSH1 0x0 KECCAK256 PUSH1 0x0 SWAP1 SLOAD SWAP1 PUSH2 0x100 EXP SWAP1 DIV PUSH1 0xFF AND ISZERO PUSH2 0x10A3 JUMPI DUP6 PUSH1 0x40 MLOAD PUSH32 0x730AC1E200000000000000000000000000000000000000000000000000000000 DUP2 MSTORE PUSH1 0x4 ADD PUSH2 0x109A SWAP2 SWAP1 PUSH2 0x2C8F JUMP JUMPDEST PUSH1 0x40 MLOAD DUP1 SWAP2 SUB SWAP1 REVERT JUMPDEST PUSH1 0x1 PUSH1 0x7 PUSH1 0x0 DUP9 DUP2 MSTORE PUSH1 0x20 ADD SWAP1 DUP2 MSTORE PUSH1 0x20 ADD PUSH1 0x0 KECCAK256 PUSH1 0x0 PUSH2 0x100 EXP DUP2 SLOAD DUP2 PUSH1 0xFF MUL NOT AND SWAP1 DUP4 ISZERO ISZERO MUL OR SWAP1 SSTORE POP PUSH1 0x0 DUP1 ADDRESS PUSH20 0xFFFFFFFFFFFFFFFFFFFFFFFFFFFFFFFFFFFFFFFF AND DUP6 DUP6 PUSH1 0x40 MLOAD PUSH2 0x10F9 SWAP3 SWAP2 SWAP1 PUSH2 0x3103 JUMP JUMPDEST PUSH1 0x0 PUSH1 0x40 MLOAD DUP1 DUP4 SUB DUP2 PUSH1 0x0 DUP7 GAS CALL SWAP2 POP POP RETURNDATASIZE DUP1 PUSH1 0x0 DUP2 EQ PUSH2 0x1136 JUMPI PUSH1 0x40 MLOAD SWAP2 POP PUSH1 0x1F NOT PUSH1 0x3F RETURNDATASIZE ADD AND DUP3 ADD PUSH1 0x40 MSTORE RETURNDATASIZE DUP3 MSTORE RETURNDATASIZE PUSH1 0x0 PUSH1 0x20 DUP5 ADD RETURNDATACOPY PUSH2 0x113B JUMP JUMPDEST PUSH1 0x60 SWAP2 POP JUMPDEST POP SWAP2 POP SWAP2 POP DUP2 PUSH2 0x1189 JUMPI PUSH1 0x0 DUP2 MLOAD GT ISZERO PUSH2 0x1157 JUMPI DUP1 MLOAD PUSH1 0x20 DUP3 ADD REVERT JUMPDEST PUSH1 0x40 MLOAD PUSH32 0xACFDB44400000000000000000000000000000000000000000000000000000000 DUP2 MSTORE PUSH1 0x4 ADD PUSH1 0x40 MLOAD DUP1 SWAP2 SUB SWAP1 REVERT JUMPDEST DUP6 PUSH20 0xFFFFFFFFFFFFFFFFFFFFFFFFFFFFFFFFFFFFFFFF AND DUP8 PUSH20 0xFFFFFFFFFFFFFFFFFFFFFFFFFFFFFFFFFFFFFFFF AND DUP10 PUSH32 0xAE7333F737C1A470CC349EC73A22EB150CAF01DD73B27E6542E556901057D1C8 DUP9 DUP9 PUSH1 0x5 SLOAD PUSH1 0x40 MLOAD PUSH2 0x11ED SWAP4 SWAP3 SWAP2 SWAP1 PUSH2 0x316B JUMP JUMPDEST PUSH1 0x40 MLOAD DUP1 SWAP2 SUB SWAP1 LOG4 DUP8 PUSH32 0xCE1682F5002E4561CC52EE288E67110A7E66071F7F158D4C146BC35616EDDEAB DUP4 PUSH1 0x40 MLOAD PUSH2 0x1225 SWAP2 SWAP1 PUSH2 0x2BA6 JUMP JUMPDEST PUSH1 0x40 MLOAD DUP1 SWAP2 SUB SWAP1 LOG2 POP POP POP POP POP POP POP POP JUMP JUMPDEST PUSH1 0x0 PUSH1 0x2 PUSH1 0x0 SWAP1 SLOAD SWAP1 PUSH2 0x100 EXP SWAP1 DIV PUSH1 0xFF AND SWAP1 POP SWAP1 JUMP JUMPDEST PUSH1 0x0 DUP1 SHL PUSH2 0x125B DUP2 PUSH2 0x2500 JUMP JUMPDEST PUSH2 0x1263 PUSH2 0x23F0 JUMP JUMPDEST PUSH1 0x0 PUSH20 0xFFFFFFFFFFFFFFFFFFFFFFFFFFFFFFFFFFFFFFFF AND DUP3 PUSH20 0xFFFFFFFFFFFFFFFFFFFFFFFFFFFFFFFFFFFFFFFF AND SUB PUSH2 0x12C9 JUMPI PUSH1 0x40 MLOAD PUSH32 0xE6C4247B00000000000000000000000000000000000000000000000000000000 DUP2 MSTORE PUSH1 0x4 ADD PUSH1 0x40 MLOAD DUP1 SWAP2 SUB SWAP1 REVERT JUMPDEST PUSH1 0x0 DUP4 SWAP1 POP PUSH1 0x0 DUP2 PUSH20 0xFFFFFFFFFFFFFFFFFFFFFFFFFFFFFFFFFFFFFFFF AND PUSH4 0x70A08231 ADDRESS PUSH1 0x40 MLOAD DUP3 PUSH4 0xFFFFFFFF AND PUSH1 0xE0 SHL DUP2 MSTORE PUSH1 0x4 ADD PUSH2 0x1309 SWAP2 SWAP1 PUSH2 0x2E53 JUMP JUMPDEST PUSH1 0x20 PUSH1 0x40 MLOAD DUP1 DUP4 SUB DUP2 DUP7 GAS STATICCALL ISZERO DUP1 ISZERO PUSH2 0x1326 JUMPI RETURNDATASIZE PUSH1 0x0 DUP1 RETURNDATACOPY RETURNDATASIZE PUSH1 0x0 REVERT JUMPDEST POP POP POP POP PUSH1 0x40 MLOAD RETURNDATASIZE PUSH1 0x1F NOT PUSH1 0x1F DUP3 ADD AND DUP3 ADD DUP1 PUSH1 0x40 MSTORE POP DUP2 ADD SWAP1 PUSH2 0x134A SWAP2 SWAP1 PUSH2 0x2F80 JUMP JUMPDEST SWAP1 POP PUSH1 0x0 DUP2 GT ISZERO PUSH2 0x13E6 JUMPI PUSH2 0x1380 DUP5 DUP3 DUP5 PUSH20 0xFFFFFFFFFFFFFFFFFFFFFFFFFFFFFFFFFFFFFFFF AND PUSH2 0x2477 SWAP1 SWAP3 SWAP2 SWAP1 PUSH4 0xFFFFFFFF AND JUMP JUMPDEST DUP4 PUSH20 0xFFFFFFFFFFFFFFFFFFFFFFFFFFFFFFFFFFFFFFFF AND DUP6 PUSH20 0xFFFFFFFFFFFFFFFFFFFFFFFFFFFFFFFFFFFFFFFF AND PUSH32 0xA86305ABC2DB271DF4609AA86A8D044BC11FB36939841BFDAD6C1AB2B26E9471 DUP4 PUSH1 0x40 MLOAD PUSH2 0x13DD SWAP2 SWAP1 PUSH2 0x2E7D JUMP JUMPDEST PUSH1 0x40 MLOAD DUP1 SWAP2 SUB SWAP1 LOG3 JUMPDEST POP POP PUSH2 0x13F0 PUSH2 0x24F6 JUMP JUMPDEST POP POP POP JUMP JUMPDEST PUSH32 0xBF233DD2AAFEB4D50879C4AA5C81E96D92F6E6945C906A58F9F2D1C1631B4B26 PUSH2 0x141F DUP2 PUSH2 0x2500 JUMP JUMPDEST PUSH2 0x1427 PUSH2 0x2763 JUMP JUMPDEST POP JUMP JUMPDEST PUSH1 0x0 PUSH1 0x1 PUSH1 0x0 DUP5 DUP2 MSTORE PUSH1 0x20 ADD SWAP1 DUP2 MSTORE PUSH1 0x20 ADD PUSH1 0x0 KECCAK256 PUSH1 0x0 ADD PUSH1 0x0 DUP4 PUSH20 0xFFFFFFFFFFFFFFFFFFFFFFFFFFFFFFFFFFFFFFFF AND PUSH20 0xFFFFFFFFFFFFFFFFFFFFFFFFFFFFFFFFFFFFFFFF AND DUP2 MSTORE PUSH1 0x20 ADD SWAP1 DUP2 MSTORE PUSH1 0x20 ADD PUSH1 0x0 KECCAK256 PUSH1 0x0 SWAP1 SLOAD SWAP1 PUSH2 0x100 EXP SWAP1 DIV PUSH1 0xFF AND SWAP1 POP SWAP3 SWAP2 POP POP JUMP JUMPDEST PUSH32 0xE2B7FB3B832174769106DAEBCFD6D1970523240DDA11281102DB9363B83B0DC4 DUP2 JUMP JUMPDEST PUSH1 0x0 DUP1 SHL PUSH2 0x14C6 DUP2 PUSH2 0x2500 JUMP JUMPDEST PUSH1 0x0 PUSH20 0xFFFFFFFFFFFFFFFFFFFFFFFFFFFFFFFFFFFFFFFF AND DUP3 PUSH20 0xFFFFFFFFFFFFFFFFFFFFFFFFFFFFFFFFFFFFFFFF AND EQ DUP1 ISZERO PUSH2 0x154F JUMPI POP PUSH1 0x2 PUSH1 0x1 SWAP1 SLOAD SWAP1 PUSH2 0x100 EXP SWAP1 DIV PUSH20 0xFFFFFFFFFFFFFFFFFFFFFFFFFFFFFFFFFFFFFFFF AND PUSH20 0xFFFFFFFFFFFFFFFFFFFFFFFFFFFFFFFFFFFFFFFF AND DUP3 PUSH20 0xFFFFFFFFFFFFFFFFFFFFFFFFFFFFFFFFFFFFFFFF AND EQ JUMPDEST ISZERO PUSH2 0x1586 JUMPI PUSH1 0x40 MLOAD PUSH32 0xE6C4247B00000000000000000000000000000000000000000000000000000000 DUP2 MSTORE PUSH1 0x4 ADD PUSH1 0x40 MLOAD DUP1 SWAP2 SUB SWAP1 REVERT JUMPDEST DUP2 PUSH1 0x2 PUSH1 0x1 PUSH2 0x100 EXP DUP2 SLOAD DUP2 PUSH20 0xFFFFFFFFFFFFFFFFFFFFFFFFFFFFFFFFFFFFFFFF MUL NOT AND SWAP1 DUP4 PUSH20 0xFFFFFFFFFFFFFFFFFFFFFFFFFFFFFFFFFFFFFFFF AND MUL OR SWAP1 SSTORE POP PUSH32 0xFE8CCEF60B912ABAE67BC91EFD3AC94AB9CF0DD5C8E49E930EC0AD3ECD42298A PUSH1 0x2 PUSH1 0x1 SWAP1 SLOAD SWAP1 PUSH2 0x100 EXP SWAP1 DIV PUSH20 0xFFFFFFFFFFFFFFFFFFFFFFFFFFFFFFFFFFFFFFFF AND DUP4 PUSH1 0x40 MLOAD PUSH2 0x161A SWAP3 SWAP2 SWAP1 PUSH2 0x319D JUMP JUMPDEST PUSH1 0x40 MLOAD DUP1 SWAP2 SUB SWAP1 LOG1 POP POP JUMP JUMPDEST PUSH1 0x0 DUP1 SHL DUP2 JUMP JUMPDEST PUSH32 0x97667070C54EF182B0F5858B034BEAC1B6F3089AA2D3188BB1E8929F4FA9B929 PUSH2 0x1657 DUP2 PUSH2 0x2500 JUMP JUMPDEST PUSH1 0x0 PUSH20 0xFFFFFFFFFFFFFFFFFFFFFFFFFFFFFFFFFFFFFFFF AND DUP4 PUSH20 0xFFFFFFFFFFFFFFFFFFFFFFFFFFFFFFFFFFFFFFFF AND EQ DUP1 PUSH2 0x16BE JUMPI POP PUSH1 0x0 PUSH20 0xFFFFFFFFFFFFFFFFFFFFFFFFFFFFFFFFFFFFFFFF AND DUP3 PUSH20 0xFFFFFFFFFFFFFFFFFFFFFFFFFFFFFFFFFFFFFFFF AND EQ JUMPDEST ISZERO PUSH2 0x16F5 JUMPI PUSH1 0x40 MLOAD PUSH32 0xE6C4247B00000000000000000000000000000000000000000000000000000000 DUP2 MSTORE PUSH1 0x4 ADD PUSH1 0x40 MLOAD DUP1 SWAP2 SUB SWAP1 REVERT JUMPDEST DUP2 PUSH1 0x6 PUSH1 0x0 DUP6 PUSH20 0xFFFFFFFFFFFFFFFFFFFFFFFFFFFFFFFFFFFFFFFF AND PUSH20 0xFFFFFFFFFFFFFFFFFFFFFFFFFFFFFFFFFFFFFFFF AND DUP2 MSTORE PUSH1 0x20 ADD SWAP1 DUP2 MSTORE PUSH1 0x20 ADD PUSH1 0x0 KECCAK256 PUSH1 0x0 PUSH2 0x100 EXP DUP2 SLOAD DUP2 PUSH20 0xFFFFFFFFFFFFFFFFFFFFFFFFFFFFFFFFFFFFFFFF MUL NOT AND SWAP1 DUP4 PUSH20 0xFFFFFFFFFFFFFFFFFFFFFFFFFFFFFFFFFFFFFFFF AND MUL OR SWAP1 SSTORE POP DUP2 PUSH20 0xFFFFFFFFFFFFFFFFFFFFFFFFFFFFFFFFFFFFFFFF AND DUP4 PUSH20 0xFFFFFFFFFFFFFFFFFFFFFFFFFFFFFFFFFFFFFFFF AND PUSH32 0xBBAC15B41BDA0CCEC6E5A6D3F3E149D5D3ACFFE7913B82E5DF6CAF2194D8ACF5 PUSH1 0x40 MLOAD PUSH1 0x40 MLOAD DUP1 SWAP2 SUB SWAP1 LOG3 POP POP POP JUMP JUMPDEST PUSH1 0x0 PUSH1 0x6 PUSH1 0x0 DUP4 PUSH20 0xFFFFFFFFFFFFFFFFFFFFFFFFFFFFFFFFFFFFFFFF AND PUSH20 0xFFFFFFFFFFFFFFFFFFFFFFFFFFFFFFFFFFFFFFFF AND DUP2 MSTORE PUSH1 0x20 ADD SWAP1 DUP2 MSTORE PUSH1 0x20 ADD PUSH1 0x0 KECCAK256 PUSH1 0x0 SWAP1 SLOAD SWAP1 PUSH2 0x100 EXP SWAP1 DIV PUSH20 0xFFFFFFFFFFFFFFFFFFFFFFFFFFFFFFFFFFFFFFFF AND SWAP1 POP SWAP2 SWAP1 POP JUMP JUMPDEST PUSH1 0x0 PUSH1 0x8 PUSH1 0x0 DUP4 DUP2 MSTORE PUSH1 0x20 ADD SWAP1 DUP2 MSTORE PUSH1 0x20 ADD PUSH1 0x0 KECCAK256 PUSH1 0x0 SWAP1 SLOAD SWAP1 PUSH2 0x100 EXP SWAP1 DIV PUSH20 0xFFFFFFFFFFFFFFFFFFFFFFFFFFFFFFFFFFFFFFFF AND SWAP1 POP SWAP2 SWAP1 POP JUMP JUMPDEST PUSH1 0x3 SLOAD DUP2 JUMP JUMPDEST PUSH1 0x0 DUP1 SHL PUSH2 0x188B DUP2 PUSH2 0x2500 JUMP JUMPDEST PUSH1 0x4 PUSH1 0x0 SWAP1 SLOAD SWAP1 PUSH2 0x100 EXP SWAP1 DIV PUSH1 0xFF AND ISZERO PUSH2 0x18D2 JUMPI PUSH1 0x40 MLOAD PUSH32 0x87138D5C00000000000000000000000000000000000000000000000000000000 DUP2 MSTORE PUSH1 0x4 ADD PUSH1 0x40 MLOAD DUP1 SWAP2 SUB SWAP1 REVERT JUMPDEST PUSH1 0x0 PUSH20 0xFFFFFFFFFFFFFFFFFFFFFFFFFFFFFFFFFFFFFFFF AND DUP5 PUSH20 0xFFFFFFFFFFFFFFFFFFFFFFFFFFFFFFFFFFFFFFFF AND EQ DUP1 PUSH2 0x1939 JUMPI POP PUSH1 0x0 PUSH20 0xFFFFFFFFFFFFFFFFFFFFFFFFFFFFFFFFFFFFFFFF AND DUP4 PUSH20 0xFFFFFFFFFFFFFFFFFFFFFFFFFFFFFFFFFFFFFFFF AND EQ JUMPDEST DUP1 PUSH2 0x1970 JUMPI POP PUSH1 0x0 PUSH20 0xFFFFFFFFFFFFFFFFFFFFFFFFFFFFFFFFFFFFFFFF AND DUP3 PUSH20 0xFFFFFFFFFFFFFFFFFFFFFFFFFFFFFFFFFFFFFFFF AND EQ JUMPDEST ISZERO PUSH2 0x19A7 JUMPI PUSH1 0x40 MLOAD PUSH32 0xE6C4247B00000000000000000000000000000000000000000000000000000000 DUP2 MSTORE PUSH1 0x4 ADD PUSH1 0x40 MLOAD DUP1 SWAP2 SUB SWAP1 REVERT JUMPDEST DUP4 PUSH1 0x2 PUSH1 0x1 PUSH2 0x100 EXP DUP2 SLOAD DUP2 PUSH20 0xFFFFFFFFFFFFFFFFFFFFFFFFFFFFFFFFFFFFFFFF MUL NOT AND SWAP1 DUP4 PUSH20 0xFFFFFFFFFFFFFFFFFFFFFFFFFFFFFFFFFFFFFFFF AND MUL OR SWAP1 SSTORE POP DUP2 PUSH1 0x6 PUSH1 0x0 DUP6 PUSH20 0xFFFFFFFFFFFFFFFFFFFFFFFFFFFFFFFFFFFFFFFF AND PUSH20 0xFFFFFFFFFFFFFFFFFFFFFFFFFFFFFFFFFFFFFFFF AND DUP2 MSTORE PUSH1 0x20 ADD SWAP1 DUP2 MSTORE PUSH1 0x20 ADD PUSH1 0x0 KECCAK256 PUSH1 0x0 PUSH2 0x100 EXP DUP2 SLOAD DUP2 PUSH20 0xFFFFFFFFFFFFFFFFFFFFFFFFFFFFFFFFFFFFFFFF MUL NOT AND SWAP1 DUP4 PUSH20 0xFFFFFFFFFFFFFFFFFFFFFFFFFFFFFFFFFFFFFFFF AND MUL OR SWAP1 SSTORE POP PUSH1 0x1 PUSH1 0x4 PUSH1 0x0 PUSH2 0x100 EXP DUP2 SLOAD DUP2 PUSH1 0xFF MUL NOT AND SWAP1 DUP4 ISZERO ISZERO MUL OR SWAP1 SSTORE POP PUSH32 0xFE8CCEF60B912ABAE67BC91EFD3AC94AB9CF0DD5C8E49E930EC0AD3ECD42298A PUSH1 0x0 DUP6 PUSH1 0x40 MLOAD PUSH2 0x1AB3 SWAP3 SWAP2 SWAP1 PUSH2 0x319D JUMP JUMPDEST PUSH1 0x40 MLOAD DUP1 SWAP2 SUB SWAP1 LOG1 DUP2 PUSH20 0xFFFFFFFFFFFFFFFFFFFFFFFFFFFFFFFFFFFFFFFF AND DUP4 PUSH20 0xFFFFFFFFFFFFFFFFFFFFFFFFFFFFFFFFFFFFFFFF AND PUSH32 0xBBAC15B41BDA0CCEC6E5A6D3F3E149D5D3ACFFE7913B82E5DF6CAF2194D8ACF5 PUSH1 0x40 MLOAD PUSH1 0x40 MLOAD DUP1 SWAP2 SUB SWAP1 LOG3 POP POP POP POP JUMP JUMPDEST PUSH1 0x2 PUSH1 0x1 SWAP1 SLOAD SWAP1 PUSH2 0x100 EXP SWAP1 DIV PUSH20 0xFFFFFFFFFFFFFFFFFFFFFFFFFFFFFFFFFFFFFFFF AND DUP2 JUMP JUMPDEST PUSH2 0x1B4A DUP3 PUSH2 0xDEA JUMP JUMPDEST PUSH2 0x1B53 DUP2 PUSH2 0x2500 JUMP JUMPDEST PUSH2 0x1B5D DUP4 DUP4 PUSH2 0x260D JUMP JUMPDEST POP POP POP POP JUMP JUMPDEST PUSH32 0x97667070C54EF182B0F5858B034BEAC1B6F3089AA2D3188BB1E8929F4FA9B929 PUSH2 0x1B8D DUP2 PUSH2 0x2500 JUMP JUMPDEST PUSH1 0x0 DUP3 SUB PUSH2 0x1BC7 JUMPI PUSH1 0x40 MLOAD PUSH32 0xE6C4247B00000000000000000000000000000000000000000000000000000000 DUP2 MSTORE PUSH1 0x4 ADD PUSH1 0x40 MLOAD DUP1 SWAP2 SUB SWAP1 REVERT JUMPDEST PUSH32 0x521F4B1F69C8FD70487D7F76173A72013D708404A2A63C7434A3EEFBB9D8357B PUSH1 0x3 SLOAD DUP4 PUSH1 0x40 MLOAD PUSH2 0x1BFA SWAP3 SWAP2 SWAP1 PUSH2 0x31C6 JUMP JUMPDEST PUSH1 0x40 MLOAD DUP1 SWAP2 SUB SWAP1 LOG1 DUP2 PUSH1 0x3 DUP2 SWAP1 SSTORE POP POP POP JUMP JUMPDEST PUSH1 0x0 PUSH2 0x1C17 PUSH2 0x2436 JUMP JUMPDEST PUSH2 0x1C1F PUSH2 0x23F0 JUMP JUMPDEST PUSH1 0x4 PUSH1 0x0 SWAP1 SLOAD SWAP1 PUSH2 0x100 EXP SWAP1 DIV PUSH1 0xFF AND PUSH2 0x1C65 JUMPI PUSH1 0x40 MLOAD PUSH32 0x87138D5C00000000000000000000000000000000000000000000000000000000 DUP2 MSTORE PUSH1 0x4 ADD PUSH1 0x40 MLOAD DUP1 SWAP2 SUB SWAP1 REVERT JUMPDEST PUSH1 0x0 PUSH20 0xFFFFFFFFFFFFFFFFFFFFFFFFFFFFFFFFFFFFFFFF AND DUP5 PUSH20 0xFFFFFFFFFFFFFFFFFFFFFFFFFFFFFFFFFFFFFFFF AND EQ DUP1 PUSH2 0x1CCC JUMPI POP PUSH1 0x0 PUSH20 0xFFFFFFFFFFFFFFFFFFFFFFFFFFFFFFFFFFFFFFFF AND DUP4 PUSH20 0xFFFFFFFFFFFFFFFFFFFFFFFFFFFFFFFFFFFFFFFF AND EQ JUMPDEST DUP1 PUSH2 0x1CD7 JUMPI POP PUSH1 0x0 DUP3 EQ JUMPDEST ISZERO PUSH2 0x1D0E JUMPI PUSH1 0x40 MLOAD PUSH32 0xE6C4247B00000000000000000000000000000000000000000000000000000000 DUP2 MSTORE PUSH1 0x4 ADD PUSH1 0x40 MLOAD DUP1 SWAP2 SUB SWAP1 REVERT JUMPDEST PUSH1 0x0 PUSH20 0xFFFFFFFFFFFFFFFFFFFFFFFFFFFFFFFFFFFFFFFF AND PUSH1 0x6 PUSH1 0x0 DUP6 PUSH20 0xFFFFFFFFFFFFFFFFFFFFFFFFFFFFFFFFFFFFFFFF AND PUSH20 0xFFFFFFFFFFFFFFFFFFFFFFFFFFFFFFFFFFFFFFFF AND DUP2 MSTORE PUSH1 0x20 ADD SWAP1 DUP2 MSTORE PUSH1 0x20 ADD PUSH1 0x0 KECCAK256 PUSH1 0x0 SWAP1 SLOAD SWAP1 PUSH2 0x100 EXP SWAP1 DIV PUSH20 0xFFFFFFFFFFFFFFFFFFFFFFFFFFFFFFFFFFFFFFFF AND PUSH20 0xFFFFFFFFFFFFFFFFFFFFFFFFFFFFFFFFFFFFFFFF AND SUB PUSH2 0x1DDE JUMPI DUP3 PUSH1 0x40 MLOAD PUSH32 0x82F3609300000000000000000000000000000000000000000000000000000000 DUP2 MSTORE PUSH1 0x4 ADD PUSH2 0x1DD5 SWAP2 SWAP1 PUSH2 0x2E53 JUMP JUMPDEST PUSH1 0x40 MLOAD DUP1 SWAP2 SUB SWAP1 REVERT JUMPDEST PUSH1 0x0 DUP4 SWAP1 POP PUSH1 0x0 DUP2 PUSH20 0xFFFFFFFFFFFFFFFFFFFFFFFFFFFFFFFFFFFFFFFF AND PUSH4 0x70A08231 ADDRESS PUSH1 0x40 MLOAD DUP3 PUSH4 0xFFFFFFFF AND PUSH1 0xE0 SHL DUP2 MSTORE PUSH1 0x4 ADD PUSH2 0x1E1E SWAP2 SWAP1 PUSH2 0x2E53 JUMP JUMPDEST PUSH1 0x20 PUSH1 0x40 MLOAD DUP1 DUP4 SUB DUP2 DUP7 GAS STATICCALL ISZERO DUP1 ISZERO PUSH2 0x1E3B JUMPI RETURNDATASIZE PUSH1 0x0 DUP1 RETURNDATACOPY RETURNDATASIZE PUSH1 0x0 REVERT JUMPDEST POP POP POP POP PUSH1 0x40 MLOAD RETURNDATASIZE PUSH1 0x1F NOT PUSH1 0x1F DUP3 ADD AND DUP3 ADD DUP1 PUSH1 0x40 MSTORE POP DUP2 ADD SWAP1 PUSH2 0x1E5F SWAP2 SWAP1 PUSH2 0x2F80 JUMP JUMPDEST SWAP1 POP PUSH2 0x1E8E CALLER ADDRESS DUP7 DUP6 PUSH20 0xFFFFFFFFFFFFFFFFFFFFFFFFFFFFFFFFFFFFFFFF AND PUSH2 0x27C6 SWAP1 SWAP4 SWAP3 SWAP2 SWAP1 PUSH4 0xFFFFFFFF AND JUMP JUMPDEST PUSH1 0x0 DUP3 PUSH20 0xFFFFFFFFFFFFFFFFFFFFFFFFFFFFFFFFFFFFFFFF AND PUSH4 0x70A08231 ADDRESS PUSH1 0x40 MLOAD DUP3 PUSH4 0xFFFFFFFF AND PUSH1 0xE0 SHL DUP2 MSTORE PUSH1 0x4 ADD PUSH2 0x1EC9 SWAP2 SWAP1 PUSH2 0x2E53 JUMP JUMPDEST PUSH1 0x20 PUSH1 0x40 MLOAD DUP1 DUP4 SUB DUP2 DUP7 GAS STATICCALL ISZERO DUP1 ISZERO PUSH2 0x1EE6 JUMPI RETURNDATASIZE PUSH1 0x0 DUP1 RETURNDATACOPY RETURNDATASIZE PUSH1 0x0 REVERT JUMPDEST POP POP POP POP PUSH1 0x40 MLOAD RETURNDATASIZE PUSH1 0x1F NOT PUSH1 0x1F DUP3 ADD AND DUP3 ADD DUP1 PUSH1 0x40 MSTORE POP DUP2 ADD SWAP1 PUSH2 0x1F0A SWAP2 SWAP1 PUSH2 0x2F80 JUMP JUMPDEST SWAP1 POP PUSH1 0x0 DUP3 DUP3 PUSH2 0x1F1A SWAP2 SWAP1 PUSH2 0x321E JUMP JUMPDEST SWAP1 POP PUSH1 0x5 PUSH1 0x0 DUP2 SLOAD DUP1 SWAP3 SWAP2 SWAP1 PUSH2 0x1F2F SWAP1 PUSH2 0x3252 JUMP JUMPDEST SWAP2 SWAP1 POP SSTORE POP PUSH1 0x0 CALLER PUSH1 0x2 PUSH1 0x1 SWAP1 SLOAD SWAP1 PUSH2 0x100 EXP SWAP1 DIV PUSH20 0xFFFFFFFFFFFFFFFFFFFFFFFFFFFFFFFFFFFFFFFF AND DUP10 DUP5 PUSH1 0x5 SLOAD CHAINID PUSH1 0x40 MLOAD PUSH1 0x20 ADD PUSH2 0x1F75 SWAP7 SWAP6 SWAP5 SWAP4 SWAP3 SWAP2 SWAP1 PUSH2 0x329A JUMP JUMPDEST PUSH1 0x40 MLOAD PUSH1 0x20 DUP2 DUP4 SUB SUB DUP2 MSTORE SWAP1 PUSH1 0x40 MSTORE DUP1 MLOAD SWAP1 PUSH1 0x20 ADD KECCAK256 SWAP1 POP CALLER PUSH1 0x8 PUSH1 0x0 DUP4 DUP2 MSTORE PUSH1 0x20 ADD SWAP1 DUP2 MSTORE PUSH1 0x20 ADD PUSH1 0x0 KECCAK256 PUSH1 0x0 PUSH2 0x100 EXP DUP2 SLOAD DUP2 PUSH20 0xFFFFFFFFFFFFFFFFFFFFFFFFFFFFFFFFFFFFFFFF MUL NOT AND SWAP1 DUP4 PUSH20 0xFFFFFFFFFFFFFFFFFFFFFFFFFFFFFFFFFFFFFFFF AND MUL OR SWAP1 SSTORE POP PUSH1 0x0 PUSH4 0x2E1AACF PUSH1 0xE0 SHL DUP11 PUSH1 0x6 PUSH1 0x0 DUP13 PUSH20 0xFFFFFFFFFFFFFFFFFFFFFFFFFFFFFFFFFFFFFFFF AND PUSH20 0xFFFFFFFFFFFFFFFFFFFFFFFFFFFFFFFFFFFFFFFF AND DUP2 MSTORE PUSH1 0x20 ADD SWAP1 DUP2 MSTORE PUSH1 0x20 ADD PUSH1 0x0 KECCAK256 PUSH1 0x0 SWAP1 SLOAD SWAP1 PUSH2 0x100 EXP SWAP1 DIV PUSH20 0xFFFFFFFFFFFFFFFFFFFFFFFFFFFFFFFFFFFFFFFF AND DUP6 PUSH1 0x5 SLOAD PUSH1 0x40 MLOAD PUSH1 0x24 ADD PUSH2 0x2061 SWAP5 SWAP4 SWAP3 SWAP2 SWAP1 PUSH2 0x330A JUMP JUMPDEST PUSH1 0x40 MLOAD PUSH1 0x20 DUP2 DUP4 SUB SUB DUP2 MSTORE SWAP1 PUSH1 0x40 MSTORE SWAP1 PUSH28 0xFFFFFFFFFFFFFFFFFFFFFFFFFFFFFFFFFFFFFFFFFFFFFFFFFFFFFFFF NOT AND PUSH1 0x20 DUP3 ADD DUP1 MLOAD PUSH28 0xFFFFFFFFFFFFFFFFFFFFFFFFFFFFFFFFFFFFFFFFFFFFFFFFFFFFFFFF DUP4 DUP2 DUP4 AND OR DUP4 MSTORE POP POP POP POP SWAP1 POP PUSH1 0x40 MLOAD DUP1 PUSH1 0x80 ADD PUSH1 0x40 MSTORE DUP1 DUP12 PUSH20 0xFFFFFFFFFFFFFFFFFFFFFFFFFFFFFFFFFFFFFFFF AND DUP2 MSTORE PUSH1 0x20 ADD DUP11 PUSH20 0xFFFFFFFFFFFFFFFFFFFFFFFFFFFFFFFFFFFFFFFF AND DUP2 MSTORE PUSH1 0x20 ADD DUP5 DUP2 MSTORE PUSH1 0x20 ADD PUSH1 0x5 SLOAD DUP2 MSTORE POP PUSH1 0x9 PUSH1 0x0 DUP5 DUP2 MSTORE PUSH1 0x20 ADD SWAP1 DUP2 MSTORE PUSH1 0x20 ADD PUSH1 0x0 KECCAK256 PUSH1 0x0 DUP3 ADD MLOAD DUP2 PUSH1 0x0 ADD PUSH1 0x0 PUSH2 0x100 EXP DUP2 SLOAD DUP2 PUSH20 0xFFFFFFFFFFFFFFFFFFFFFFFFFFFFFFFFFFFFFFFF MUL NOT AND SWAP1 DUP4 PUSH20 0xFFFFFFFFFFFFFFFFFFFFFFFFFFFFFFFFFFFFFFFF AND MUL OR SWAP1 SSTORE POP PUSH1 0x20 DUP3 ADD MLOAD DUP2 PUSH1 0x1 ADD PUSH1 0x0 PUSH2 0x100 EXP DUP2 SLOAD DUP2 PUSH20 0xFFFFFFFFFFFFFFFFFFFFFFFFFFFFFFFFFFFFFFFF MUL NOT AND SWAP1 DUP4 PUSH20 0xFFFFFFFFFFFFFFFFFFFFFFFFFFFFFFFFFFFFFFFF AND MUL OR SWAP1 SSTORE POP PUSH1 0x40 DUP3 ADD MLOAD DUP2 PUSH1 0x2 ADD SSTORE PUSH1 0x60 DUP3 ADD MLOAD DUP2 PUSH1 0x3 ADD SSTORE SWAP1 POP POP PUSH1 0x2 PUSH1 0x1 SWAP1 SLOAD SWAP1 PUSH2 0x100 EXP SWAP1 DIV PUSH20 0xFFFFFFFFFFFFFFFFFFFFFFFFFFFFFFFFFFFFFFFF AND PUSH20 0xFFFFFFFFFFFFFFFFFFFFFFFFFFFFFFFFFFFFFFFF AND CALLER PUSH20 0xFFFFFFFFFFFFFFFFFFFFFFFFFFFFFFFFFFFFFFFF AND DUP4 PUSH32 0xD8331239DCFE177D02E949E3CFA5969F4A3C658A80554DB93C64AB76F7ACF9C5 DUP5 PUSH1 0x5 SLOAD PUSH1 0x40 MLOAD PUSH2 0x224B SWAP3 SWAP2 SWAP1 PUSH2 0x33BD JUMP JUMPDEST PUSH1 0x40 MLOAD DUP1 SWAP2 SUB SWAP1 LOG4 DUP10 PUSH20 0xFFFFFFFFFFFFFFFFFFFFFFFFFFFFFFFFFFFFFFFF AND CALLER PUSH20 0xFFFFFFFFFFFFFFFFFFFFFFFFFFFFFFFFFFFFFFFF AND DUP4 PUSH32 0xEBC0384B967CEEFD5309A419C2E26D01FD91727B29ADD79BE1A42444D158DD28 DUP13 PUSH1 0x6 PUSH1 0x0 DUP16 PUSH20 0xFFFFFFFFFFFFFFFFFFFFFFFFFFFFFFFFFFFFFFFF AND PUSH20 0xFFFFFFFFFFFFFFFFFFFFFFFFFFFFFFFFFFFFFFFF AND DUP2 MSTORE PUSH1 0x20 ADD SWAP1 DUP2 MSTORE PUSH1 0x20 ADD PUSH1 0x0 KECCAK256 PUSH1 0x0 SWAP1 SLOAD SWAP1 PUSH2 0x100 EXP SWAP1 DIV PUSH20 0xFFFFFFFFFFFFFFFFFFFFFFFFFFFFFFFFFFFFFFFF AND DUP9 PUSH1 0x5 SLOAD PUSH1 0x40 MLOAD PUSH2 0x2318 SWAP5 SWAP4 SWAP3 SWAP2 SWAP1 PUSH2 0x330A JUMP JUMPDEST PUSH1 0x40 MLOAD DUP1 SWAP2 SUB SWAP1 LOG4 DUP2 SWAP7 POP POP POP POP POP POP POP PUSH2 0x2331 PUSH2 0x24F6 JUMP JUMPDEST SWAP4 SWAP3 POP POP POP JUMP JUMPDEST PUSH32 0x97667070C54EF182B0F5858B034BEAC1B6F3089AA2D3188BB1E8929F4FA9B929 DUP2 JUMP JUMPDEST PUSH1 0x0 PUSH1 0xA PUSH1 0x0 DUP4 DUP2 MSTORE PUSH1 0x20 ADD SWAP1 DUP2 MSTORE PUSH1 0x20 ADD PUSH1 0x0 KECCAK256 PUSH1 0x0 SWAP1 SLOAD SWAP1 PUSH2 0x100 EXP SWAP1 DIV PUSH1 0xFF AND SWAP1 POP SWAP2 SWAP1 POP JUMP JUMPDEST PUSH1 0x0 PUSH32 0x1FFC9A700000000000000000000000000000000000000000000000000000000 PUSH28 0xFFFFFFFFFFFFFFFFFFFFFFFFFFFFFFFFFFFFFFFFFFFFFFFFFFFFFFFF NOT AND DUP3 PUSH28 0xFFFFFFFFFFFFFFFFFFFFFFFFFFFFFFFFFFFFFFFFFFFFFFFFFFFFFFFF NOT AND EQ SWAP1 POP SWAP2 SWAP1 POP JUMP JUMPDEST PUSH1 0x2 PUSH1 0x0 SLOAD SUB PUSH2 0x242C JUMPI PUSH1 0x40 MLOAD PUSH32 0x3EE5AEB500000000000000000000000000000000000000000000000000000000 DUP2 MSTORE PUSH1 0x4 ADD PUSH1 0x40 MLOAD DUP1 SWAP2 SUB SWAP1 REVERT JUMPDEST PUSH1 0x2 PUSH1 0x0 DUP2 SWAP1 SSTORE POP JUMP JUMPDEST PUSH2 0x243E PUSH2 0x1237 JUMP JUMPDEST ISZERO PUSH2 0x2475 JUMPI PUSH1 0x40 MLOAD PUSH32 0xD93C066500000000000000000000000000000000000000000000000000000000 DUP2 MSTORE PUSH1 0x4 ADD PUSH1 0x40 MLOAD DUP1 SWAP2 SUB SWAP1 REVERT JUMPDEST JUMP JUMPDEST PUSH2 0x24F1 DUP4 DUP5 PUSH20 0xFFFFFFFFFFFFFFFFFFFFFFFFFFFFFFFFFFFFFFFF AND PUSH4 0xA9059CBB DUP6 DUP6 PUSH1 0x40 MLOAD PUSH1 0x24 ADD PUSH2 0x24AA SWAP3 SWAP2 SWAP1 PUSH2 0x309B JUMP JUMPDEST PUSH1 0x40 MLOAD PUSH1 0x20 DUP2 DUP4 SUB SUB DUP2 MSTORE SWAP1 PUSH1 0x40 MSTORE SWAP2 POP PUSH1 0xE0 SHL PUSH1 0x20 DUP3 ADD DUP1 MLOAD PUSH28 0xFFFFFFFFFFFFFFFFFFFFFFFFFFFFFFFFFFFFFFFFFFFFFFFFFFFFFFFF DUP4 DUP2 DUP4 AND OR DUP4 MSTORE POP POP POP POP PUSH2 0x2848 JUMP JUMPDEST POP POP POP JUMP JUMPDEST PUSH1 0x1 PUSH1 0x0 DUP2 SWAP1 SSTORE POP JUMP JUMPDEST PUSH2 0x2511 DUP2 PUSH2 0x250C PUSH2 0x2605 JUMP JUMPDEST PUSH2 0x28EA JUMP JUMPDEST POP JUMP JUMPDEST PUSH1 0x0 PUSH2 0x2520 DUP4 DUP4 PUSH2 0x142A JUMP JUMPDEST PUSH2 0x25FA JUMPI PUSH1 0x1 DUP1 PUSH1 0x0 DUP6 DUP2 MSTORE PUSH1 0x20 ADD SWAP1 DUP2 MSTORE PUSH1 0x20 ADD PUSH1 0x0 KECCAK256 PUSH1 0x0 ADD PUSH1 0x0 DUP5 PUSH20 0xFFFFFFFFFFFFFFFFFFFFFFFFFFFFFFFFFFFFFFFF AND PUSH20 0xFFFFFFFFFFFFFFFFFFFFFFFFFFFFFFFFFFFFFFFF AND DUP2 MSTORE PUSH1 0x20 ADD SWAP1 DUP2 MSTORE PUSH1 0x20 ADD PUSH1 0x0 KECCAK256 PUSH1 0x0 PUSH2 0x100 EXP DUP2 SLOAD DUP2 PUSH1 0xFF MUL NOT AND SWAP1 DUP4 ISZERO ISZERO MUL OR SWAP1 SSTORE POP PUSH2 0x2597 PUSH2 0x2605 JUMP JUMPDEST PUSH20 0xFFFFFFFFFFFFFFFFFFFFFFFFFFFFFFFFFFFFFFFF AND DUP3 PUSH20 0xFFFFFFFFFFFFFFFFFFFFFFFFFFFFFFFFFFFFFFFF AND DUP5 PUSH32 0x2F8788117E7EFF1D82E926EC794901D17C78024A50270940304540A733656F0D PUSH1 0x40 MLOAD PUSH1 0x40 MLOAD DUP1 SWAP2 SUB SWAP1 LOG4 PUSH1 0x1 SWAP1 POP PUSH2 0x25FF JUMP JUMPDEST PUSH1 0x0 SWAP1 POP JUMPDEST SWAP3 SWAP2 POP POP JUMP JUMPDEST PUSH1 0x0 CALLER SWAP1 POP SWAP1 JUMP JUMPDEST PUSH1 0x0 PUSH2 0x2619 DUP4 DUP4 PUSH2 0x142A JUMP JUMPDEST ISZERO PUSH2 0x26F5 JUMPI PUSH1 0x0 PUSH1 0x1 PUSH1 0x0 DUP6 DUP2 MSTORE PUSH1 0x20 ADD SWAP1 DUP2 MSTORE PUSH1 0x20 ADD PUSH1 0x0 KECCAK256 PUSH1 0x0 ADD PUSH1 0x0 DUP5 PUSH20 0xFFFFFFFFFFFFFFFFFFFFFFFFFFFFFFFFFFFFFFFF AND PUSH20 0xFFFFFFFFFFFFFFFFFFFFFFFFFFFFFFFFFFFFFFFF AND DUP2 MSTORE PUSH1 0x20 ADD SWAP1 DUP2 MSTORE PUSH1 0x20 ADD PUSH1 0x0 KECCAK256 PUSH1 0x0 PUSH2 0x100 EXP DUP2 SLOAD DUP2 PUSH1 0xFF MUL NOT AND SWAP1 DUP4 ISZERO ISZERO MUL OR SWAP1 SSTORE POP PUSH2 0x2692 PUSH2 0x2605 JUMP JUMPDEST PUSH20 0xFFFFFFFFFFFFFFFFFFFFFFFFFFFFFFFFFFFFFFFF AND DUP3 PUSH20 0xFFFFFFFFFFFFFFFFFFFFFFFFFFFFFFFFFFFFFFFF AND DUP5 PUSH32 0xF6391F5C32D9C69D2A47EA670B442974B53935D1EDC7FD64EB21E047A839171B PUSH1 0x40 MLOAD PUSH1 0x40 MLOAD DUP1 SWAP2 SUB SWAP1 LOG4 PUSH1 0x1 SWAP1 POP PUSH2 0x26FA JUMP JUMPDEST PUSH1 0x0 SWAP1 POP JUMPDEST SWAP3 SWAP2 POP POP JUMP JUMPDEST PUSH2 0x2708 PUSH2 0x293B JUMP JUMPDEST PUSH1 0x0 PUSH1 0x2 PUSH1 0x0 PUSH2 0x100 EXP DUP2 SLOAD DUP2 PUSH1 0xFF MUL NOT AND SWAP1 DUP4 ISZERO ISZERO MUL OR SWAP1 SSTORE POP PUSH32 0x5DB9EE0A495BF2E6FF9C91A7834C1BA4FDD244A5E8AA4E537BD38AEAE4B073AA PUSH2 0x274C PUSH2 0x2605 JUMP JUMPDEST PUSH1 0x40 MLOAD PUSH2 0x2759 SWAP2 SWAP1 PUSH2 0x2E53 JUMP JUMPDEST PUSH1 0x40 MLOAD DUP1 SWAP2 SUB SWAP1 LOG1 JUMP JUMPDEST PUSH2 0x276B PUSH2 0x2436 JUMP JUMPDEST PUSH1 0x1 PUSH1 0x2 PUSH1 0x0 PUSH2 0x100 EXP DUP2 SLOAD DUP2 PUSH1 0xFF MUL NOT AND SWAP1 DUP4 ISZERO ISZERO MUL OR SWAP1 SSTORE POP PUSH32 0x62E78CEA01BEE320CD4E420270B5EA74000D11B0C9F74754EBDBFC544B05A258 PUSH2 0x27AF PUSH2 0x2605 JUMP JUMPDEST PUSH1 0x40 MLOAD PUSH2 0x27BC SWAP2 SWAP1 PUSH2 0x2E53 JUMP JUMPDEST PUSH1 0x40 MLOAD DUP1 SWAP2 SUB SWAP1 LOG1 JUMP JUMPDEST PUSH2 0x2842 DUP5 DUP6 PUSH20 0xFFFFFFFFFFFFFFFFFFFFFFFFFFFFFFFFFFFFFFFF AND PUSH4 0x23B872DD DUP7 DUP7 DUP7 PUSH1 0x40 MLOAD PUSH1 0x24 ADD PUSH2 0x27FB SWAP4 SWAP3 SWAP2 SWAP1 PUSH2 0x33ED JUMP JUMPDEST PUSH1 0x40 MLOAD PUSH1 0x20 DUP2 DUP4 SUB SUB DUP2 MSTORE SWAP1 PUSH1 0x40 MSTORE SWAP2 POP PUSH1 0xE0 SHL PUSH1 0x20 DUP3 ADD DUP1 MLOAD PUSH28 0xFFFFFFFFFFFFFFFFFFFFFFFFFFFFFFFFFFFFFFFFFFFFFFFFFFFFFFFF DUP4 DUP2 DUP4 AND OR DUP4 MSTORE POP POP POP POP PUSH2 0x2848 JUMP JUMPDEST POP POP POP POP JUMP JUMPDEST PUSH1 0x0 DUP1 PUSH1 0x20 PUSH1 0x0 DUP5 MLOAD PUSH1 0x20 DUP7 ADD PUSH1 0x0 DUP9 GAS CALL DUP1 PUSH2 0x286B JUMPI PUSH1 0x40 MLOAD RETURNDATASIZE PUSH1 0x0 DUP3 RETURNDATACOPY RETURNDATASIZE DUP2 REVERT JUMPDEST RETURNDATASIZE SWAP3 POP PUSH1 0x0 MLOAD SWAP2 POP POP PUSH1 0x0 DUP3 EQ PUSH2 0x2886 JUMPI PUSH1 0x1 DUP2 EQ ISZERO PUSH2 0x28A2 JUMP JUMPDEST PUSH1 0x0 DUP5 PUSH20 0xFFFFFFFFFFFFFFFFFFFFFFFFFFFFFFFFFFFFFFFF AND EXTCODESIZE EQ JUMPDEST ISZERO PUSH2 0x28E4 JUMPI DUP4 PUSH1 0x40 MLOAD PUSH32 0x5274AFE700000000000000000000000000000000000000000000000000000000 DUP2 MSTORE PUSH1 0x4 ADD PUSH2 0x28DB SWAP2 SWAP1 PUSH2 0x2E53 JUMP JUMPDEST PUSH1 0x40 MLOAD DUP1 SWAP2 SUB SWAP1 REVERT JUMPDEST POP POP POP POP JUMP JUMPDEST PUSH2 0x28F4 DUP3 DUP3 PUSH2 0x142A JUMP JUMPDEST PUSH2 0x2937 JUMPI DUP1 DUP3 PUSH1 0x40 MLOAD PUSH32 0xE2517D3F00000000000000000000000000000000000000000000000000000000 DUP2 MSTORE PUSH1 0x4 ADD PUSH2 0x292E SWAP3 SWAP2 SWAP1 PUSH2 0x3424 JUMP JUMPDEST PUSH1 0x40 MLOAD DUP1 SWAP2 SUB SWAP1 REVERT JUMPDEST POP POP JUMP JUMPDEST PUSH2 0x2943 PUSH2 0x1237 JUMP JUMPDEST PUSH2 0x2979 JUMPI PUSH1 0x40 MLOAD PUSH32 0x8DFC202B00000000000000000000000000000000000000000000000000000000 DUP2 MSTORE PUSH1 0x4 ADD PUSH1 0x40 MLOAD DUP1 SWAP2 SUB SWAP1 REVERT JUMPDEST JUMP JUMPDEST PUSH1 0x40 MLOAD DUP1 PUSH1 0x80 ADD PUSH1 0x40 MSTORE DUP1 PUSH1 0x0 PUSH20 0xFFFFFFFFFFFFFFFFFFFFFFFFFFFFFFFFFFFFFFFF AND DUP2 MSTORE PUSH1 0x20 ADD PUSH1 0x0 PUSH20 0xFFFFFFFFFFFFFFFFFFFFFFFFFFFFFFFFFFFFFFFF AND DUP2 MSTORE PUSH1 0x20 ADD PUSH1 0x0 DUP2 MSTORE PUSH1 0x20 ADD PUSH1 0x0 DUP2 MSTORE POP SWAP1 JUMP JUMPDEST PUSH1 0x0 DUP1 REVERT JUMPDEST PUSH1 0x0 DUP1 REVERT JUMPDEST PUSH1 0x0 DUP2 SWAP1 POP SWAP2 SWAP1 POP JUMP JUMPDEST PUSH2 0x29EC DUP2 PUSH2 0x29D9 JUMP JUMPDEST DUP2 EQ PUSH2 0x29F7 JUMPI PUSH1 0x0 DUP1 REVERT JUMPDEST POP JUMP JUMPDEST PUSH1 0x0 DUP2 CALLDATALOAD SWAP1 POP PUSH2 0x2A09 DUP2 PUSH2 0x29E3 JUMP JUMPDEST SWAP3 SWAP2 POP POP JUMP JUMPDEST PUSH1 0x0 PUSH1 0x20 DUP3 DUP5 SUB SLT ISZERO PUSH2 0x2A25 JUMPI PUSH2 0x2A24 PUSH2 0x29CF JUMP JUMPDEST JUMPDEST PUSH1 0x0 PUSH2 0x2A33 DUP5 DUP3 DUP6 ADD PUSH2 0x29FA JUMP JUMPDEST SWAP2 POP POP SWAP3 SWAP2 POP POP JUMP JUMPDEST PUSH1 0x0 PUSH20 0xFFFFFFFFFFFFFFFFFFFFFFFFFFFFFFFFFFFFFFFF DUP3 AND SWAP1 POP SWAP2 SWAP1 POP JUMP JUMPDEST PUSH1 0x0 PUSH2 0x2A67 DUP3 PUSH2 0x2A3C JUMP JUMPDEST SWAP1 POP SWAP2 SWAP1 POP JUMP JUMPDEST PUSH2 0x2A77 DUP2 PUSH2 0x2A5C JUMP JUMPDEST DUP3 MSTORE POP POP JUMP JUMPDEST PUSH1 0x0 DUP2 SWAP1 POP SWAP2 SWAP1 POP JUMP JUMPDEST PUSH2 0x2A90 DUP2 PUSH2 0x2A7D JUMP JUMPDEST DUP3 MSTORE POP POP JUMP JUMPDEST PUSH1 0x80 DUP3 ADD PUSH1 0x0 DUP3 ADD MLOAD PUSH2 0x2AAC PUSH1 0x0 DUP6 ADD DUP3 PUSH2 0x2A6E JUMP JUMPDEST POP PUSH1 0x20 DUP3 ADD MLOAD PUSH2 0x2ABF PUSH1 0x20 DUP6 ADD DUP3 PUSH2 0x2A6E JUMP JUMPDEST POP PUSH1 0x40 DUP3 ADD MLOAD PUSH2 0x2AD2 PUSH1 0x40 DUP6 ADD DUP3 PUSH2 0x2A87 JUMP JUMPDEST POP PUSH1 0x60 DUP3 ADD MLOAD PUSH2 0x2AE5 PUSH1 0x60 DUP6 ADD DUP3 PUSH2 0x2A87 JUMP JUMPDEST POP POP POP POP JUMP JUMPDEST PUSH1 0x0 PUSH1 0x80 DUP3 ADD SWAP1 POP PUSH2 0x2B00 PUSH1 0x0 DUP4 ADD DUP5 PUSH2 0x2A96 JUMP JUMPDEST SWAP3 SWAP2 POP POP JUMP JUMPDEST PUSH1 0x0 PUSH32 0xFFFFFFFF00000000000000000000000000000000000000000000000000000000 DUP3 AND SWAP1 POP SWAP2 SWAP1 POP JUMP JUMPDEST PUSH2 0x2B3B DUP2 PUSH2 0x2B06 JUMP JUMPDEST DUP2 EQ PUSH2 0x2B46 JUMPI PUSH1 0x0 DUP1 REVERT JUMPDEST POP JUMP JUMPDEST PUSH1 0x0 DUP2 CALLDATALOAD SWAP1 POP PUSH2 0x2B58 DUP2 PUSH2 0x2B32 JUMP JUMPDEST SWAP3 SWAP2 POP POP JUMP JUMPDEST PUSH1 0x0 PUSH1 0x20 DUP3 DUP5 SUB SLT ISZERO PUSH2 0x2B74 JUMPI PUSH2 0x2B73 PUSH2 0x29CF JUMP JUMPDEST JUMPDEST PUSH1 0x0 PUSH2 0x2B82 DUP5 DUP3 DUP6 ADD PUSH2 0x2B49 JUMP JUMPDEST SWAP2 POP POP SWAP3 SWAP2 POP POP JUMP JUMPDEST PUSH1 0x0 DUP2 ISZERO ISZERO SWAP1 POP SWAP2 SWAP1 POP JUMP JUMPDEST PUSH2 0x2BA0 DUP2 PUSH2 0x2B8B JUMP JUMPDEST DUP3 MSTORE POP POP JUMP JUMPDEST PUSH1 0x0 PUSH1 0x20 DUP3 ADD SWAP1 POP PUSH2 0x2BBB PUSH1 0x0 DUP4 ADD DUP5 PUSH2 0x2B97 JUMP JUMPDEST SWAP3 SWAP2 POP POP JUMP JUMPDEST PUSH2 0x2BCA DUP2 PUSH2 0x2A5C JUMP JUMPDEST DUP2 EQ PUSH2 0x2BD5 JUMPI PUSH1 0x0 DUP1 REVERT JUMPDEST POP JUMP JUMPDEST PUSH1 0x0 DUP2 CALLDATALOAD SWAP1 POP PUSH2 0x2BE7 DUP2 PUSH2 0x2BC1 JUMP JUMPDEST SWAP3 SWAP2 POP POP JUMP JUMPDEST PUSH2 0x2BF6 DUP2 PUSH2 0x2A7D JUMP JUMPDEST DUP2 EQ PUSH2 0x2C01 JUMPI PUSH1 0x0 DUP1 REVERT JUMPDEST POP JUMP JUMPDEST PUSH1 0x0 DUP2 CALLDATALOAD SWAP1 POP PUSH2 0x2C13 DUP2 PUSH2 0x2BED JUMP JUMPDEST SWAP3 SWAP2 POP POP JUMP JUMPDEST PUSH1 0x0 DUP1 PUSH1 0x0 DUP1 PUSH1 0x80 DUP6 DUP8 SUB SLT ISZERO PUSH2 0x2C33 JUMPI PUSH2 0x2C32 PUSH2 0x29CF JUMP JUMPDEST JUMPDEST PUSH1 0x0 PUSH2 0x2C41 DUP8 DUP3 DUP9 ADD PUSH2 0x2BD8 JUMP JUMPDEST SWAP5 POP POP PUSH1 0x20 PUSH2 0x2C52 DUP8 DUP3 DUP9 ADD PUSH2 0x2BD8 JUMP JUMPDEST SWAP4 POP POP PUSH1 0x40 PUSH2 0x2C63 DUP8 DUP3 DUP9 ADD PUSH2 0x2C04 JUMP JUMPDEST SWAP3 POP POP PUSH1 0x60 PUSH2 0x2C74 DUP8 DUP3 DUP9 ADD PUSH2 0x2C04 JUMP JUMPDEST SWAP2 POP POP SWAP3 SWAP6 SWAP2 SWAP5 POP SWAP3 POP JUMP JUMPDEST PUSH2 0x2C89 DUP2 PUSH2 0x29D9 JUMP JUMPDEST DUP3 MSTORE POP POP JUMP JUMPDEST PUSH1 0x0 PUSH1 0x20 DUP3 ADD SWAP1 POP PUSH2 0x2CA4 PUSH1 0x0 DUP4 ADD DUP5 PUSH2 0x2C80 JUMP JUMPDEST SWAP3 SWAP2 POP POP JUMP JUMPDEST PUSH1 0x0 DUP1 PUSH1 0x40 DUP4 DUP6 SUB SLT ISZERO PUSH2 0x2CC1 JUMPI PUSH2 0x2CC0 PUSH2 0x29CF JUMP JUMPDEST JUMPDEST PUSH1 0x0 PUSH2 0x2CCF DUP6 DUP3 DUP7 ADD PUSH2 0x29FA JUMP JUMPDEST SWAP3 POP POP PUSH1 0x20 PUSH2 0x2CE0 DUP6 DUP3 DUP7 ADD PUSH2 0x2BD8 JUMP JUMPDEST SWAP2 POP POP SWAP3 POP SWAP3 SWAP1 POP JUMP JUMPDEST PUSH1 0x0 DUP1 REVERT JUMPDEST PUSH1 0x0 DUP1 REVERT JUMPDEST PUSH1 0x0 DUP1 REVERT JUMPDEST PUSH1 0x0 DUP1 DUP4 PUSH1 0x1F DUP5 ADD SLT PUSH2 0x2D0F JUMPI PUSH2 0x2D0E PUSH2 0x2CEA JUMP JUMPDEST JUMPDEST DUP3 CALLDATALOAD SWAP1 POP PUSH8 0xFFFFFFFFFFFFFFFF DUP2 GT ISZERO PUSH2 0x2D2C JUMPI PUSH2 0x2D2B PUSH2 0x2CEF JUMP JUMPDEST JUMPDEST PUSH1 0x20 DUP4 ADD SWAP2 POP DUP4 PUSH1 0x1 DUP3 MUL DUP4 ADD GT ISZERO PUSH2 0x2D48 JUMPI PUSH2 0x2D47 PUSH2 0x2CF4 JUMP JUMPDEST JUMPDEST SWAP3 POP SWAP3 SWAP1 POP JUMP JUMPDEST PUSH1 0x0 DUP1 PUSH1 0x0 DUP1 PUSH1 0x0 PUSH1 0x80 DUP7 DUP9 SUB SLT ISZERO PUSH2 0x2D6B JUMPI PUSH2 0x2D6A PUSH2 0x29CF JUMP JUMPDEST JUMPDEST PUSH1 0x0 PUSH2 0x2D79 DUP9 DUP3 DUP10 ADD PUSH2 0x29FA JUMP JUMPDEST SWAP6 POP POP PUSH1 0x20 PUSH2 0x2D8A DUP9 DUP3 DUP10 ADD PUSH2 0x2BD8 JUMP JUMPDEST SWAP5 POP POP PUSH1 0x40 PUSH2 0x2D9B DUP9 DUP3 DUP10 ADD PUSH2 0x2BD8 JUMP JUMPDEST SWAP4 POP POP PUSH1 0x60 DUP7 ADD CALLDATALOAD PUSH8 0xFFFFFFFFFFFFFFFF DUP2 GT ISZERO PUSH2 0x2DBC JUMPI PUSH2 0x2DBB PUSH2 0x29D4 JUMP JUMPDEST JUMPDEST PUSH2 0x2DC8 DUP9 DUP3 DUP10 ADD PUSH2 0x2CF9 JUMP JUMPDEST SWAP3 POP SWAP3 POP POP SWAP3 SWAP6 POP SWAP3 SWAP6 SWAP1 SWAP4 POP JUMP JUMPDEST PUSH1 0x0 DUP1 PUSH1 0x40 DUP4 DUP6 SUB SLT ISZERO PUSH2 0x2DEE JUMPI PUSH2 0x2DED PUSH2 0x29CF JUMP JUMPDEST JUMPDEST PUSH1 0x0 PUSH2 0x2DFC DUP6 DUP3 DUP7 ADD PUSH2 0x2BD8 JUMP JUMPDEST SWAP3 POP POP PUSH1 0x20 PUSH2 0x2E0D DUP6 DUP3 DUP7 ADD PUSH2 0x2BD8 JUMP JUMPDEST SWAP2 POP POP SWAP3 POP SWAP3 SWAP1 POP JUMP JUMPDEST PUSH1 0x0 PUSH1 0x20 DUP3 DUP5 SUB SLT ISZERO PUSH2 0x2E2D JUMPI PUSH2 0x2E2C PUSH2 0x29CF JUMP JUMPDEST JUMPDEST PUSH1 0x0 PUSH2 0x2E3B DUP5 DUP3 DUP6 ADD PUSH2 0x2BD8 JUMP JUMPDEST SWAP2 POP POP SWAP3 SWAP2 POP POP JUMP JUMPDEST PUSH2 0x2E4D DUP2 PUSH2 0x2A5C JUMP JUMPDEST DUP3 MSTORE POP POP JUMP JUMPDEST PUSH1 0x0 PUSH1 0x20 DUP3 ADD SWAP1 POP PUSH2 0x2E68 PUSH1 0x0 DUP4 ADD DUP5 PUSH2 0x2E44 JUMP JUMPDEST SWAP3 SWAP2 POP POP JUMP JUMPDEST PUSH2 0x2E77 DUP2 PUSH2 0x2A7D JUMP JUMPDEST DUP3 MSTORE POP POP JUMP JUMPDEST PUSH1 0x0 PUSH1 0x20 DUP3 ADD SWAP1 POP PUSH2 0x2E92 PUSH1 0x0 DUP4 ADD DUP5 PUSH2 0x2E6E JUMP JUMPDEST SWAP3 SWAP2 POP POP JUMP JUMPDEST PUSH1 0x0 DUP1 PUSH1 0x0 PUSH1 0x60 DUP5 DUP7 SUB SLT ISZERO PUSH2 0x2EB1 JUMPI PUSH2 0x2EB0 PUSH2 0x29CF JUMP JUMPDEST JUMPDEST PUSH1 0x0 PUSH2 0x2EBF DUP7 DUP3 DUP8 ADD PUSH2 0x2BD8 JUMP JUMPDEST SWAP4 POP POP PUSH1 0x20 PUSH2 0x2ED0 DUP7 DUP3 DUP8 ADD PUSH2 0x2BD8 JUMP JUMPDEST SWAP3 POP POP PUSH1 0x40 PUSH2 0x2EE1 DUP7 DUP3 DUP8 ADD PUSH2 0x2BD8 JUMP JUMPDEST SWAP2 POP POP SWAP3 POP SWAP3 POP SWAP3 JUMP JUMPDEST PUSH1 0x0 PUSH1 0x20 DUP3 DUP5 SUB SLT ISZERO PUSH2 0x2F01 JUMPI PUSH2 0x2F00 PUSH2 0x29CF JUMP JUMPDEST JUMPDEST PUSH1 0x0 PUSH2 0x2F0F DUP5 DUP3 DUP6 ADD PUSH2 0x2C04 JUMP JUMPDEST SWAP2 POP POP SWAP3 SWAP2 POP POP JUMP JUMPDEST PUSH1 0x0 DUP1 PUSH1 0x0 PUSH1 0x60 DUP5 DUP7 SUB SLT ISZERO PUSH2 0x2F31 JUMPI PUSH2 0x2F30 PUSH2 0x29CF JUMP JUMPDEST JUMPDEST PUSH1 0x0 PUSH2 0x2F3F DUP7 DUP3 DUP8 ADD PUSH2 0x2BD8 JUMP JUMPDEST SWAP4 POP POP PUSH1 0x20 PUSH2 0x2F50 DUP7 DUP3 DUP8 ADD PUSH2 0x2BD8 JUMP JUMPDEST SWAP3 POP POP PUSH1 0x40 PUSH2 0x2F61 DUP7 DUP3 DUP8 ADD PUSH2 0x2C04 JUMP JUMPDEST SWAP2 POP POP SWAP3 POP SWAP3 POP SWAP3 JUMP JUMPDEST PUSH1 0x0 DUP2 MLOAD SWAP1 POP PUSH2 0x2F7A DUP2 PUSH2 0x2BED JUMP JUMPDEST SWAP3 SWAP2 POP POP JUMP JUMPDEST PUSH1 0x0 PUSH1 0x20 DUP3 DUP5 SUB SLT ISZERO PUSH2 0x2F96 JUMPI PUSH2 0x2F95 PUSH2 0x29CF JUMP JUMPDEST JUMPDEST PUSH1 0x0 PUSH2 0x2FA4 DUP5 DUP3 DUP6 ADD PUSH2 0x2F6B JUMP JUMPDEST SWAP2 POP POP SWAP3 SWAP2 POP POP JUMP JUMPDEST PUSH1 0x0 PUSH1 0x60 DUP3 ADD SWAP1 POP PUSH2 0x2FC2 PUSH1 0x0 DUP4 ADD DUP7 PUSH2 0x2E44 JUMP JUMPDEST PUSH2 0x2FCF PUSH1 0x20 DUP4 ADD DUP6 PUSH2 0x2E6E JUMP JUMPDEST PUSH2 0x2FDC PUSH1 0x40 DUP4 ADD DUP5 PUSH2 0x2E6E JUMP JUMPDEST SWAP5 SWAP4 POP POP POP POP JUMP JUMPDEST PUSH1 0x0 DUP2 PUSH1 0x60 SHL SWAP1 POP SWAP2 SWAP1 POP JUMP JUMPDEST PUSH1 0x0 PUSH2 0x2FFC DUP3 PUSH2 0x2FE4 JUMP JUMPDEST SWAP1 POP SWAP2 SWAP1 POP JUMP JUMPDEST PUSH1 0x0 PUSH2 0x300E DUP3 PUSH2 0x2FF1 JUMP JUMPDEST SWAP1 POP SWAP2 SWAP1 POP JUMP JUMPDEST PUSH2 0x3026 PUSH2 0x3021 DUP3 PUSH2 0x2A5C JUMP JUMPDEST PUSH2 0x3003 JUMP JUMPDEST DUP3 MSTORE POP POP JUMP JUMPDEST PUSH1 0x0 DUP2 SWAP1 POP SWAP2 SWAP1 POP JUMP JUMPDEST PUSH2 0x3047 PUSH2 0x3042 DUP3 PUSH2 0x2A7D JUMP JUMPDEST PUSH2 0x302C JUMP JUMPDEST DUP3 MSTORE POP POP JUMP JUMPDEST PUSH1 0x0 PUSH2 0x3059 DUP3 DUP8 PUSH2 0x3015 JUMP JUMPDEST PUSH1 0x14 DUP3 ADD SWAP2 POP PUSH2 0x3069 DUP3 DUP7 PUSH2 0x3015 JUMP JUMPDEST PUSH1 0x14 DUP3 ADD SWAP2 POP PUSH2 0x3079 DUP3 DUP6 PUSH2 0x3036 JUMP JUMPDEST PUSH1 0x20 DUP3 ADD SWAP2 POP PUSH2 0x3089 DUP3 DUP5 PUSH2 0x3036 JUMP JUMPDEST PUSH1 0x20 DUP3 ADD SWAP2 POP DUP2 SWAP1 POP SWAP6 SWAP5 POP POP POP POP POP JUMP JUMPDEST PUSH1 0x0 PUSH1 0x40 DUP3 ADD SWAP1 POP PUSH2 0x30B0 PUSH1 0x0 DUP4 ADD DUP6 PUSH2 0x2E44 JUMP JUMPDEST PUSH2 0x30BD PUSH1 0x20 DUP4 ADD DUP5 PUSH2 0x2E6E JUMP JUMPDEST SWAP4 SWAP3 POP POP POP JUMP JUMPDEST PUSH1 0x0 DUP2 SWAP1 POP SWAP3 SWAP2 POP POP JUMP JUMPDEST DUP3 DUP2 DUP4 CALLDATACOPY PUSH1 0x0 DUP4 DUP4 ADD MSTORE POP POP POP JUMP JUMPDEST PUSH1 0x0 PUSH2 0x30EA DUP4 DUP6 PUSH2 0x30C4 JUMP JUMPDEST SWAP4 POP PUSH2 0x30F7 DUP4 DUP6 DUP5 PUSH2 0x30CF JUMP JUMPDEST DUP3 DUP5 ADD SWAP1 POP SWAP4 SWAP3 POP POP POP JUMP JUMPDEST PUSH1 0x0 PUSH2 0x3110 DUP3 DUP5 DUP7 PUSH2 0x30DE JUMP JUMPDEST SWAP2 POP DUP2 SWAP1 POP SWAP4 SWAP3 POP POP POP JUMP JUMPDEST PUSH1 0x0 DUP3 DUP3 MSTORE PUSH1 0x20 DUP3 ADD SWAP1 POP SWAP3 SWAP2 POP POP JUMP JUMPDEST PUSH1 0x0 PUSH1 0x1F NOT PUSH1 0x1F DUP4 ADD AND SWAP1 POP SWAP2 SWAP1 POP JUMP JUMPDEST PUSH1 0x0 PUSH2 0x314A DUP4 DUP6 PUSH2 0x311C JUMP JUMPDEST SWAP4 POP PUSH2 0x3157 DUP4 DUP6 DUP5 PUSH2 0x30CF JUMP JUMPDEST PUSH2 0x3160 DUP4 PUSH2 0x312D JUMP JUMPDEST DUP5 ADD SWAP1 POP SWAP4 SWAP3 POP POP POP JUMP JUMPDEST PUSH1 0x0 PUSH1 0x40 DUP3 ADD SWAP1 POP DUP2 DUP2 SUB PUSH1 0x0 DUP4 ADD MSTORE PUSH2 0x3186 DUP2 DUP6 DUP8 PUSH2 0x313E JUMP JUMPDEST SWAP1 POP PUSH2 0x3195 PUSH1 0x20 DUP4 ADD DUP5 PUSH2 0x2E6E JUMP JUMPDEST SWAP5 SWAP4 POP POP POP POP JUMP JUMPDEST PUSH1 0x0 PUSH1 0x40 DUP3 ADD SWAP1 POP PUSH2 0x31B2 PUSH1 0x0 DUP4 ADD DUP6 PUSH2 0x2E44 JUMP JUMPDEST PUSH2 0x31BF PUSH1 0x20 DUP4 ADD DUP5 PUSH2 0x2E44 JUMP JUMPDEST SWAP4 SWAP3 POP POP POP JUMP JUMPDEST PUSH1 0x0 PUSH1 0x40 DUP3 ADD SWAP1 POP PUSH2 0x31DB PUSH1 0x0 DUP4 ADD DUP6 PUSH2 0x2E6E JUMP JUMPDEST PUSH2 0x31E8 PUSH1 0x20 DUP4 ADD DUP5 PUSH2 0x2E6E JUMP JUMPDEST SWAP4 SWAP3 POP POP POP JUMP JUMPDEST PUSH32 0x4E487B7100000000000000000000000000000000000000000000000000000000 PUSH1 0x0 MSTORE PUSH1 0x11 PUSH1 0x4 MSTORE PUSH1 0x24 PUSH1 0x0 REVERT JUMPDEST PUSH1 0x0 PUSH2 0x3229 DUP3 PUSH2 0x2A7D JUMP JUMPDEST SWAP2 POP PUSH2 0x3234 DUP4 PUSH2 0x2A7D JUMP JUMPDEST SWAP3 POP DUP3 DUP3 SUB SWAP1 POP DUP2 DUP2 GT ISZERO PUSH2 0x324C JUMPI PUSH2 0x324B PUSH2 0x31EF JUMP JUMPDEST JUMPDEST SWAP3 SWAP2 POP POP JUMP JUMPDEST PUSH1 0x0 PUSH2 0x325D DUP3 PUSH2 0x2A7D JUMP JUMPDEST SWAP2 POP PUSH32 0xFFFFFFFFFFFFFFFFFFFFFFFFFFFFFFFFFFFFFFFFFFFFFFFFFFFFFFFFFFFFFFFF DUP3 SUB PUSH2 0x328F JUMPI PUSH2 0x328E PUSH2 0x31EF JUMP JUMPDEST JUMPDEST PUSH1 0x1 DUP3 ADD SWAP1 POP SWAP2 SWAP1 POP JUMP JUMPDEST PUSH1 0x0 PUSH2 0x32A6 DUP3 DUP10 PUSH2 0x3015 JUMP JUMPDEST PUSH1 0x14 DUP3 ADD SWAP2 POP PUSH2 0x32B6 DUP3 DUP9 PUSH2 0x3015 JUMP JUMPDEST PUSH1 0x14 DUP3 ADD SWAP2 POP PUSH2 0x32C6 DUP3 DUP8 PUSH2 0x3015 JUMP JUMPDEST PUSH1 0x14 DUP3 ADD SWAP2 POP PUSH2 0x32D6 DUP3 DUP7 PUSH2 0x3036 JUMP JUMPDEST PUSH1 0x20 DUP3 ADD SWAP2 POP PUSH2 0x32E6 DUP3 DUP6 PUSH2 0x3036 JUMP JUMPDEST PUSH1 0x20 DUP3 ADD SWAP2 POP PUSH2 0x32F6 DUP3 DUP5 PUSH2 0x3036 JUMP JUMPDEST PUSH1 0x20 DUP3 ADD SWAP2 POP DUP2 SWAP1 POP SWAP8 SWAP7 POP POP POP POP POP POP POP JUMP JUMPDEST PUSH1 0x0 PUSH1 0x80 DUP3 ADD SWAP1 POP PUSH2 0x331F PUSH1 0x0 DUP4 ADD DUP8 PUSH2 0x2E44 JUMP JUMPDEST PUSH2 0x332C PUSH1 0x20 DUP4 ADD DUP7 PUSH2 0x2E44 JUMP JUMPDEST PUSH2 0x3339 PUSH1 0x40 DUP4 ADD DUP6 PUSH2 0x2E6E JUMP JUMPDEST PUSH2 0x3346 PUSH1 0x60 DUP4 ADD DUP5 PUSH2 0x2E6E JUMP JUMPDEST SWAP6 SWAP5 POP POP POP POP POP JUMP JUMPDEST PUSH1 0x0 DUP2 MLOAD SWAP1 POP SWAP2 SWAP1 POP JUMP JUMPDEST PUSH1 0x0 JUMPDEST DUP4 DUP2 LT ISZERO PUSH2 0x3378 JUMPI DUP1 DUP3 ADD MLOAD DUP2 DUP5 ADD MSTORE PUSH1 0x20 DUP2 ADD SWAP1 POP PUSH2 0x335D JUMP JUMPDEST PUSH1 0x0 DUP5 DUP5 ADD MSTORE POP POP POP POP JUMP JUMPDEST PUSH1 0x0 PUSH2 0x338F DUP3 PUSH2 0x334F JUMP JUMPDEST PUSH2 0x3399 DUP2 DUP6 PUSH2 0x311C JUMP JUMPDEST SWAP4 POP PUSH2 0x33A9 DUP2 DUP6 PUSH1 0x20 DUP7 ADD PUSH2 0x335A JUMP JUMPDEST PUSH2 0x33B2 DUP2 PUSH2 0x312D JUMP JUMPDEST DUP5 ADD SWAP2 POP POP SWAP3 SWAP2 POP POP JUMP JUMPDEST PUSH1 0x0 PUSH1 0x40 DUP3 ADD SWAP1 POP DUP2 DUP2 SUB PUSH1 0x0 DUP4 ADD MSTORE PUSH2 0x33D7 DUP2 DUP6 PUSH2 0x3384 JUMP JUMPDEST SWAP1 POP PUSH2 0x33E6 PUSH1 0x20 DUP4 ADD DUP5 PUSH2 0x2E6E JUMP JUMPDEST SWAP4 SWAP3 POP POP POP JUMP JUMPDEST PUSH1 0x0 PUSH1 0x60 DUP3 ADD SWAP1 POP PUSH2 0x3402 PUSH1 0x0 DUP4 ADD DUP7 PUSH2 0x2E44 JUMP JUMPDEST PUSH2 0x340F PUSH1 0x20 DUP4 ADD DUP6 PUSH2 0x2E44 JUMP JUMPDEST PUSH2 0x341C PUSH1 0x40 DUP4 ADD DUP5 PUSH2 0x2E6E JUMP JUMPDEST SWAP5 SWAP4 POP POP POP POP JUMP JUMPDEST PUSH1 0x0 PUSH1 0x40 DUP3 ADD SWAP1 POP PUSH2 0x3439 PUSH1 0x0 DUP4 ADD DUP6 PUSH2 0x2E44 JUMP JUMPDEST PUSH2 0x3446 PUSH1 0x20 DUP4 ADD DUP5 PUSH2 0x2C80 JUMP JUMPDEST SWAP4 SWAP3 POP POP POP JUMP INVALID LOG2 PUSH5 0x6970667358 0x22 SLT KECCAK256 0xCD PUSH31 0x76BFD54B25760502C17B7220D03335AFD56F2BD1004C763C518E0C04D06F64 PUSH20 0x6F6C634300081100330000000000000000000000 "
				},
				"gasEstimates": {
					"creation": {
						"codeDepositCost": "2688600",
						"executionCost": "infinite",
						"totalCost": "infinite"
					},
					"external": {
						"DEFAULT_ADMIN_ROLE()": "380",
						"EMERGENCY_ROLE()": "441",
						"OPERATOR_ROLE()": "417",
						"RELAYER_ROLE()": "397",
						"claimTokens(address,address)": "infinite",
						"fixFailedMessage(bytes32)": "infinite",
						"getMessage(bytes32)": "infinite",
						"getRoleAdmin(bytes32)": "infinite",
						"getTokenMapping(address)": "infinite",
						"grantRole(bytes32,address)": "infinite",
						"handleBridgedTokens(address,address,uint256,uint256)": "infinite",
						"hasRole(bytes32,address)": "3186",
						"initialize(address,address,address)": "infinite",
						"initialized()": "2539",
						"isMessageFixed(bytes32)": "2932",
						"isMessageProcessed(bytes32)": "2912",
						"messageSender(bytes32)": "2976",
						"pause()": "infinite",
						"paused()": "2546",
						"receiveMessage(bytes32,address,address,bytes)": "infinite",
						"remoteTokenBridge()": "2653",
						"renounceRole(bytes32,address)": "infinite",
						"requestGasLimit()": "2474",
						"revokeRole(bytes32,address)": "infinite",
						"setRequestGasLimit(uint256)": "infinite",
						"setTokenMapping(address,address)": "infinite",
						"supportsInterface(bytes4)": "796",
						"transferToken(address,address,uint256)": "infinite",
						"unpause()": "infinite",
						"updateRemoteBridge(address)": "infinite"
					}
				},
				"methodIdentifiers": {
					"DEFAULT_ADMIN_ROLE()": "a217fddf",
					"EMERGENCY_ROLE()": "20df4359",
					"OPERATOR_ROLE()": "f5b541a6",
					"RELAYER_ROLE()": "926d7d7f",
					"claimTokens(address,address)": "69ffa08a",
					"fixFailedMessage(bytes32)": "0950d515",
					"getMessage(bytes32)": "0139a221",
					"getRoleAdmin(bytes32)": "248a9ca3",
					"getTokenMapping(address)": "b66df031",
					"grantRole(bytes32,address)": "2f2ff15d",
					"handleBridgedTokens(address,address,uint256,uint256)": "02e1aacf",
					"hasRole(bytes32,address)": "91d14854",
					"initialize(address,address,address)": "c0c53b8b",
					"initialized()": "158ef93e",
					"isMessageFixed(bytes32)": "f63ca179",
					"isMessageProcessed(bytes32)": "1bd31ef6",
					"messageSender(bytes32)": "bbd0ec64",
					"pause()": "8456cb59",
					"paused()": "5c975abb",
					"receiveMessage(bytes32,address,address,bytes)": "412df756",
					"remoteTokenBridge()": "d191bcf9",
					"renounceRole(bytes32,address)": "36568abe",
					"requestGasLimit()": "be3b625b",
					"revokeRole(bytes32,address)": "d547741f",
					"setRequestGasLimit(uint256)": "f3b83791",
					"setTokenMapping(address,address)": "a8ae5207",
					"supportsInterface(bytes4)": "01ffc9a7",
					"transferToken(address,address,uint256)": "f5537ede",
					"unpause()": "3f4ba83a",
					"updateRemoteBridge(address)": "9a54a1ff"
				}
			},
			"storageLayout": {
				"storage": [
					{
						"astId": 1005,
						"contract": "RUSD-Bridge-MaalChain/TokenBridge.sol:TokenBridge",
						"label": "_status",
						"offset": 0,
						"slot": "0",
						"type": "t_uint256"
					},
					{
						"astId": 27,
						"contract": "RUSD-Bridge-MaalChain/TokenBridge.sol:TokenBridge",
						"label": "_roles",
						"offset": 0,
						"slot": "1",
						"type": "t_mapping(t_bytes32,t_struct(RoleData)22_storage)"
					},
					{
						"astId": 895,
						"contract": "RUSD-Bridge-MaalChain/TokenBridge.sol:TokenBridge",
						"label": "_paused",
						"offset": 0,
						"slot": "2",
						"type": "t_bool"
					},
					{
						"astId": 1527,
						"contract": "RUSD-Bridge-MaalChain/TokenBridge.sol:TokenBridge",
						"label": "remoteTokenBridge",
						"offset": 1,
						"slot": "2",
						"type": "t_address"
					},
					{
						"astId": 1529,
						"contract": "RUSD-Bridge-MaalChain/TokenBridge.sol:TokenBridge",
						"label": "requestGasLimit",
						"offset": 0,
						"slot": "3",
						"type": "t_uint256"
					},
					{
						"astId": 1531,
						"contract": "RUSD-Bridge-MaalChain/TokenBridge.sol:TokenBridge",
						"label": "initialized",
						"offset": 0,
						"slot": "4",
						"type": "t_bool"
					},
					{
						"astId": 1533,
						"contract": "RUSD-Bridge-MaalChain/TokenBridge.sol:TokenBridge",
						"label": "nonce",
						"offset": 0,
						"slot": "5",
						"type": "t_uint256"
					},
					{
						"astId": 1537,
						"contract": "RUSD-Bridge-MaalChain/TokenBridge.sol:TokenBridge",
						"label": "tokenMapping",
						"offset": 0,
						"slot": "6",
						"type": "t_mapping(t_address,t_address)"
					},
					{
						"astId": 1541,
						"contract": "RUSD-Bridge-MaalChain/TokenBridge.sol:TokenBridge",
						"label": "processedMessages",
						"offset": 0,
						"slot": "7",
						"type": "t_mapping(t_bytes32,t_bool)"
					},
					{
						"astId": 1545,
						"contract": "RUSD-Bridge-MaalChain/TokenBridge.sol:TokenBridge",
						"label": "messageSenders",
						"offset": 0,
						"slot": "8",
						"type": "t_mapping(t_bytes32,t_address)"
					},
					{
						"astId": 1550,
						"contract": "RUSD-Bridge-MaalChain/TokenBridge.sol:TokenBridge",
						"label": "messages",
						"offset": 0,
						"slot": "9",
						"type": "t_mapping(t_bytes32,t_struct(Message)1563_storage)"
					},
					{
						"astId": 1554,
						"contract": "RUSD-Bridge-MaalChain/TokenBridge.sol:TokenBridge",
						"label": "messageFixed",
						"offset": 0,
						"slot": "10",
						"type": "t_mapping(t_bytes32,t_bool)"
					}
				],
				"types": {
					"t_address": {
						"encoding": "inplace",
						"label": "address",
						"numberOfBytes": "20"
					},
					"t_bool": {
						"encoding": "inplace",
						"label": "bool",
						"numberOfBytes": "1"
					},
					"t_bytes32": {
						"encoding": "inplace",
						"label": "bytes32",
						"numberOfBytes": "32"
					},
					"t_mapping(t_address,t_address)": {
						"encoding": "mapping",
						"key": "t_address",
						"label": "mapping(address => address)",
						"numberOfBytes": "32",
						"value": "t_address"
					},
					"t_mapping(t_address,t_bool)": {
						"encoding": "mapping",
						"key": "t_address",
						"label": "mapping(address => bool)",
						"numberOfBytes": "32",
						"value": "t_bool"
					},
					"t_mapping(t_bytes32,t_address)": {
						"encoding": "mapping",
						"key": "t_bytes32",
						"label": "mapping(bytes32 => address)",
						"numberOfBytes": "32",
						"value": "t_address"
					},
					"t_mapping(t_bytes32,t_bool)": {
						"encoding": "mapping",
						"key": "t_bytes32",
						"label": "mapping(bytes32 => bool)",
						"numberOfBytes": "32",
						"value": "t_bool"
					},
					"t_mapping(t_bytes32,t_struct(Message)1563_storage)": {
						"encoding": "mapping",
						"key": "t_bytes32",
						"label": "mapping(bytes32 => struct TokenBridge.Message)",
						"numberOfBytes": "32",
						"value": "t_struct(Message)1563_storage"
					},
					"t_mapping(t_bytes32,t_struct(RoleData)22_storage)": {
						"encoding": "mapping",
						"key": "t_bytes32",
						"label": "mapping(bytes32 => struct AccessControl.RoleData)",
						"numberOfBytes": "32",
						"value": "t_struct(RoleData)22_storage"
					},
					"t_struct(Message)1563_storage": {
						"encoding": "inplace",
						"label": "struct TokenBridge.Message",
						"members": [
							{
								"astId": 1556,
								"contract": "RUSD-Bridge-MaalChain/TokenBridge.sol:TokenBridge",
								"label": "recipient",
								"offset": 0,
								"slot": "0",
								"type": "t_address"
							},
							{
								"astId": 1558,
								"contract": "RUSD-Bridge-MaalChain/TokenBridge.sol:TokenBridge",
								"label": "tokenAddress",
								"offset": 0,
								"slot": "1",
								"type": "t_address"
							},
							{
								"astId": 1560,
								"contract": "RUSD-Bridge-MaalChain/TokenBridge.sol:TokenBridge",
								"label": "value",
								"offset": 0,
								"slot": "2",
								"type": "t_uint256"
							},
							{
								"astId": 1562,
								"contract": "RUSD-Bridge-MaalChain/TokenBridge.sol:TokenBridge",
								"label": "nonce",
								"offset": 0,
								"slot": "3",
								"type": "t_uint256"
							}
						],
						"numberOfBytes": "128"
					},
					"t_struct(RoleData)22_storage": {
						"encoding": "inplace",
						"label": "struct AccessControl.RoleData",
						"members": [
							{
								"astId": 19,
								"contract": "RUSD-Bridge-MaalChain/TokenBridge.sol:TokenBridge",
								"label": "hasRole",
								"offset": 0,
								"slot": "0",
								"type": "t_mapping(t_address,t_bool)"
							},
							{
								"astId": 21,
								"contract": "RUSD-Bridge-MaalChain/TokenBridge.sol:TokenBridge",
								"label": "adminRole",
								"offset": 0,
								"slot": "1",
								"type": "t_bytes32"
							}
						],
						"numberOfBytes": "64"
					},
					"t_uint256": {
						"encoding": "inplace",
						"label": "uint256",
						"numberOfBytes": "32"
					}
				}
			},
			"userdoc": {
				"kind": "user",
				"methods": {},
				"version": 1
			}
		}
	}
}